:020000040800F2
:100000000000022061400008511C0008551C000837
:10001000591C00085D1C0008611C0008000000005D
:10002000000000000000000000000000651C000847
:10003000691C0008000000006D1C0008711C00080D
:10004000B1400008B1400008B1400008B1400008CC
:10005000B1400008B1400008B1400008B1400008BC
:10006000B1400008B1400008B1400008B1400008AC
:10007000B1400008B1400008B1400008B14000089C
:10008000B1400008B1400008B14000088D1C0008D4
:10009000811C0008991C0008B1400008B14000080C
:1000A000B1400008B1400008B1400008B14000086C
:1000B000B1400008B1400008B1400008B14000085C
:1000C000B1400008B1400008B1400008B14000084C
:1000D000B1400008B1400008B1400008B14000083C
:1000E000B1400008B1400008B1400008B14000082C
:1000F000B1400008B1400008B1400008B14000081C
:10010000B1400008B1400008B1400008B14000080B
:10011000B1400008B1400008B1400008B1400008FB
:10012000B1400008B1400008B1400008B1400008EB
:10013000B1400008B1400008B1400008B1400008DB
:10014000B1400008B1400008B1400008B1400008CB
:10015000B1400008B1400008B1400008B1400008BB
:10016000B1400008B1400008B1400008B1400008AB
:10017000B1400008B1400008B1400008B14000089B
:10018000B1400008B1400008B1400008B14000088B
:10019000B140000800000000B1400008B140000874
:1001A000B1400008B1400008B1400008B14000086B
:1001B000B1400008B1400008B1400008B14000085B
:1001C000B1400008B1400008B1400008B14000084B
:0801D000B1400008B140000835
:100200000348044B834202D0034B03B118477047A5
:100210006001002060010020000000000548064B3E
:100220001B1AD90F01EBA301491002D0034B03B1F4
:1002300018477047600100206001002000000000A6
:1002400010B5064C237843B9FFF7DAFF044B13B11E
:100250000448AFF300800123237010BD600100202B
:1002600000000000D8A2000808B5044B1BB10449E7
:100270000448AFF30080BDE80840CFE7000000006D
:1002800064010020D8A200080CB410B59CB01EABCD
:10029000029106916FF0004104910791084953F8CB
:1002A000042B0591002402A901931B9400F06EF920
:1002B000029B1C701CB0BDE8104002B0704700BF2C
:1002C0000802FFFF0EB430B59CB06FF000411FABC9
:1002D000049107910A4953F8042B029000240690D8
:1002E000084D0868019302A905951B9400F04EF98A
:1002F000029B1C701CB0BDE8304003B0704700BFCB
:10030000000000200802FFFF80EA0102844612F08C
:10031000030F4FD111F0030F32D14DF8044D11F0FE
:10032000040F51F8043B0BD0A3F101329A4312F0B1
:10033000803F04BF4CF8043B51F8043B16D100BF8A
:1003400051F8044BA3F101329A4312F0803FA4F11B
:1003500001320BD14CF8043BA24312F0803F04BFA2
:1003600051F8043B4CF8044BEAD023460CF8013B0F
:1003700013F0FF0F4FEA3323F8D15DF8044B7047B9
:1003800011F0010F06D011F8012B0CF8012B002AF7
:1003900008BF704711F0020FBFD031F8022B12F0E6
:1003A000FF0F16BF2CF8022B8CF8002012F47F4FA1
:1003B000B3D1704711F8012B0CF8012B002AF9D1A9
:1003C000704700BF2DE9F0478F681D46AF420B68AC
:1003D0000C46164636D8B1F90CC01CF4906F0ED1FD
:1003E0003D46184631462A4600F0EAFBA368DF1B6B
:1003F0002368A7602B4400202360BDE8F0874A698A
:10040000096902EB42025F1A02EBD2726B1C5210B6
:100410003B44934292BF914699461A461CF4806F22
:10042000804611D0114600F0EDFA824600B32169F2
:100430003A4600F095FCA38923F4906343F08003CF
:10044000A38105E02F46CCE700F024FD824658B199
:100450000AEB0703A9EB0707A760C4F810A0C4F8CC
:10046000149023602F46BCE72169404600F04AFB08
:10047000A3890C2243F04003C8F800204FF0FF305E
:10048000A381BAE72DE9F04F9368176883B09246CD
:10049000002B74D04FF0000B8B680A6881460C4625
:1004A0005D4645E0B4F90C3013F4906F2CD0D4E9DC
:1004B0000401161A01EB410202EBD272711C5210B8
:1004C0002944914292BF904688460A465B0539D539
:1004D0001146484600F096FA019000283DD0324679
:1004E000216900F03DFCA289019B22F4906242F058
:1004F0008002A2819819A8EB0606A660C4F81480B1
:1005000023612060A8462E463246594600F058FB2B
:10051000DAF80810A3682268A3EB08033244491BE9
:10052000A3602260CAF8081049B3D7E900B50837BC
:1005300098461046002DF8D09D421E46B2D2A846DD
:100540002E46E1E70146484600F0A4FC0346002899
:10055000D0D12169484600F0D5FAA3890C2243F096
:100560004003C9F800204FF0FF30A3810022002390
:10057000CAF80820CAF8043003B0BDE8F08F0020A4
:100580000023CAF8043003B0BDE8F08F2DE9F04F26
:100590001C468B891D069DB088468146934603D52F
:1005A0000B69002B00F0F1800023099343F2200334
:1005B000ADF829309BF800307D4D03940126002BC7
:1005C00073D0DA4603E01AF8013F002B75D0252BD3
:1005D000F9D1BAEB0B0473D19AF80020002A64D049
:1005E00000234FF0FF32CDE905230AF1010A0493FD
:1005F00007938DF853301A9305E0049A06FA03F333
:100600001A430492A2465446052214F8011B2846B8
:1006100000F056FBA346431B0028EED1049BD806EE
:1006200044BF20228DF8532019079AF8001044BFC8
:100630002B228DF853202A2950D1039A11680432B5
:10064000002903927CDB07919AF801102E295BD0D8
:10065000584C0322204600F033FB38B1049B001BAA
:100660004022824013430BF1010B04931BF8011B42
:1006700051488DF82810062200F022FB002865D092
:100680004E4B002B55D003AA00924D4B424604A975
:100690004846AFF3008007467A1C06D0099B3B44CE
:1006A00009939BF80030002B8BD1B8F80C305B0617
:1006B0007AD409981DB0BDE8F08FBAEB0B04F4D0E2
:1006C00023465A4641464846FFF77CFE0130ECD0AF
:1006D000099B9AF80020234409937FE7A1F1300297
:1006E000092A88BFD346B1D8079B00E0013421789E
:1006F00003EB830302EB4303A1F13002092AF5D98E
:100700002E290793A346A3D19BF801102A2927D1AC
:10071000039B9BF802101A6805920433002A0BF120
:1007200002000393B8BF4FF0FF338346B8BF059371
:100730008EE7039B073323F0070308330393ADE7EA
:10074000494243F00203079104937DE703AA009214
:100750001B4B424604A9484600F060FC07469BE755
:10076000A1F130020023092A05930BF1010B3FF69A
:100770006FAF1BF8011F03EB830302EB4303A1F1EF
:100780003002092AF5D9059362E7402100F03AF9D1
:10079000C8F80000C8F8100018B14023C8F8143099
:1007A00002E70C23C9F800304FF0FF3082E700BFAA
:1007B000ACA50008B4A50008B8A50008000000001A
:1007C000C503000870B50F4B0F4DAB42A3EB0506F8
:1007D00007D0B610002455F8043B01349847A642D0
:1007E000F9D809F079FD094D094B5E1BAB424FEA80
:1007F000A60606D0002455F8043B01349847A642CB
:10080000F9D870BD18A6000818A6000818A6000898
:100810001CA600080000000000000000000000000E
:1008200000000000000000000000000000000000C8
:1008300000000000000000000000000000000000B8
:1008400030B490F800F020F007016FF0000C10F0C9
:10085000070491F820F040F048804FF000046FF05A
:100860000700D1E9002391F840F000F1080082FA76
:100870004CF2A4FA8CF283FA4CF3A2FA8CF34BBB41
:10088000D1E9022382FA4CF200F10800A4FA8CF2BA
:1008900083FA4CF3A2FA8CF3E3B9D1E9042382FA88
:1008A0004CF200F10800A4FA8CF283FA4CF3A2FA9D
:1008B0008CF37BB9D1E9062301F1200182FA4CF2D5
:1008C00000F10800A4FA8CF283FA4CF3A2FA8CF33C
:1008D000002BC6D0002A04BF04301A4612BAB2FA5E
:1008E00082F200EBD20030BC7047D1E9002304F063
:1008F0000305C4F100004FEAC50514F0040F91F898
:1009000040F00CFA05F562EA05021CBF63EA050334
:1009100062464FF00004AAE7830730B547D0541E63
:10092000002A3ED0CAB2034601E0013C39D303F8A5
:10093000012B9D07F9D1032C2CD9CDB205EB052550
:100940000F2C05EB054535D9A4F1100222F00F0C50
:1009500003F1100EE6444FEA121C1A46C2E9005594
:10096000C2E9025510327245F8D10CF1010214F0BF
:100970000C0F03EB021204F00F0C13D0ACF10403C4
:1009800023F003030433134442F8045B9342FBD186
:100990000CF003042CB1C9B21C4403F8011BA342A0
:1009A000FBD130BD64461346002CF4D1F9E7034671
:1009B0001446C0E71A46A446E0E700BF70B5104EE3
:1009C000336805460C46B3B12146284600F056FE72
:1009D000431C0CD0C41C24F00304A04205D0211AEF
:1009E000284600F04BFE013001D0204670BD4FF08C
:1009F000FF34204670BD194600F040FE3060E3E74A
:100A00007C0100202DE9F843CD1C25F003050835B5
:100A10000C2D38BF0C25002D064618DBA94216D830
:100A2000DFF8DC8000F03CFCD8F80420A2B11446CA
:100A300003E0636822467BB11C4623685B1BF8D445
:100A40000B2B1FD89442636854D053600CE00C23E6
:100A500033600020BDE8F88329463046FFF7AEFF3B
:100A6000431C044619D00560304600F01BFC04F11D
:100A70000B00231D20F00700C21A1CBF1B1AA35035
:100A8000BDE8F88361199442256014BF5160C8F82D
:100A90000410635163684B60E6E7D8F804701FB335
:100AA0003C467F68002FFBD123683946304604EB73
:100AB000030900F0E3FD814516D12368ED1A2946AC
:100AC0003046FFF77BFF01300ED02368D8F80420B2
:100AD0002B442360536883B1A34203D01A465B685A
:100AE0009C42FBD10023B0E70C233360304600F07A
:100AF000D9FBAEE7C8F80430B6E7C8F80470B3E72E
:100B00007C010020002950D038B551F8043C0C1F5E
:100B1000002BB8BFE418054600F0C2FB274A136853
:100B20002BB1A3420CD92168601883422CD063609A
:100B300028461460BDE8384000F0B4BBA3420FD88B
:100B40001A465B68002BF9D111685018844217D0FF
:100B50002CD3636054602846BDE8384000F0A2BB47
:100B600011685018A04214D020D821686018834220
:100B7000EFD118685B680844C4E900035460EAE7F1
:100B800023680B441360E6E718685B68084420603C
:100B9000CDE720680144501883421160DBD1D3E9CE
:100BA00000040144C2E90014D5E770470C232B6010
:100BB0002846BDE8384000F075BB00BF800100202A
:100BC00088420ED98B1883420BD900EB020C002A05
:100BD0006ED0624613F801CD02F801CD9942F9D1E9
:100BE00070470F2A0FD8034602F1FF3C002A5FD05E
:100BF0000CF1010C013B8C4411F8012B03F8012F7F
:100C00006145F9D1704740EA01039B0751D1A2F138
:100C1000100370B501F1200C23F00F0501F1100E47
:100C200000F11004AC441B095EF8105C44F8105C41
:100C30005EF80C5C44F80C5C5EF8085C44F8085CF8
:100C40005EF8045C44F8045C0EF1100EE64504F115
:100C50001004E9D1013312F00C0F01EB031102F083
:100C60000F0400EB031328D0043C24F003064FEAE2
:100C7000940C1E441C1F8E465EF8045B44F8045F0F
:100C8000B442F9D10CF1010402F0030203EB840336
:100C900001EB840102F1FF3C4AB10CF1010C013B74
:100CA0008C4411F8012B03F8012F6145F9D170BD77
:100CB000704702F1FF3C03469AE72246EAE700BF8D
:100CC00001F0FF01102A2BDB10F0070F08D010F8FD
:100CD000013B013A8B422DD010F0070F42B3F6D101
:100CE000F0B441EA012141EA014122F007047FF01A
:100CF00000070023F0E80256083C85EA010586EA71
:100D0000010685FA47F5A3FA87F586FA47F6A5FAAC
:100D100087F68EB9EED1F0BC01F0FF0102F00702B8
:100D200032B110F8013B013A83EA010313B1F8D163
:100D30000020704701387047002D06BF3546033844
:100D4000073815F0010F07D1013015F4807F02BF7D
:100D5000013015F4C03F0130F0BC0138704700BFCE
:100D6000844641EA000313F003036DD1403A41D3B6
:100D700051F8043B40F8043B51F8043B40F8043B75
:100D800051F8043B40F8043B51F8043B40F8043B65
:100D900051F8043B40F8043B51F8043B40F8043B55
:100DA00051F8043B40F8043B51F8043B40F8043B45
:100DB00051F8043B40F8043B51F8043B40F8043B35
:100DC00051F8043B40F8043B51F8043B40F8043B25
:100DD00051F8043B40F8043B51F8043B40F8043B15
:100DE00051F8043B40F8043B51F8043B40F8043B05
:100DF000403ABDD2303211D351F8043B40F8043BA5
:100E000051F8043B40F8043B51F8043B40F8043BE4
:100E100051F8043B40F8043B103AEDD20C3205D3B4
:100E200051F8043B40F8043B043AF9D2043208D0AC
:100E3000D2071CBF11F8013B00F8013B01D30B881E
:100E400003806046704700BF082A13D38B078DD0FC
:100E500010F003038AD0C3F10403D21ADB071CBFCE
:100E600011F8013B00F8013B80D331F8023B20F838
:100E7000023B7BE7043AD9D3013A11F8013B00F871
:100E8000013BF9D20B7803704B7843708B788370F9
:100E9000604670472DE9F041144641B30AB3064657
:100EA0000D4600F0FDFB8442074602D8B4EB500F1C
:100EB00013D821463046FFF7A5FD804650B1BC420D
:100EC0002246294628BF3A46FFF74AFF29463046C0
:100ED000FFF718FE4046BDE8F081A8464046BDE851
:100EE000F081A046FFF70EFE4046BDE8F081BDE868
:100EF000F0411146FFF786BD2DE9F84F92461F4697
:100F00000A698B68DDF828909A42B8BF1A46CAF879
:100F1000002091F843300C46064613B10132CAF85E
:100F20000020226891065FD5DAF800300233CAF853
:100F30000030226812F0060F11461DD1E168994277
:100F4000D8BF114618DD4FF0000804F1190B05E079
:100F5000E568DAF80030ED1A45450CDD01235A4604
:100F600039463046C847013008F10108F0D14FF04A
:100F7000FF30BDE8F88F216894F84330003B18BF7C
:100F800001238A060AD5E1185A1C302081F8430053
:100F9000224494F8451082F84310023304F14302CE
:100FA00039463046C8470130E1D02368DAF80050AE
:100FB000216903F00603042BD4E902201BD08A42E6
:100FC00020DD4FF00008521A90441A34002501E049
:100FD000454517DA0123224639463046C8470130D5
:100FE00005F10105F4D1C2E712F0060F0DD0003B68
:100FF00018BF0123D2E7401B8A4220EAE078E2DCF6
:101000000028E2DC0020BDE8F88FE168DAF8003063
:101010009942D8BF114696DCAEE700BF2DE9F047F4
:10102000174684B00A7E0C9D0C460646984601F190
:10103000430C002A35D0A2F15803D9B2202969D82F
:10104000202B67D8DFE813F0E60066006600660034
:101050006600660066006600660066006600AC001A
:10106000700066006600660066007000660066003C
:101070006600660021008300C60066006600B600B8
:101080006600830066006600EC002B6822686169D8
:10109000181D286010061B6802D4520600F1E0807B
:1010A00019600023E1462361CDF800803B4603AA86
:1010B00021463046FFF720FF013020D023694A4601
:1010C00039463046C047013019D02368E068DDF862
:1010D0000C909B0718D5484516DD002504F1190A28
:1010E00004E0E068A0EB0903AB420DDD01235246AA
:1010F00039463046C047013005F10105F1D14FF0C6
:10110000FF3004B0BDE8F0874845B8BF484604B09A
:10111000BDE8F08784F84220012004F14209002351
:10112000206184F84330BFE72A682368111D180640
:10113000296002D4590600F1958010680146002804
:101140006268C0F2938054484FF00A0E15E02068A0
:101150002B6810F0800F53F8041B02D1400648BFE3
:1011600089B26F2A4C482B6014BF4FF00A0E4FF023
:10117000080E0023626884F84330002AA26051DB25
:10118000236823F00403236000294BD1002A7BD17C
:10119000E146BEF1080F56D0ACEB0903236183E7AB
:1011A0002B681A6804332B6004F1420984F842204A
:1011B0000120B4E72B686268191D2960D3F80090FC
:1011C00000214846FFF77CFD002863D0A0EB090012
:1011D0006060A4E7236843F02003236078222F484F
:1011E00084F845202A6813F0800F52F8041B03D1BD
:1011F00013F0400F18BF89B22A60DA0744BF43F0EA
:101200002003236019B9236823F0200323604FF0E3
:10121000100EAEE7582384F845301F482368E1E7F5
:101220002368DBE77546E146B1FBF5F305FB131ACE
:101230000A46AA4210F80A1009F8011D1946F3D20D
:10124000BEF1080FA8D12368DD07A5D56268236920
:101250009A42A1DC302309F8013C09F1FF399BE7F0
:1012600019801EE7B2F90010084668E72D20002A11
:10127000A26084F8430002DB23F0040323600A2504
:1012800005484942AE46CEE7037884F8423004F17F
:1012900042097EE7606842E7C0A50008D4A50008BF
:1012A000704700BF704700BF002A3ED030B584466B
:1012B0000446084380070B462ED1032A07D82BE0AB
:1012C000043A25D01EF0803F22D1032A22D920687B
:1012D000194653F8045BA0F1013EA842A4462EEA49
:1012E000000E04F10404EBD09CF800000C7884425A
:1012F0001DD1E64668B11EF8010F11F8014FA2EBAF
:101300000E03A04203F1FF3311D11CEB0303F1D113
:10131000002030BDA44619469CF800000C78A0427D
:1013200005D1012AF4D0E646E4E710467047001BD9
:1013300030BD00BF00000000000000000000000001
:1013400002780B78012A28BF9A4240F0D8806DE9D4
:10135000044540EA0104CDE902676FF0000C4FEA52
:1013600044721AB380EA010414F0070F6BD100F045
:10137000070420F0070004F0030521F007014FEAFD
:10138000C505F0E8042314F0040FF1E804670CFA33
:1013900005F462EA040266EA04060BD063EA040379
:1013A000624667EA0407664604E000BFF0E80423EB
:1013B000F1E8046782FA4CF582EA0604A4FA8CF498
:1013C0006CBB83FA4CF583EA0705A5FA8CF595B951
:1013D00050E9022351E9026782FA4CF582EA0604D9
:1013E000A4FA8CF483FA4CF583EA0705A5FA8CF588
:1013F0002543DBD09CB92DBAB5FA85F424F0070457
:1014000027FA04F1DDE9026723FA04F303F0FF0091
:1014100001F0FF01FDE80445A0EB0100704724BA8C
:10142000B4FA84F424F0070426FA04F1DDE9026733
:1014300022FA04F202F0FF0001F0FF01FDE804458A
:10144000A0EB0100704714F0030F3CD110F003042F
:1014500028D150F8082B51F8083B82FA4CF582EA63
:101460000305A5FA8CF55DB950F8042C51F8043C3D
:1014700082FA4CF582EA0305A5FA8CF5002DE8D036
:101480002DBAB5FA85F424F0070423FA04F122FA00
:1014900004F202F0FF0001F0FF01FDE80445A0EBBB
:1014A000010070474FEAC40420F0030050F8082BF5
:1014B00021F0030151F8083B0CFA04F462EA04023B
:1014C00063EA0403C9E710F003041DD0A1EB040193
:1014D00020F00300E40750F8042B06D012D28B78DA
:1014E0005FFAA2F4E41A06D12BB1CB785FFAB2F41A
:1014F000E41A00D133B920465DF8104B7047A2EBD7
:101500000300704701F1040150F8042BCC0721F0CF
:10151000030151F8043B48D824D222F07F4482FAD8
:101520004CF594EA1325A5FA8CF50AD165B951F862
:10153000043B84EA0204B4EB036F0ED150F8042B91
:10154000EBE74FEA132355E035F07F454DD108789E
:10155000FDE80445C0F1000070474FEA126203F055
:10156000FF0347E002EA1C4482FA4CF594EA134573
:10157000A5FA8CF50AD165B951F8043B84EA020456
:10158000B4EB034F0CD150F8042BEBE74FEA1343B5
:1015900030E015EA1C4528D10B884FEA124229E0B9
:1015A0004FEA124203EA1C4324E002F0FF0482FAED
:1015B0004CF594EA1365A5FA8CF50AD165B951F892
:1015C000043B84EA0204B4EB032F09D150F8042B46
:1015D000EBE74FEA13630DE015F0FF0F05D10B6841
:1015E0004FEA122223F07F4304E04FF00000FDE8B1
:1015F0000445704712BA1BBA82FA4CF482EA03041B
:10160000A4FA8CF5B5FA85F402FA04F203FA04F3AD
:101610004FEA1260FDE80445A0EB1360704700BF7D
:10162000032A30B415D941EA0004A40784460B46C6
:1016300004D0541E0FE0043A032A08D91946604624
:1016400053F8044B5CF8045BA542F4D0F1E7604624
:101650001946541E7AB1431E0139021901E09A421B
:1016600009D013F8010F11F801CF6045F7D0A0EBB6
:101670000C0030BC7047002030BC704738B5074DB7
:101680000022044608462A6000F012F8431C00D0ED
:1016900038BD2B68002BFBD0236038BDC002002072
:1016A00051F8043C181F002BBCBF0B58C0187047E2
:1016B000044A05491368002B08BF0B461844106004
:1016C00018467047C4020020907500202DE9F047AD
:1016D00000F06CF900B9FEE701F0C4FB0028FAD075
:1016E00002F028FA0028F6D003F0CCFB00F030FB23
:1016F00001F01AFE02F0DEFC00241F4DDFF87C80B2
:101700001F4EA146012702F0E1FB30B101F0EAFBD8
:101710002F7002F0DBFB0028F8D12B78FBB128708A
:1017200088F8009001F002FC04F0DEF882460146E1
:10173000204601F0CFFC5146204603F0C5FB514640
:10174000204603F03FFB5146204601F077F833680E
:10175000AAEB0303632B07D884F00104D3E798F8BE
:101760000030002BE0D0DBE7C6F800A000F0D4FD8D
:10177000504601F09DFDEFE7C80200205000002018
:10178000CC020020024B4FF000629A60704700BF0D
:1017900000ED00E01B4B00B5986D40F0020098652D
:1017A0009B6D95B003F0020344220021009303A82F
:1017B000009BFFF7B1F8144B144A1B681449A2FBB5
:1017C00003239B0C013B4FF0FF3201A8CDE901132D
:1017D000049207F009FF18B1002015B05DF804FB72
:1017E00001A807F0A1FF0028F6D102460146152006
:1017F00004F0B0F8152004F0E9F8012015B05DF808
:1018000004FB00BF001002405400002083DE1B4395
:1018100000040040024A136801331360704700BFA0
:10182000D00200200249034A00234B621360704734
:1018300000040040D002002008B504F071F840F226
:101840006943984207D940F27943C01AB0FA80F050
:101850004009400008BDB0F58D6F34BF0020012065
:10186000400008BD014B1868704700BFD40200203B
:10187000014B1868704700BFD002002010B58EB031
:1018800004463422002101A8FFF746F801A805F01C
:10189000DBFA022C15D0032C0BD0012C19D1079B9D
:1018A00003F4E063B3F5806F0CBF022001200EB09B
:1018B00010BD079B13F0806F0CBF022001200EB0FB
:1018C00010BD079B13F0806F14BF022001200EB0E3
:1018D00010BD00200EB010BD30B58FB0044601F031
:1018E00065F910B134200FB030BD04F019F840F2A2
:1018F0006943984204D8B0F58D6F05D23620F2E7DF
:1019000040F279439842F9D13422002101A8FFF72F
:1019100003F801A805F098FA022C3AD0032C30D035
:10192000012CEBD1079B03F4E063B3F5806F26D065
:101930004FF480653022002102A8FEF7EDFFCDE9CB
:101940000645194B042201929A694CF2FA3142F091
:1019500070429A61196104F029FF10BB04F046FF40
:10196000F8B901A805F060F8044604F053FF0546F5
:1019700004F030FF2C4340EA0403DBB28BB90220B1
:10198000B1E7079B5B01FAD54FF4C4444FF00865FB
:10199000D0E7079B5A01F2D44FF4C4444FF0486596
:1019A000C8E73B209FE700BF00200240F0B5B7B07A
:1019B00003F076FF18B10024204637B0F0BD4A4D41
:1019C000AB6D43F08053AB65AB6D03F08053009378
:1019D0000446009B06F038FD2A6E012632432A6633
:1019E0002A6E1394324002230192CDE91863CDE9A7
:1019F0001A36CDE91D33019A1F934FF480724023AC
:101A0000CDE9152314231C930F220323CDE90623CC
:101A10000894149417944FF48063222412A8CDE9FB
:101A20000933129406F0E2FD0028C4D1082106A86B
:101A300007F058F80028BED10146502222A8FEF730
:101A40006BFF4FF440524FF0807321A821922F93E7
:101A500007F070F907460028ADD14FF00053CDE9EB
:101A60000C034BF67F330F930CA820231094119393
:101A70000E9707F08FFDEB6C3343EB64EB6C334058
:101A80000293029BEB6C43F00203EB64EB6C03F0FC
:101A900002030393039BEB6C43F00403EB64EB6CD6
:101AA00003F004030493049BEB6C43F02003EB640A
:101AB000EB6C03F020033A46394605934FF0FF30B4
:101AC000059B03F047FF4FF4805007F0BFFA074B28
:101AD0001860FFF75FFE044600283FF46CAF304605
:101AE000FFF7FAFE68E700BF00100240D4020020B2
:101AF000FF2818D80D4AB2F8E0100D4A4FF6FF73D0
:101B000099420ED00B490C4BD1F8E01503EA812322
:101B100003F100630130A3EBC020824288BF0020A4
:101B20007047064BF6E70020704700BF0075FF1FA7
:101B3000F0A200080070FF1F00FCFF03000008086F
:101B4000FF2842D82DE9F0413B4B0E46B3F8E01098
:101B50003A4B15464FF6FF72914286B02BD0384A69
:101B6000384CD2F8E02504EA822404F10064013004
:101B7000A4EBC024A34224D8B5F5FA6F21D823885A
:101B80004FF6FF72934208BF00239D4206D12A46BA
:101B90003146A01CFFF744FD00284AD02A4B9A6921
:101BA00042F070429A614CF2FA321A6104F0FEFD82
:101BB00068B1352006E0254C0130A4EBC024A342D7
:101BC000DAD93D2006B0BDE8F0813D20704704F130
:101BD0007843DB0A049300220123CDE9022301A903
:101BE000012302A8059304F04BFE0746E0B9F5B1C6
:101BF000C6F108083146B01C2A46A04405F1090484
:101C0000FEF7DEFFC4F3CC0426F8085903E00137E1
:101C1000BBB2A3420BD208EB06010020F6E9022377
:101C200004F00CFD0028F2D004F0D4FDC1E704F06C
:101C3000D1FD0220C6E700BF0075FF1FF0A200081B
:101C40000070FF1F00FCFF03002002400000080896
:101C5000FEE700BFFEE700BFFEE700BFFEE700BFF4
:101C6000FEE700BF704700BF704700BF704700BF6E
:101C700008B503F02DFEBDE8084003F0CFBE00BF5D
:101C8000014805F0CFBC00BF4C0D0020014805F015
:101C9000C9BC00BF4C0D002008B5002000F0DCFFDF
:101CA000BDE8084004F006BC70B516460546084677
:101CB0001C4601F071FBB6F1005F15D0049B73B1B7
:101CC000B4B91E23C200102894BF02F11A0102F118
:101CD0001E01059AB2F5801F0DD0C81870BDC20054
:101CE0002CBB02F12F0070BD3CB3B4F1804F26D065
:101CF0003123C200E7E7D5E959201044D5F8602127
:101D000000FB0222104800FB02F2D5E955042044F2
:101D10000130B2FBF0F20D48D5F85041B2FBF4F2BD
:101D200001FB02F2A0FB020203EB924070BDB4F192
:101D3000804F06D102F1430070BD2F2070BD4320BB
:101D400070BD3123BFE700BF40420F0083DE1B435D
:101D50002D4B2DE9F04F9A6D2C4CDFF8B4A0DFF835
:101D6000B490DFF8B4802D4FDFF8B4B042F00072C9
:101D70009A659B6D87B003F0007300930025009B6C
:101D80002E46F0220021C4E95E66C4F85061C4F812
:101D90006061C4F88C61C4F89C6184F8706184F857
:101DA000906204F5D070FEF7B7FD284603F070F896
:101DB0005AF8042B1B49002A4FF0010009DB02905E
:101DC00051F82500019201A9CDE90366059605F0B9
:101DD00047F959F8041B18F8012B019102230592C9
:101DE00057F8040B0293032201A9CDE9036205F021
:101DF00037F95BF8042B226004F525740DB9012531
:101E0000BFE707B0BDE8F08F00100240D802002005
:101E1000580000206C0000206800002074000020A2
:101E20007C000020600000202DE9F043A54C4FF419
:101E3000257303FB004383B093F87021002A40F020
:101E40008780D3F85031002B7ED094F8703105464E
:101E50000F4683B994F804346BB903F1804303F55A
:101E600004339A6B42F000729A639A6B22F000720C
:101E70009A63FFF7D7FC284603F00AF8284600F0DB
:101E8000F3FE0021084601F099F80021012001F03D
:101E900095F88D4A4FF4257305FB03F3525DE61860
:101EA00002F00102327403F5BC710122B2746018B1
:101EB000002272607274F263F7606758406803F141
:101EC00030012144C1E90170B26003F5A872A11884
:101ED000D1E9017054F802C0C96810332344C3E942
:101EE00001C1C3E90370D6F86031002B40F0858052
:101EF000FFF7B8FC754B984222D94FF4257305FBC8
:101F000003F3E61803F5B872D6E955311944D6F84B
:101F100050316F4F01FB03336E494FF47A7CA1FBC4
:101F200000100021800C0CFB03F3B3FBF0F33046F0
:101F3000C6F88431B95286F8711103F075FD58B1B5
:101F4000352003B0BDE8F0833A2003B0BDE8F0834C
:101F5000342003B0BDE8F0830146304603F07EFF35
:101F60000028EDD10221304603F08CFF0028E7D194
:101F700001221021304604F0F7F90028E0D1024692
:101F80004FF46041304604F005FA07460028D7D1E7
:101F9000304603F0AFFFD6F86031C6F8947173B1E4
:101FA000D6E959210A4402FB033332214A4A03FB92
:101FB00001F1A2FB012149094B1E3E2B71D94FF4BF
:101FC000257305FB03F3E218D2E95E1201EB020967
:101FD000B9F1000F46DD6433E7184FF0000805E063
:101FE00008F10108C14507F118073BD039463046D2
:101FF00003F0E6FE0028F3D0A2E7FFF733FCD6E9B2
:1020000059C1D6F85031D6F860E1B0FBFEF70CEBC1
:1020100001020132B7FBF2F79BB9BB422CBF4FF470
:1020200080774FF440774FF4257303FB0543D3F8D3
:102030006C219F60C3F824E0C3F82CC019639A6236
:1020400056E7FFF70FFCD6E9553213445A1CD6E980
:1020500058ECD6F85031D6F86811B0FBF3F3B3FB67
:10206000F2F3DAE74FF4257303FB0544D4E95E325B
:10207000D34214BF012200220023114600933046B0
:1020800003F0CAFE304603F047FF014600287FF404
:1020900057AF284600F0C0FF0123022084F87031BA
:1020A00053E73A463046C6F8941103F0FFFE002885
:1020B0007FF446AF304603F00BFF00283FF47FAFBC
:1020C0003EE700BFD8020020000800203F420F007A
:1020D000DB02002083DE1B431F85EB5138B5284C03
:1020E00094F870311BB3204603F02EFF204603F016
:1020F000E9FD002500200021C4E95E01F022294607
:1021000004F5D070C4F85051C4F86051C4F88C5133
:10211000C4F89C5184F8705184F89052FEF7FCFB8F
:10212000284602F0B5FE0121284600F075FF94F81C
:10213000043403B938BD134803F006FF114803F017
:10214000C1FD1148002140F8041CF0222430C4F8DD
:10215000E413C4F8F413C4F81014C4F82014C4F839
:10216000301484F8041484F82415FEF7D5FB0120FC
:1021700002F08EFE0121BDE83840084600F04CBF59
:10218000D80200206C050020E8060020F8B5194FA1
:102190004FF4257400FB04F43D1995F8703103B930
:1021A000F8BD0646284603F0CFFE284603F08AFD18
:1021B00004F5BC730021C5F85011C5F86011F95041
:1021C0003B4404F5D07459603819F022C5F88C11DD
:1021D000C5F89C1185F8701185F89012FEF79CFBEC
:1021E000304602F055FE30460121BDE8F84000F0CF
:1021F00013BF00BFD80200202DE9F8432A4C4FF44A
:10220000257505FB00450646D5F860810F469146C9
:10221000B8F1000F13D1D5F85031FBB900237B6121
:102220004FF4257303FB06444A463946204603F023
:10223000FBFE30BB237C012B2AD0BDE8F883FFF7DF
:1022400011FBD5E9593213445A1CD5F85031D5F851
:102250006011B0FBF1F8B8FBF2F87BB1FFF702FBBD
:102260004FF4257101FB0641D1E955321A44013280
:10227000D1F85031B0FBF3F3B3FBF2F34345CFD3C6
:10228000CCE730460122BDE8F843022100F0FCBC57
:1022900003F02AFBD4F89C31C4F898010133C4F848
:1022A0009C31BDE8F88300BFD802002038B5174C38
:1022B0004FF4257303FB004494F870312BB1D4F82C
:1022C000383194F871210BB16AB138BD002AFCD0C5
:1022D00005460F4984F8713102F0ACFD2846BDE88F
:1022E000384000F0B3BD01230A4984F8713102F08F
:1022F000A1FD0721204603F0F9FE204603F024FE4D
:102300002046BDE8384003F007BE00BFD8020020D9
:1023100028A3000808A3000870B5234C94F8706146
:102320006EB30026D4F88C214AB3D4F890319A4287
:102330002ED8D4E9603101FB03F51C4B6D09A3FBDA
:102340000535ED0940F2654303FB05F5184BB5FB78
:10235000F2F59D4226D842F20F739D421CD894F8A4
:10236000885125B100252946304602F04FFD002353
:10237000C4F88031012384F88851C4F8903104F501
:10238000257426B994F870310BB10126CAE770BDE7
:102390000133C4F89031F2E7064BA3FB0535C5F3D2
:1023A0004735E0E76325DEE7D8020020C55A7C0AFE
:1023B0003F420F005917B7D138B54FF42575284C57
:1023C00005FB00F004EB000C9CF87051002D45D18A
:1023D000551E39B31F2D3FD8591E1F293CD80499CB
:1023E00001390F2938D8059901390F2934D8CCE99A
:1023F0005823049BCCF8683100F5B070059BCCF8ED
:102400006C310444FFF72EFAD4E9012515492368FD
:10241000B0FBF3F32A440132B3FBF2F38B421BD837
:10242000022038BDB5F5007F16D2591EFF2913D8FA
:10243000049901397F290FD8059901397F290BD8D3
:10244000CCE95423049BCCF8583100F5A870059BC7
:10245000CCF85C310444D5E73D2038BD342038BD8C
:10246000D802002000127A00354B1B5CDB063CD5FD
:102470002DE9F04F334D4FF4257303FB0053B3B0F8
:10248000DB68044603BB6E464FF4257704FB07F771
:1024900007F5A8722A442C49304600F08BFF3046DD
:1024A000FEF7CEF907F5B0722A443D44274930447F
:1024B00000F080FFD5F86071C7B93146204602F0C0
:1024C000B9FC33B0BDE8F08F013B032B96BF204A27
:1024D000204A52F8232020496E463046FDF7F2FE8E
:1024E0003146204602F0A6FCCEE770473046FEF7A4
:1024F000A7F9D5F850B1194DDFF864A0DFF8649062
:1025000006EB000E844600F111080FCD46F80C00D2
:10251000CEF80C302B88CEF80410CEF80820BB453E
:1025200014BF51464946AEF8103006EB0800FDF7DF
:10253000EBFE3146204602F07DFC33B0BDE8F08F63
:1025400000080020D802002074A300087CA3000823
:10255000E8A5000850A3000860A3000884A30008B1
:102560005CA3000858A300082DE9F041424C4FF449
:10257000257E0EFB00FE04EB0E05D5E95E7807EB29
:10258000080CBCF1070F1ADC002940F2FF7618BFD7
:102590006FF06046964212D39E4210D395F8705168
:1025A000CDB1BCF1010F07D1A8F10108B8FA88F844
:1025B0004FEA5818884505D03420BDE8F0813D2009
:1025C000BDE8F0810EF5BC7E002744F80E70A644ED
:1025D000BC46CEF804700CEB4C0CE1B14FF4257105
:1025E00000FB01F101EBCC0C2144A444CCE91D23F8
:1025F000D1F87C31CCF868300133C1F87C314FF030
:102600008043CCF8643002260123CCE91B63C5B9B2
:102610000220BDE8F0814FF4257600FB06F606EBBC
:10262000CC0CA4442644CCE91D23CCF868700222CB
:1026300001370123CCE91B23CCF86410C6F878716C
:10264000E5E74FF4257303FB00F02718D7E95E6335
:102650001E44002EDCDD64300444002504E0013516
:10266000AE4204F11804D3D02146384603F0A8FB4B
:102670000028F4D03520A3E7D80200204FF42573BA
:10268000074A03FB00F0131893F8703133B900F5D3
:10269000BC708118135002204B6070473420704783
:1026A000D802002038B59DF810C09DF814E0002B2A
:1026B00044D0884240D001293ED8BCF1000F069D8D
:1026C00040F2FF7418BF6FF06044AC4234D3079DF2
:1026D000AC4231D3132A2FD84FF42574204D00FB80
:1026E00004F402EB420204EB82022A4482F8A03195
:1026F00082F8A311DDE906311940C2F8A411079B45
:10270000C2F8A83105F1F00182F8A2C182F8A1E176
:102710002B19214493F8A02112B193F8A1411CB1C7
:102720000C338B42F6D100224FF4257303FB005388
:1027300083F89022022038BD3D2038BDFF2AC9D140
:1027400007494FF4257200FB02F28C1802F5D07293
:102750008818F022194684F89032FEF7DDF8E9E790
:10276000D8020020F0B54E688DB0A6F1804E00234F
:10277000BEFA8EFE15460C460A68ADF804304FEAE4
:102780005E1EADF8083000F1F00C02E00C30604540
:102790001AD090F8A031002BF8D090F8A2317345F0
:1027A000F4D1D0E9691313408B42EFD190F8A331F3
:1027B00090F8A111303301276B44002934D00C303C
:1027C000604503F8287CE4D1E36806934FF40003E6
:1027D000CDE903260A939DF80420A3682169059397
:1027E0000023154F07910B93A2B11E4602AA9B5CD2
:1027F0007BB997F8703163B1D7F86031C3B9069AE5
:10280000082A06D809932A4603A93046089302F0FD
:102810008DFC3EB99DF8053023B1012607F52577DB
:102820003346E3E70DB0F0BD012103F82C1CADE702
:10283000A36909936369E6E7D80200202DE9F04314
:10284000BD4D4FF4257600FB06F6AF19C1B097F8E1
:10285000703113B941B0BDE8F08304468846402288
:10286000002117A8FEF758F803A9384603F0EAFC40
:10287000F0B9B24B1B5D980703D50B9B002B40F0C2
:102880004F814FF4257303FB0453DA68002A00F0EC
:10289000A5804FF4257303FB04532046D3F89C21F5
:1028A000002AC4BF02F1FF32C3E9668200F0CAFB0E
:1028B00017AB0DAA4021384603F028FC002800F091
:1028C000F88017AB0DAA4121384603F01FFCE8B988
:1028D0004FF4257303FB045393F89032002B40F020
:1028E000B7804FF4257303FB0453D3F88C21002ADF
:1028F00040F08B804FF4257303FB04532046D3F83C
:1029000080111144C3F8801100F0C0FB4FF4257909
:1029100009FB04F955F809301A6DD10400F19E80C5
:102920001A6D520700F1A8801B6D9B0600F1B48060
:1029300006F59276A919384603F0D6FC4FF42573B4
:1029400003FB0453D3F89C21002A05DDD3F898211A
:1029500002F5FA72424564D94FF4257303FB045320
:1029600093F873211AB993F87021002A69D14FF4B2
:10297000257303FB045595F87431002B7FF46AAF7F
:10298000D5F89431002B3FF465AFD5F84C21934234
:10299000BFF460AF7E2A3FF65DAF012385F8743146
:1029A000FEF760FF664B98427FF654AFD5F894313E
:1029B000D5F84C21D21A634B4FF47A75A3FB001360
:1029C0009B0C614905FB02F227A8B2FBF3F2FDF76D
:1029D00079FC27A9204602F02DFA3BE7D3F88C01B9
:1029E00048B1089B0193099B00930699DDE90432E5
:1029F0003846FFF759F94FF4257303FB0453D3F816
:102A000080210244C3F8802143E7129B0193139B6A
:102A100000931099DDE90E323846FFF745F902467A
:102A200068E7002607213846C3F89C6103F05EFB87
:102A3000204602F02DFA32461021204600F024F9FB
:102A40008AE70122204683F87321FFF70DFD8EE708
:102A500017AA0DA93846FFF785FE42E7002202219A
:102A6000204600F011F955F809304FF480521A65EC
:102A70001A6D52077FF558AF00220121204600F061
:102A800003F94FF4257304FB03F30422EB581A6592
:102A90001B6D9B067FF54CAF00220121204600F004
:102AA000F3F84FF4257304FB03F32022EB581A6567
:102AB0003EE7FEF7DDFE149B17AA43EA00430DA98B
:102AC0002046149302F0AEFB4FF4257303FB04532E
:102AD00093F89032F3B94FF4257303FB0453D3F802
:102AE0008C2152B1129B0193139B00931099DDE945
:102AF0000E323846FFF7D8F802464FF4257303FB31
:102B000004532046D3F880111144C3F8801100F01B
:102B1000BDFAD6E617AA0DA93846FFF723FEDAE775
:102B2000FEF7A6FE0A9B03A943EA004320460A9348
:102B300002F05EFCA5E600BFD802002000080020DD
:102B40003F420F0083DE1B4398A3000838B50C4BAF
:102B500053F82030002B11DD0D460A4904462A4661
:102B600051F8200099B204F057FC074B4FF425723E
:102B700002FB0433012083F8725138BD002038BDB8
:102B80005800002060000020D8020020642908D8E6
:102B9000054B4FF4257202FB00330220C3F88C1161
:102BA00070473D20704700BFD8020020034B93F8C8
:102BB000700108B993F80404704700BFD8020020E0
:102BC000034B4FF4257202FB003393F870017047FA
:102BD000D8020020054B4FF4257202FB0033D3F8D6
:102BE0003001003818BF0120704700BFD802002014
:102BF000054B4FF4257202FB0033D3F86001003817
:102C000018BF0120704700BFD80200200A4B4FF4C4
:102C1000257202FB003090F870314BB1C368022B73
:102C200008D0D0F83831002B14BF3820022070476C
:102C30003320704739207047D802002008B5054B73
:102C40004FF4257202FB003003F088FB003818BFF8
:102C5000012008BDD8020020024B4FF4257202FB70
:102C600000307047D8020020064900EB800001EBDD
:102C70008002800000230B50C2E90133C2E9033314
:102C8000704700BF04080020094B00EB800000B52E
:102C90004FEA800E03EB800090F809C041EA0C0176
:102CA000417212B1012203F80E205DF804FB00BF4F
:102CB00004080020034A1421082301FB00301044BB
:102CC000704700BF040800202DE9F04F5D4B1B5CEE
:102CD0001B0793B004D40025284613B0BDE8F08F3D
:102CE00004460F46FFF76CFF05460028F3D0204648
:102CF000FFF7B2FF07A903F0F7FA2046FFF7ACFF92
:102D000003A903F019FB0B9B4F4E4FEA84082BB12C
:102D100004EB840306EB830310221A720A9A0C9BBD
:102D2000002A3AD1002B40D108EB040306EB8303C1
:102D30001A7A1AB99A7B0AB101225A7308EB040372
:102D400006EB8303039ADA729A7A049919736AB9C3
:102D5000089A12B1072A18BF9A72079B33B1072B42
:102D600004D008EB040206EB8202937208EB040322
:102D7000990016F8232006EB8309EAB10023735467
:102D8000A04406EB8806B068B389C6F80E00284652
:102D90007760738213B0BDE8F08F08EB040206EB96
:102DA000820220211172002BC8D008EB040306EB2D
:102DB000830330221A72C1E704EB840A4FEA8A0ABD
:102DC0000AF1080306EB030B06215846019300F0B5
:102DD000D3FA019B20B199F80D20002A3FF47BAF74
:102DE00008EB040206EB8202117A302925D008EBA9
:102DF000040206EB82025268BA1A632A7FF66BAFAE
:102E00000AF10E0AF15A36F80A309942B244B7D1A3
:102E1000BBF80210BAF8023099420BF1020B0AF12A
:102E2000020AADD1BBF80210BAF802309942A7D11C
:102E300040F6B7339A42A3D84DE7927B302A9FD110
:102E4000D5E700BF0008002004080020044A142130
:102E5000082301FB00308118002313508B8070473A
:102E6000040800202DE9F043002387B00122194C0B
:102E7000194F1A4E1A4DCDE90123CDE9033304F160
:102E8000080954F8043B002B694603DB38680093BB
:102E900004F0E6F82B68002BA846694603DB30688F
:102EA000009304F0DDF834F8041C57F8040B0122F9
:102EB00004F0B2FAB8F8001056F8040B012204F03E
:102EC000ABFA4C4505F10405DBD1012007B0BDE8A4
:102ED000F08300BF840000208C0000209C000020B4
:102EE00094000020F8B50D4F0D4E0E4D0E4C398854
:102EF0003068002204F090FA29882068002204F04B
:102F00008BFAB9887068002204F086FAA988606894
:102F10000022BDE8F84004F07FBA00BF8400002022
:102F20008C000020940000209C0000202DE9F0413E
:102F3000DFF878801E4F1F4E1F4D0824B8F8001090
:102F40003868012204F068FA31882868002204F009
:102F500063FAB8F804107868012204F05DFAB188C9
:102F60006868002204F058FA4B2002F0C3FCB8F85D
:102F700000103868002204F04FFA318828680122D6
:102F800004F04AFAB8F804107868002204F044FA11
:102F9000B1886868012204F03FFA4B2002F0AAFCD5
:102FA000631E13F0FF04C9D1BDE8F0818400002046
:102FB0008C000020940000209C00002070B5114E71
:102FC00006EB4016337F8B421AD004460D4631770C
:102FD00002F08AFC0C4B33F824100C4B503070611B
:102FE0002A4653F8240004F017FA094A094B32F82C
:102FF000241053F824002A46BDE8704004F00CBAAF
:1030000070BD00BF2C080020840000208C00002030
:10301000940000209C000020074B03EB40130A465D
:103020001B7F03B170470549054B31F8201053F859
:10303000200004F0F1B900BF2C080020940000200B
:103040009C00002038B50E4C04EB4014237F0BB9D4
:10305000636803B138BD054602F046FCE368C01A58
:103060002828F7D9074B084A53F8250032F82510CD
:10307000012204F0D1F902F037FC606038BD00BFD6
:103080002C0800209C00002094000020F8B50E4E73
:1030900006EB40152B7F13B94701F35903B1F8BD77
:1030A000044602F021FCAB68C01A2828F7D9074B68
:1030B000074A53F8240032F82410012204F0ACF936
:1030C00002F012FCF051F8BD2C0800208C0000200A
:1030D000840000202DE9F843574E06EB40150446C6
:1030E0002B7F884623B16B698B424DD9BDE8F883AD
:1030F0004701FFF7DFFD0378302B2ED02046FFF786
:10310000D9FD90F80190B9F1000F26D12B7C002B4E
:1031100061D1F359F51923B1F359A8EB03030F2B30
:103120006ED8F5196B6823B16B68A8EB03030F2BFE
:1031300074D82046FFF744FD0028D7D13E44337FA2
:10314000002BD3D13D4A3E4B32F8241053F82400D3
:103150000122BDE8F84304F05FB93A4B3A4A53F80C
:10316000240032F82410012204F056F9344B334A7B
:1031700053F8240032F824103744012204F04CF9AB
:1031800001233B74BDE8F883AB692C492C4831F826
:10319000241050F82400013303F00302A2F10102CD
:1031A000B2FA82F25209AB6104F036F9AA69254BF2
:1031B000254953F8240031F8241002F00302A2F14B
:1031C0000302B2FA82F2520904F026F96B69503315
:1031D0006B61BDE8F8831C4B33F82410194B4A4649
:1031E00053F8240004F018F9144B33F82410144B4E
:1031F0004A4653F8240004F00FF985F8109088E748
:10320000114B33F824100F4B002253F8240004F024
:1032100003F90023F351C5F8088082E7074B33F820
:103220002410074B002253F8240004F0F5F8002383
:10323000C5F80C806B607CE72C080020940000200F
:103240009C0000208C0000208400002008B5FEF7C0
:1032500045FF0320FEF712FB022802D1104B01228A
:103260001A700220FEF738FB022802D0362800D060
:1032700008BD0B4B1B7873B902F036FB094B186085
:10328000FEF7DAFA0138C0B2012806D8064B074A21
:103290001A60022008BD3C2008BD362008BD00BFD2
:1032A0006C08002070080020740800200000FF1F38
:1032B00070B51A4C23687BB3194B1B68C01AB0F564
:1032C000967F29D34FF0E02300251D615D619D614C
:1032D00072B64FF0FF32C3F88021C3F88022C3F8E2
:1032E0008421C3F88422C3F88821C3F88822C3F854
:1032F0008C21C3F88C2202F097FA05F017F9094ADD
:10330000236893601A6825605B6882F30888BFF3BE
:103310006F8FBDE87040184770BD00BF7408002073
:103320007008002000ED00E030B40B4A0B4B4FF466
:1033300000704FF48071C2E9000180208021C2E951
:1033400002012024202510201021C3E90045C3E9F3
:10335000020130BC704700BF8808002078080020B8
:10336000034A044B00280CBF10461846704700BFA4
:10337000880800207808002000290BDD0139431E51
:10338000084401E0834205D013F8012F002AF9D048
:103390000020704701207047082807D909380628FF
:1033A0009ABF034B18564FF0FF30704740B270473A
:1033B000F8A50008F0B5136885B00E46002B4FD075
:1033C0005368144692684FF47A7503FB055513440D
:1033D00001330746B5FBF3F5FEF744FAD4E90123C0
:1033E00023491A4401322368B0FBF3F3B3FBF2F331
:1033F0008B4215D8B3F57A7F25D21E4A1E4C009217
:103400003246A4FB0564E408019404EB8404A5EBB4
:1034100044051A4902953846FCF754FF05B0F0BD43
:10342000174A41F2C60103FB02F2B1EBB21F0AD305
:1034300001F1864101F5DE1101F6BD51A1FB033119
:10344000104A8B0CDAE7104A104903FB02F2B1EB89
:10345000F20FD2D30E490F4AA1FB03318B09CDE7FE
:103460000D49324605B0BDE8F040FCF72BBF00BF68
:103470003F420F0030A50008CDCCCCCC18A40008EA
:103480003961C26800A40008D578E926378941006F
:10349000D34D6210E8A3000804A4000870B50E68BC
:1034A00000241C6010F806C0ACF13005092D00EBBB
:1034B000060E0FD804EB84040CEB4404303C1C6073
:1034C00076461EF801CFACF13005092DF2D9C0F1D6
:1034D00001000644624501D0002070BD01360E6037
:1034E000012070BD2DE9F04100241C600E68069D8E
:1034F000013E2C60064411E0A4F1370C5FFA8CFC0D
:103500008EF800C01E682C68013624011E602C60F5
:103510009EF800C04CEA040476462C607478A4F14E
:10352000300C5FFA8CFCBCF1090F06F1010EA4F11E
:103530006107E5D9052FA4F14108A4F1570CDDD9A5
:10354000B8F1050FD8D9C0F10100A242064403D05A
:1035500000200E60BDE8F081013601200E60BDE85C
:10356000F08100BFF0B50024151E1C602EDD0A6836
:10357000A64612E05FFA8CFC82F800C01C680A685C
:1035800024011C6010F802C00EF1010E01324CEA59
:10359000040475451C600A6018D0845CA4F1300CEA
:1035A0005FFA8CFCBCF1090F0244A4F16106E3D977
:1035B000052EA4F14107A4F1570CDBD9052F03D840
:1035C000373C5FFA84FCD7E70020F0BD0120F0BD56
:1035D000092894BF30303730C0B2704730B5037817
:1035E00003F06003202B87B0044625D0402B23D066
:1035F00043B1802000F0D0FC002000F0CDFC002082
:1036000007B030BD4378092BF3D801A252F823F05C
:10361000773600089F360008F3350008BD360008ED
:10362000F3350008CF36000809370008F3350008E5
:103630003337000847360008994B20469B68984767
:10364000002007B030BD8078964C01282070D0D87B
:10365000954D95F89C32022B00F00681032B00F06B
:10366000F380802000F098FC002000F095FC20788A
:1036700000F080FAC3E78C4890F89C32013B022BA3
:10368000B7D8E1880229B4D1D0F8A032003B18BFE6
:1036900001235B0040F80C3F00F000FAAFE7824ADC
:1036A00092F89C32013B022BA3D84388012BA6D170
:1036B0000023C2F8A03200F021FAA0E74388012BD2
:1036C0009DD1794AC2F8A03200F018FA97E78388B2
:1036D000002B8ED1C388002B8BD143887F2B88D8B9
:1036E000714D95F89C22032A83D0DCB2204685F8E0
:1036F0009E4200F081FC00F001FA002C00F0CB802B
:10370000022385F89C327AE743881A0A022A00F0DD
:103710009180032A26D0012A7FF46BAFC388002B47
:10372000D2D062481221994228BF194600F0B6F95A
:1037300065E7C18801297FF45CAF5B4890F89C3253
:10374000022B08D8002B3FF454AF002340F8083F69
:1037500000F0A4F953E7032B7FF44BAF043000F0E3
:103760009DF94CE7DBB2032B3FF643AFDFE803F0F4
:103770005B4730024E4BD3F89015D3F89825D3F819
:1037800094350A4401A84B49FCF79CFD01A8FDF7BC
:1037900057F8411C484A9DF80400490089B20323A8
:1037A0001170537070B101AD02234FF0000CD05472
:1037B000581CC0B2023302F800C015F8010FDBB28A
:1037C0000028F4D1E388002B3FF47EAF3A48AAE703
:1037D000394A3A4840F23631118000255321D154FC
:1037E000591CC9B20233555410F8011FDBB200292D
:1037F000F5D13621E388002B3FF466AFE6E72E4A89
:103800002F4840F23A331380452102230025D1543A
:10381000591CC9B20233555410F8011FDBB20029FC
:10382000F5D13A21E6E7C388002B3FF44DAF254898
:10383000042178E72448E3888178002B3FF444AFE3
:1038400000293FF4DCAE6EE7E0B1686801283FF480
:103850003BAFC0B200F08EF92078686000F07EF9CE
:1038600002287FF431AFC4E600283FF42DAF0120D9
:103870000323686085F89C3200F070F902287FF419
:1038800023AFB6E6022385F89C32686000F072F937
:1038900000F034F9B3E6012385F89C32AFE600BFAF
:1038A00000010020980800209C0A0020EC00002065
:1038B0000070FF1F70A400089C08002054A400089A
:1038C00034A40008A4000020A800002010B503784C
:1038D0005A0604460BD503F06002402A07D0802028
:1038E00000F05AFB002000F057FB002010BD0A4BEF
:1038F00093F89C32013B022BF1D82379012BEED8AF
:10390000064B20469B689847E388002BEDD10028A2
:10391000EBD100F0F3F8E8E79C0A0020000100205A
:1039200038B50378828803F06003202B38D0402B11
:1039300036D03BB1802000F02FFB002000F02CFBA4
:10394000002038BD4378012BD4B23FD0032B2CD0BC
:10395000002BEFD13C4B93F89C1202294ED0032947
:10396000E8D104F00F01120601EB810155D403EBFD
:103970008101D1F85821002ADCD0142202FB043343
:1039800003F5AA75002C56D0204600F021FB002834
:1039900058D001232B600221284600F07FF8CFE7A2
:1039A0002A4B9B689847002038BD274B93F89C32E0
:1039B000022B1AD0032BBDD143889BB9650611D0C9
:1039C000C3887BB9204600F0E7FA0BE01E4B93F862
:1039D0009C32022B09D0032BACD14388002BAFD1F2
:1039E00061062BD100F08AF8AAE76006A2D0204633
:1039F00000F0D2FA802000F0CFFAA1E714F07F04A3
:103A000098D103F5AA7012F0800F03F1140318BFC8
:103A10001846046000F042F892E703EB81029269D5
:103A2000002A87D004F07F02013202EB8202802C50
:103A300003EB8205A8D100232B60ACE7204600F001
:103A4000B9FACFE72860A6E79C0A00200001002011
:103A50000B7803704B7843704B8843808B8883804E
:103A6000CB88C380704700BF08B5802000F094FA6F
:103A7000BDE80840002000F08FBA00BF054BD3F826
:103A80009015D3F89825D3F894350A440249FCF7E9
:103A900019BC00BF0070FF1F70A4000810B5064BD2
:103AA0000A46022401460020C3E90722C3F89442D3
:103AB00000F0B0FA002010BD9C0A002008B50A46AC
:103AC0000146002000F0A6FA002008BD10B5064B04
:103AD0000A46032401460020C3E95722C3F8944252
:103AE00000F0A8FA002010BD9C0A002008B50A4684
:103AF0000146002000F09EFA002008BD10B500220B
:103B0000044B042411461046C3F8944200F082FA94
:103B1000002010BD9C0A002010B50022044B052493
:103B200011461046C3F8944200F084FA002010BDFC
:103B30009C0A0020084B10B5012200241C7083F859
:103B40009C2200F0C9F908B1204610BD00F0FAF936
:103B5000B0FA80F0400910BD9C0A002008B5044B63
:103B60001B689847003818BF0120400008BD00BFFF
:103B70000001002008B5024B5B689847002008BD93
:103B800000010020014610B51448FFF761FF1448FA
:103B900090F8A422B0F8AA12012402F01F03A34255
:103BA000C0E9A5410ED0022B06D08BB900F52970D3
:103BB000FFF714FD002010BD00F52970FFF7B0FEDF
:103BC000002010BD00F52970FFF780FE002010BD19
:103BD00002F0800000F0E0F9002010BD400D002050
:103BE0009C0A002010B560B90A461A49D1F89442DF
:103BF000032C13D0052C0DD1C1F8940200F0CCF9A0
:103C000008E0154B9B693BB1124A92F89C22032AAB
:103C100002D19847002010BD022010BDD1E95830D4
:103C200083420AD91B1A9842C1F8603194BF81B20D
:103C300099B21046FFF75AFFECE7074B1B691BB11F
:103C400091F89C22032A02D0FFF758FFE2E7984739
:103C5000FAE700BF9C0A00200001002038B598B99F
:103C60002C4DD5F89422022A1BD032F0040302D145
:103C7000802000F091F995F89F32012B02D10023AA
:103C800085F89F32002038BD234B5B693BB1214A48
:103C900092F89C22032A02D198470020F3E70220E1
:103CA00038BD0B46D5E908218A4223D8EB69B3FB1E
:103CB000F1F401FB143484B999420ED8D5F8982256
:103CC00093420AD22146FFF7F9FE224621462046BA
:103CD000C5F8984200F0AEF9CDE70F4BDB681BB199
:103CE00095F89C22032A12D0802000F055F9FFF7A6
:103CF00013FFC0E7521A044691B218462A62FFF732
:103D0000DDFE22462146204600F094F9B3E79847AD
:103D1000EAE700BF9C0A00200001002070B50021E6
:103D20000F4C40264022084600F018F90125324683
:103D300000218020C4F85851C4F8646100F00EF9E5
:103D4000084B84F89C520020A5616662C4F8940276
:103D50006060C4F8A0025B68BDE87040184700BF0F
:103D60009C0A002000010020014B187400207047BD
:103D70009C0A0020044B042293F89C1283F89D12A5
:103D800083F89C22002070479C0A0020054B93F882
:103D90009C22042A04BF93F89D2283F89C220020D1
:103DA000704700BF9C0A002008B5074B93F89C326F
:103DB000032B01D0002008BD044BDB69002BF9D098
:103DC0009847002008BD00BF9C0A00200001002089
:103DD0000E4A0F4B12689A4200D0704703F5DA334F
:103DE00000B5986D40F4000098659B6D83B003F4B6
:103DF00000030193002202211420019B01F0AAFD7F
:103E0000142003B05DF804EB01F0E0BD4C0D002080
:103E1000005C004008B501F09FFC00B108BDBDE8A2
:103E200008400148FFF7AEBEE40F0020044B01EB51
:103E3000810203EBC2030846D3F86411FFF7D2BE38
:103E40004C0D0020044B01EB810203EBC20308463A
:103E5000596AFFF703BF00BF4C0D0020FFF7A4BF56
:103E600008B50120FFF780FFBDE80840FFF756BF07
:103E700008B5084B01221A70FEF730F9FFF77AFFF8
:103E8000054B5B7A23B1054A136943F006031361BE
:103E900008BD00BF480D00204C0D002000ED00E0E3
:103EA00008B5074B5B7A23B1064A136923F0060372
:103EB0001361FFF76BFF044B00221A7008BD00BFAF
:103EC0004C0D002000ED00E0480D0020014B18785B
:103ED000704700BF480D002008B506480649074A4C
:103EE000012380E80E0003F09DFABDE8084001F0D0
:103EF000C3BB00BF4C0D0020005C00400802000264
:103F000070B515460A462E6801461C469AB13344E0
:103F10002B600B4843EA0643012204F05DFA2B684C
:103F2000E01D184420F00700B0F5806F28608CBFBA
:103F30000020012070BD3346014804F04DFAEEE741
:103F40004C0D002008B5044803F056FB18B10228B8
:103F50000CBF0120022008BD4C0D0020844608B58E
:103F600005480B46614604F00DF918B102280CBF54
:103F70000120022008BD00BF4C0D002008B50146FD
:103F8000044804F03BF918B102280CBF01200220BC
:103F900008BD00BF4C0D002008B50146044804F0E0
:103FA000A3F918B102280CBF0120022008BD00BFF0
:103FB0004C0D002008B50146044804F0D1F918B1B1
:103FC00002280CBF0120022008BD00BF4C0D0020BC
:103FD0000206084B06D400EB800003EBC00393F805
:103FE0005201704700F07F0000EB800003EBC0033C
:103FF000987C70474C0D002008B50146044804F039
:10400000ADF818B102280CBF0120022008BD00BF86
:104010004C0D0020844608B5054813460A46614603
:1040200004F044F918B102280CBF0120022008BD99
:104030004C0D0020844608B5054813460A466146E3
:1040400004F010F918B102280CBF0120022008BDAD
:104050004C0D00200146014804F01EB94C0D002013
:104060000D4885460D480E490E4A002302E0D458FB
:10407000C4500433C4188C42F9D30B4A0B4C0023B0
:1040800001E013600432A242FBD3FDF77BFBFCF797
:1040900099FBFDF71BFBFEE700000220000000205B
:1040A0006001002020A60008600100208C7500201F
:1040B000FEE70000044B0549002240F201101A609F
:1040C00008805A60704700BF2810002000080020B8
:1040D0002DE9F043303A83B006460C4661B1082A18
:1040E00006D8DFE802F055716A055C630505390002
:1040F000322003B0BDE8F083142AF9D801A353F8A5
:1041000022F000BF5542000839420008474200082B
:10411000E5410008F3410008014200080F42000891
:104120007F4200088D4200081D420008F14000084F
:10413000F1400008F1400008F1400008F14000089B
:10414000F1400008F14000082B42000871420008CD
:10415000D7410008634200084FF0040805274FF0DC
:10416000020945462046FFF7FBF8C3689D4228BF79
:104170001D46012D88BF05F1FF35CDE90075434689
:104180004A4621463046FEF717F903B0BDE8F083F2
:104190000A274FF01D084FF008093D46E2E70527C2
:1041A0004FF00E084FF002093D46DBE704274FF0C1
:1041B0000B084FF002093D46D4E70A274FF01D08CF
:1041C0004FF002093D46CDE70A274FF01D084FF09A
:1041D00004093D46C6E750274FF0EF084FF00F099E
:1041E0003D46BFE750274FF0EF084FF005093D4629
:1041F000B8E750274FF0EF084FF004093D46B1E70C
:1042000050274FF0EF084FF002093D46AAE750272C
:104210004FF0EF084FF001093D46A3E750274FF05C
:10422000EF084FF006093D469CE73C274FF0B008E9
:104230004FF009093D4695E750274FF0EF084FF042
:1042400019093D468EE750274FF0EF084FF00A0955
:104250003D4687E750274FF0EF084FF032093D46C3
:1042600080E750274FF0EF084FF064093D4679E7AB
:1042700050274FF0EF084FF008093D4672E732270C
:104280004FF095084FF001093D466BE728274FF0A6
:1042900077084FF001093D4664E700BF2DE9F04380
:1042A00089B0012307460D4603930DF110080DF167
:1042B000140914E0039BEB5C6BBB069B032B2646A7
:1042C00026D0082B27D1079B082B24D1DDE9042316
:1042D00021463846FEF748F902281DD12EBBCDF8FD
:1042E000008006AB2C2203A92846FFF7FBF8044602
:1042F000B8B1CDF8009007AB3B2203A92846FFF7E1
:10430000F1F80028D6D0069B032B4FF00006D8D139
:10431000079B032B03D0322009B0BDE8F0830024B3
:10432000D4E7039BEB5C002BF5D10220F4E700BF40
:104330002DE9F04300248DB00227CDE90544CDE9F5
:10434000074780460D461646002A3BD08B7803224D
:10435000422B089251D0502B30D10DF120093A4612
:1043600009AB49462846FFF7FDF838B3089BEA5CDD
:1043700001333D2A089321D106AB00932C220AABCE
:1043800049462846FFF7AEF8C0B107AB00933E227E
:104390000BAB49462846FFF7A5F8074670B10A9BC4
:1043A000032B36D0082B09D10B9B082B06D149468D
:1043B000284605AB0122FFF7D5F868B932200DB0C9
:1043C000BDE8F083084609AB3A4608A9FFF7CAF8EA
:1043D0000028F3D034463746079B0393069B02938D
:1043E000CDE900749DF824209DF814103346404612
:1043F000FEF758F90DB0BDE8F0830DF120093A46FB
:1044000009AB49462846FFF7ADF804460028ADD170
:10441000D4E70B9B032BD1D10027C8E72DE9F0434C
:10442000ADF6BC7D0C46072305460193022202AB84
:1044300001A92046FFF796F850B1019B14F80380BC
:104440000133B8F13D0F01934BD0B8F13F0F06D0C7
:104450004FF0320840460DF6BC7DBDE8F083E45CC9
:10446000002CF5D10298FDF743FB002863D00388A8
:104470004FF6FF72934258D004AFB3F5FA6F4FF086
:104480002B0299463A7028BF4FF4FA69002B4FD09F
:1044900000F102083E4618F804000009FFF798F8FA
:1044A000707018F8040000F00F00FFF791F8013465
:1044B000A3B2994506F8020FEDD809F1FF339BB27C
:1044C0005B001A1D92B203330D21F9542846394678
:1044D00000F0F6FD4FF0010840460DF6BC7DBDE84A
:1044E000F083E25C04AFB2B13E46002509E0019BD7
:1044F000039AE35C06F8012B01355BB1B5F5FA6F61
:10450000A8D003AB022201A92046FFF72BF8002810
:10451000EDD19DE7AAB202983946FDF711FB80461E
:1045200040460DF6BC7DBDE8F08304AF2B233B7005
:1045300002220123C8E74FF03D088BE72DE9F04345
:10454000CFB005460C461646FEF73AFB002859D078
:10455000002E00F068812178A1F12A034F2B55D855
:10456000DFE813F0280154005400540054005400B4
:10457000540054005400540054005400540054009B
:10458000540054005400540054005400540054008B
:1045900054004C0154006301540054007001540055
:1045A00054005400540054007B018B01540022023B
:1045B0005400540054009B0054005400D400540094
:1045C00054009B0054005400540054005400540004
:1045D0005400540054005400540054001B01540073
:1045E000540054005400540054005400540054002B
:1045F000540054005400A2005400540054005400CD
:104600005400A2002846FEF741FDA1E700232846FA
:10461000CDE91333CDE91733FEF7DCFA2378C00771
:104620004FF40002423B16901992322B00F2E681C1
:10463000DFE813F02003E4011303E401E401E401E3
:10464000E401E401E401E401E401E401E401E40142
:10465000E401E4010C03E4010803E401E401E401E2
:10466000E401E401E401E401E401E401E401E40122
:10467000E401E4012E03E4012A03E401E401E4017E
:10468000E401E401E401E401E401E401E401E40102
:10469000E401E401AE02E401B102022E00F0E18186
:1046A00032204FB0BDE8F08301220F9210AB2C22D4
:1046B0000FA92046FEF7F2FE0028F1D011AB2C2204
:1046C0000FA92046FEF7EAFE0028E9D012AB2C2203
:1046D0000FA92046FEF7E2FE0028E1D01CAB002225
:1046E0000FA92046FEF7DAFE0028D9D021781C98C1
:1046F000DDE91132A1F17901B1FA81F1CDE90020B2
:104700004909109A2846FDF757FECAE7012EC7D17E
:104710000020FEF725FE07463046FEF721FE06463E
:1047200001F0FAF80DF1480904464846FFF7A6F9EA
:1047300001F0F6F88046FDF795F8C4F307210B91D8
:10474000C4F30741240ECDF830900A910994F16822
:104750000891B16807917168069131680591F9680F
:104760000491B968039179680291D3490346A1FB8A
:1047700003133868990CCDE900104246CF49D04B5D
:104780001CA8FBF79FFD1CA8FCF75AF81CA982B2D5
:10479000284600F095FC012083E763783A2B00F06F
:1047A000A482012E7FF47CAF28464FB0BDE8F043D1
:1047B000FDF764BFC3492046FCF7C2FD002800F0A6
:1047C0008782C1492046FCF7BBFD002800F0C68166
:1047D000BE492046FCF7B4FD002800F06982BC49C0
:1047E00007222046FCF760FD002840F007812146A3
:1047F00028464FB0BDE8F043FFF710BE022E7FF40D
:104800004FAF2846FEF7DCF9002840F06682637857
:10481000302B00F06482312B7FF442AFAD4A535D00
:1048200043F00103535502203BE7012E7FF438AFDC
:104830002846FDF7ABFCA84AA64B002142F82510FC
:104840005E55A8E763783A2B00F00381214628469D
:104850004FB0BDE8F043FFF721BD01211C9112AB21
:10486000002220461CA9FEF719FE00283FF418AFCD
:1048700012992846FEF78AF913E7012E7FF710AF49
:10488000631E1E4414F8011FA1F13003432B3FF6B1
:1048900007AF01A252F823F0014A0008014A0008BC
:1048A000A1460008A1460008A1460008A14600084C
:1048B000A1460008A1460008A1460008A14600083C
:1048C000A1460008A1460008A1460008A14600082C
:1048D000A1460008A1460008A1460008934A000826
:1048E000A1460008A1460008874A0008514B00086D
:1048F000454B0008A1460008A14600083B4B0008B4
:10490000A1460008A1460008A14600082F4B000858
:10491000A1460008A1460008A1460008A1460008DB
:10492000294A0008FF4A0008A1460008A1460008DD
:10493000A1460008A1460008A1460008A1460008BB
:10494000A1460008A1460008A1460008A1460008AB
:10495000A1460008A1460008A1460008174B000820
:10496000A1460008A14600080B4B0008F34A0008C6
:10497000E74A0008A1460008A1460008DD4A0008F1
:10498000A1460008A1460008A1460008AB4A00085D
:10499000A1460008A1460008A1460008A14600085B
:1049A000294A00087B4A0008022E3FF779AE47D11A
:1049B0006378453B0E2B3FF673AE01A252F823F00D
:1049C000874B0008A1460008A1460008A146000840
:1049D0007D4B0008A1460008A1460008A14600083A
:1049E000A1460008734B0008A1460008A146000834
:1049F000A1460008A1460008694B0008312050E696
:104A00002846FEF7DDF8002840F067812378324A17
:104A1000A3F13103B3FA83F35B095B0042F825305D
:104A2000A6427FF42FAFFEE6A1F15201B1FA81F167
:104A300049092846FEF78AF80028F1D1362030E6E9
:104A4000254B53F8251028464FB0BDE8F043FDF73D
:104A5000EBB90122214628464FB0BDE8F043FFF7ED
:104A600067BCA1F159016278B1FA81F14909284680
:104A70004FB0BDE8F043FFF72BBB164A535D23F060
:104A800004035355CCE7134A535D43F010035355C9
:104A9000C6E72846FEF794F8002840F01E810D4A2C
:104AA000535D43F001035355BAE70A4A535D23F0BF
:104AB00002035355B4E700BF83DE1B4384A4000800
:104AC0001806260034A500083CA5000848A50008E3
:104AD00054A50008000800202810002000212846C6
:104AE000FEF76CFA9CE7904A535D23F02003535580
:104AF00096E78D4A535D23F00803535590E78A4AA1
:104B0000535D43F0040353558AE7874A535D23F00E
:104B10001003535584E72846FEF752F8002840F06A
:104B2000DC80814A535D23F00103535578E77E4AC8
:104B3000535D43F00203535572E701212846FEF707
:104B40003DFA6DE7784A535D43F02003535567E71C
:104B5000754A535D43F00803535561E703204FB096
:104B6000BDE8F043FCF7B8BE704B022143F82510B6
:104B700069E76E4B002143F8251064E76B4B032176
:104B800043F825105FE7694B042143F825105AE7E5
:104B90004FF000531493189BB3F5001F63D0139B81
:104BA000B3F1804F4FF001030F9314BF032208228B
:104BB00012AB0FA92046FEF7D5FC00283FF470ADDC
:104BC000139B002B6BD1129BB3F5006F6ED210AB11
:104BD00001220FA92046FEF7C5FC00283FF460AD76
:104BE000189B109813B908283FF65AAD149B1590DE
:104BF000B3F1005F18D0FEF7CFFB002814DD1CAF27
:104C000000EB07080CE002220FA92046FEF7AAFCE1
:104C100000283FF445AD119B07F8013BB84503D090
:104C20000F9BB34211ABEEDB3F4B5B5D9B0772D436
:104C30000F9BB3427FF434AD1CAA12A9284600F0A2
:104C400075FA2EE54FF080431393A4E74FF08042AE
:104C50004FF00053CDE913239DE74FF400124FF0BE
:104C60008043189213932846FDF7C2FF002896D17F
:104C70003A2016E54FF400134FF48012CDE91723C4
:104C80004FF080431393EEE74FF400131893EAE7D5
:104C90004FF480124FF40013CDE91723E3E7B3F18B
:104CA000804F94D1129BB3F1005F90D33D20F8E484
:104CB0000220FCF7E3FD00283FF4C0AE1C4B1D4969
:104CC0000322022808BF1946284600F0F9F962E5D8
:104CD0004FB0BDE8F043FEF7B9BA3420E1E4124A20
:104CE000535D23F0010353559DE502221CAB204682
:104CF00012A91292FEF736FC00283FF4D1AC002333
:104D0000CDE90233CDE900339DF8702019462846DD
:104D1000FDF7C8FCC5E40FA920461AAB0222FEF736
:104D200021FC002884D1BBE40008002028100020CA
:104D30007CA4000880A4000830B500244454037803
:104D4000262B04BF012400190A4683B008BF01F1D5
:104D5000FF3201462046FFF7F1FB012825460346B6
:104D60001AD0144A0228125D18D0920607D41249AC
:104D70000122284603B0BDE8304000F0A1B923214C
:104D80000D248DF804100322284601A98DF8053062
:104D90008DF8064000F094F903B030BD910607D5B8
:104DA00006490246284603B0BDE8304000F088B905
:104DB0000349DDE70008002064A500085CA50008A1
:104DC00060A5000830B589B00446FDF77DFFC8B185
:104DD0002046FDF76FFF05794378017882780195C9
:104DE000C07800900A4303A80749FBF76BFA0A2230
:104DF00003A9204600F064F92046FEF727F8204674
:104E0000FDF754FA09B030BD68A5000810B584B0AC
:104E10000A460446064901A8FBF754FA01A8FBF725
:104E20000FFD01A982B2204600F04AF904B010BD7E
:104E30007CA50008104B1B5C13F010031AD070B552
:104E4000054696B008460E46FBF7FAFC502888BF88
:104E50000A4E0B499ABF841CA4B2162432466846F7
:104E6000FBF730FA28462246694600F029F901206E
:104E700016B070BD184670470008002084A50008D1
:104E80009CA50008014B0122DA60704714750020D0
:104E90000C4B41F6081202FB00F0191801F5C85C32
:104EA0000022BCF800C002336CF30F0200F5C850BA
:104EB0006CF31F4241F6061C1A50002301F80C3017
:104EC000704700BFDC1000202DE9F047054672B6A0
:104ED000BFF34F8FBFF36F8F734ED6F8203262B699
:104EE000BFF36F8FD6F824229A4251D002F180038B
:104EF00056F823C0BCF1000F3BD06C4FDFF8B091E7
:104F000039780024A0460AE08E465FFA8AF13044E0
:104F10003970035D09F80E300134644529D206EB7F
:104F2000821390011B5D0D2B01F1010A11D0A42900
:104F3000EAD9002208212846FDF7A6FED6F8242249
:104F400002F180034FF0000E56F823C001219001BA
:104F5000DDE74846FFF7F0FED6F8242287F8008008
:104F600002F18003013456F823C064454FF000017C
:104F7000D5D372B6BFF34F8FBFF36F8FD6F82432FD
:104F8000013303F00703C6F8243262B6BFF36F8F14
:104F90004848494A00F54056F468631CA2FB0312D6
:104FA00022F0010101EB52029B1A32699A4205D0AC
:104FB00004F5406450F82420002A62D172B6BFF391
:104FC0004F8FBFF36F8F34693B4B0134A3FB042336
:104FD00023F0010202EB5303E41AF368A34257D112
:104FE00062B6BFF36F8F354F41F6081605FB06F624
:104FF000BC1904F5C85808F1020821E0B8F80010FF
:1050000001F1240201EBC10106EB821206EB8101E2
:105010003A443944FDF7F0F841F60411B8F800308D
:10502000625A41F606100132013302F03F024FF09E
:10503000000C03F03F03625204F800C0A8F80030EF
:1050400004F5C853B8F800201B889A4241F60611AF
:10505000284601D1635C93B1FDF7F0FD0246284676
:10506000002ACBD141F6081303FB057741F606135E
:10507000FB5C23B1BDE8F0470421FDF705BEBDE8A8
:10508000F08703F54062F360002340F8223095E793
:1050900004F5406330F8231000EB043000F0B2FB5D
:1050A00000289DD134619BE7EC42002030100020A5
:1050B0003410002014450020ABAAAAAADC1000205E
:1050C0002DE9F041184C04F54056C2F58058F368BC
:1050D00003F5406C154654F82C7007F1010EF045AD
:1050E0001BD3024607EB033020441B0342B1012AC5
:1050F00023440CBF2622242244F82CE0DA55013048
:105100002A46FBF72DFEF36803F5406354F823208D
:105110002A4444F82320BDE8F081BDE8F041002294
:105120000821FDF7B1BD00BF144500202DE9F0476F
:1051300007460E461446FDF769FD0228804659D100
:10514000DFF8DC9041F6081507FB05F509EB0503D0
:1051500041F606129A5C002A4FD103F5C853B446B3
:105160001E8806EBC60605EB86064E440CF1200AA7
:10517000DCF80000DCF80410DCF80820DCF80C3067
:10518000B646AEE80F000CF1100CD4457646EFD1D0
:1051900041F6081303FB0793DCF80000CEF800008B
:1051A00003F5C853A4461B88243305EB83154D44EF
:1051B00004F14006DCF80000DCF80410DCF80820FC
:1051C000DCF80C302C460FC40CF1100CB44525460D
:1051D000F0D141F6081303FB079909F5C85241F6CF
:1051E0000411138839F80110013303F03F03994289
:1051F00013800CD04046BDE8F087384600220421D9
:105200004FF03708FDF740FD4046BDE8F08741F616
:105210000613012209F803204046BDE8F08700BFCD
:10522000DC1000202DE9F04F8B69ADB00E468046B2
:105230000192002B75D18B68B3F1005F0CBF722314
:1052400074238DF80830D6E900B30CBF52215421E5
:10525000B3F1804F75D005274FF0060900974FF046
:10526000040A0325691E6B1C02AAC9B2154408333F
:105270006D1A0DEB03040BF00F00FEF7A9F904F80B
:10528000010DA5424FEA1B1BF5D1F568E8B2FEF708
:105290009FF90AF1B0030DEB030AB3680AF8A80CF2
:1052A000B3F1005F57D1504B13F808305B0704D5BA
:1052B000B369B3F5001F00F085804C4C07F1B003D3
:1052C0000DEB030704F540550D2307F8A83CEB68E8
:1052D00003F54066C9F5805254F826104F1CBA42B7
:1052E00068D301EB033020441B03B8F1000F09D051
:1052F000B8F1010F23440CBF2622242244F8267063
:105300005A5401304A4602A9FBF72AFDEB6803F51F
:10531000406354F823204A4444F823202DB0BDE8CC
:10532000F08F4B69B3F5801F0CBF622364238DF8A7
:105330000830D6E900B30CBF42214421B3F1804FBD
:1053400089D10A278DF808104FF00B0900974FF00C
:10535000090A082586E72846FEF71EF8B0F1000A7C
:10536000A1DD019C009D04EB0A0720786B1C00095D
:105370005FFA83F9FEF72CF905F1B0036B440235AF
:1053800003F8A80C14F8010B00F00F00FEF720F949
:1053900009F1B0036B44BC42EDB203F8A80CE4D1B0
:1053A000009B03EB4A0B5FFA8BF707F101095FFAE9
:1053B00089F978E70022082140462DB0BDE8F04F7A
:1053C000FDF762BC3369B3F1004F7FF476AF07F1AC
:1053D000B0030DEB0307532307F8A83C09F10103C1
:1053E0004F465FFA83F968E7000800201445002063
:1053F00030B585B091F820201A49044601A8FAF783
:1054000061FF194B03F5405C40F6FC71DCF80C20A1
:1054100002F5406E53F82E00451C8D421BD800EB60
:1054200002311944120364B9019A0A60DCF80C20B5
:1054300002F5406253F82210043143F8221005B0FF
:1054400030BD012C1A440CBF2624242443F82E50CE
:1054500014540131E8E7002208212046FDF714FC2E
:1054600005B030BDA4A500081445002010B5084CB7
:1054700094F84000FF2808D0064B94F841209B6820
:1054800021469847FF2384F84030002010BD00BF1C
:105490002C7500202801002010B582B0037800226E
:1054A0008DF80520ADF8062013F06002044617D0F1
:1054B000202A05D02046FEF7D7FA022002B010BD00
:1054C000C28890F801C0EAB11B0633D51E4B1F49B4
:1054D0009B6860469847E1881C48FEF7DFFA16E0B3
:1054E00043780A2B1BD00B2B13D0002BE2D1184B87
:1054F00093F89C32032BDDD102210DF10600FEF75B
:10550000CDFA04E0104B01469B68604698470020A6
:10551000D4E70F4B93F89C32032BF8D0CAE70C4B1F
:1055200093F89C32032BC5D101210DF10500FEF744
:10553000B5FAECE70548114680F840C080F84120F4
:10554000FEF7C4FAE3E700BF280100202C75002015
:105550009C0A002038B5124B124D01244022022132
:1055600081201C70FEF7FAFC402202212046EC62EA
:10557000FEF7F4FC082203218220C5F86C41FEF7F7
:10558000EDFC094B2C641B689847084B0025596CAF
:105590005D65402220469D65FEF74CFD284638BDDE
:1055A000287500209C0A0020280100202C7500206E
:1055B00008B5FEF74FFD074B07491B78C8640BB9C8
:1055C000022008BD054B486CDB684C319847002031
:1055D00008BD00BF287500202C7500202801002080
:1055E00008B5104B1A780AB9022008BD0E4A00EB24
:1055F000800302EB830CDCF81C2042B10B4901EB69
:10560000C3031B6AB2FBF3F103FB112222B1084B67
:1056100000225A65002008BD1146CCF81C20FEF778
:10562000F9FCF7E7287500209C0A00204C0D0020AB
:105630002C75002070B50D4C23780BB9002070BD7F
:105640000B4E8120FEF79AFC00250120F562FEF743
:1056500095FC8220C6F86C51FEF790FC054B356432
:105660005B6898472570002070BD00BF287500203A
:105670009C0A00202801002000B583B018200021DA
:105680000190402301AA0846FEF73AFC08B34023E4
:1056900001AA00218020FEF733FCD0B1402301AAEB
:1056A00000210120FEF72CFC98B1402301AA002123
:1056B0008120FEF725FC60B1082301AA0021822089
:1056C000FEF71EFC80F001004000C0B203B05DF8A0
:1056D00004FB022003B05DF804FB00BF024B98649A
:1056E00019650020704700BF2C750020014B5864DD
:1056F000002070472C75002038B50B4B1B7883B108
:105700000A4B5C6D0CB1012038BD186D084D996CC9
:10571000286301225A6582B28120FEF77BFC204675
:1057200038BD022038BD00BF287500202C75002030
:105730009C0A002008B5064B1B780BB9022008BD57
:10574000044B4022596C0120FEF774FC002008BD78
:10575000287500202C75002000207047002070471D
:1057600008B5094B03F540520021106903EB0030E6
:10577000FFF7B4FF054BD3F8200203EB8010FFF7CF
:10578000B5FF002008BD00BF14450020EC420020FA
:10579000212806D14FF4E1300022082308608A80D6
:1057A0008B710020704700BF10B5154CD4E98820DC
:1057B000531C03F00703984213D100221046042122
:1057C000FDF762FA002204210120FDF75DFAD4F80A
:1057D000200204EB8010FFF789FFFFF7ABFF0120E9
:1057E00010BD8032096844F8221004EB8310C4F81D
:1057F0002032FFF77BFFFFF79DFF002010BD00BFA9
:10580000EC42002008B5054B5B6D0BB1012008BDD3
:10581000FFF764FFBDE80840FFF76EBF2C7500205E
:10582000704700BF704700BF10B5094B4FF0FF3203
:1058300000249A639C631A641C649A629C62DA6214
:10584000DC621A631C63FFF7EDFF204610BD00BF4A
:105850000010024038B50F4B1B680BB9012038BD52
:105860000D494FF47A720546B2FBF3F30868B0FBBA
:10587000F3F000F0B9F804460028EFD10F2DEDD871
:10588000024629464FF0FF3000F064F8034B2046F3
:105890001D6038BD38010020540000203C0100206C
:1058A0000A4A136823F4806310B50320136000F0E4
:1058B0003FF80020FFF7CEFF10B10124204610BDB5
:1058C0000446FFF7ADFF204610BD00BF0020024098
:1058D000034A0449136809680B441360704700BF0A
:1058E0008875002038010020014B1868704700BF00
:1058F0008875002038B50446FFF7F6FF631C05469F
:1059000002D0044B1B681C44FFF7EEFF401BA04273
:10591000FAD338BD38010020004870470005020165
:10592000024B1868C0F30B00704700BF002004E072
:105930000749CA6803024FF6FF0003F4E063024020
:10594000134343F0BF6343F40033CB60704700BFA1
:1059500000ED00E01B4BDB68C3F3022300B5C3F18D
:10596000070EBEF1040F03F1040C28BF4FF0040E24
:10597000BCF1060F1CD9A3F1030C4FF0FF3303FA5F
:105980000CF322EA03024FF0FF3303FA0EF321EA8D
:10599000030303FA0CF313431B010028DBB20ADBF9
:1059A00000F1604000F5614080F800335DF804FBD1
:1059B00000229446E7E7044A00F00F000244137601
:1059C0005DF804FB00ED00E0FCEC00E0002807DBE4
:1059D000044A4109012300F01F00834042F82130AE
:1059E000704700BF00E100E00138B0F1807F01D3D3
:1059F0000120704710B44FF0E023064C58614FF07F
:105A0000F00C84F823C00022072110469A6110BCD4
:105A10001961704700ED00E0704700BF08B5FFF75F
:105A2000FBFF08BD704700BF002800F01C812DE976
:105A3000F04190F85C30044603F0FF02002B73D075
:105A40002268936923F010039361FFF74DFF054629
:105A500004E0FFF749FF401B0A285BD823689A69D6
:105A60001207F6D49A6942F001029A61FFF73CFFEF
:105A7000054604E0FFF738FF401B0A284AD8216892
:105A80008B69DB07F6D58B697F4A43F002039142AD
:105A90008B6100F0D580237C012B8B690CBF23F038
:105AA000400343F040038B61637C012B8B690CBF87
:105AB00043F4804323F480438B61A37C012B8B69E7
:105AC0000CBF23F4805343F480538B618B69A0682F
:105AD000E26823F4407303438B618B6923F0A403D2
:105AE0008B610B69012A23F010030B6121D022B3D3
:105AF000022A8B6900F0C38043F080038B610B693D
