:020000040800F2
:1000000000000220654000086D1C0008711C0008FB
:10001000751C0008791C00087D1C00080000000009
:10002000000000000000000000000000811C00082B
:10003000851C000800000000891C00088D1C0008B9
:10004000B5400008B5400008B5400008B5400008BC
:10005000B5400008B5400008B5400008B5400008AC
:10006000B5400008B5400008B5400008B54000089C
:10007000B5400008B5400008B5400008B54000088C
:10008000B5400008B5400008B5400008A91C0008AC
:100090009D1C0008B51C0008B5400008B5400008CC
:1000A000B5400008B5400008B5400008B54000085C
:1000B000B5400008B5400008B5400008B54000084C
:1000C000B5400008B5400008B5400008B54000083C
:1000D000B5400008B5400008B5400008B54000082C
:1000E000B5400008B5400008B5400008B54000081C
:1000F000B5400008B5400008B5400008B54000080C
:10010000B5400008B5400008B5400008B5400008FB
:10011000B5400008B5400008B5400008B5400008EB
:10012000B5400008B5400008B5400008B5400008DB
:10013000B5400008B5400008B5400008B5400008CB
:10014000B5400008B5400008B5400008B5400008BB
:10015000B5400008B5400008B5400008B5400008AB
:10016000B5400008B5400008B5400008B54000089B
:10017000B5400008B5400008B5400008B54000088B
:10018000B5400008B5400008B5400008B54000087B
:10019000B540000800000000B5400008B540000868
:1001A000B5400008B5400008B5400008B54000085B
:1001B000B5400008B5400008B5400008B54000084B
:1001C000B5400008B5400008B5400008B54000083B
:0801D000B5400008B54000082D
:100200000348044B834202D0034B03B118477047A5
:100210006001002060010020000000000548064B3E
:100220001B1AD90F01EBA301491002D0034B03B1F4
:1002300018477047600100206001002000000000A6
:1002400010B5064C237843B9FFF7DAFF044B13B11E
:100250000448AFF300800123237010BD600100202B
:1002600000000000FCA2000808B5044B1BB10449C3
:100270000448AFF30080BDE80840CFE7000000006D
:1002800064010020FCA200080CB410B59CB01EABA9
:10029000029106916FF0004104910791084953F8CB
:1002A000042B0591002402A901931B9400F06EF920
:1002B000029B1C701CB0BDE8104002B0704700BF2C
:1002C0000802FFFF0EB430B59CB06FF000411FABC9
:1002D000049107910A4953F8042B029000240690D8
:1002E000084D0868019302A905951B9400F04EF98A
:1002F000029B1C701CB0BDE8304003B0704700BFCB
:10030000000000200802FFFF80EA0102844612F08C
:10031000030F4FD111F0030F32D14DF8044D11F0FE
:10032000040F51F8043B0BD0A3F101329A4312F0B1
:10033000803F04BF4CF8043B51F8043B16D100BF8A
:1003400051F8044BA3F101329A4312F0803FA4F11B
:1003500001320BD14CF8043BA24312F0803F04BFA2
:1003600051F8043B4CF8044BEAD023460CF8013B0F
:1003700013F0FF0F4FEA3323F8D15DF8044B7047B9
:1003800011F0010F06D011F8012B0CF8012B002AF7
:1003900008BF704711F0020FBFD031F8022B12F0E6
:1003A000FF0F16BF2CF8022B8CF8002012F47F4FA1
:1003B000B3D1704711F8012B0CF8012B002AF9D1A9
:1003C000704700BF2DE9F0478F681D46AF420B68AC
:1003D0000C46164636D8B1F90CC01CF4906F0ED1FD
:1003E0003D46184631462A4600F0EAFBA368DF1B6B
:1003F0002368A7602B4400202360BDE8F0874A698A
:10040000096902EB42025F1A02EBD2726B1C5210B6
:100410003B44934292BF914699461A461CF4806F22
:10042000804611D0114600F0EDFA824600B32169F2
:100430003A4600F095FCA38923F4906343F08003CF
:10044000A38105E02F46CCE700F024FD824658B199
:100450000AEB0703A9EB0707A760C4F810A0C4F8CC
:10046000149023602F46BCE72169404600F04AFB08
:10047000A3890C2243F04003C8F800204FF0FF305E
:10048000A381BAE72DE9F04F9368176883B09246CD
:10049000002B74D04FF0000B8B680A6881460C4625
:1004A0005D4645E0B4F90C3013F4906F2CD0D4E9DC
:1004B0000401161A01EB410202EBD272711C5210B8
:1004C0002944914292BF904688460A465B0539D539
:1004D0001146484600F096FA019000283DD0324679
:1004E000216900F03DFCA289019B22F4906242F058
:1004F0008002A2819819A8EB0606A660C4F81480B1
:1005000023612060A8462E463246594600F058FB2B
:10051000DAF80810A3682268A3EB08033244491BE9
:10052000A3602260CAF8081049B3D7E900B50837BC
:1005300098461046002DF8D09D421E46B2D2A846DD
:100540002E46E1E70146484600F0A4FC0346002899
:10055000D0D12169484600F0D5FAA3890C2243F096
:100560004003C9F800204FF0FF30A3810022002390
:10057000CAF80820CAF8043003B0BDE8F08F0020A4
:100580000023CAF8043003B0BDE8F08F2DE9F04F26
:100590001C468B891D069DB088468146934603D52F
:1005A0000B69002B00F0F1800023099343F2200334
:1005B000ADF829309BF800307D4D03940126002BC7
:1005C00073D0DA4603E01AF8013F002B75D0252BD3
:1005D000F9D1BAEB0B0473D19AF80020002A64D049
:1005E00000234FF0FF32CDE905230AF1010A0493FD
:1005F00007938DF853301A9305E0049A06FA03F333
:100600001A430492A2465446052214F8011B2846B8
:1006100000F056FBA346431B0028EED1049BD806EE
:1006200044BF20228DF8532019079AF8001044BFC8
:100630002B228DF853202A2950D1039A11680432B5
:10064000002903927CDB07919AF801102E295BD0D8
:10065000584C0322204600F033FB38B1049B001BAA
:100660004022824013430BF1010B04931BF8011B42
:1006700051488DF82810062200F022FB002865D092
:100680004E4B002B55D003AA00924D4B424604A975
:100690004846AFF3008007467A1C06D0099B3B44CE
:1006A00009939BF80030002B8BD1B8F80C305B0617
:1006B0007AD409981DB0BDE8F08FBAEB0B04F4D0E2
:1006C00023465A4641464846FFF77CFE0130ECD0AF
:1006D000099B9AF80020234409937FE7A1F1300297
:1006E000092A88BFD346B1D8079B00E0013421789E
:1006F00003EB830302EB4303A1F13002092AF5D98E
:100700002E290793A346A3D19BF801102A2927D1AC
:10071000039B9BF802101A6805920433002A0BF120
:1007200002000393B8BF4FF0FF338346B8BF059371
:100730008EE7039B073323F0070308330393ADE7EA
:10074000494243F00203079104937DE703AA009214
:100750001B4B424604A9484600F060FC07469BE755
:10076000A1F130020023092A05930BF1010B3FF69A
:100770006FAF1BF8011F03EB830302EB4303A1F1EF
:100780003002092AF5D9059362E7402100F03AF9D1
:10079000C8F80000C8F8100018B14023C8F8143099
:1007A00002E70C23C9F800304FF0FF3082E700BFAA
:1007B000CCA50008D4A50008D8A5000800000000BA
:1007C000C503000870B50F4B0F4DAB42A3EB0506F8
:1007D00007D0B610002455F8043B01349847A642D0
:1007E000F9D809F08BFD094D094B5E1BAB424FEA6E
:1007F000A60606D0002455F8043B01349847A642CB
:10080000F9D870BD38A6000838A6000838A6000838
:100810003CA60008000000000000000000000000EE
:1008200000000000000000000000000000000000C8
:1008300000000000000000000000000000000000B8
:1008400030B490F800F020F007016FF0000C10F0C9
:10085000070491F820F040F048804FF000046FF05A
:100860000700D1E9002391F840F000F1080082FA76
:100870004CF2A4FA8CF283FA4CF3A2FA8CF34BBB41
:10088000D1E9022382FA4CF200F10800A4FA8CF2BA
:1008900083FA4CF3A2FA8CF3E3B9D1E9042382FA88
:1008A0004CF200F10800A4FA8CF283FA4CF3A2FA9D
:1008B0008CF37BB9D1E9062301F1200182FA4CF2D5
:1008C00000F10800A4FA8CF283FA4CF3A2FA8CF33C
:1008D000002BC6D0002A04BF04301A4612BAB2FA5E
:1008E00082F200EBD20030BC7047D1E9002304F063
:1008F0000305C4F100004FEAC50514F0040F91F898
:1009000040F00CFA05F562EA05021CBF63EA050334
:1009100062464FF00004AAE7830730B547D0541E63
:10092000002A3ED0CAB2034601E0013C39D303F8A5
:10093000012B9D07F9D1032C2CD9CDB205EB052550
:100940000F2C05EB054535D9A4F1100222F00F0C50
:1009500003F1100EE6444FEA121C1A46C2E9005594
:10096000C2E9025510327245F8D10CF1010214F0BF
:100970000C0F03EB021204F00F0C13D0ACF10403C4
:1009800023F003030433134442F8045B9342FBD186
:100990000CF003042CB1C9B21C4403F8011BA342A0
:1009A000FBD130BD64461346002CF4D1F9E7034671
:1009B0001446C0E71A46A446E0E700BF70B5104EE3
:1009C000336805460C46B3B12146284600F056FE72
:1009D000431C0CD0C41C24F00304A04205D0211AEF
:1009E000284600F04BFE013001D0204670BD4FF08C
:1009F000FF34204670BD194600F040FE3060E3E74A
:100A00007C0100202DE9F843CD1C25F003050835B5
:100A10000C2D38BF0C25002D064618DBA94216D830
:100A2000DFF8DC8000F03CFCD8F80420A2B11446CA
:100A300003E0636822467BB11C4623685B1BF8D445
:100A40000B2B1FD89442636854D053600CE00C23E6
:100A500033600020BDE8F88329463046FFF7AEFF3B
:100A6000431C044619D00560304600F01BFC04F11D
:100A70000B00231D20F00700C21A1CBF1B1AA35035
:100A8000BDE8F88361199442256014BF5160C8F82D
:100A90000410635163684B60E6E7D8F804701FB335
:100AA0003C467F68002FFBD123683946304604EB73
:100AB000030900F0E3FD814516D12368ED1A2946AC
:100AC0003046FFF77BFF01300ED02368D8F80420B2
:100AD0002B442360536883B1A34203D01A465B685A
:100AE0009C42FBD10023B0E70C233360304600F07A
:100AF000D9FBAEE7C8F80430B6E7C8F80470B3E72E
:100B00007C010020002950D038B551F8043C0C1F5E
:100B1000002BB8BFE418054600F0C2FB274A136853
:100B20002BB1A3420CD92168601883422CD063609A
:100B300028461460BDE8384000F0B4BBA3420FD88B
:100B40001A465B68002BF9D111685018844217D0FF
:100B50002CD3636054602846BDE8384000F0A2BB47
:100B600011685018A04214D020D821686018834220
:100B7000EFD118685B680844C4E900035460EAE7F1
:100B800023680B441360E6E718685B68084420603C
:100B9000CDE720680144501883421160DBD1D3E9CE
:100BA00000040144C2E90014D5E770470C232B6010
:100BB0002846BDE8384000F075BB00BF800100202A
:100BC00088420ED98B1883420BD900EB020C002A05
:100BD0006ED0624613F801CD02F801CD9942F9D1E9
:100BE00070470F2A0FD8034602F1FF3C002A5FD05E
:100BF0000CF1010C013B8C4411F8012B03F8012F7F
:100C00006145F9D1704740EA01039B0751D1A2F138
:100C1000100370B501F1200C23F00F0501F1100E47
:100C200000F11004AC441B095EF8105C44F8105C41
:100C30005EF80C5C44F80C5C5EF8085C44F8085CF8
:100C40005EF8045C44F8045C0EF1100EE64504F115
:100C50001004E9D1013312F00C0F01EB031102F083
:100C60000F0400EB031328D0043C24F003064FEAE2
:100C7000940C1E441C1F8E465EF8045B44F8045F0F
:100C8000B442F9D10CF1010402F0030203EB840336
:100C900001EB840102F1FF3C4AB10CF1010C013B74
:100CA0008C4411F8012B03F8012F6145F9D170BD77
:100CB000704702F1FF3C03469AE72246EAE700BF8D
:100CC00001F0FF01102A2BDB10F0070F08D010F8FD
:100CD000013B013A8B422DD010F0070F42B3F6D101
:100CE000F0B441EA012141EA014122F007047FF01A
:100CF00000070023F0E80256083C85EA010586EA71
:100D0000010685FA47F5A3FA87F586FA47F6A5FAAC
:100D100087F68EB9EED1F0BC01F0FF0102F00702B8
:100D200032B110F8013B013A83EA010313B1F8D163
:100D30000020704701387047002D06BF3546033844
:100D4000073815F0010F07D1013015F4807F02BF7D
:100D5000013015F4C03F0130F0BC0138704700BFCE
:100D6000844641EA000313F003036DD1403A41D3B6
:100D700051F8043B40F8043B51F8043B40F8043B75
:100D800051F8043B40F8043B51F8043B40F8043B65
:100D900051F8043B40F8043B51F8043B40F8043B55
:100DA00051F8043B40F8043B51F8043B40F8043B45
:100DB00051F8043B40F8043B51F8043B40F8043B35
:100DC00051F8043B40F8043B51F8043B40F8043B25
:100DD00051F8043B40F8043B51F8043B40F8043B15
:100DE00051F8043B40F8043B51F8043B40F8043B05
:100DF000403ABDD2303211D351F8043B40F8043BA5
:100E000051F8043B40F8043B51F8043B40F8043BE4
:100E100051F8043B40F8043B103AEDD20C3205D3B4
:100E200051F8043B40F8043B043AF9D2043208D0AC
:100E3000D2071CBF11F8013B00F8013B01D30B881E
:100E400003806046704700BF082A13D38B078DD0FC
:100E500010F003038AD0C3F10403D21ADB071CBFCE
:100E600011F8013B00F8013B80D331F8023B20F838
:100E7000023B7BE7043AD9D3013A11F8013B00F871
:100E8000013BF9D20B7803704B7843708B788370F9
:100E9000604670472DE9F041144641B30AB3064657
:100EA0000D4600F0FDFB8442074602D8B4EB500F1C
:100EB00013D821463046FFF7A5FD804650B1BC420D
:100EC0002246294628BF3A46FFF74AFF29463046C0
:100ED000FFF718FE4046BDE8F081A8464046BDE851
:100EE000F081A046FFF70EFE4046BDE8F081BDE868
:100EF000F0411146FFF786BD2DE9F84F92461F4697
:100F00000A698B68DDF828909A42B8BF1A46CAF879
:100F1000002091F843300C46064613B10132CAF85E
:100F20000020226891065FD5DAF800300233CAF853
:100F30000030226812F0060F11461DD1E168994277
:100F4000D8BF114618DD4FF0000804F1190B05E079
:100F5000E568DAF80030ED1A45450CDD01235A4604
:100F600039463046C847013008F10108F0D14FF04A
:100F7000FF30BDE8F88F216894F84330003B18BF7C
:100F800001238A060AD5E1185A1C302081F8430053
:100F9000224494F8451082F84310023304F14302CE
:100FA00039463046C8470130E1D02368DAF80050AE
:100FB000216903F00603042BD4E902201BD08A42E6
:100FC00020DD4FF00008521A90441A34002501E049
:100FD000454517DA0123224639463046C8470130D5
:100FE00005F10105F4D1C2E712F0060F0DD0003B68
:100FF00018BF0123D2E7401B8A4220EAE078E2DCF6
:101000000028E2DC0020BDE8F88FE168DAF8003063
:101010009942D8BF114696DCAEE700BF2DE9F047F4
:10102000174684B00A7E0C9D0C460646984601F190
:10103000430C002A35D0A2F15803D9B2202969D82F
:10104000202B67D8DFE813F0E60066006600660034
:101050006600660066006600660066006600AC001A
:10106000700066006600660066007000660066003C
:101070006600660021008300C60066006600B600B8
:101080006600830066006600EC002B6822686169D8
:10109000181D286010061B6802D4520600F1E0807B
:1010A00019600023E1462361CDF800803B4603AA86
:1010B00021463046FFF720FF013020D023694A4601
:1010C00039463046C047013019D02368E068DDF862
:1010D0000C909B0718D5484516DD002504F1190A28
:1010E00004E0E068A0EB0903AB420DDD01235246AA
:1010F00039463046C047013005F10105F1D14FF0C6
:10110000FF3004B0BDE8F0874845B8BF484604B09A
:10111000BDE8F08784F84220012004F14209002351
:10112000206184F84330BFE72A682368111D180640
:10113000296002D4590600F1958010680146002804
:101140006268C0F2938054484FF00A0E15E02068A0
:101150002B6810F0800F53F8041B02D1400648BFE3
:1011600089B26F2A4C482B6014BF4FF00A0E4FF023
:10117000080E0023626884F84330002AA26051DB25
:10118000236823F00403236000294BD1002A7BD17C
:10119000E146BEF1080F56D0ACEB0903236183E7AB
:1011A0002B681A6804332B6004F1420984F842204A
:1011B0000120B4E72B686268191D2960D3F80090FC
:1011C00000214846FFF77CFD002863D0A0EB090012
:1011D0006060A4E7236843F02003236078222F484F
:1011E00084F845202A6813F0800F52F8041B03D1BD
:1011F00013F0400F18BF89B22A60DA0744BF43F0EA
:101200002003236019B9236823F0200323604FF0E3
:10121000100EAEE7582384F845301F482368E1E7F5
:101220002368DBE77546E146B1FBF5F305FB131ACE
:101230000A46AA4210F80A1009F8011D1946F3D20D
:10124000BEF1080FA8D12368DD07A5D56268236920
:101250009A42A1DC302309F8013C09F1FF399BE7F0
:1012600019801EE7B2F90010084668E72D20002A11
:10127000A26084F8430002DB23F0040323600A2504
:1012800005484942AE46CEE7037884F8423004F17F
:1012900042097EE7606842E7E0A50008F4A500087F
:1012A000704700BF704700BF002A3ED030B584466B
:1012B0000446084380070B462ED1032A07D82BE0AB
:1012C000043A25D01EF0803F22D1032A22D920687B
:1012D000194653F8045BA0F1013EA842A4462EEA49
:1012E000000E04F10404EBD09CF800000C7884425A
:1012F0001DD1E64668B11EF8010F11F8014FA2EBAF
:101300000E03A04203F1FF3311D11CEB0303F1D113
:10131000002030BDA44619469CF800000C78A0427D
:1013200005D1012AF4D0E646E4E710467047001BD9
:1013300030BD00BF00000000000000000000000001
:1013400002780B78012A28BF9A4240F0D8806DE9D4
:10135000044540EA0104CDE902676FF0000C4FEA52
:1013600044721AB380EA010414F0070F6BD100F045
:10137000070420F0070004F0030521F007014FEAFD
:10138000C505F0E8042314F0040FF1E804670CFA33
:1013900005F462EA040266EA04060BD063EA040379
:1013A000624667EA0407664604E000BFF0E80423EB
:1013B000F1E8046782FA4CF582EA0604A4FA8CF498
:1013C0006CBB83FA4CF583EA0705A5FA8CF595B951
:1013D00050E9022351E9026782FA4CF582EA0604D9
:1013E000A4FA8CF483FA4CF583EA0705A5FA8CF588
:1013F0002543DBD09CB92DBAB5FA85F424F0070457
:1014000027FA04F1DDE9026723FA04F303F0FF0091
:1014100001F0FF01FDE80445A0EB0100704724BA8C
:10142000B4FA84F424F0070426FA04F1DDE9026733
:1014300022FA04F202F0FF0001F0FF01FDE804458A
:10144000A0EB0100704714F0030F3CD110F003042F
:1014500028D150F8082B51F8083B82FA4CF582EA63
:101460000305A5FA8CF55DB950F8042C51F8043C3D
:1014700082FA4CF582EA0305A5FA8CF5002DE8D036
:101480002DBAB5FA85F424F0070423FA04F122FA00
:1014900004F202F0FF0001F0FF01FDE80445A0EBBB
:1014A000010070474FEAC40420F0030050F8082BF5
:1014B00021F0030151F8083B0CFA04F462EA04023B
:1014C00063EA0403C9E710F003041DD0A1EB040193
:1014D00020F00300E40750F8042B06D012D28B78DA
:1014E0005FFAA2F4E41A06D12BB1CB785FFAB2F41A
:1014F000E41A00D133B920465DF8104B7047A2EBD7
:101500000300704701F1040150F8042BCC0721F0CF
:10151000030151F8043B48D824D222F07F4482FAD8
:101520004CF594EA1325A5FA8CF50AD165B951F862
:10153000043B84EA0204B4EB036F0ED150F8042B91
:10154000EBE74FEA132355E035F07F454DD108789E
:10155000FDE80445C0F1000070474FEA126203F055
:10156000FF0347E002EA1C4482FA4CF594EA134573
:10157000A5FA8CF50AD165B951F8043B84EA020456
:10158000B4EB034F0CD150F8042BEBE74FEA1343B5
:1015900030E015EA1C4528D10B884FEA124229E0B9
:1015A0004FEA124203EA1C4324E002F0FF0482FAED
:1015B0004CF594EA1365A5FA8CF50AD165B951F892
:1015C000043B84EA0204B4EB032F09D150F8042B46
:1015D000EBE74FEA13630DE015F0FF0F05D10B6841
:1015E0004FEA122223F07F4304E04FF00000FDE8B1
:1015F0000445704712BA1BBA82FA4CF482EA03041B
:10160000A4FA8CF5B5FA85F402FA04F203FA04F3AD
:101610004FEA1260FDE80445A0EB1360704700BF7D
:10162000032A30B415D941EA0004A40784460B46C6
:1016300004D0541E0FE0043A032A08D91946604624
:1016400053F8044B5CF8045BA542F4D0F1E7604624
:101650001946541E7AB1431E0139021901E09A421B
:1016600009D013F8010F11F801CF6045F7D0A0EBB6
:101670000C0030BC7047002030BC704738B5074DB7
:101680000022044608462A6000F012F8431C00D0ED
:1016900038BD2B68002BFBD0236038BDC002002072
:1016A00051F8043C181F002BBCBF0B58C0187047E2
:1016B000044A05491368002B08BF0B461844106004
:1016C00018467047C4020020907500202DE9F047AD
:1016D00000F07CF900B9FEE701F0B8FB0028FAD071
:1016E00002F020FA0028F6D003F0CEFB00F040FB19
:1016F00001F00EFE02F0E0FC00241F4DDFF87C80BC
:101700001F4EA146012702F0E1FB30B101F0DEFBE4
:101710002F7002F0DBFB0028F8D12B7833B3287050
:1017200088F8009001F0F6FB04F0E0F882460146EC
:10173000204601F0C3FC2046514603F0C7FB20467B
:10174000514603F041FB2046514601F06DF83368E5
:10175000AAEB0303632B84F00104D4D9C6F800A0DC
:1017600000F0DCFD504601F097FDCCE798F8003022
:10177000002BD9D0D4E700BFCC02002050000020BD
:10178000C8020020024B4FF000629A60704700BF11
:1017900000ED00E01B4B00B5986D40F0020098652D
:1017A0009B6D95B003F0020344220021009303A82F
:1017B000009BFFF7B1F8144B144A1B681449A2FBB5
:1017C00003239B0C013B4FF0FF3201A8CDE901132D
:1017D000049207F01BFF18B1002015B05DF804FB60
:1017E00001A807F0B3FF0028F6D1024601461520F4
:1017F00004F0B2F8152004F0EBF8012015B05DF804
:1018000004FB00BF001002405400002083DE1B4395
:1018100000040040024A136801331360704700BFA0
:10182000D40200200249034A00234B621360704730
:1018300000040040D402002008B504F073F840F220
:101840006943984206D940F2794398420CBF02207E
:10185000002008BDB0F58D6F34BF0020022008BD08
:10186000014B1868704700BFD0020020014B186878
:10187000704700BFD402002010B58EB00446342259
:10188000002101A8FFF748F801A805F0DFFA022CB3
:1018900006D0032C16D0012C0AD000200EB010BDAB
:1018A000079B13F0806F0CBF012002200EB010BD0B
:1018B000079B03F4E063B3F5806F14BF012002209F
:1018C0000EB010BD079B13F0806F14BF01200220E3
:1018D0000EB010BD30B58FB0044601F05DF910B107
:1018E00034200FB030BD04F01DF840F26942904240
:1018F00005D8B0F58D6F06D236200FB030BD40F25E
:1019000079429042F8D13422002101A8FFF704F86F
:1019100001A805F09BFA022C32D0032C41D0012CF7
:10192000EAD1079B03F4E063B3F5806F26D0302241
:10193000002102A8FEF7F0FF4FF48063CDE90643D3
:1019400004220192204B9A694CF2FA3142F0704223
:101950009A61196104F02CFFA0BB04F049FF88BB19
:1019600001A805F063F8044604F056FF054604F0AC
:1019700033FF44EA05030343DBB21BBB0220B0E79D
:10198000079911F08061F9D1302202A8FEF7C4FF57
:1019900004214FF4C4424FF04863CDE9062301917E
:1019A000D0E7079B5B01E9D53022002102A8FEF7B2
:1019B000B3FF04214FF4C4424FF00863CDE906237E
:1019C0000191BFE73B208CE70020024070B5B6B024
:1019D00003F068FF18B10024204636B070BD4A4DB0
:1019E000AB6D43F08053AB65AB6D03F08053009358
:1019F0000446009B06F02AFD2B6E012633432B661E
:101A00002B6E1494334021204FF48031CDE9120124
:101A1000019328210F20019A1C9103220321022304
:101A2000CDE91A22CDE906014FF4806212A8CDE972
:101A30001544CDE91863CDE91D33CDE9092217948A
:101A400008941F9306F0D4FD0028C4D1082106A8ED
:101A500007F04CF80028BED10146502222A8FEF71C
:101A60005BFF4FF440524FF0807321A821922F93D7
:101A700007F064F904460028ADD14FF00053CDE9DA
:101A80000C034BF67F322223CDE90F230CA8202331
:101A900011930E9407F090FDEB6C3343EB64EB6C09
:101AA00033400293029BEB6C43F00203EB64EB6C5C
:101AB00003F002030393039BEB6C43F00403EB641A
:101AC000EB6C03F004030493049BEB6C43F02003E2
:101AD000EB64EB6C03F020032246214605934FF0A4
:101AE000FF30059B03F038FF4FF4805007F0B2FA47
:101AF000064B1860FFF74EFE044600283FF46BAF1C
:101B00003046FFF7E7FE67E700100240D0020020F2
:101B1000FF2818D80D4AB2F8E0100D4A4FF6FF73AF
:101B200099420ED00B490C4BD1F8E01503EA812302
:101B300003F100630130A3EBC020824288BF002084
:101B40007047064BF6E70020704700BF0075FF1F87
:101B500014A300080070FF1F00FCFF03000008082A
:101B6000FF2841D8F0B53B4B0E46B3F8E0103A4B96
:101B700015464FF6FF72914287B02CD0374A384C49
:101B8000D2F8E02504EA822404F100640130A4EBD9
:101B9000C024A34225D8B5F5FA6F22D823884FF682
:101BA000FF72934208BF00239D4206D12A46314668
:101BB000A01CFFF735FD002845D02A4B9A6942F05A
:101BC00070429A614CF2FA321A6104F0F1FD68B188
:101BD000352007B0F0BD244C0130A4EBC024A34253
:101BE000D9D93D2007B0F0BD3D20704704F17843BE
:101BF000DB0A049300220123CDE9022301A901237A
:101C000002A8059304F03EFEF8B9C5B12A46314654
:101C10000746B01CFEF7D4FFC6F1080026F80859A5
:101C200009350444C5F3CC05A1190020F6E90223C7
:101C300004F006FD0137BBB238B99D42F4D804F078
:101C4000CBFD0220CEE70220CCE704F0C5FD352015
:101C5000C8E700BF0075FF1F14A300080070FF1F36
:101C600000FCFF030020024000000808FEE700BF60
:101C7000FEE700BFFEE700BFFEE700BFFEE700BFD4
:101C8000704700BF704700BF704700BF08B503F042
:101C900021FEBDE8084003F0C3BE00BF014805F0C7
:101CA000C3BC00BF480D0020014805F0BDBC00BF0B
:101CB000480D002008B5002000F0C4FFBDE8084032
:101CC00004F0FABB70B51646054608461C4601F0FE
:101CD00057FBB6F1005F19D0049B8BB1002C14BFE9
:101CE00031231E2302B2D200102894BF02F11A0041
:101CF00002F11E00059AB2F5801F15D0184470BD80
:101D000054B908232F2213FB002070BD44B3B4F153
:101D1000804F27D03123E5E7B4F1804FFAD1082373
:101D2000432213FB002070BDD5E959211144D5F899
:101D3000602101FB02220C4901FB02F2D5E9551496
:101D400021440131B2FBF1F20849D5F85041B2FB10
:101D5000F4F202FB00F0A1FB002003EB904070BD09
:101D60002F2070BD432070BD40420F0083DE1B4317
:101D70002D4B2DE9F04F9A6D2C4CDFF8B4A0DFF815
:101D8000B490DFF8B4802D4F2D4E42F000729A656A
:101D90009B6D87B003F0007300930025009BAB465A
:101DA000F022002104F5D070C4E95EBBC4F850B144
:101DB000C4F860B1C4F88CB1C4F89CB184F870B1B7
:101DC00084F890B2FEF7A8FD284603F063F85AF8AD
:101DD000042B002A4FF001010BDB1A4BCDF814B095
:101DE000CDE9012153F8250001A9CDE903BB05F098
:101DF00039F959F8041B18F8012B05920220CDE996
:101E00000110032257F8040B01A9CDE903B205F034
:101E100029F956F8042B226004F5257415B107B092
:101E2000BDE8F08F0125BBE700100240DC02002076
:101E30007400002064000020580000206C00002086
:101E40005C0000207C0000202DE9F043A14E4FF4FF
:101E5000257303FB006383B093F87021002A40F0E0
:101E60008180D3F85031002B78D096F87031054638
:101E70000F4683B996F804346BB903F1804303F538
:101E800004339A6B42F000729A639A6B22F00072EC
:101E90009A63FFF7C7FC284602F0FCFF284600F0D3
:101EA000D9FE0021084601F07DF80021012001F053
:101EB00079F8894A4FF42574525D04FB056402F0F9
:101EC0000102227401220023A274D4F878216360F5
:101ED0006374E3636263A360D4F87C21D4F8543163
:101EE000A263E361D4F86021D4F85831D4F85011DA
:101EF0002362D4F85C31E7606161A361002A40F09D
:101F00008480FFF7ADFC754B984223D94FF42577B9
:101F1000734B05FB07F7F419A3FB0030D4E95532E6
:101F20001A44D4F8503102FB033307F5B872324437
:101F300000214FF47A7C800C0CFB03F3B3FBF0F030
:101F4000C4F88401A2F80310204684F8711103F04C
:101F50006DFD58B1352003B0BDE8F0833A2003B0E1
:101F6000BDE8F083342003B0BDE8F083014620468D
:101F700003F076FF0028EDD10221204603F084FF14
:101F80000028E7D101221021204604F0EFF90028B3
:101F9000E0D102464FF46041204604F0FDF980464E
:101FA0000028D7D1204603F0A7FFD4F86031C4F849
:101FB000948173B1D4E959210A4402FB03333221DD
:101FC000484A03FB01F1A2FB013149094B1E3E2B9C
:101FD00070D94FF4257303FB0563D3E95E2302EB4D
:101FE0000309B9F1000F46DD643737444FF00008AC
:101FF00001E0C1453FD03946204603F0E3FE08F139
:10200000010818370028F4D0A4E7FFF729FCD4E929
:1020100059373B44D4F86021B0FBF2F20133B2FBF4
:10202000F3F7D4F85021CAB94FF4257305FB03F335
:10203000F11803F5B070BA4234BF4FF440724FF458
:1020400080728A6031183758D1E901402033C9685D
:102050003344C3E90171C3E9034052E7FFF700FCD1
:10206000D4E9553213440133D4F85021B0FBF2F0D7
:10207000B0FBF3F2D8E74FF4257303FB0566D6E90E
:102080005E32D34214BF0122002200231146009386
:10209000204603F0C3FE204603F040FF014600281F
:1020A0007FF458AF284600F0ABFF012386F870316B
:1020B000022054E74246C4F89411204603F0F8FE8B
:1020C00000287FF447AF204603F004FF002880D0AB
:1020D00040E700BFDC020020D80200203F420F0092
:1020E00083DE1B431F85EB5138B5274C94F87031C4
:1020F0000BB32046002503F029FF204603F0E4FD42
:102100002946F02204F5D070C4E95E55C4F8505158
:10211000C4F86051C4F88C51C4F89C5184F87051D3
:1021200084F89052FEF7F8FB284602F0B3FE012136
:10213000284600F065FF94F8043403B938BD13480D
:1021400003F004FF114803F0BFFD0021F022104806
:10215000C4F8E413C4F8F413C4F80C14C4F810144D
:10216000C4F82014C4F8301484F8041484F8241536
:10217000FEF7D2FB012002F08DFE0121BDE83840C0
:10218000084600F03DBF00BFDC02002070050020C3
:1021900010070020F8B5174F4FF4257500FB05F523
:1021A0007C1994F8703103B9F8BD0646204603F057
:1021B000CDFE204603F088FD05F5D0750021C4E969
:1021C0005E11C4F85011C4F86011C4F88C11C4F841
:1021D0009C1184F8701184F890127819F022FEF79F
:1021E0009BFB304602F056FE30460121BDE8F84028
:1021F00000F006BFDC0200202DE9F8432A4E4FF420
:10220000257404FB00640546D4F860810F469146AE
:10221000B8F1000F13D1D4F85031FBB900237B6122
:102220004FF4257404FB05644A463946204603F002
:10223000FDFE30BB237C012B2AD0BDE8F883FFF7DD
:102240000FFBD4E9593213445A1CD4F85031D4F856
:102250006011B0FBF1F8B8FBF2F87BB1FFF700FBBF
:102260004FF4257101FB0561D1E955321344013367
:10227000D1F85021B0FBF2F0B0FBF3F39845CFD882
:10228000CCE728460122BDE8F843022100F0F2BC69
:1022900003F02CFBD4F89C31C4F898010133C4F846
:1022A0009C31BDE8F88300BFDC02002038B5184C33
:1022B0004FF4257303FB004494F870312BB1D4F82C
:1022C00038311BB194F871317BB138BD94F871216C
:1022D000002AFAD0054684F871310E4902F0ACFDAF
:1022E0002846BDE8384000F0A5BD012384F87131CF
:1022F000094902F0A1FD0721204603F0F9FE20461E
:1023000003F024FE2046BDE8384003F007BE00BFBE
:10231000DC0200204CA300082CA300082DE9F843A0
:10232000244C254F254EDFF898804FF0000994F893
:10233000703153B3D4F88C213AB3D4F890319A4227
:102340002DD8D4E9603503FB05F56D09A7FB0535EC
:10235000ED0940F2654303FB05F5B5FBF2F5B54227
:1023600026D842F20F739D421DD894F8885125B1AA
:1023700000252946484602F04BFD0023C4F8803171
:10238000012384F88851C4F8903104F52574B9F11B
:10239000000F01D0BDE8F8834FF00109C7E7013312
:1023A000C4F89031F1E7A8FB0535C5F34735E0E700
:1023B0006325DEE7DC020020C55A7C0A3F420F009D
:1023C0005917B7D138B54FF42575234C05FB00F0EC
:1023D000251895F87051002D3CD131B3511E1F299D
:1023E00036D8591E1F2933D8049901390F292FD8FF
:1023F000059901390F292BD800F5B0700444C4E9C0
:102400000023049BA360059BE360FFF729FAD4E94E
:1024100001321249246813445A1CB0FBF4F3B3FB95
:10242000F2F38B4214D8022038BD511EB1F5007F63
:102430000ED2591EFF290BD8049901397F2907D8DC
:10244000059901397F2903D800F5A8700444D6E71F
:102450003D2038BD342038BDDC02002000127A0057
:10246000354B1B5CDB063CD52DE9F04F334F4FF469
:10247000257303FB0073B3B0DB68044603BB6E46F1
:102480004FF4257504FB05F505F5A8723A442C496F
:10249000304600F083FF3046FEF7D2F905F5B07202
:1024A0003D443A442749304400F078FFD5F8607144
:1024B000C7B93146204602F0BFFC33B0BDE8F08F0B
:1024C000013B032B96BF204A204A52F82320204983
:1024D0006E463046FDF7F6FE3146204602F0ACFC73
:1024E000CEE770473046FEF7ABF9D5F850B1194D3D
:1024F000DFF864A0DFF8649006EB000E844600F17C
:1025000011080FCD46F80C00CEF80C302B88CEF811
:102510000410CEF80820BB450CBF51464946AEF822
:10252000103006EB0800FDF7EFFE3146204602F0C2
:1025300083FC33B0BDE8F08FD8020020DC0200201D
:1025400098A30008A0A3000808A6000874A3000828
:1025500084A30008A8A300087CA3000880A30008A7
:10256000F8B53F4D4FF4257E0EFB005EDEE95E4779
:1025700007EB040CBCF1070F18DC002940F2FF74D4
:1025800018BF6FF06044944210D39C420ED39EF863
:1025900070618EB1BCF1010F06D1A7F10107B7FA46
:1025A00087F77F098F4203D03420F8BD3D20F8BD66
:1025B0000024CEE95E44A446E9B14FF4257100FB46
:1025C00001F10CEB4C0C01EBCC0C2944AC44CCE9F4
:1025D0001D23D1F87C31CCF868300133C1F87C314F
:1025E0004FF08043CCF8643002240123CCE91B4334
:1025F000DEB90220F8BD4FF4257400FB04F40CEBA7
:102600004C0C04EBCC0C2C44AC44CCE91D23D4F88A
:102610007831CCF868300133C4F8783102220123D4
:10262000CCE91B23CCF86410E2E74FF4257303FBDD
:1026300000F02F18D7E95E631E44002ED9DD643008
:102640000544002401E0A642D3D02946384603F0D1
:10265000B9FB013418350028F5D03520F8BD00BF8E
:10266000DC020020064B4FF4257202FB003090F88C
:1026700070311BB9C0E95E330220704734207047C7
:10268000DC02002038B59DF810409DF814E0002BC6
:1026900046D0884242D0012940D8002CDDF818C02D
:1026A00040F2FF7518BF6FF06045654536D3DDF821
:1026B0001CC0654532D3132A30D84FF4257C224DF7
:1026C0000CFB00FC02EB42020CEB82022A4482F873
:1026D000A03182F8A311DDE9063182F8A241C2F8E7
:1026E000A81103EA010405F1F00182F8A1E1C2F8A2
:1026F000A44105EB0C03614493F8A02112B193F8B7
:10270000A1411CB10C338B42F6D100224FF425734A
:1027100003FB0053022083F8902238BD3D2038BDD2
:10272000FF2AC8D108494FF4257200FB02F28C1829
:1027300002F5D072881884F89032F0221946FEF71C
:10274000EBF8022038BD00BFDC0200202DE9F0418B
:102750004F688CB0A7F1804E0023BEFA8EFE0D4666
:1027600016460968ADF804304FEA5E1EADF8083031
:1027700000F1F00C012402E00C30604518D090F814
:10278000A031002BF8D090F8A2317345F4D1D0E9F4
:1027900069230B409342EFD190F8A131ABB390F88D
:1027A000A33130336B440C30604503F8284CE6D13C
:1027B000AB680593D5E903230024CDE906234FF444
:1027C0000003CDE90A34DFF85C80CDE9031701AFDF
:1027D0003B5D93B102AB1B5D7BB998F8703163B17F
:1027E000D8F86031C3B9069A082A06D8CDE908336B
:1027F0002046324603A902F09BFC08F5257814B167
:102800000CB0BDE8F0810124E2E790F8A331303349
:102810006B4403F82C4CAFE7AB6909936B690893E1
:10282000E6E700BFDC0200202DE9F043BD4D4FF488
:10283000257600FB06F6AF19C1B097F8703113B9D1
:1028400041B0BDE8F083044688463C22002118A828
:102850001791FEF761F803A9384603F0F5FCF0B9CB
:10286000B14B1B5D980703D50B9B002B40F04F81AC
:102870004FF4257303FB0453DA68002A00F0A580A7
:102880004FF4257303FB04532046D3F89C21002A00
:10289000C4BF02F1FF32C3E9668200F0C7FB17AB89
:1028A0000DAA4021384603F033FC002800F0F880E0
:1028B00017AB0DAA4121384603F02AFCE8B94FF4C2
:1028C000257303FB045393F89032002B40F0B7803C
:1028D0004FF4257303FB0453D3F88C21002A40F0F6
:1028E0008B804FF4257303FB04532046D3F88011EB
:1028F0000A44C3F8802100F0BDFB4FF4257909FBA1
:1029000004F955F809301A6DD10400F19E801A6D52
:10291000520700F1A8801B6D9B0600F1B48006F5FC
:102920009276A919384603F0E1FC4FF4257303FBB6
:102930000453D3F89C21002A05DDD3F8982102F531
:10294000FA72424564D94FF4257303FB045393F89C
:1029500073211AB993F87021002A69D14FF42573B5
:1029600003FB045595F87431002B7FF469AFD5F85B
:102970009431002B3FF464AFD5F84C219342BFF45F
:102980005FAF7E2A3FF65CAF012385F87431FEF716
:1029900067FF664B98427FF653AFD5F89431D5F870
:1029A0004C21D21A624BA3FB00134FF47A719B0C9B
:1029B00001FB02F227A85F49B2FBF3F2FDF782FCAC
:1029C00027A9204602F038FA3AE7D3F88C0148B13B
:1029D000089B0193099B00930699DDE90432384670
:1029E000FFF770F94FF4257303FB0453D3F88021EC
:1029F0001044C3F8800143E7129B0193139B00939B
:102A00001099DDE90E323846FFF75CF9024668E7B7
:102A10000026C3F89C610721384603F069FB204675
:102A200002F038FA32461021204600F023F98AE7F6
:102A30000122204683F87321FFF712FD8EE717AAC3
:102A40000DA93846FFF782FE42E700220221204608
:102A500000F010F955F809304FF480521A651A6DDC
:102A600052077FF558AF00220121204600F002F9FD
:102A70004FF4257304FB03F30422EB581A651B6D16
:102A80009B067FF54CAF00220121204600F0F2F8B2
:102A90004FF4257304FB03F32022EB581A653EE73D
:102AA000FEF7E4FE149B17AA43EA00430DA9204653
:102AB000149302F0B9FB4FF4257303FB045393F80E
:102AC0009032F3B94FF4257303FB0453D3F88C21F0
:102AD00052B1129B0193139B00931099DDE90E32C2
:102AE0003846FFF7EFF802464FF4257303FB045313
:102AF0002046D3F880110A44C3F8802100F0BAFAC6
:102B0000D6E617AA0DA93846FFF720FEDAE7FEF74A
:102B1000ADFE0A9B03A943EA004320460A9302F054
:102B200069FCA5E6DC020020D80200203F420F002D
:102B300083DE1B43BCA3000838B50C4B53F8203090
:102B4000002B11DD0D460A4904462A4651F82000A3
:102B500099B204F063FC07484FF4257303FB0404A7
:102B6000012084F8725138BD002038BD7400002067
:102B70007C000020DC020020642908D8054B4FF4BB
:102B8000257202FB00330220C3F88C1170473D20F0
:102B9000704700BFDC020020034B93F8700108B9B6
:102BA00093F80404704700BFDC020020034B4FF48D
:102BB000257202FB003393F870017047DC0200209D
:102BC000054B4FF4257202FB0033D3F83001003877
:102BD00018BF0120704700BFDC020020054B4FF4F6
:102BE000257202FB0033D3F86001003818BF0120C2
:102BF000704700BFDC0200200A4B4FF4257202FB35
:102C0000003090F870314BB1C368022B08D0D0F877
:102C10003831002B0CBF022038207047332070471A
:102C200039207047DC02002008B5054B4FF42572AF
:102C300002FB003003F094FB003818BF012008BDF0
:102C4000DC020020024B4FF4257202FB003070477B
:102C5000DC020020064900EB800001EB80028000CE
:102C600000230B50C2E90133C2E90333704700BFB0
:102C700004080020094B00EB800000B54FEA800EED
:102C800003EB800090F809C041EA0C01417212B1D7
:102C9000012203F80E205DF804FB00BF04080020A9
:102CA000024B142202FB0030083070470408002059
:102CB0002DE9F04F5D4B1B5C1B0793B004D400253E
:102CC000284613B0BDE8F08F04460F46FFF76EFFAD
:102CD00005460028F3D02046FFF7B4FF07A903F00C
:102CE00005FB2046FFF7AEFF03A903F027FB0B9B74
:102CF0004F4E4FEA84082BB104EB840306EB8303A9
:102D000010221A720A9B002B3BD10C9B002B41D145
:102D100008EB040306EB83031A7A1AB99A7B0AB10B
:102D200001225A7308EB040306EB8303039ADA7259
:102D30009A7A049919736AB9089A12B1072A18BFC6
:102D40009A72079B33B1072B04D008EB040206EB01
:102D50008202937208EB0403990016F8232006EB15
:102D60008309F2B100237354444406EB8406B0682F
:102D7000B389C6F80E0028467760738213B0BDE8A9
:102D8000F08F08EB040306EB83030C9A20211972E1
:102D9000002AC7D008EB040306EB830330221A7223
:102DA000C0E704EB840A4FEA8A0A0AF1080306EB3B
:102DB000030B06215846019300F0D2FA019B20B183
:102DC00099F80D20002A3FF47AAF08EB040206EBD5
:102DD0008202117A302925D008EB040206EB820228
:102DE0005268BA1A632A7FF66AAF0AF10E0AF15ADC
:102DF00036F80A309942B244B6D1BBF80210BAF89C
:102E0000023099420BF1020B0AF1020AACD1BBF875
:102E10000210BAF802309942A6D140F6B7339A426E
:102E2000A2D84CE7927B302A9ED1D5E7D802002069
:102E300004080020044A1421082301FB0030111863
:102E4000002313508B807047040800202DE9F043C5
:102E5000002387B00122194C194F1A4E1A4DCDE9A3
:102E60000223CDE9043304F1080954F8043B002B94
:102E7000A84601A903DB3868019304F0F3F82B6836
:102E8000002B05F1040501A903DB3068019304F070
:102E9000E9F834F8041C57F8040B012204F0BEFAD8
:102EA000B8F8001056F8040B012204F0B7FA4C45AC
:102EB000DBD1012007B0BDE8F08300BF8400002013
:102EC0008C0000209C00002094000020F8B50D4FDD
:102ED0000D4E0E4D0E4C39883068002204F09EFADB
:102EE00029882068002204F099FAB98870680022C5
:102EF00004F094FAA98860680022BDE8F84004F064
:102F00008DBA00BF840000208C00002094000020B7
:102F10009C0000202DE9F041DFF878801E4F1F4E05
:102F20001F4D0824B8F800103868012204F076FA22
:102F300031882868002204F071FAB8F80410786823
:102F4000012204F06BFAB1886868002204F066FA86
:102F50004B2002F0D1FCB8F800103868002204F0D1
:102F60005DFA31882868012204F058FAB8F8041094
:102F70007868002204F052FAB1886868012204F0EF
:102F80004DFA4B2002F0B8FC631E13F0FF04C9D1C8
:102F9000BDE8F081840000208C0000209400002017
:102FA0009C00002070B5114E06EB4016337F8B421B
:102FB0001AD0317704460D4602F098FC0C4B33F8DA
:102FC00024100C4B503070612A4653F8240004F052
:102FD00025FA094A094B32F8241053F824002A46EE
:102FE000BDE8704004F01ABA70BD00BF2C08002084
:102FF000840000208C000020940000209C00002011
:10300000074B03EB40130A461B7F03B1704705498A
:10301000054B31F8201053F8200004F0FFB900BF31
:103020002C080020940000209C00002038B50E4C95
:1030300004EB4014237F0BB9636803B138BD054628
:1030400002F054FCE368C01A2828F7D9074B084A55
:1030500053F8250032F82510012204F0DFF902F0C0
:1030600045FC606038BD00BF2C0800209C0000209B
:1030700094000020F8B50E4E06EB40152B7F13B9D7
:103080004701F35903B1F8BD044602F02FFCAB68C9
:10309000C01A2828F7D9074B074A53F8240032F8FA
:1030A0002410012204F0BAF902F020FCF051F8BD1E
:1030B0002C0800208C000020840000202DE9F8431B
:1030C000574E06EB401504462B7F884623B16B69AB
:1030D0008B424DD9BDE8F8834701FFF7E1FD037846
:1030E000302B2ED02046FFF7DBFD90F80190B9F190
:1030F000000F26D12B7C002B61D1F359F51923B198
:10310000F359A8EB03030F2B6ED8F5196B6823B1A5
:103110006B68A8EB03030F2B74D82046FFF746FD1E
:103120000028D7D13E44337F002BD3D13D4A3E4BBC
:1031300032F8241053F824000122BDE8F84304F0CB
:103140006DB93A4B3A4A53F8240032F82410012260
:1031500004F064F9344B334A53F8240032F8241055
:103160003E44012204F05AF901233374BDE8F88388
:10317000AB692C492C4831F8241050F82400013355
:1031800003F00302A2F10102B2FA82F25209AB612A
:1031900004F044F9AA69254B254953F8240031F875
:1031A000241002F00302A2F10302B2FA82F25209E1
:1031B00004F034F96B6950336B61BDE8F8831C4B44
:1031C00033F82410194B4A4653F8240004F026F92A
:1031D000144B33F82410144B4A4653F8240004F0DF
:1031E0001DF985F8109088E7114B33F824100F4B28
:1031F000002253F8240004F011F90023F351C5F81C
:10320000088082E7074B33F82410074B002253F85D
:10321000240004F003F90023C5F80C806B607CE700
:103220002C080020940000209C0000208C0000202E
:103230008400002008B5FEF757FF0320FEF71CFBB3
:10324000022802D1104B01221A700220FEF742FB25
:10325000022802D0362800D008BD0B4B1B7873B96A
:1032600002F044FB094B1860FEF7E6FA0138C0B2E1
:10327000012806D8064B074A1A60022008BD3C20E8
:1032800008BD362008BD00BF700800206C08002073
:10329000740800200000FF1F70B51A4C23687BB330
:1032A000194B1B68C01AB0F5967F29D34FF0E02365
:1032B00000251D615D619D6172B64FF0FF32C3F85C
:1032C0008021C3F88022C3F88421C3F88422C3F884
:1032D0008821C3F88822C3F88C21C3F88C2202F01D
:1032E000A5FA05F025F9094A236893601A68256054
:1032F0005B6882F30888BFF36F8FBDE870401847A2
:1033000070BD00BF740800206C08002000ED00E0D4
:1033100030B40B4A0B4B4FF400704FF48071C2E98C
:10332000000180208021C2E90201202420251020F4
:103330001021C3E90045C3E9020130BC704700BF5A
:103340008808002078080020034A044B002814BF96
:1033500010461846704700BF7808002088080020F3
:1033600000290BDD0139431E084401E0834205D0EA
:1033700013F8012F002AF9D0002070470120704770
:10338000082807D9093806289ABF034B18564FF06A
:10339000FF30704740B2704718A60008F0B51368B8
:1033A00085B00E46002B4AD05368144692684FF4FD
:1033B0007A7503FB0555134401330746B5FBF3F556
:1033C000FEF74EFAD4E901231A4401322368B0FB18
:1033D000F3F3B3FBF2F31D4A934215D8B3F57A7FAA
:1033E00020D21B4A1B4C00923246A4FB0564E40821
:1033F000019404EB8404A5EB440417490294384675
:10340000FCF760FF05B0F0BD144A41F2C60103FBB2
:1034100002F2B1EBB21F05D3114AA2FB03239B0CAE
:10342000104ADFE7104A114903FB02F2B1EBF20F39
:10343000D7D30F4AA2FB03239B090E4AD2E70E49BA
:10344000324605B0BDE8F040FCF73CBF3F420F00FC
:10345000C0A50008CDCCCCCC3CA400083961C26822
:1034600083DE1B4324A40008D578E9263789410070
:10347000D34D62100CA4000828A4000870B50E6893
:1034800000241C6010F806C0ACF13005092D00EBDB
:10349000060E98BFC0F101050DD804EB84040CEBB7
:1034A0004404303C1C6005EB0E061EF801CFACF165
:1034B00030000928F1D9624501D0002070BD0136E5
:1034C0000E60012070BD00BF2DE9F041069C002573
:1034D0001D6025600D68013D00EB050CC0F1010584
:1034E0000FE0AEF13700C0B28CF800001E68206813
:1034F000013600011E6020609CF800E04EEA0000EA
:10350000206005EB0C071CF801EFAEF13000C0B2F3
:103510000928AEF16106E7D9052EAEF14108AEF1FA
:103520005700E0D9B8F1050FDBD9724503D0002070
:103530000F60BDE8F081013701200F60BDE8F08128
:10354000F0B50024151E1C602EDD0A68A64612E0A8
:103550005FFA8CFC82F800C01C680A6824011C60B9
:1035600010F802C00EF1010E01324CEA0404754558
:103570001C600A6018D0845CA4F1300C5FFA8CFCEB
:10358000BCF1090F0244A4F16106E3D9052EA4F1B0
:103590004107A4F1570CDBD9052F03D8373C5FFA5C
:1035A00084FCD7E70020F0BD0120F0BD092894BFBE
:1035B00030303730C0B2704730B5037803F0600365
:1035C000202B87B004460BD0402B09D07BB1802044
:1035D00000F0E4FC002000F0E1FC002007B030BD6A
:1035E000A44B20469B689847002007B030BD437825
:1035F000092BECD801A252F823F000BF5536000881
:103600007D360008CF3500089B360008CF3500080E
:10361000AD360008E5360008CF3500080F37000842
:10362000253600088078944C01282070CFD8934D1F
:1036300095F89C32022B00F00181032B00F0EE8004
:10364000802000F0ABFC002000F0A8FC207800F007
:1036500087FAC2E7894890F89C32013B022BB6D822
:10366000E1880229B3D1D0F8A032002B14BF0B4659
:10367000002340F80C3F00F009FAAEE77F4A92F8C9
:103680009C32013B022BA2D84388012BA5D10023F9
:10369000C2F8A03200F02AFA9FE74388012B9CD1A0
:1036A000764AC2F8A03200F021FA96E78388002B10
:1036B0008DD1C388002B8AD144887F2C87D86F4D49
:1036C00095F89C32032B82D0E0B285F89E0200F080
:1036D00095FC00F00BFA002C00F0C780022385F85F
:1036E0009C327AE743881A0A022A00F08D80032A66
:1036F00026D0012A7FF46BAFC388002BD3D060485B
:103700001221994228BF194600F0C0F965E7C18827
:1037100001297FF45CAF594890F89C32022B08D8FD
:10372000002B3FF454AF002340F8083F00F0AEF9FF
:1037300053E7032B7FF44BAF043000F0A7F94CE7BD
:10374000DBB2032B3FF643AFDFE803F05743300211
:103750004C4BD3F89015D3F89825D3F894350A44F8
:1037600001A84949FCF7AEFD01A8FDF769F8411C25
:10377000464A9DF80400490089B203231170537032
:1037800070B101AD02234FF0000CD054581CC0B2F0
:10379000023302F800C015F8010FDBB20028F4D1A3
:1037A000E388002B3FF47FAF3848AAE7374A384810
:1037B00040F23631118000255321D154591CC9B231
:1037C0000233555410F8011FDBB20029F5D1362120
:1037D000E6E72E4A2F4840F23A3313804521022370
:1037E0000025D154591CC9B20233555410F8011F99
:1037F000DBB20029F5D13A21D2E7C388002B3FF490
:1038000052AF254804217CE72448E3888178002BC7
:103810003FF449AF00293FF4E0AE72E7E0B16868D9
:1038200001283FF440AFC0B200F09AF920786860F8
:1038300000F08CF902287FF436AFC8E600283FF488
:1038400032AF01200323686085F89C3200F07EF9D6
:1038500002287FF428AFBAE6022385F89C3268601C
:1038600000F07EF900F042F9B7E6012385F89C32BA
:10387000B3E600BF00010020980A00209C0A002047
:10388000EC0000200070FF1F94A40008980800209E
:1038900078A4000858A40008A4000020A800002074
:1038A00010B5037803F06002402A044609D05B0695
:1038B00007D5802000F072FB002000F06FFB002095
:1038C00010BD0A4B93F89C32013B022BF1D82379AF
:1038D000012BEED8064B20469B689847E388002BC7
:1038E000EDD10028EBD100F001F9E8E79C0A0020B7
:1038F0000001002010B5037803F06003202B0AD0EC
:10390000402B08D063B1802000F048FB002000F07D
:1039100045FB002010BD444B9B689847002010BD1C
:1039200043788288012B5FFA82FC3ED0032B2AD099
:10393000002BE8D13D4B93F89C12022950D003296B
:10394000E1D112F0800F0CF00F0202EB820203EBC8
:10395000820256D1D2F85821002AD4D014240CF077
:103960007F0204FB023303F5AA74002A47D06046A5
:1039700000F030FB002850D00123236002212046B4
:1039800000F084F8C5E7294B93F89C32022B1DD038
:10399000032BB8D143882BB91CF07F0F02D0C3880A
:1039A000002B3CD000F0A2F8B3E7204B93F89C32F8
:1039B000022B0BD0032BA6D14388002BA9D11CF0DE
:1039C0007F0FEFD0604600F0F7FAEBE71CF07F0FB7
:1039D00099D0604600F0E2FA802000F0DFFA98E724
:1039E0001CF07F048FD103F5AA7012F0800F03F151
:1039F000140318BF1846046000F048F889E72260F5
:103A0000BCE79269002A3FF47EAF0CF07F02541CA1
:103A100004EB840403EB8404A7E72060AEE7604670
:103A200000F0BCFABEE700BF000100209C0A0020A5
:103A30000B7803704B784370CA788B7803EB0223C2
:103A400043804A790B7903EB02238380CA798B790F
:103A500003EB0223C380704708B5802000F09EFA74
:103A6000BDE80840002000F099BA00BF054BD3F82C
:103A70009015D3F89825D3F894350A440249FCF7F9
:103A800021BC00BF0070FF1F94A4000810B5064BB6
:103A90000A46C3E90722014602240020C3F89442E3
:103AA00000F0BAFA002010BD9C0A002008B50A46B2
:103AB0000146002000F0B0FA002008BD10B5064B0A
:103AC0000A46C3E95722014603240020C3F8944262
:103AD00000F0B2FA002010BD9C0A002008B50A468A
:103AE0000146002000F0A8FA002008BD10B5002211
:103AF000044B042411461046C3F8944200F08CFA9B
:103B0000002010BD9C0A002010B50022044B0524A3
:103B100011461046C3F8944200F08EFA002010BD02
:103B20009C0A0020084B10B5012200241C7083F869
:103B30009C2200F0D1F908B1204610BD00F004FA33
:103B4000B0FA80F0400910BD9C0A002008B5034B74
:103B50001B689847002818BF022008BD00010020FC
:103B600008B5024B5B689847002008BD00010020A3
:103B700010B5164C014604F52970FFF759FF94F86B
:103B8000A402B4F8AA22012100F01F038B42C4E969
:103B9000A51208D0022B12D05BB100F0800000F01B
:103BA000FDF9002010BD04F52970FFF779FE002013
:103BB00010BD04F52970FFF7FFFC002010BD04F5CF
:103BC0002970FFF797FE002010BD00BF9C0A00205F
:103BD00010B570B91C4A0B46D2F89412032915D0BF
:103BE000052904460ED1C2F8940200F0D7F9204608
:103BF00010BD164B9B693BB1134A92F89C22032AD5
:103C000002D19847002010BD022010BDD2E9580112
:103C100088420BD9401A8142C2F860018CBF81B240
:103C200089B21846FFF75AFF002010BD074B1B69E9
:103C30001BB192F89C22032A03D0FFF757FF002004
:103C400010BD9847F9E700BF9C0A00200001002042
:103C500038B588B92F4DD5F89422022A1CD032F0FD
:103C6000040302D1802000F099F995F89F32012BCE
:103C70004FF000000DD038BD274B5B693BB1254AA2
:103C800092F89C22032A02D19847002038BD0220D6
:103C900038BD85F89F0238BD0B46D5E908218A4218
:103CA00029D8EB69B3FBF1F401FB143484B99942D0
:103CB0000ED8D5F8982293420AD22146FFF7F6FE95
:103CC000224621462046C5F8984200F0B5F9CCE7D7
:103CD000114BDB681BB195F89C22032A18D0802079
:103CE00000F05CF9FFF710FF95F89F32012B4FF0C1
:103CF0000000C0D1CDE7521A044691B218462A629C
:103D0000FFF7D4FE22462146204600F095F9ACE7A5
:103D10009847E4E79C0A00200001002070B50021CC
:103D200040260F4C3246084600F01AF9012532466B
:103D300000218020C4F85851C4F8646100F010F9E3
:103D4000084BA5610020666284F89C52C4F8940276
:103D50006060C4F8A0025B68BDE87040184700BF0F
:103D60009C0A002000010020014B187400207047BD
:103D70009C0A0020044B042293F89C1283F89D12A5
:103D800083F89C22002070479C0A0020054B93F882
:103D90009C22042A04BF93F89D2283F89C220020D1
:103DA000704700BF9C0A002008B5074B93F89C326F
:103DB000032B01D0002008BD044BDB69002BF9D098
:103DC0009847002008BD00BF9C0A00200001002089
:103DD0000E4A0F4B12689A4200D0704703F5DA334F
:103DE00000B5996D41F4000199659B6D83B003F4B2
:103DF00000030193142000220221019B01F0ACFD7D
:103E0000142003B05DF804EB01F0E2BD480D002082
:103E1000005C004008B501F0A1FC00B108BDBDE8A0
:103E200008400148FFF7A4BEE00F0020044B01EB5F
:103E3000810203EBC2030846D3F86411FFF7C8BE42
:103E4000480D0020044B01EB810203EBC20308463E
:103E5000596AFFF7FDBE00BF480D0020FFF7A4BF61
:103E600008B50120FFF780FFBDE80840FFF756BF07
:103E700008B5084B01221A70FEF736F9FFF77AFFF2
:103E8000054B5B7A23B1054A136943F006031361BE
:103E900008BD00BF24100020480D002000ED00E008
:103EA00008B5074B5B7A23B1064A136923F0060372
:103EB0001361FFF76BFF044B00221A7008BD00BFAF
:103EC000480D002000ED00E024100020014B187880
:103ED000704700BF2410002008B506480649074A6D
:103EE000012380E80E0003F09FFABDE8084001F0CE
:103EF000C5BB00BF480D0020005C00400802000266
:103F000038B515461C46A9B11268D31801462B6076
:103F10000C4843EA0243012204F060FA2B68E01DDA
:103F2000184420F00700B0F5806F28608CBF002097
:103F3000012038BD0A462B680146024804F04EFABB
:103F4000ECE700BF480D002008B5044803F056FB1D
:103F500018B1022814BF0220012008BD480D00201E
:103F6000844608B505480B46614604F00DF918B1C2
:103F7000022814BF0220012008BD00BF480D002008
:103F800008B50146044804F03BF918B1022814BFF3
:103F90000220012008BD00BF480D002008B50146E1
:103FA000044804F0A3F918B1022814BF022001202C
:103FB00008BD00BF480D002008B50146044804F0C4
:103FC000D1F918B1022814BF0220012008BD00BF9A
:103FD000480D00200206084B06D400EB800003EBDE
:103FE000C00090F85201704700F07F0000EB8000A5
:103FF00003EBC000807C7047480D002008B50146E7
:10400000044804F0ADF818B1022814BF02200120C2
:1040100008BD00BF480D0020844608B5054813467A
:104020000A46614604F044F918B1022814BF022080
:10403000012008BD480D0020844608B505481346F8
:104040000A46614604F010F918B1022814BF022094
:10405000012008BD480D00200146014804F01EB9AA
:10406000480D00200D4885460D480E490E4A002394
:1040700002E0D458C4500433C4188C42F9D30B4A1C
:104080000B4C002301E013600432A242FBD3FDF786
:1040900079FBFCF797FBFDF719FBFEE70000022018
:1040A000000000206001002040A600086001002000
:1040B0008C750020FEE70000044B0549002240F209
:1040C00001101A6008805A60704700BF2810002055
:1040D000D80200202DE9F043303A83B006460C4662
:1040E00061B1082A06D8DFE802F055716A055C6301
:1040F00005053900322003B0BDE8F083142AF9D851
:1041000001A353F822F000BF594200083D420008C5
:104110004B420008E9410008F74100080542000849
:10412000134200088342000891420008214200081F
:10413000F5400008F5400008F5400008F54000088B
:10414000F5400008F5400008F54000082F4200083F
:1041500075420008DB410008674200084FF0040880
:1041600005274FF0020945462046FFF7EDF8C368E2
:104170009D4228BF1D46012D88BF05F1FF35CDE9C1
:10418000007543464A4621463046FEF71BF903B008
:10419000BDE8F0830A274FF01D084FF008093D469F
:1041A000E2E705274FF00E084FF002093D46DBE736
:1041B00004274FF00B084FF002093D46D4E70A27C9
:1041C0004FF01D084FF002093D46CDE70A274FF09A
:1041D0001D084FF004093D46C6E750274FF0EF0891
:1041E0004FF00F093D46BFE750274FF0EF084FF063
:1041F00005093D46B8E750274FF0EF084FF0040996
:104200003D46B1E750274FF0EF084FF002093D4619
:10421000AAE750274FF0EF084FF001093D46A3E70A
:1042200050274FF0EF084FF006093D469CE73C272A
:104230004FF0B0084FF009093D4695E750274FF081
:10424000EF084FF019093D468EE750274FF0EF0871
:104250004FF00A093D4687E750274FF0EF084FF02F
:1042600032093D4680E750274FF0EF084FF06409D0
:104270003D4679E750274FF0EF084FF008093D46DB
:1042800072E732274FF095084FF001093D466BE782
:1042900028274FF077084FF001093D4664E700BF3B
:1042A0002DE9F04389B0012307460D4603930DF134
:1042B00010080DF1140914E0039BEB5C6BBB069B2B
:1042C000032B264626D0082B27D1079B082B24D169
:1042D000DDE9042321463846FEF742F902281DD1C4
:1042E0002EBBCDF8008006AB2C2203A92846FFF791
:1042F000EBF80446B8B1CDF8009007AB3B2203A918
:104300002846FFF7E1F80028D6D0069B032B4FF094
:104310000006D8D1079B032B03D0322009B0BDE89B
:10432000F0830024D4E7039BEB5C002BF5D1022043
:10433000F4E700BF2DE9F04300248DB00227CDE95A
:104340000544CDE9074780460D461646002A3BD076
:104350008B780322422B089251D0502B30D10DF193
:1043600020093A4609AB49462846FFF7E9F838B331
:10437000089BEA5C01333D2A089321D106AB0093E8
:104380002C220AAB49462846FFF79EF8C0B107AB7E
:1043900000933E220BAB49462846FFF795F80746A7
:1043A00070B10A9B032B36D0082B09D10B9B082B2D
:1043B00006D14946284605AB0122FFF7C1F868B986
:1043C00032200DB0BDE8F083084609AB3A4608A993
:1043D000FFF7B6F80028F3D034463746079B03931F
:1043E000069B0293CDE900749DF824209DF81410DB
:1043F00033464046FEF746F90DB0BDE8F0830DF1B7
:1044000020093A4609AB49462846FFF799F8044681
:104410000028ADD1D4E70B9B032BD1D10027C8E7EF
:104420002DE9F043ADF6BC7D0C460723054601930C
:10443000022202AB01A92046FFF782F850B1019B8E
:1044400014F803800133B8F13D0F01934BD0B8F15C
:104450003F0F06D04FF0320840460DF6BC7DBDE858
:10446000F083E45C002CF5D10298FDF751FB0028A5
:1044700063D003884FF6FF72934258D004AFB3F570
:10448000FA6F4FF02B0299463A7028BF4FF4FA6941
:10449000002B4FD000F102083E4618F80400000936
:1044A000FFF784F8707018F8040000F00F00FFF7B1
:1044B0007DF80134A3B2994506F8020FEDD809F151
:1044C000FF339BB25B001A1D92B203330D21F954E6
:1044D0002846394600F0F6FD4FF0010840460DF63B
:1044E000BC7DBDE8F083E25C04AFB2B13E4600257E
:1044F00009E0019B039AE35C06F8012B01355BB1EF
:10450000B5F5FA6FA8D003AB022201A92046FFF748
:1045100017F80028EDD19DE7AAB202983946FDF7B9
:104520001FFB804640460DF6BC7DBDE8F08304AF1E
:104530002B233B7002220123C8E74FF03D088BE795
:104540002DE9F043CFB005460C461646FEF72EFB8C
:10455000002859D0002E00F068812178A1F12A03AB
:104560004F2B55D8DFE813F02801540054005400B5
:10457000540054005400540054005400540054009B
:10458000540054005400540054005400540054008B
:104590005400540054004C01540063015400540072
:1045A0007001540054005400540054007B018B01EE
:1045B000540022025400540054009B005400540044
:1045C000D400540054009B00540054005400540084
:1045D000540054005400540054005400540054003B
:1045E0001B01540054005400540054005400540063
:1045F00054005400540054005400A20054005400CD
:10460000540054005400A2002846FEF733FDA1E7F1
:1046100000232846CDE91333CDE91733FEF7D0FA4E
:104620002378C0074FF40002423B16901992322BB8
:1046300000F2E681DFE813F02003E4011303E40154
:10464000E401E401E401E401E401E401E401E40142
:10465000E401E401E401E4010C03E4010803E401E2
:10466000E401E401E401E401E401E401E401E40122
:10467000E401E401E401E4012E03E4012A03E4017E
:10468000E401E401E401E401E401E401E401E40102
:10469000E401E401E401E401AE02E401B102022E0E
:1046A00000F0E18132204FB0BDE8F08301220F928B
:1046B00010AB2C220FA92046FEF7E0FE0028F1D017
:1046C00011AB2C220FA92046FEF7D8FE0028E9D016
:1046D00012AB2C220FA92046FEF7D0FE0028E1D015
:1046E0001CAB00220FA92046FEF7C8FE0028D9D037
:1046F00021781C98DDE91132A1F17901B1FA81F13B
:10470000CDE900204909109A2846FDF75BFECAE76B
:10471000012EC7D10020FEF717FE07463046FEF7F0
:1047200013FE064601F0FAF80DF148090446484622
:10473000FFF79CF901F0F6F88046FDF791F8C4F315
:1047400007210B91C4F30741240ECDF830900A9154
:104750000994F1680891B168079171680691316810
:104760000591F9680491B968039179680291D34978
:104770000346A1FB03133868990CCDE900104246AB
:10478000CF49D04B1CA8FBF79DFD1CA8FCF758F89F
:104790001CA982B2284600F095FC012083E76378CB
:1047A0003A2B00F0A482012E7FF47CAF28464FB054
:1047B000BDE8F043FDF756BFC3492046FCF7C0FDF6
:1047C000002800F08782C1492046FCF7B9FD002887
:1047D00000F0C681BE492046FCF7B2FD002800F07B
:1047E0006982BC4907222046FCF75EFD002840F0A4
:1047F0000781214628464FB0BDE8F043FFF710BEC1
:10480000022E7FF44FAF2846FEF7D0F9002840F083
:1048100066826378302B00F06482312B7FF442AFE4
:10482000AD4A535D43F00103535502203BE7012E8F
:104830007FF438AF2846FDF7ADFCA84AA64B00210F
:1048400042F825105E55A8E763783A2B00F0038103
:10485000214628464FB0BDE8F043FFF721BD0121B6
:104860001C9112AB002220461CA9FEF707FE00286F
:104870003FF418AF12992846FEF77EF913E7012E90
:104880007FF710AF631E1E4414F8011FA1F130031F
:10489000432B3FF607AF01A252F823F0054A000868
:1048A000054A0008A5460008A5460008A5460008D8
:1048B000A5460008A5460008A5460008A54600082C
:1048C000A5460008A5460008A5460008A54600081C
:1048D000A5460008A5460008A5460008A54600080C
:1048E000974A0008A5460008A54600088B4A00081C
:1048F000554B0008494B0008A5460008A54600088E
:104900003F4B0008A5460008A5460008A54600083C
:10491000334B0008A5460008A5460008A546000838
:10492000A54600082D4A0008034B0008A5460008CC
:10493000A5460008A5460008A5460008A5460008AB
:10494000A5460008A5460008A5460008A54600089B
:10495000A5460008A5460008A5460008A54600088B
:104960001B4B0008A5460008A54600080F4B000891
:10497000F74A0008EB4A0008A5460008A5460008CB
:10498000E14A0008A5460008A5460008A54600081B
:10499000AF4A0008A5460008A5460008A54600083D
:1049A000A54600082D4A00087F4A0008022E3FF75E
:1049B00079AE47D16378453B0E2B3FF673AE01A22B
:1049C00052F823F08B4B0008A5460008A5460008C6
:1049D000A5460008814B0008A5460008A54600082A
:1049E000A5460008A5460008774B0008A546000824
:1049F000A5460008A5460008A54600086D4B00081E
:104A0000312050E62846FEF7D1F8002840F06781B3
:104A10002378324AA3F13103B3FA83F35B095B00D5
:104A200042F82530A6427FF42FAFFEE6A1F15201F5
:104A3000B1FA81F149092846FEF77EF80028F1D144
:104A4000362030E6254B53F8251028464FB0BDE8F8
:104A5000F043FDF7F9B90122214628464FB0BDE8E1
:104A6000F043FFF767BCA1F159016278B1FA81F117
:104A7000490928464FB0BDE8F043FFF72BBB164A63
:104A8000535D23F004035355CCE7134A535D43F0C1
:104A900010035355C6E72846FEF788F8002840F073
:104AA0001E810D4A535D43F001035355BAE70A4A8C
:104AB000535D23F002035355B4E700BF83DE1B436D
:104AC000A8A400081806260058A5000860A500083C
:104AD0006CA5000878A50008D80200202810002046
:104AE00000212846FEF75EFA9CE7904A535D23F0CA
:104AF0002003535596E78D4A535D23F00803535521
:104B000090E78A4A535D43F0040353558AE7874A86
:104B1000535D23F01003535584E72846FEF746F80B
:104B2000002840F0DC80814A535D23F00103535597
:104B300078E77E4A535D43F00203535572E7012143
:104B40002846FEF72FFA6DE7784A535D43F02003BD
:104B5000535567E7754A535D43F00803535561E7C2
:104B600003204FB0BDE8F043FCF7B4BE704B022108
:104B700043F8251069E76E4B002143F8251064E7E0
:104B80006B4B032143F825105FE7694B042143F881
:104B900025105AE74FF000531493189BB3F5001FEC
:104BA00063D0139BB3F1804F4FF001030F9314BFF9
:104BB0000322082212AB0FA92046FEF7C1FC0028F1
:104BC0003FF470AD139B002B6BD1129BB3F5006FBC
:104BD0006ED210AB01220FA92046FEF7B1FC0028CF
:104BE0003FF460AD189B109813B908283FF65AADF2
:104BF000149B1590B3F1005F18D0FEF7C1FB00289D
:104C000014DD1CAF00EB07080CE002220FA92046C0
:104C1000FEF796FC00283FF445AD119B07F8013BD9
:104C2000B84503D00F9BB34211ABEEDB3F4B5B5D4E
:104C30009B0772D40F9BB3427FF434AD1CAA12A918
:104C4000284600F075FA2EE54FF080431393A4E751
:104C50004FF080424FF00053CDE913239DE74FF40E
:104C600000124FF08043189213932846FDF7B6FFC9
:104C7000002896D13A2016E54FF400134FF4801225
:104C8000CDE917234FF080431393EEE74FF4001361
:104C90001893EAE74FF480124FF40013CDE917237D
:104CA000E3E7B3F1804F94D1129BB3F1005F90D34F
:104CB0003D20F8E40220FCF7DFFD00283FF4C0AE01
:104CC0001C4B1D490322022808BF1946284600F044
:104CD000F9F962E54FB0BDE8F043FEF7ABBA342016
:104CE000E1E4124A535D23F0010353559DE502228E
:104CF0001CAB204612A91292FEF722FC00283FF4BA
:104D0000D1AC0023CDE90233CDE900339DF870200A
:104D100019462846FDF7B6FCC5E40FA920461AAB94
:104D20000222FEF70DFC002884D1BBE4D80200204B
:104D300028100020A0A40008A4A4000830B5002476
:104D400044540378262B04BF012400190A4683B07B
:104D500008BF01F1FF3201462046FFF7F1FB0128B1
:104D6000254603461AD0144A0228125D18D092062E
:104D700007D412490122284603B0BDE8304000F0B4
:104D8000A1B923210D248DF804100322284601A97E
:104D90008DF805308DF8064000F094F903B030BD71
:104DA000910607D506490246284603B0BDE83040C3
:104DB00000F088B90349DDE7D802002084A5000887
:104DC00080A5000854A5000830B589B00446FDF759
:104DD0006FFFC8B12046FDF763FF0579437801787E
:104DE00082780195C07800900A4303A80749FBF731
:104DF00069FA0A2203A9204600F064F92046FEF76A
:104E000019F82046FDF752FA09B030BD88A5000810
:104E100010B584B00A460446064901A8FBF752FAC9
:104E200001A8FBF70DFD01A982B2204600F04AF966
:104E300004B010BD9CA50008104B1B5C13F01003C0
:104E40001AD070B5054696B008460E46FBF7F8FC3A
:104E5000502888BF0A4E0B499ABF841CA4B216245E
:104E600032466846FBF72EFA28462246694600F08D
:104E700029F9012016B070BD18467047D8020020ED
:104E8000A4A50008BCA50008014B0122DA60704708
:104E9000147500200C4B41F6081202FB00F01918A3
:104EA00001F5C85C0022BCF800C002336CF30F02AD
:104EB00000F5C8506CF31F4241F6061C1A5000233F
:104EC00001F80C30704700BFDC1000202DE9F047DE
:104ED000054672B6BFF34F8FBFF36F8F734ED6F890
:104EE000203262B6BFF36F8FD6F824229A4251D097
:104EF00002F1800356F823C0BCF1000F3BD06C4F89
:104F0000DFF8B09139780024A0460AE08E465FFAB7
:104F10008AF130443970035D09F80E30013464457C
:104F200029D206EB821390011B5D0D2B01F1010AC2
:104F300011D0A429EAD9002208212846FDF79AFEBB
:104F4000D6F8242202F180034FF0000E56F823C059
:104F500001219001DDE74846FFF7F0FED6F8242254
:104F600087F8008002F18003013456F823C06445BD
:104F70004FF00001D5D372B6BFF34F8FBFF36F8FE1
:104F8000D6F82432013303F00703C6F8243262B6A0
:104F9000BFF36F8F4848494A00F54056F468631CD8
:104FA000A2FB031222F0010101EB52029B1A3269AB
:104FB0009A4205D004F5406450F82420002A62D1BA
:104FC00072B6BFF34F8FBFF36F8F34693B4B013421
:104FD000A3FB042323F0010202EB5303E41AF3685A
:104FE000A34257D162B6BFF36F8F354F41F6081613
:104FF00005FB06F6BC1904F5C85808F1020821E0C3
:10500000B8F8001001F1240201EBC10106EB821295
:1050100006EB81013A443944FDF7EEF841F60411FC
:10502000B8F80030625A41F606100132013302F03E
:105030003F024FF0000C03F03F03625204F800C03F
:10504000A8F8003004F5C853B8F800201B889A422D
:1050500041F60611284601D1635C93B1FDF7E4FDEA
:1050600002462846002ACBD141F6081303FB0577F8
:1050700041F60613FB5C23B1BDE8F0470421FDF7C0
:10508000F9BDBDE8F08703F54062F360002340F806
:10509000223095E704F5406330F8231000EB04302C
:1050A00000F0B2FB00289DD134619BE7EC42002068
:1050B000301000203410002014450020ABAAAAAA0A
:1050C000DC1000202DE9F041184C04F54056C2F5E3
:1050D0008058F36803F5406C154654F82C7007F1BE
:1050E000010EF0451BD3024607EB033020441B039F
:1050F00042B1012A23440CBF2622242244F82CE08A
:10510000DA5501302A46FBF72BFEF36803F54063BE
:1051100054F823202A4444F82320BDE8F081BDE858
:10512000F04100220821FDF7A5BD00BF1445002075
:105130002DE9F04707460E461446FDF75DFD0228AF
:10514000804659D1DFF8DC9041F6081507FB05F5DC
:1051500009EB050341F606129A5C002A4FD103F5CC
:10516000C853B4461E8806EBC60605EB86064E44B9
:105170000CF1200ADCF80000DCF80410DCF8082050
:10518000DCF80C30B646AEE80F000CF1100CD4453C
:105190007646EFD141F6081303FB0793DCF80000D5
:1051A000CEF8000003F5C853A4461B88243305EB52
:1051B00083154D4404F14006DCF80000DCF80410CF
:1051C000DCF80820DCF80C302C460FC40CF1100C75
:1051D000B4452546F0D141F6081303FB079909F5BC
:1051E000C85241F60411138839F80110013303F055
:1051F0003F03994213800CD04046BDE8F087384603
:10520000002204214FF03708FDF734FD4046BDE889
:10521000F08741F60613012209F803204046BDE855
:10522000F08700BFDC1000202DE9F04F8B69ADB096
:105230000E4680460192002B75D18B68B3F1005F5A
:105240000CBF722374238DF80830D6E900B30CBF6D
:1052500052215421B3F1804F75D005274FF0060934
:1052600000974FF0040A0325691E6B1C02AAC9B2FD
:10527000154408336D1A0DEB03040BF00F00FEF715
:1052800095F904F8010DA5424FEA1B1BF5D1F5680D
:10529000E8B2FEF78BF90AF1B0030DEB030AB3682D
:1052A0000AF8A80CB3F1005F57D1504B13F808303F
:1052B0005B0704D5B369B3F5001F00F085804C4C43
:1052C00007F1B0030DEB030704F540550D2307F874
:1052D000A83CEB6803F54066C9F5805254F82610E7
:1052E0004F1CBA4268D301EB033020441B03B8F1D2
:1052F000000F09D0B8F1010F23440CBF262224224D
:1053000044F826705A5401304A4602A9FBF728FD9A
:10531000EB6803F5406354F823204A4444F8232003
:105320002DB0BDE8F08F4B69B3F5801F0CBF622331
:1053300064238DF80830D6E900B30CBF4221442124
:10534000B3F1804F89D10A278DF808104FF00B096F
:1053500000974FF0090A082586E72846FEF710F85F
:10536000B0F1000AA1DD019C009D04EB0A07207842
:105370006B1C00095FFA83F9FEF718F905F1B00319
:105380006B44023503F8A80C14F8010B00F00F0071
:10539000FEF70CF909F1B0036B44BC42EDB203F81F
:1053A000A80CE4D1009B03EB4A0B5FFA8BF707F1E3
:1053B00001095FFA89F978E70022082140462DB0FB
:1053C000BDE8F04FFDF756BC3369B3F1004F7FF4F1
:1053D00076AF07F1B0030DEB0307532307F8A83CA2
:1053E00009F101034F465FFA83F968E7D80200200C
:1053F0001445002030B585B091F820201A490446A4
:1054000001A8FAF75FFF194B03F5405C40F6FC7109
:10541000DCF80C2002F5406E53F82E00451C8D423E
:105420001BD800EB02311944120364B9019A0A60D7
:10543000DCF80C2002F5406253F82210043143F8E6
:10544000221005B030BD012C1A440CBF26242424A0
:1054500043F82E5014540131E8E700220821204679
:10546000FDF708FC05B030BDC4A5000814450020B8
:1054700010B5084C94F84000FF2808D0064B94F86B
:1054800041209B6821469847FF2384F84030002044
:1054900010BD00BF2C7500202801002010B582B07F
:1054A000037800228DF80520ADF8062013F0600285
:1054B000044617D0202A05D02046FEF7CDFA022058
:1054C00002B010BDC28890F801C0EAB11B0633D506
:1054D0001E4B1F499B6860469847E1881C48FEF7B1
:1054E000D5FA16E043780A2B1BD00B2B13D0002BD8
:1054F000E2D1184B93F89C32032BDDD102210DF140
:105500000600FEF7C3FA04E0104B01469B686046B4
:1055100098470020D4E70F4B93F89C32032BF8D028
:10552000CAE70C4B93F89C32032BC5D101210DF136
:105530000500FEF7ABFAECE70548114680F840C0DD
:1055400080F84120FEF7BAFAE3E700BF2801002007
:105550002C7500209C0A002038B5124B124D0124F6
:105560004022022181201C70FEF7FAFC4022022119
:105570002046EC62FEF7F4FC082203218220C5F8E5
:105580006C41FEF7EDFC094B2C641B689847084BF7
:105590000025596C5D65402220469D65FEF74CFD57
:1055A000284638BD287500209C0A002028010020CC
:1055B0002C75002008B5FEF74FFD074B07491B78F7
:1055C000C8640BB9022008BD054B486CDB684C3140
:1055D0009847002008BD00BF287500202C750020CA
:1055E0002801002008B5104B1A780AB9022008BD1E
:1055F0000E4A00EB800302EB830CDCF81C2042B166
:105600000B4901EBC3031B6AB2FBF3F103FB11224D
:1056100022B1084B00225A65002008BD1146CCF883
:105620001C20FEF7F9FCF7E7287500209C0A0020F3
:10563000480D00202C75002070B50D4C23780BB957
:10564000002070BD0B4E8120FEF79AFC0025012042
:10565000F562FEF795FC8220C6F86C51FEF790FCCF
:10566000054B35645B6898472570002070BD00BF0E
:10567000287500209C0A00202801002000B583B076
:10568000182000210190402301AA0846FEF738FCAB
:1056900008B3402301AA00218020FEF731FCD0B1DD
:1056A000402301AA00210120FEF72AFC98B14023E3
:1056B00001AA00218120FEF723FC60B1082301AA82
:1056C00000218220FEF71CFC80F001004000C0B2E7
:1056D00003B05DF804FB022003B05DF804FB00BFDB
:1056E000024B986419650020704700BF2C7500209C
:1056F000014B5864002070472C75002038B50B4BC7
:105700001B7883B10A4B5C6D0CB1012038BD186D5C
:10571000084D996C286301225A6582B28120FEF7F8
:105720007BFC204638BD022038BD00BF2875002014
:105730002C7500209C0A002008B5064B1B780BB97D
:10574000022008BD044B4022596C0120FEF774FC76
:10575000002008BD287500202C750020002070470F
:105760000020704708B5094B03F54052002110692D
:1057700003EB0030FFF7B4FF054BD3F8200203EB37
:105780008010FFF7B5FF002008BD00BF14450020C2
:10579000EC420020212806D14FF4E13000220823FA
:1057A00008608A808B710020704700BF10B5154CCF
:1057B000D4E98820531C03F00703984213D1002238
:1057C00010460421FDF756FA002204210120FDF7BE
:1057D00051FAD4F8200204EB8010FFF789FFFFF79D
:1057E000ABFF012010BD8032096844F8221004EBA1
:1057F0008310C4F82032FFF77BFFFFF79DFF0020E6
:1058000010BD00BFEC42002008B5054B5B6D0BB12D
:10581000012008BDFFF764FFBDE80840FFF76EBF39
:105820002C750020704700BF704700BF10B5094BB2
:105830004FF0FF3200249A639C631A641C649A62DE
:105840009C62DA62DC621A631C63FFF7EDFF20469C
:1058500010BD00BF0010024038B50F4B1B680BB9DC
:10586000012038BD0D494FF47A720546B2FBF3F3BF
:105870000868B0FBF3F000F0B9F804460028EFD157
:105880000F2DEDD8024629464FF0FF3000F064F8A6
:10589000034B20461D6038BD380100205400002015
:1058A0003C0100200A4A136823F4806310B50320EA
:1058B000136000F03FF80020FFF7CEFF10B1012485
:1058C000204610BD0446FFF7ADFF204610BD00BFC7
:1058D00000200240034A0449136809680B4413601E
:1058E000704700BF8875002038010020014B186800
:1058F000704700BF8875002038B50446FFF7F6FFF3
:10590000631C054602D0044B1B681C44FFF7EEFFE6
:10591000401BA042FAD338BD380100200048704730
:1059200000050201024B1868C0F30B00704700BF6E
:10593000002004E00749CA6803024FF6FF0003F4A1
:10594000E0630240134343F0BF6343F40033CB6092
:10595000704700BF00ED00E01B4BDB68C3F3022380
:1059600000B5C3F1070EBEF1040F03F1040C28BF0C
:105970004FF0040EBCF1060F1CD9A3F1030C4FF03D
:10598000FF3303FA0CF322EA03024FF0FF3303FA6A
:105990000EF321EA030303FA0CF313431B0100285F
:1059A000DBB20ADB00F1604000F5614080F80033B3
:1059B0005DF804FB00229446E7E7044A00F00F007C
:1059C000024413765DF804FB00ED00E0FCEC00E01F
:1059D000002807DB044A4109012300F01F0083402F
:1059E00042F82130704700BF00E100E00138B0F11B
:1059F000807F01D30120704710B44FF0E023064CA4
:105A000058614FF0F00C84F823C0002207211046A3
:105A10009A6110BC1961704700ED00E0704700BF4B
:105A200008B5FFF7FBFF08BD704700BF002800F076
:105A30001C812DE9F04190F85C30044603F0FF0230
:105A4000002B73D02268936923F010039361FFF752
:105A50004DFF054604E0FFF749FF401B0A285BD8CD
:105A600023689A691207F6D49A6942F001029A6192
:105A7000FFF73CFF054604E0FFF738FF401B0A280C
:105A80004AD821688B69DB07F6D58B697F4A43F0DA
:105A9000020391428B6100F0D580237C012B8B693E
:105AA0000CBF23F0400343F040038B61637C012B68
:105AB0008B690CBF43F4804323F480438B61A37C48
:105AC000012B8B690CBF23F4805343F480538B610B
:105AD0008B69A068E26823F4407303438B618B6990
:105AE00023F0A4038B610B69012A23F010030B61DF
:105AF00021D022B3022A8B6900F0C38043F08003D7
