:020000040800F2
:10000000000002203D3200084D0D0008510D00088F
:10001000550D0008590D00085D0D00080000000096
:10002000000000000000000000000000610D00085A
:10003000650D000800000000690D00086D0D000846
:100040008D3200088D3200088D3200088D32000894
:100050008D3200088D3200088D3200088D32000884
:100060008D3200088D3200088D3200088D32000874
:100070008D3200088D3200088D3200088D32000864
:100080008D3200088D3200088D320008890D00087D
:100090007D0D0008950D00088D3200088D32000896
:1000A0008D3200088D3200088D3200088D32000834
:1000B0008D3200088D3200088D3200088D32000824
:1000C0008D3200088D3200088D3200088D32000814
:1000D0008D3200088D3200088D3200088D32000804
:1000E0008D3200088D3200088D3200088D320008F4
:1000F0008D3200088D3200088D3200088D320008E4
:100100008D3200088D3200088D3200088D320008D3
:100110008D3200088D3200088D3200088D320008C3
:100120008D3200088D3200088D3200088D320008B3
:100130008D3200088D3200088D3200088D320008A3
:100140008D3200088D3200088D3200088D32000893
:100150008D3200088D3200088D3200088D32000883
:100160008D3200088D3200088D3200088D32000873
:100170008D3200088D3200088D3200088D32000863
:100180008D3200088D3200088D3200088D32000853
:100190008D320008000000008D3200088D3200080A
:1001A0008D3200088D3200088D3200088D32000833
:1001B0008D3200088D3200088D3200088D32000823
:1001C0008D3200088D3200088D3200088D32000813
:0801D0008D3200088D32000899
:1001E00010B5054C237833B9044B13B10448AFF371
:1001F00000800123237010BD680200200000000071
:1002000078AB000808B5034B1BB103490348AFF3B3
:10021000008008BD000000006C02002078AB0008E0
:10022000034613F8012B002AFBD1181A0138704736
:1002300001F0FF01102A2BDB10F0070F08D010F897
:10024000013B013A8B422DD010F0070F42B3F6D19B
:10025000F0B441EA012141EA014122F007047FF0B4
:1002600000070023F0E80256083C85EA010586EA0B
:10027000010685FA47F5A3FA87F586FA47F6A5FA47
:1002800087F68EB9EED1F0BC01F0FF0102F0070253
:1002900032B110F8013B013A83EA010313B1F8D1FE
:1002A0000020704701387047002D06BF35460338DF
:1002B000073815F0010F07D1013015F4807F02BF18
:1002C000013015F4C03F0130F0BC0138704700BF69
:1002D00080F0004002E000BF81F0004142001FBFFB
:1002E0005FEA410392EA030F7FEA226C7FEA236C04
:1002F0006AD04FEA1262D2EB1363C1BFD2184140F9
:1003000048404140B8BF5B42192B88BF704710F08E
:10031000004F40F4000020F07F4018BF404211F031
:10032000004F41F4000121F07F4118BF494292EA99
:10033000030F3FD0A2F1010241FA03FC10EB0C00C5
:10034000C3F1200301FA03F100F0004302D5494252
:1003500060EB4000B0F5000F13D3B0F1807F06D3FF
:1003600040084FEA310102F10102FE2A51D2B1F1F7
:10037000004F40EBC25008BF20F0010040EA0300EC
:100380007047490040EB0000013A28BFB0F5000F6C
:10039000EDD2B0FA80FCACF1080CB2EB0C0200FA22
:1003A0000CF0AABF00EBC25052421843BCBFD04071
:1003B0001843704792F0000F81F4000106BF80F4EB
:1003C00000000132013BB5E74FEA41037FEA226CAE
:1003D00018BF7FEA236C21D092EA030F04D092F079
:1003E000000F08BF0846704790EA010F1CBF0020AD
:1003F000704712F07F4F04D1400028BF40F000400A
:10040000704712F100723CBF00F50000704700F029
:10041000004343F0FE4040F4000070477FEA226250
:1004200016BF08467FEA23630146420206BF5FEA21
:10043000412390EA010F40F4800070474FF0000321
:1004400004E000BF10F0004348BF40425FEA000CE8
:1004500008BF704743F0964301464FF000001CE090
:1004600050EA010208BF70474FF000030AE000BFE6
:1004700050EA010208BF704711F0004302D5404224
:1004800061EB41015FEA010C02BF84460146002096
:1004900043F0B64308BFA3F18053A3F50003BCFAB1
:1004A0008CF2083AA3EBC25310DB01FA02FC63445E
:1004B00000FA02FCC2F12002BCF1004F20FA02F265
:1004C00043EB020008BF20F00100704702F1200258
:1004D00001FA02FCC2F1200250EA4C0021FA02F2B9
:1004E00043EB020008BF20EADC7070474FF0FF0CBE
:1004F0001CEAD0521EBF1CEAD15392EA0C0F93EAB9
:100500000C0F6FD01A4480EA010C400218BF5FEA5A
:1005100041211ED04FF0006343EA501043EA5111CD
:10052000A0FB01310CF00040B1F5000F3EBF4900C7
:1005300041EAD3715B0040EA010062F17F02FD2ACB
:100540001DD8B3F1004F40EBC25008BF20F00100AE
:10055000704790F0000F0CF0004C08BF49024CEAC5
:10056000502040EA51207F3AC2BFD2F1FF0340EA57
:10057000C250704740F400004FF00003013A5DDCC8
:1005800012F1190FDCBF00F000407047C2F1000209
:10059000410021FA02F1C2F1200200FA02FC5FEAF6
:1005A000310040F1000053EA4C0308BF20EADC7040
:1005B000704792F0000F00F0004C02BF400010F4B2
:1005C000000F013AF9D040EA0C0093F0000F01F05F
:1005D000004C02BF490011F4000F013BF9D041EA81
:1005E0000C018FE70CEAD15392EA0C0F18BF93EA83
:1005F0000C0F0AD030F0004C18BF31F0004CD8D1AD
:1006000080EA010000F00040704790F0000F17BF33
:1006100090F0004F084691F0000F91F0004F14D079
:1006200092EA0C0F01D142020FD193EA0C0F03D1D1
:100630004B0218BF084608D180EA010000F00040D4
:1006400040F0FE4040F40000704740F0FE4040F4AF
:10065000400070474FF0FF0C1CEAD0521EBF1CEA4E
:10066000D15392EA0C0F93EA0C0F69D0A2EB03026C
:1006700080EA010C49024FEA402037D04FF0805306
:1006800043EA111143EA10130CF000408B4238BFCB
:100690005B0042F17D024FF4000C8B4224BF5B1AD9
:1006A00040EA0C00B3EB510F24BFA3EB510340EA27
:1006B0005C00B3EB910F24BFA3EB910340EA9C00D5
:1006C000B3EBD10F24BFA3EBD10340EADC001B0145
:1006D00018BF5FEA1C1CE0D1FD2A3FF650AF8B42E9
:1006E00040EBC25008BF20F0010070470CF0004CF6
:1006F0004CEA50207F32C2BFD2F1FF0340EAC25021
:10070000704740F400004FF00003013A37E792F0E1
:10071000000F00F0004C02BF400010F4000F013A3F
:10072000F9D040EA0C0093F0000F01F0004C02BF3A
:10073000490011F4000F013BF9D041EA0C0195E7A3
:100740000CEAD15392EA0C0F08D142027FF47DAF3C
:1007500093EA0C0F7FF470AF084676E793EA0C0F2C
:1007600004D14B023FF44CAF08466EE730F0004C2A
:1007700018BF31F0004CCAD130F000427FF45CAFBA
:1007800031F000437FF43CAF5FE700BF2DE9F04755
:1007900000F08CF900B9FEE701F0DEFB0028FAD08A
:1007A00002F0B2FA0028F6D001F0D8FD0028F2D00D
:1007B00003F0CEFA00F04CFB01F0F0FE02F068FD11
:1007C00000241F4DDFF87C801F4EA146012702F058
:1007D0006FFC18B101F00EFC2F70F8E72B784BB3CB
:1007E000287088F8009001F029FC04F055FA824640
:1007F0000146204601F0F6FC2046514603F000FE7B
:100800002046514603F09CF82046514601F07CF802
:100810003368AAEB0303632B84F00104D7D9504655
:10082000C6F800A001F026FE00F0E8FD504601F0F9
:1008300079FECCE798F80030002BD6D0D1E700BF86
:10084000880200200000002084020020024B4FF0AC
:1008500000629A60704700BF00ED00E01B4B00B5DE
:10086000986D40F0020098659B6D95B003F002030F
:1008700044220021009303A8009B09F01BFD144BA8
:10088000144A1B681449A2FB03239B0C013B4FF045
:10089000FF3201A8CDE90113049208F0EDFD18B173
:1008A000002015B05DF804FB01A808F089FE0028BF
:1008B000F6D102460146152005F02CF8152005F06A
:1008C00067F8012015B05DF804FB00BF001002407E
:1008D0000400002083DE1B4300040040024A13682A
:1008E00001331360704700BF900200200249034AA1
:1008F00000234B6213607047000400409002002008
:1009000008B504F0E5F940F26943984206D940F28F
:10091000794398420CBF0220002008BDB0F58D6FCE
:1009200034BF0020022008BD014B1868704700BF8B
:100930008C020020034A044B10685B6A43EA0040C3
:10094000704700BF9002002000040040014B18686F
:10095000704700BF9002002010B58EB004463422CC
:10096000002101A809F0A6FC01A806F099FA022CC2
:1009700006D0032C16D0012C0AD000200EB010BDDA
:10098000079B13F0806F0CBF012002200EB010BD3A
:10099000079B03F4E063B3F5806F14BF01200220CE
:1009A0000EB010BD079B13F0806F14BF0120022012
:1009B0000EB010BD30B58FB0044601F073F910B120
:1009C00034200FB030BD04F083F940F26942904208
:1009D00005D8B0F58D6F06D236200FB030BD40F28D
:1009E00079429042F8D13422002101A809F062FC3A
:1009F00001A806F055FA022C32D0032C41D0012C6C
:100A0000EAD1079B03F4E063B3F5806F26D0302270
:100A1000002102A809F04EFC4FF48063CDE90643A3
:100A200004220192204B9A694CF2FA3142F0704252
:100A30009A61196105F0D4FEA0BB05F0F1FE88BBF8
:100A400001A806F011F8044605F0FEFE054605F083
:100A5000DBFE44EA05030343DBB21BBB0220B0E725
:100A6000079911F08061F9D1302202A809F022FC27
:100A700004214FF4C4424FF04863CDE906230191AD
:100A8000D0E7079B5B01E9D53022002102A809F0DD
:100A900011FC04214FF4C4424FF00863CDE9062352
:100AA0000191BFE73B208CE70020024070B5B6B053
:100AB00004F0CEF818B10024204636B070BD4A4D7F
:100AC000AB6D43F08053AB65AB6D03F08053009387
:100AD0000446009B07F0EEFB2B6E012633432B668A
:100AE0002B6E1494334021204FF48031CDE9120154
:100AF000019303210F20CDE91A16019A17941422AD
:100B000003210223CDE906011C9212A84FF4806252
:100B1000CDE91544CDE91863CDE91D33CDE90922AE
:100B200008941F9307F0A0FC0028C4D1082106A850
:100B300007F012FF0028BED10146502222A809F07A
:100B4000B9FB4FF440524FF0807321A821922F93AC
:100B500008F030F804460028ADD14FF00053CDE93D
:100B60000C034BF67F322223CDE90F230CA8202360
:100B700011930E9408F056FCEB6C3343EB64EB6C72
:100B800033400293029BEB6C43F00203EB64EB6C8B
:100B900003F002030393039BEB6C43F00403EB6449
:100BA000EB6C03F004030493049BEB6C43F0200311
:100BB000EB64EB6C03F020032246214605934FF0D3
:100BC000FF30059B04F0A6FE4FF4805008F07AF940
:100BD000064B1860FFF742FE044600283FF46BAF57
:100BE0003046FFF7E7FE67E7001002408C02002066
:100BF000FF2818D80D4AB2F8E0100D4A4FF6FF73DF
:100C000099420ED00B490C4BD1F8E01503EA812331
:100C100003F100630130A3EBC020824288BF0020B3
:100C20007047064BF6E70020704700BF0075FF1FB6
:100C300090AB00080070FF1F00FCFF0300000808D5
:100C4000FF2841D8F0B53B4B0E46B3F8E0103A4BC5
:100C500015464FF6FF72914287B02CD0374A384C78
:100C6000D2F8E02504EA822404F100640130A4EB08
:100C7000C024A34225D8B5F5FA6F22D823884FF6B1
:100C8000FF72934208BF00239D4206D12A46314697
:100C9000A01C09F0D7FA002845D02A4B9A6942F0E7
:100CA00070429A614CF2FA321A6105F099FD68B10E
:100CB000352007B0F0BD244C0130A4EBC024A34282
:100CC000D9D93D2007B0F0BD3D20704704F17843ED
:100CD000DB0A049300220123CDE9022301A90123A9
:100CE00002A8059305F0E8FDF8B9C5B12A463146DA
:100CF0000746B01C09F0C4FAC6F1080026F80859E6
:100D000009350444C5F3CC05A1190020F6E90223F6
:100D100005F0ACFC0137BBB238B99D42F4D805F000
:100D200073FD0220CEE70220CCE705F06DFD3520F3
:100D3000C8E700BF0075FF1F90AB00080070FF1FE1
:100D400000FCFF030020024000000808FEE700BF8F
:100D5000FEE700BFFEE700BFFEE700BFFEE700BF03
:100D6000704700BF704700BF704700BF08B503F071
:100D700087FFBDE8084004F033BE00BF014806F01D
:100D80009BBB00BF780D0020014806F095BB00BF5B
:100D9000780D002008B5002000F0DAFFBDE808401B
:100DA00005F0A0BB70B51646054608461C4601F086
:100DB0002DFCB6F1005F19D0049B8BB1002C14BF41
:100DC00031231E2302B2D200102894BF02F11A0070
:100DD00002F11E00059AB2F5801F15D0184470BDAF
:100DE00054B908232F2213FB002070BD44B3B4F183
:100DF000804F27D03123E5E7B4F1804FFAD10823A3
:100E0000432213FB002070BDD5E959211144D5F8C8
:100E1000602101FB02220C4901FB02F2D5E95514C5
:100E200021440131B2FBF1F20849D5F85041B2FB3F
:100E3000F4F202FB00F0A1FB002003EB904070BD38
:100E40002F2070BD432070BD40420F0083DE1B4346
:100E50002D4B2DE9F04F9A6D2C4CDFF8B4A0DFF844
:100E6000B490DFF8B4802D4F2D4E42F000729A6599
:100E70009B6D87B003F0007300930025009BAB4689
:100E8000F022002104F5D070C4E95EBBC4F850B173
:100E9000C4F860B1C4F88CB1C4F89CB184F870B1E6
:100EA00084F890B209F006FA284602F0ADFE5AF82E
:100EB000042B002A4FF001010BDB1A4BCDF814B0C4
:100EC000CDE9012153F8250001A9CDE903BB06F0C6
:100ED000F5F859F8041B18F8012B05920220CDE90A
:100EE0000110032257F8040B01A9CDE903B206F063
:100EF000E5F856F8042B226004F5257415B107B007
:100F0000BDE8F08F0125BBE70010024098020020E9
:100F10002400002014000020080000201C000020F5
:100F20000C0000202C0000202DE9F043A14E4FF4CE
:100F3000257303FB006383B093F87021002A40F00F
:100F40008180D3F85031002B78D096F87031054667
:100F50000F4683B996F804346BB903F1804303F567
:100F600004339A6B42F000729A639A6B22F000721B
:100F70009A63FFF7BBFC284602F046FE284600F0C5
:100F8000EFFE0021084601F0A1F80021012001F048
:100F90009DF8894A4FF42574525D04FB056402F004
:100FA0000102227401220023A274D4F87821636024
:100FB0006374E3636263A360D4F87C21D4F8543192
:100FC000A263E361D4F86021D4F85831D4F8501109
:100FD0002362D4F85C31E7606161A361002A40F0CC
:100FE0008480FFF7A1FC754B984223D94FF42577F5
:100FF000734B05FB07F7F419A3FB0030D4E9553216
:101000001A44D4F8503102FB033307F5B872324466
:1010100000214FF47A7C800C0CFB03F3B3FBF0F05F
:10102000C4F88401A2F80310204684F8711104F07A
:10103000DDFC58B1352003B0BDE8F0833A2003B0A1
:10104000BDE8F083342003B0BDE8F08301462046BC
:1010500004F01CFF0028EDD10221204604F02AFFF5
:101060000028E7D101221021204605F09DF9002833
:10107000E0D102464FF46041204605F0ABF98046CE
:101080000028D7D1204604F04DFFD4F86031C4F8D1
:10109000948173B1D4E959210A4402FB033332210C
:1010A000484A03FB01F1A2FB013149094B1E3E2BCB
:1010B00070D94FF4257303FB0563D3E95E2302EB7C
:1010C0000309B9F1000F46DD643737444FF00008DB
:1010D00001E0C1453FD03946204604F083FE08F1C7
:1010E000010818370028F4D0A4E7FFF71DFCD4E965
:1010F00059373B44D4F86021B0FBF2F20133B2FB24
:10110000F3F7D4F85021CAB94FF4257305FB03F364
:10111000F11803F5B070BA4234BF4FF440724FF487
:1011200080728A6031183758D1E901402033C9688C
:101130003344C3E90171C3E9034052E7FFF7F4FB0D
:10114000D4E9553213440133D4F85021B0FBF2F006
:10115000B0FBF3F2D8E74FF4257303FB0566D6E93D
:101160005E32D34214BF01220022002311460093B5
:10117000204604F069FE204604F0E6FE0146002801
:101180007FF458AF284600F0CFFF012386F8703176
:10119000022054E74246C4F89411204604F09EFE13
:1011A00000287FF447AF204604F0AAFE002880D034
:1011B00040E700BF98020020940200203F420F0049
:1011C00083DE1B431F85EB5138B5274C94F87031F3
:1011D0000BB32046002504F0CFFE204604F082FD2C
:1011E0002946F02204F5D070C4E95E55C4F8505188
:1011F000C4F86051C4F88C51C4F89C5184F8705103
:1012000084F8905209F056F8284602F0FDFC0121BE
:10121000284600F089FF94F8043403B938BD134818
:1012200004F0AAFE114804F05DFD0021F0221048F0
:10123000C4F8E413C4F8F413C4F80C14C4F810147C
:10124000C4F82014C4F8301484F8041484F8241565
:1012500009F030F8012002F0D7FC0121BDE8384048
:10126000084600F061BF00BF980200202C05002056
:10127000CC060020F8B5174F4FF4257500FB05F597
:101280007C1994F8703103B9F8BD0646204604F085
:1012900073FE204604F026FD05F5D0750021C4E953
:1012A0005E11C4F85011C4F86011C4F88C11C4F870
:1012B0009C1184F8701184F890127819F02208F0CB
:1012C000F9FF304602F0A0FC30460121BDE8F840AD
:1012D00000F02ABF980200202DE9F8432A4E4FF46F
:1012E000257404FB00640546D4F860810F469146DE
:1012F000B8F1000F13D1D4F85031FBB900237B6152
:101300004FF4257404FB05644A463946204604F030
:10131000A3FE30BB237C012B2AD0BDE8F883FFF766
:1013200003FBD4E9593213445A1CD4F85031D4F891
:101330006011B0FBF1F8B8FBF2F87BB1FFF7F4FAFB
:101340004FF4257101FB0561D1E955321344013396
:10135000D1F85021B0FBF2F0B0FBF3F39845CFD8B1
:10136000CCE728460122BDE8F843022100F008BD81
:1013700003F092FCD4F89C31C4F898010133C4F80E
:101380009C31BDE8F88300BF9802002038B5184CA6
:101390004FF4257303FB004494F870312BB1D4F85B
:1013A00038311BB194F871317BB138BD94F871219B
:1013B000002AFAD0054684F871310E4902F0F8FA95
:1013C0002846BDE8384000F0BBBD012384F87131E8
:1013D000094902F0EDFA0721204604F0A5FE204657
:1013E00004F0CAFD2046BDE8384004F0ADBD00BFA2
:1013F00098020020C8AB0008A8AB00082DE9F8430C
:10140000244C254F254EDFF898804FF0000994F8C2
:10141000703153B3D4F88C213AB3D4F890319A4256
:101420002DD8D4E9603503FB05F56D09A7FB05351B
:10143000ED0940F2654303FB05F5B5FBF2F5B54256
:1014400026D842F20F739D421DD894F8885125B1D9
:1014500000252946484602F085FA0023C4F8803169
:10146000012384F88851C4F8903104F52574B9F14A
:10147000000F01D0BDE8F8834FF00109C7E7013341
:10148000C4F89031F1E7A8FB0535C5F34735E0E72F
:101490006325DEE798020020C55A7C0A3F420F0010
:1014A0005917B7D138B54FF42575234C05FB00F01B
:1014B000251895F87051002D3CD131B3511E1F29CC
:1014C00036D8591E1F2933D8049901390F292FD82E
:1014D000059901390F292BD800F5B0700444C4E9EF
:1014E0000023049BA360059BE360FFF71DFAD4E98A
:1014F00001321249246813445A1CB0FBF4F3B3FBC5
:10150000F2F38B4214D8022038BD511EB1F5007F92
:101510000ED2591EFF290BD8049901397F2907D80B
:10152000059901397F2903D800F5A8700444D6E74E
:101530003D2038BD342038BD9802002000127A00CA
:10154000354B1B5CDB063CD52DE9F04F334F4FF498
:10155000257303FB0073B3B0DB68044603BB6E4620
:101560004FF4257504FB05F505F5A8723A442C499E
:10157000304601F077F83046FEF752FE05F5B072BE
:101580003D443A442749304401F06CF8D5F8607185
:10159000C7B93146204602F00BFA33B0BDE8F08FF0
:1015A000013B032B96BF204A204A52F823202049B2
:1015B0006E46304608F086FE3146204602F0F8F9C5
:1015C000CEE770473046FEF72BFED5F850B1194DE7
:1015D000DFF864A0DFF8649006EB000E844600F1AB
:1015E00011080FCD46F80C00CEF80C302B88CEF841
:1015F0000410CEF80820BB450CBF51464946AEF852
:10160000103006EB080008F07DFE3146204602F05F
:10161000CFF933B0BDE8F08F94020020980200208B
:1016200014AC00081CAC0008A0AC0008F0AB00082B
:1016300000AC000824AC0008F8AB0008FCAB0008C4
:10164000F8B53F4D4FF4257E0EFB005EDEE95E47A8
:1016500007EB040CBCF1070F18DC002940F2FF7403
:1016600018BF6FF06044944210D39C420ED39EF892
:1016700070618EB1BCF1010F06D1A7F10107B7FA75
:1016800087F77F098F4203D03420F8BD3D20F8BD95
:101690000024CEE95E44A446E9B14FF4257100FB75
:1016A00001F10CEB4C0C01EBCC0C2944AC44CCE923
:1016B0001D23D1F87C31CCF868300133C1F87C317E
:1016C0004FF08043CCF8643002240123CCE91B4363
:1016D000DEB90220F8BD4FF4257400FB04F40CEBD6
:1016E0004C0C04EBCC0C2C44AC44CCE91D23D4F8BA
:1016F0007831CCF868300133C4F878310222012304
:10170000CCE91B23CCF86410E2E74FF4257303FB0C
:1017100000F02F18D7E95E631E44002ED9DD643037
:101720000544002401E0A642D3D02946384604F0FF
:1017300059FB013418350028F5D03520F8BD00BF1D
:1017400098020020064B4FF4257202FB003090F8FF
:1017500070311BB9C0E95E330220704734207047F6
:101760009802002038B59DF810409DF814E0002B39
:1017700046D0884242D0012940D8002CDDF818C05C
:1017800040F2FF7518BF6FF06045654536D3DDF850
:101790001CC0654532D3132A30D84FF4257C224D26
:1017A0000CFB00FC02EB42020CEB82022A4482F8A2
:1017B000A03182F8A311DDE9063182F8A241C2F816
:1017C000A81103EA010405F1F00182F8A1E1C2F8D1
:1017D000A44105EB0C03614493F8A02112B193F8E6
:1017E000A1411CB10C338B42F6D100224FF425737A
:1017F00003FB0053022083F8902238BD3D2038BD02
:10180000FF2AC8D108494FF4257200FB02F28C1858
:1018100002F5D072881884F89032F022194608F048
:1018200049FD022038BD00BF980200202DE9F0419B
:101830004F688CB0A7F1804E0023BEFA8EFE0D4695
:1018400016460968ADF804304FEA5E1EADF8083060
:1018500000F1F00C012402E00C30604518D090F843
:10186000A031002BF8D090F8A2317345F4D1D0E923
:1018700069230B409342EFD190F8A131ABB390F8BC
:10188000A33130336B440C30604503F8284CE6D16B
:10189000AB680593D5E903230024CDE906234FF473
:1018A0000003CDE90A34DFF85C80CDE9031701AF0E
:1018B0003B5D93B102AB1B5D7BB998F8703163B1AE
:1018C000D8F86031C3B9069A082A06D8CDE908339A
:1018D0002046324603A902F049FA08F5257814B1EA
:1018E0000CB0BDE8F0810124E2E790F8A331303379
:1018F0006B4403F82C4CAFE7AB6909936B69089311
:10190000E6E700BF980200202DE9F043BD4D4FF4FB
:10191000257600FB06F6AF19C1B097F8703113B900
:1019200041B0BDE8F083044688463C22002118A857
:10193000179108F0BFFC03A9384604F0A3FCF0B9E6
:10194000B14B1B5D980703D50B9B002B40F04F81DB
:101950004FF4257303FB0453DA68002A00F0A580D6
:101960004FF4257303FB04532046D3F89C21002A2F
:10197000C4BF02F1FF32C3E9668200F0EBFB17AB94
:101980000DAA4021384604F0DFFB002800F0F88063
:1019900017AB0DAA4121384604F0D6FBE8B94FF445
:1019A000257303FB045393F89032002B40F0B7806B
:1019B0004FF4257303FB0453D3F88C21002A40F025
:1019C0008B804FF4257303FB04532046D3F880111A
:1019D0000A44C3F8802100F0E1FB4FF4257909FBAC
:1019E00004F955F809301A6DD10400F19E801A6D82
:1019F000520700F1A8801B6D9B0600F1B48006F52C
:101A00009276A919384604F08FFC4FF4257303FB36
:101A10000453D3F89C21002A05DDD3F8982102F560
:101A2000FA72424564D94FF4257303FB045393F8CB
:101A300073211AB993F87021002A69D14FF42573E4
:101A400003FB045595F87431002B7FF469AFD5F88A
:101A50009431002B3FF464AFD5F84C219342BFF48E
:101A60005FAF7E2A3FF65CAF012385F87431FEF745
:101A70005BFF664B98427FF653AFD5F89431D5F8AB
:101A80004C21D21A624BA3FB00134FF47A719B0CCA
:101A900001FB02F227A85F49B2FBF3F208F012FC47
:101AA00027A9204601F084FF3AE7D3F88C0148B11A
:101AB000089B0193099B00930699DDE9043238469F
:101AC000FFF770F94FF4257303FB0453D3F880211B
:101AD0001044C3F8800143E7129B0193139B0093CA
:101AE0001099DDE90E323846FFF75CF9024668E7E7
:101AF0000026C3F89C610721384604F015FB2046F8
:101B000002F082F832461021204600F039F98AE7C7
:101B10000122204683F87321FFF712FD8EE717AAF2
:101B20000DA93846FFF782FE42E700220221204637
:101B300000F026F955F809304FF480521A651A6DF5
:101B400052077FF558AF00220121204600F018F916
:101B50004FF4257304FB03F30422EB581A651B6D45
:101B60009B067FF54CAF00220121204600F008F9CA
:101B70004FF4257304FB03F32022EB581A653EE76C
:101B8000FEF7E4FE149B17AA43EA00430DA9204682
:101B9000149302F0B1FA4FF4257303FB045393F846
:101BA0009032F3B94FF4257303FB0453D3F88C211F
:101BB00052B1129B0193139B00931099DDE90E32F1
:101BC0003846FFF7EFF802464FF4257303FB045342
:101BD0002046D3F880110A44C3F8802100F0DEFAD1
:101BE000D6E617AA0DA93846FFF720FEDAE7FEF77A
:101BF000ADFE0A9B03A943EA004320460A9302F084
:101C0000B7FCA5E698020020940200203F420F0096
:101C100083DE1B4338AC000838B50C4B53F820303A
:101C2000002B11DD0D460A4904462A4651F82000D2
:101C300099B205F03BFB07484FF4257303FB0404FE
:101C4000012084F8725138BD002038BD24000020E6
:101C50002C00002098020020084B53F82030002B65
:101C600009DD074B4FF4257202FB0033012093F886
:101C700072310B7070470020704700BF24000020B5
:101C800098020020642908D8054B4FF4257202FB06
:101C900000330220C3F88C1170473D20704700BF0D
:101CA00098020020034B93F8700108B993F80404DC
:101CB000704700BF98020020034B4FF4257202FBCF
:101CC000003393F87001704798020020054B4FF4E1
:101CD000257202FB0033D3F83001003818BF012011
:101CE000704700BF98020020054B4FF4257202FB9D
:101CF0000033D3F86001003818BF0120704700BFDF
:101D0000980200200A4B4FF4257202FB003090F835
:101D100070314BB1C368022B08D0D0F83831002B9A
:101D20000CBF02203820704733207047392070479D
:101D30009802002008B5054B4FF4257202FB0030D5
:101D400004F02CFB003818BF012008BD98020020C9
:101D5000024B4FF4257202FB0030704798020020BE
:101D6000064900EB800001EB8002800000230B504D
:101D7000C2E90133C2E90333704700BFC007002046
:101D8000094B00EB800000B54FEA800E03EB8000AA
:101D900090F809C041EA0C01417212B1012203F826
:101DA0000E205DF804FB00BFC0070020024B142288
:101DB00002FB003008307047C00700202DE9F04FCB
:101DC0005D4B1B5C1B0793B004D40025284613B061
:101DD000BDE8F08F04460F46FFF76EFF054600286A
:101DE000F3D02046FFF7B4FF07A904F09DFA204680
:101DF000FFF7AEFF03A904F0BFFA0B9B4F4E4FEA6B
:101E000084082BB104EB840306EB830310221A72BF
:101E10000A9B002B3BD10C9B002B41D108EB040308
:101E200006EB83031A7A1AB99A7B0AB101225A7314
:101E300008EB040306EB8303039ADA729A7A049997
:101E400019736AB9089A12B1072A18BF9A72079BC8
:101E500033B1072B04D008EB040206EB8202937225
:101E600008EB0403990016F8232006EB8309F2B16E
:101E700000237354444406EB8406B068B389C6F863
:101E80000E0028467760738213B0BDE8F08F08EB30
:101E9000040306EB83030C9A20211972002AC7D091
:101EA00008EB040306EB830330221A72C0E704EB4D
:101EB000840A4FEA8A0A0AF1080306EB030B06219B
:101EC0005846019300F092FB019B20B199F80D2038
:101ED000002A3FF47AAF08EB040206EB8202117A83
:101EE000302925D008EB040206EB82025268BA1AA8
:101EF000632A7FF66AAF0AF10E0AF15A36F80A3001
:101F00009942B244B6D1BBF80210BAF802309942F5
:101F10000BF1020B0AF1020AACD1BBF80210BAF8BD
:101F200002309942A6D140F6B7339A42A2D84CE784
:101F3000927B302A9ED1D5E794020020C007002072
:101F4000044A1421082301FB003011180023135008
:101F50008B807047C00700202DE9F043002387B035
:101F60000122204C204F214E214DCDE90223CDE905
:101F7000043304F1080954F8043B002BA84601A9D6
:101F800003DB3868019305F099F82B68002B05F105
:101F9000040501A903DB3068019305F08FF834F8DC
:101FA000041C57F8040B012205F080F9B8F8001062
:101FB00056F8040B012205F079F94C45DBD10424D5
:101FC0000DEB04014FF09040019405F077F84FF0CD
:101FD00090400122214605F069F9012007B0BDE8D3
:101FE000F08300BF340000203C0000204C000020A3
:101FF00044000020F8B50D4F0D4E0E4D0E4C3988A3
:102000003068002205F052F929882068002205F086
:102010004DF9B9887068002205F048F9A988606810
:102020000022BDE8F84005F041B900BF34000020AF
:102030003C000020440000204C0000202DE9F0412D
:10204000DFF878801E4F1F4E1F4D0824B8F800108F
:102050003868012205F02AF931882868002205F045
:1020600025F9B8F804107868012205F01FF9B18845
:102070006868002205F01AF94B2002F013FEB8F848
:1020800000103868002205F011F931882868012213
:1020900005F00CF9B8F804107868002205F006F98C
:1020A000B1886868012205F001F94B2002F0FAFDC1
:1020B000631E13F0FF04C9D1BDE8F0813400002095
:1020C0003C000020440000204C00002070B5114E60
:1020D00006EB4016337F8B421AD0317704460D460B
:1020E00002F0DAFD0C4B33F824100C4B50307061C9
:1020F0002A4653F8240005F0D9F8094A094B32F86A
:10210000241053F824002A46BDE8704005F0CEB8EC
:1021100070BD00BFE8070020340000203C00002014
:10212000440000204C000020074B03EB40130A46FC
:102130001B7F03B170470549054B31F8201053F858
:10214000200005F0B3B800BFE807002044000020DD
:102150004C00002038B50E4C04EB4014237F0BB923
:10216000636803B138BD054602F096FDE368C01A06
:102170002828F7D9074B084A53F8250032F82510CC
:10218000012205F093F802F087FD606038BD00BFC2
:10219000E80700204C00002044000020F8B50E4E57
:1021A00006EB40152B7F13B94701F35903B1F8BD76
:1021B000044602F071FDAB68C01A2828F7D9074B16
:1021C000074A53F8240032F82410012205F06EF873
:1021D00002F062FDF051F8BDE80700203C0000204D
:1021E000340000202DE9F843574E06EB4015044615
:1021F0002B7F884623B16B698B424DD9BDE8F883AC
:102200004701FFF7D3FD0378302B2ED02046FFF790
:10221000CDFD90F80190B9F1000F26D12B7C002B59
:1022200061D1F359F51923B1F359A8EB03030F2B2F
:102230006ED8F5196B6823B16B68A8EB03030F2BFD
:1022400074D82046FFF738FD0028D7D13E44337FAD
:10225000002BD3D13D4A3E4B32F8241053F82400D2
:102260000122BDE8F84305F021B83A4B3A4A53F849
:10227000240032F82410012205F018F8344B334AB8
:1022800053F8240032F824103E44012205F00EF8E1
:1022900001233374BDE8F883AB692C492C4831F82D
:1022A000241050F82400013303F00302A2F10102CC
:1022B000B2FA82F25209AB6104F0F8FFAA69254B29
:1022C000254953F8240031F8241002F00302A2F14A
:1022D0000302B2FA82F2520904F0E8FF6B6950334C
:1022E0006B61BDE8F8831C4B33F82410194B4A4648
:1022F00053F8240004F0DAFF144B33F82410144B85
:102300004A4653F8240004F0D1FF85F8109088E77E
:10231000114B33F824100F4B002253F8240004F023
:10232000C5FF0023F351C5F8088082E7074B33F857
:102330002410074B002253F8240004F0B7FF0023B9
:10234000C5F80C806B607CE7E807002044000020A3
:102350004C0000203C0000203400002030B5002557
:102360008DB0224C03952022294604A8CDE90155C1
:1023700007F0A0FF4FF0A0424FF40033C4E9002360
:10238000204604220123C4E90255C4E90455C4E9E6
:102390000B55A261A583236284F8245084F8385039
:1023A000E56384F8405002F09BFC10B100200DB0B2
:1023B00030BD034601A92046019303F0E9F9002846
:1023C000F4D10B4A0623CDE9042300227F23CDE973
:1023D000062304A9042200232046CDE9082302F0A5
:1023E0004BFEB0FA80F040090DB030BD2C08002043
:1023F0000200300410B504469CB00021542207A806
:10240000CDE90211CDE90411069107F053FF2368CD
:10241000B3F1A04F01D01CB010BD4FF400424FF0FB
:10242000005307A80792189306F0C4FB08B172B6D0
:10243000FEE70F4BDA6C42F40052DA64DA6C02F415
:1024400000520092009ADA6C42F00102DA64DB6C0E
:10245000049003F0010301930122032302A94FF02A
:102460009040CDE90223019B04F028FED3E700BF92
:102470000010024010B50D4803F006F90B480A2180
:1024800002F054FD00B110BD0848094C02F0F0FD07
:10249000FDF7D4FF0749FEF729F80749FEF7DAF8F8
:1024A0000649FEF723F8206010BD00BF2C0800206D
:1024B000280800203333534000F07F4533338F41E9
:1024C00008B5FEF781FE0320FEF746FA022802D186
:1024D000104B01221A700220FEF76CFA022802D07B
:1024E000362800D008BD0B4B1B7873B902F0D4FB23
:1024F000094B1860FEF704FA0138C0B2012806D86B
:10250000064B074A1A60022008BD3C2008BD362051
:1025100008BD00BF9C08002098080020A0080020EB
:102520000000FF1F70B51A4C23687BB3194B1B6862
:10253000C01AB0F5967F29D34FF0E02300251D6126
:102540005D619D6172B64FF0FF32C3F88021C3F820
:102550008022C3F88421C3F88422C3F88821C3F8F9
:102560008822C3F88C21C3F88C2202F035FB05F0D9
:102570001BFF094A236893601A6825605B6882F331
:102580000888BFF36F8FBDE87040184770BD00BF6B
:10259000A00800209808002000ED00E030B40B4AAD
:1025A0000B4B4FF400704FF48071C2E900018020A2
:1025B0008021C2E902012024202510201021C3E936
:1025C0000045C3E9020130BC704700BFB8080020D5
:1025D000A8080020034A044B002814BF10461846E0
:1025E000704700BFA8080020B808002000290BDDB4
:1025F0000139431E084401E0834205D013F8012F3E
:10260000002AF9D00020704701207047082807D918
:10261000093806289ABF034B18564FF0FF30704711
:1026200040B27047E4AC000830280DD820280FD8FD
:1026300018280BD814280DD810280DD80C280DD820
:1026400008280DD840B270470F2070470D20704702
:102650000E2070470C2070470B2070470A207047EF
:1026600009207047F0B5136885B00E46002B4AD09C
:102670005368144692684FF47A7503FB055513446A
:1026800001330746B5FBF3F5FEF74EF9D4E9012314
:102690001A4401322368B0FBF3F3B3FBF2F31D4A93
:1026A000934215D8B3F57A7F20D21B4A1B4C009277
:1026B0003246A4FB0564E408019404EB8404A5EB12
:1026C000440417490294384607F0FCFD05B0F0BDFC
:1026D000144A41F2C60103FB02F2B1EBB21F05D36B
:1026E000114AA2FB03239B0C104ADFE7104A114951
:1026F00003FB02F2B1EBF20FD7D30F4AA2FB032385
:102700009B090E4AD2E70E49324605B0BDE8F040BB
:1027100007F0D8BD3F420F0008AD0008CDCCCCCCAF
:10272000C8AC00083961C26883DE1B43B0AC000846
:10273000D578E92637894100D34D621088AC00086E
:10274000B4AC000830B5037803F06003202B89B0E7
:1027500004460BD0402B09D07BB1802000F010FD47
:10276000002000F00DFD002009B030BDB04B204628
:102770009B689847002009B030BD4378092BECD8FE
:1027800001A252F823F000BFE12700080928000841
:102790005B270008272800085B2700083928000865
:1027A000712800085B270008A9280008B127000845
:1027B0008078A04C01282070CFD89F4D95F89C328E
:1027C000022B00F01181032B00F0FE80802000F02E
:1027D000D7FC002000F0D4FC207800F0B3FAC2E768
:1027E000954890F89C32013B022BB6D8E18802292B
:1027F000B3D1D0F8A032002B14BF0B46002340F811
:102800000C3F00F035FAAEE78B4A92F89C32013B60
:10281000022BA2D84388012BA5D10023C2F8A032F5
:1028200000F056FA9FE74388012B9CD1824AC2F8F8
:10283000A03200F04DFA96E78388002B8DD1C38833
:10284000002B8AD144887F2C87D87B4D95F89C3209
:10285000032B82D0E0B285F89E0200F0C1FC00F0AC
:1028600037FA002C00F0D780022385F89C327AE7F3
:102870004088030A0022022BADF80A2000F096805F
:10288000032B2AD0012B7FF468AF12216B48ADF8DF
:102890000A10E388002BCCD0994228BF1946ADF826
:1028A0000A1000F0E5F95EE7C18801297FF455AF11
:1028B000614890F89C32022B08D8002B3FF44DAFB2
:1028C000002340F8083F00F0D3F94CE7032B7FF4D6
:1028D00044AF043000F0CCF945E7C0B2032800F261
:1028E0009E80DFE800F0464B2F025549D1F8900555
:1028F000D1F89825D1F89435524903250244009522
:1029000003A807F0DFFC03A8FDF78AFC411C4E4B2F
:102910009DF80C005D70490089B2ADF80A1019707D
:1029200070B103AD02224FF0000C9854501CC0B29D
:10293000023203F800C015F8010FD2B20028F4D11A
:102940004148A6E73E21404BADF80A1040F23E3226
:102950003E491A80002543221A54421CD2B202304A
:102960009D5411F8012FC0B2002AF5D136483E21FE
:102970008FE704213648ADF80A108AE7324B354814
:102980003A2140F23A32ADF80A101A80452102226B
:1029900000259954511CC9B202325D5410F8011F30
:1029A000D2B20029F5D128483A2172E72A48837823
:1029B000ADF80A30E388002B3FF43BAFBDF80A10B6
:1029C00000293FF4D0AE67E7E0B1686801283FF422
:1029D00030AFC0B200F0B6F92078686000F0A8F916
:1029E00002287FF426AFB8E600283FF422AF01208A
:1029F0000323686085F89C3200F09AF902287FF47E
:102A000018AFAAE6022385F89C32686000F09AF9B4
:102A100000F05EF9A7E6012385F89C32A3E60DF1EC
:102A20000A0102F043F800283FF497AEC2E700BF66
:102A300064000020C80A0020CC0A0020D800002032
:102A40000070FF1F2CAD0008C80800200CAD000866
:102A500054000020ECAC00088C00002010B5037876
:102A600003F06002402A044609D05B0607D58020A7
:102A700000F086FB002000F083FB002010BD0A4B15
:102A800093F89C32013B022BF1D82379022BEED82C
:102A9000064B20469B689847E388002BEDD1002821
:102AA000EBD100F015F9E8E7CC0A00206400002023
:102AB00010B5037803F06003202B0AD0402B08D018
:102AC00063B1802000F05CFB002000F059FB002087
:102AD00010BD444B9B689847002010BD4378828806
:102AE000012B5FFA82FC3ED0032B2AD0002BE8D1C9
:102AF0003D4B93F89C12022950D00329E1D112F0EA
:102B0000800F0CF00F0202EB820203EB820256D11F
:102B1000D2F85821002AD4D014240CF07F0204FBF0
:102B2000023303F5AA74002A47D0604600F044FB44
:102B3000002850D0012323600221204600F098F89D
:102B4000C5E7294B93F89C32022B1DD0032BB8D13B
:102B500043882BB91CF07F0F02D0C388002B3CD0D8
:102B600000F0B6F8B3E7204B93F89C32022B0BD061
:102B7000032BA6D14388002BA9D11CF07F0FEFD0E7
:102B8000604600F00BFBEBE71CF07F0F99D060462E
:102B900000F0F6FA802000F0F3FA98E71CF07F04CA
:102BA0008FD103F5AA7012F0800F03F1140318BF40
:102BB0001846046000F05CF889E72260BCE792697F
:102BC000002A3FF47EAF0CF07F02541C04EB840417
:102BD00003EB8404A7E72060AEE7604600F0D0FA7C
:102BE000BEE700BF64000020CC0A00200B78037011
:102BF0004B784370CA788B7803EB022343804A7981
:102C00000B7903EB02238380CA798B7903EB0223D0
:102C1000C380704708B5802000F0B2FABDE80840D4
:102C2000002000F0ADBA00BFE8B170B50E46044612
:102C3000FDF7F6FA431C0D4D5B009BB20322338077
:102C40002B706A70217861B12046022300245A1C3F
:102C5000D2B2E954AC5410F8011F0233DBB20029A0
:102C6000F5D1024870BD0148704700BFC808002078
:102C700010B5064B0A46C3E907220146022400208C
:102C8000C3F8944200F0BAFA002010BDCC0A00202C
:102C900008B50A460146002000F0B0FA002008BD41
:102CA00010B5064B0A46C3E957220146032400200B
:102CB000C3F8944200F0B2FA002010BDCC0A002004
:102CC00008B50A460146002000F0A8FA002008BD19
:102CD00010B50022044B042411461046C3F8944258
:102CE00000F08CFA002010BDCC0A002010B50022A4
:102CF000044B052411461046C3F8944200F08EFAA6
:102D0000002010BDCC0A0020084B10B50122002481
:102D10001C7083F89C2200F0D1F908B1204610BD48
:102D200000F004FAB0FA80F0400910BDCC0A00208F
:102D300008B5034B1B689847002818BF022008BD40
:102D40006400002008B5024B5B689847002008BD6E
:102D50006400002010B5164C014604F52970FFF7F9
:102D600045FF94F8A402B4F8AA22012100F01F0341
:102D70008B42C4E9A51208D0022B12D05BB100F03F
:102D8000800000F0FDF9002010BD04F52970FFF768
:102D900065FE002010BD04F52970FFF7D3FC00206C
:102DA00010BD04F52970FFF783FE002010BD00BFA1
:102DB000CC0A002010B570B91C4A0B46D2F8941208
:102DC000032915D0052904460ED1C2F8940200F05B
:102DD000D7F9204610BD164B9B693BB1134A92F8B8
:102DE0009C22032A02D19847002010BD022010BD6A
:102DF000D2E9580188420BD9401A8142C2F86001D9
:102E00008CBF81B289B21846FFF75AFF002010BD6F
:102E1000074B1B691BB192F89C22032A03D0FFF7D2
:102E200057FF002010BD9847F9E700BFCC0A0020EB
:102E30006400002038B588B92F4DD5F89422022AB5
:102E40001CD032F0040302D1802000F099F995F8EB
:102E50009F32012B4FF000000DD038BD274B5B692E
:102E60003BB1254A92F89C22032A02D198470020C0
:102E700038BD022038BD85F89F0238BD0B46D5E924
:102E800008218A4229D8EB69B3FBF1F401FB143421
:102E900084B999420ED8D5F8982293420AD2214695
:102EA000FFF7F6FE224621462046C5F8984200F07C
:102EB000B5F9CCE7114BDB681BB195F89C22032ACE
:102EC00018D0802000F05CF9FFF710FF95F89F32D2
:102ED000012B4FF00000C0D1CDE7521A044691B249
:102EE00018462A62FFF7D4FE22462146204600F00B
:102EF00095F9ACE79847E4E7CC0A0020640000208D
:102F000070B5002140260F4C3246084600F01AF9F1
:102F10000125324600218020C4F85851C4F864616C
:102F200000F010F9084BA5610020666284F89C52FD
:102F3000C4F894026060C4F8A0025B68BDE8704009
:102F4000184700BFCC0A002064000020014B187411
:102F500000207047CC0A0020044B042293F89C12F6
:102F600083F89D1283F89C2200207047CC0A002031
:102F7000054B93F89C22042A04BF93F89D2283F802
:102F80009C220020704700BFCC0A002008B5074BE8
:102F900093F89C32032B01D0002008BD044BDB6961
:102FA000002BF9D09847002008BD00BFCC0A0020B4
:102FB000640000200E4A0F4B12689A4200D07047FE
:102FC00003F5DA3300B5996D41F4000199659B6D05
:102FD00083B003F400030193142000220221019B1B
:102FE00002F098FC142003B05DF804EB02F0D0BCB2
:102FF000780D0020005C004008B501F07BFD00B1B9
:1030000008BDBDE808400148FFF7A4BE101000202D
:10301000044B01EB810203EBC2030846D3F86411B1
:10302000FFF7C8BE780D0020044B01EB810203EBD3
:10303000C2030846596AFFF7FDBE00BF780D0020A5
:10304000FFF7A4BF08B50120FFF780FFBDE80840E7
:10305000FFF756BF08B5084B01221A70FEF7B4F807
:10306000FFF77AFF054B5B7A23B1054A136943F0FA
:103070000603136108BD00BF54100020780D002026
:1030800000ED00E008B5074B5B7A23B1064A1369EF
:1030900023F006031361FFF76BFF044B00221A7045
:1030A00008BD00BF780D002000ED00E054100020A6
:1030B000014B1878704700BF5410002008B506482F
:1030C0000649074A012380E80E0004F0F5F8BDE840
:1030D000084001F0B9BC00BF780D0020005C004042
:1030E0000802000238B515461C46A9B11268D3186B
:1030F00001462B600C4843EA0243012205F0A4F884
:103100002B68E01D184420F00700B0F5806F2860A0
:103110008CBF0020012038BD0A462B6801460248BA
:1031200005F092F8ECE700BF780D002008B50448E0
:1031300004F0ACF918B1022814BF0220012008BD28
:10314000780D0020844608B505480B46614604F01A
:103150006BFF18B1022814BF0220012008BD00BF78
:10316000780D002008B50146044804F095FF18B119
:10317000022814BF0220012008BD00BF780D0020E6
:1031800008B50146044804F0EDFF18B1022814BF49
:103190000220012008BD00BF780D002008B50146BF
:1031A000044805F019F818B1022814BF02200120C4
:1031B00008BD00BF780D00200206084B06D400EBC6
:1031C000800003EBC00090F85201704700F07F00D0
:1031D00000EB800003EBC000807C7047780D00207E
:1031E00008B50146044804F00BFF18B1022814BFCB
:1031F0000220012008BD00BF780D0020844608B5DC
:10320000054813460A46614604F08EFF18B10228AD
:1032100014BF0220012008BD780D0020844608B5A7
:10322000054813460A46614604F064FF18B10228B7
:1032300014BF0220012008BD780D00200D488546EE
:103240000D480E490E4A002302E0D458C4500433FE
:10325000C4188C42F9D30B4A0B4C002301E01360D5
:103260000432A242FBD3FDF7F1FA06F0C7FFFDF7E7
:103270008DFAFEE70000022000000020640200201A
:10328000F8AD000868020020ACDF0120FEE7000076
:10329000394B40F60F7270B51A8001F015FD374BAF
:1032A0003749384A59604FF40071374C99601268B9
:1032B0000121D9704EF23B51002A21604FEA10657E
:1032C0004FEA10414FEA10201D7059709870C8BF26
:1032D0004EF63B534FF00000C8BF2360FFF77AF96A
:1032E0000646FDF721FB01257368B1683268E3608B
:1032F000C4E90105F368A3612846C4E90451C4E99F
:1033000007526562FFF766F9204B62685A602268CF
:103310001A6042681E4C9D62C3E90B2582685A639D
:1033200002681A64C268DD635D6403F1080C9A6385
:103330000FCCACE80F0094E80F008CE80F0001F010
:10334000C7FC144B144A154C1D4625F8020B03CA42
:103350001288C3F8020069602A8107CCC3F81B00F9
:10336000586B2478C3F81F1040F00100C3F82320E5
:1033700083F82740586370BD94020020001100209C
:10338000180626002400002090100020B81000200D
:1033900098100020581000203CAD000848AD0008EF
:1033A0002DE9F0414378162B92B000F09F80132B4B
:1033B000044603D9914A107800284BD01B2B0FD814
:1033C000DFE803F0330E0E0E0E33330E0E0E0E0E2C
:1033D0000E0E0E0E0E0E0E0E330E0E0E33574E4EFA
:1033E0006588012D00F38E800026EDB2B046284698
:1033F000FEF762FC20B3824F02233B7094F9003049
:10340000002B63783ADB1B2B1ED8DFE803F087958F
:10341000A21D1D1D1D871D1D951D871D1D1D1D1D0B
:103420001D1D1D991D97A01D1D9B65880026AD1BA8
:1034300018BF01252846B046FEF73EFC0028DAD129
:103440002846FEF7ABFED6E731233B70002012B0D2
:10345000BDE8F0816A4B31221A7012B0BDE8F081EC
:103460006088FDF7C5FB0646002852D00025A84617
:10347000BDE7002594F802802E46B8E70022043B01
:10348000CDE900220292162BDED801A252F823F0D9
:1034900083350008E5350008B335000849340008D5
:1034A000493400084934000849340008EB35000865
:1034B000493400089D350008893500084934000862
:1034C00049340008493400084934000849340008E8
:1034D000DF35000849340008493400084934000841
:1034E00049340008BF35000857350008444B012116
:1034F0001B788DF81C3007A8FFF7BAFB012012B02B
:10350000BDE8F0813E4F322300203B7012B0BDE891
:10351000F0813B4F3D233B70002098E70422E38875
:103520009342F0D320686168364B03C33648E18884
:10353000FFF7B6FB01208AE71422F0E70122EEE74D
:103540001122ECE7E388B3F5FA6FEBD9E2E70C223E
:10355000E5E70822E3E730464FF6FF7230F8023B1A
:10356000934248D0B3F5FA6F28BF4FF4FA63E1886D
:10357000994228BF1946FFF77BFB012012B0BDE836
:10358000F08122482823F2E72846FEF795FB002821
:1035900044D10423009368460C23E8E703A9284696
:1035A000FEF75AFB20B39DF80C30079307A80423BD
:1035B000DDE7FDF7BFF90423079007A8D7E7B8F1C7
:1035C000010FA0D10220FDF7C7F988B102280CBF76
:1035D00002230023ADF80C3003A80223C7E70C48F0
:1035E0003823C4E70B480C23C1E70B484823BEE748
:1035F00036233B702BE70023B9E700BF59000020BA
:1036000058000020E41800200C1100209010002029
:103610005810002000110020B81000202846FEF7A6
:1036200097FB07A902F080FE2846FEF791FB03A94D
:1036300002F0A2FEDDE903210B9BCDE901120BB1E3
:10364000012300930A9B0BB1022300930C9B0BB147
:10365000032300930C23684689E700BF30B5A74BCE
:103660005888597885B0C4B21B2917D8DFE801F013
:10367000B9182D1616161666161618167116161681
:1036800016161616168216A80E1616B19C4B5A88D8
:10369000012A00F020819B4B32221A7005B030BD08
:1036A000974DD5E900232046A1F10A01EC68019469
:1036B000B1FA81F1AC680094134449092A69FDF715
:1036C000F1FE904B187005B030BD8D4D2B68012B6D
:1036D000E1D800F08D80FEF7E5FA8B4A00B9107052
:1036E0006B6859044ABF0121117811701807874A85
:1036F00000F1FB800F2010554FF0CF0C8F204FF0C2
:103700004F0E13F0100F1CBF02F804E0604651B1D9
:10371000190448BF1055117841F01001117051780B
:1037200041F0100151702968012900F0F18039B988
:10373000204605B0BDE83040FDF79CBD704B1968D0
:10374000003918BF0121204605B0BDE83040FEF722
:10375000BDBC6B4B1968A1F10101B1FA81F12046A2
:103760004909FEF759FA002898D1664B36221A709B
:1037700005B030BD624D2B780E2B8CD801A252F8CB
:1037800023F000BF6B380008553800083F380008A8
:1037900097360008973600089736000897360008D5
:1037A0009736000897360008973600083B3800081F
:1037B0008F38000877380008B33800081938000837
:1037C0004F4B20461978FEF75DFA4E4B187005B046
:1037D00030BDDA884A49FDF733FA4A4B187005B014
:1037E00030BD474A12684BF6EF639A42BDD155E7A8
:1037F0002046FEF761FA002840F097806B68D805F4
:103800007FF569AF2046FEF76FFA00287FF463AFBB
:103810003C4B3A221A7041E70123D5F80510D5F840
:1038200001200193CDE902216A7AA97A009320460A
:10383000FDF798FF334B187030E70023EDE7D5F81C
:103840000530D5F8012001212046FDF7F9FE2D4B6A
:10385000187023E7D5F80530D5F80120002120465F
:10386000FDF7EEFE274B187018E72046FDF76AFFBC
:10387000244B187012E7D5F80510D5F80120002068
:10388000CDE9022101236A7AA97A0190CEE7D5F821
:103890000510D5F801200023CDE90221CDE9003340
:1038A0006A7AA97A01232046FDF75CFF154B187050
:1038B000F4E6D5F80510D5F8012001230020CDE964
:1038C0000221CDE900036A7AA97A2046FDF74AFF72
:1038D0000C4B1870E2E61B88052B7FF4DCAE03204E
:1038E000FDF768F8074B1870D8E60E2010554FF01A
:1038F000CE0C8E204FF04E0E03E700BFE4180020E0
:103900000C110020580000205900002094020020D3
:10391000DA070ED513F0020F0CBF02210321204657
:10392000FDF702FB054B1870B8E6044B34221A7001
:10393000B4E613F0020118BF0421F0E7580000209C
:1039400010B50446FEF73AFA20B92046BDE810400B
:10395000FDF71CBD204600F059FE2046BDE8104092
:10396000FDF714BD38B50D4600F074FF044600F5B0
:1039700053402C3000F056FFC0B103220F230272D7
:103980004372857272B6BFF34F8FBFF36F8F04F52A
:10399000504204F55344D2F84033C2F840033C345B
:1039A000C0E90043186062B6BFF36F8F38BD00BF37
:1039B0001E4B1B5CDB0601D40020704770B50E4621
:1039C00000F048FF054600F553402C3000F02AFF78
:1039D000044628B33046FCF723FC4E28024621D883
:1039E000831CDBB223720E236372314604F10A009A
:1039F00006F038FC72B6BFF34F8FBFF36F8F05F53B
:103A0000504205F55345D2F84033C2F840433C35A7
:103A1000C4E900531C6062B6BFF36F8F012070BD14
:103A2000002070BD024E14221623DBE79402002012
:103A300058AD00082DE9F04F01F5534883B008F167
:103A40003C0872B6BFF34F8FBFF36F8F01F550453F
:103A5000D5F83C43A04500F0CC800F4682461CB10F
:103A6000D4E9002353601A6062B6BFF36F8F002C55
:103A700000F0C280624B1B78002B6ED072B6BFF391
:103A80004F8FBFF36F8FD5F83C93C84500F09B80F4
:103A900062B6BFF36F8F5B4B13F90A30002B80F2D5
:103AA0009580B9F1000F00F0918007F5534B5B460C
:103AB0002C3301934FF488530BF1440BA5F8443396
:103AC000022621460BEB060011F8087F3A4606F065
:103AD000C9FB95F844333E440133B6B285F844330C
:103AE00072B6BFF34F8FBFF36F8FD5F83033019AA3
:103AF000C5F83043C4E900231C6062B6BFF36F8F82
:103B0000B9F1000F57D095F84433FA2B53D899F8F0
:103B100008303344B3F5006F4DDA72B6BFF34F8F00
:103B2000BFF36F8FD5F83C43A04558D01CB1D4E902
:103B3000002353601A6062B6BFF36F8F72B6BFF393
:103B40004F8FBFF36F8FD5F83C93C84549D062B60D
:103B5000BFF36F8F002CB4D12DE0A37C29489B07C5
:103B6000637CC35C54BF14224C2203F0400354BF57
:103B7000182150219446002B07F5534B0E4614BFD5
:103B80000A4666460BF1440B04F10801584606F05C
:103B900069FB72B6BFF34F8FBFF36F8FD5F8303329
:103BA000C5F8304307F553472C37C4E900731C6050
:103BB00062B6BFF36F8F32465946504603B0BDE838
:103BC000F04F00F0DFBF62B6BFF36F8F214607F5FD
:103BD000534B11F8082F0BF1440B96B2D6E7002493
:103BE000A9E762B6BFF36F8F002CE4D04FF0000955
:103BF00067E762B6BFF36F8F03B0BDE8F08F00BF19
:103C0000590000209402002019494EF2443C0CFB5C
:103C100000FC4DF2243201EB0C0310B50CEB020456
:103C20000C444DF234309C500CEB00020A441A5004
:103C30004DF2283E4DF2383043F80E401A5003F54D
:103C400050429E44D2F828030CF104020A4401F5C4
:103C5000D8418C4401466C339C45CEF8002043E9A2
:103C60001A4010460A6002F16C02F3D110BD00BF89
:103C7000EC180020F0B50646174681B3324C4EF2E0
:103C8000443E0EFB00FE4DF2243304EB0E010EEB1E
:103C9000030525444DF23432CD500EEB020323448C
:103CA0008B504DF2283C4DF2383241F80C508B507D
:103CB00001F550438C44D3F828030EF10403234448
:103CC00004F5D844A64402466C318E45CCF8003049
:103CD00041E91A501846136003F16C03F3D197B30E
:103CE000194C4EF2443E0EFB06FE4DF22C3204EB14
:103CF0000E030EEB020525444DF23C319D500EEBB8
:103D0000010222445A504DF230364DF240319D515D
:103D10005A501E4403F550430C4AD3F830030EF5B5
:103D2000D8430433234402EB0E0C0EF10404024684
:103D3000A3EB0E013360184641F80E500A51136090
:103D400058339C45F3D1F0BDEC18002010EC002056
:103D500008B5012211460020FFF78CFF0122BDE8C3
:103D6000084011461046FFF785BF00BF4EF2443CA5
:103D70002DE9F8430CFB00FC72B6BFF34F8FBFF385
:103D80006F8F334C4DF2243E04EB0C0353F80E308E
:103D9000E644A644734550D01BB1D3E90065756075
:103DA0002E6062B6BFF36F8F002B49D003F1080E6F
:103DB00001F120090F684E688D68D1F80C80CEF8AB
:103DC0000C8010314945CEF80070CEF80460CEF872
:103DD00008500EF1100EEDD10968CEF8001002F176
:103DE000400803F12C0116685568D2F808E0D7683E
:103DF000CF60103242450E604D60C1F808E001F11D
:103E00001001F0D172B6BFF34F8FBFF36F8F4EF238
:103E1000443202FB00404DF238310CF5534C42580D
:103E200043500CF1340C6444C3E90042136062B6A1
:103E3000BFF36F8F0120BDE8F88362B6BFF36F8FC9
:103E400001220421FDF79CFF0020BDE8F88300BF9C
:103E5000EC1800202DE9F047414B1C788AB0BCB12A
:103E60004B780A2B6CD18846D1F803408F7891F8B3
:103E700007A0054618F8080B14F08049A0F10800C7
:103E800069D0002865DD0E7A082E28BF08260BE0D1
:103E90004D7A012D48D84C6891F800A08F7A0E7A9F
:103EA00001F10C0804F08049002303930793029367
:103EB000069328464FF400030893FDF707FF0028F8
:103EC00014BF4FF000430023002C0593BABF24F029
:103ED00060444FF08043C4F30A04CDF824A0B8BF77
:103EE00002930194B9F1000F02D04FF000530393F5
:103EF000082E22D947F002072846FDF7F5FE0446B2
:103F000090B14FF4001307937B0744BF4FF4801325
:103F10000693424601A928460496FFF727FF044668
:103F200020460AB0BDE8F087284601220221FDF7AD
:103F300027FF20460AB0BDE8F087BA07E9D5DBE7DE
:103F400001220221FDF71CFF002420460AB0BDE833
:103F5000F0870026A8E7FEF767FBC6B2A4E700BF1C
:103F6000590000202DE9F04F4B7891B0102B0590AF
:103F700040F0AC800B780E46002B00F0B5804FF07F
:103F8000000B88788C1C0225DA466DE062780A2ADC
:103F900040F08480E379D4F80320029304F108030D
:103FA000049312F0804394F802800393A0F1080078
:103FB00000F08480002840F38E80277ADDF814908A
:103FC000082F28BF08274FF40003484601920E939C
:103FD000CDF824A0CDF834A0CDF820A0CDF830A0A5
:103FE000FDF774FE019A029B0F93002814BF4FF057
:103FF00000400020039B0B90002ABBBF22F06042D0
:104000004FF08040C2F30A020890079213B14FF0BC
:1040100000520992082F3DD948F002084846FDF7A2
:1040200063FE00285BD04FF4001218F0040F0D92CD
:104030001CBF4FF480120C92049A0A97484607A9B5
:10404000FFF794FE00284FD0327821780BF1010B56
:104050005FFA8BFB5A450D4446D9705D4219B2F5A3
:10406000006F06EB050442DC224B1A78002A8DD142
:1040700094F80990B9F1010F18D823786268029377
:1040800004F10C03049302F0804394F80A80277A29
:10409000039398E718F0020FCED0BFE70122022168
:1040A000059811B0BDE8F04FFDF76ABE012202216C
:1040B000484611B0BDE8F04FFDF762BE0192FEF731
:1040C000B3FADDF81490019AC7B27CE711B0BDE8ED
:1040D000F04FFFF7BFBEDDF81490002773E7012211
:1040E00002214846FDF74CFE11B0BDE8F08F0122D9
:1040F0000421D5E7590000202DE9F84F5C4B1C78CE
:1041000082460E461546002C66D05A4F4EF2443277
:1041100002FB007772B6BFF34F8FBFF36F8F07F5C7
:10412000504907F55342D9F82C432C3294424ED0D3
:104130001CB1D4E900124A60116062B6BFF36F8F00
:10414000002C47D07268B2F1804F326806BF22F06F
:10415000604242F00048C2F30A08B268B2F1005F60
:10416000B26908BF48F08048B2F5001F36D01B780E
:10417000307B4FF0000B002B43D018F0804F6ED0F7
:10418000012228700C23104623720C2384F80AB0F5
:104190006372F369C4F80F30374BC4F80B8013F81F
:1041A0000A305B0653D5294604F1130006F05AF88D
:1041B00072B6BFF34F8FBFF36F8FD9F84033C9F892
:1041C000404307F553473C37C4E900731C6062B6AF
:1041D000BFF36F8FBDE8F88F264F9BE772691B789E
:1041E000307BB2F5801F326915BF0A210E214FF0D6
:1041F000020B4FF0060BB2F1004F08BF8B46002BAD
:10420000BBD1E3744FF0FF33A36084F811A084F8AE
:1042100012B0C4F80C80207404F1140305F1400EB0
:1042200028686968AA68D5F80CC0C3F80CC01035B6
:104230007545186059609A6003F11003F0D1B369B5
:10424000B3F5001FF3690CBF6365E361B0E70730A6
:104250002072294604F10F0006F004F8A8E7FEF7E3
:10426000D5F9C0B200F10B03DBB202468CE700BF08
:1042700059000020EC18002094020020DFF874C1DF
:104280002DE9F84F15461A469CF800305A4F8246E1
:104290000E461BB14EF2443303FB007772B6BFF3F8
:1042A0004F8FBFF36F8F07F5504907F55343D9F888
:1042B0002C432C339C424FD01CB1D4E900134B60EB
:1042C000196062B6BFF36F8F002C48D07368B3F1EA
:1042D000804F336806BF23F0604343F00048C3F3C8
:1042E0000A08B368B3F1005FB36908BF48F08048BB
:1042F000B3F5001F35D09CF80030307B4FF0000B39
:10430000002B42D018F0804F6BD0012228700C2374
:10431000104623720C2384F80AB06372F369C4F860
:104320000F30364BC4F80B8013F80A305B0650D5BB
:10433000294604F1130005F095FF72B6BFF34F8FC5
:10434000BFF36F8FD9F84033C9F8404307F553479F
:104350003C37C4E900731C6062B6BFF36F8FBDE8E1
:10436000F88F7369307BB3F5801F336915BF0A215D
:104370000E214FF0020B4FF0060BB3F1004F08BFB8
:104380008B469CF80030002BBCD1E37484F811A05C
:1043900084F812B0C4F80C802074A26004F11403F5
:1043A00005F1400E28686968AA68D5F80CC0C3F802
:1043B0000CC010357545186059609A6003F1100300
:1043C000F0D1B369B3F5001FF3690CBF6365E36116
:1043D000B3E707302072294604F10F0005F042FFD1
:1043E000ABE7FEF713F9C0B200F10B03DBB20246F4
:1043F0008FE700BF59000020EC1800209402002035
:104400002DE9F04FDFF860A1584E9AF800304EF2D7
:10441000443400FB04F48BB006EB04090746002B80
:1044200014BF4D463546FDF785FC002855D072B6C1
:10443000BFF34F8FBFF36F8F09F5504904F5534316
:10444000D9F8348334333344984500F08580B8F18B
:10445000000F03D0D8E9002353601A6062B6BFF39F
:104460006F8FB8F1000F38D03846FDF74BFC0228AB
:1044700038D0012202213846FDF782FC04F553446E
:104480002434344472B6BFF34F8FBFF36F8FD9F823
:104490002833C9F82883C8E90043C3F8008062B60E
:1044A000BFF36F8F2B781BB929463846FFF7C2FA46
:1044B0004EF2443303FB07634DF224329B58A34270
:1044C00044D005F5504305F55341D3F82C332C3136
:1044D0008B4233D00BB0BDE8F08F04F55344243445
:1044E0003444DFE708F12C0B5A4608F1080138463E
:1044F000FCF7F2FE9AF80030002BBFD1D8F8083054
:104500000093D8F80C300193D8F810300293D8F803
:1045100014300393D8F818300493D8F81C3005935E
:10452000D8F820300693FCF705FAD8F82830079021
:104530005A4669463846FFF7A1FE9FE70022082148
:1045400038460BB0BDE8F04FFDF71ABC002204213D
:104550003846FDF715FCB4E762B6BFF36F8F04F57C
:104560005344243434449DE759000020EC180020C3
:10457000234B1B78002B42D070B54EF24433214CB4
:1045800003FB00F2A31872B6BFF34F8FBFF36F8F18
:1045900003F5504E02F553432C3304EB030CDEF8C5
:1045A0002C33634527D01BB1D3E9006575602E60BD
:1045B00062B6BFF36F8F0BB307251D720B255D72BB
:1045C0000D6A9D72C969C3F80B100F49095C490651
:1045D0005CBF0321197272B6BFF34F8FBFF36F8FA9
:1045E00002F55342DEF84013CEF840333C32224409
:1045F000C3E900210B6062B6BFF36F8F70BD7047D7
:1046000059000020EC180020940200202DE9F84306
:10461000DFF80492814D99F8003006461BB14EF246
:10462000443303FB005572B6BFF34F8FBFF36F8F58
:1046300005F5504805F55343D8F82C432C339C42DC
:1046400000F0A3801CB1D4E9002353601A6062B665
:10465000BFF36F8F002C00F09B805022002104F1EB
:10466000080005F027FE99F80030F3B93046FDF751
:104670009DFB0378202B04F114071ED0302B00F093
:104680008980102B00F0B8804379002B40F0AB807C
:1046900020214FF4007C00228378013B052B1FD89A
:1046A000DFE803F09C971D8B92903046FDF77EFB70
:1046B0000378202B04F10E07E0D1C3781BB17B787F
:1046C00043F020037B700379002BE1D07B7843F02B
:1046D00010037B7020214FF4007C0022DCE70A46A7
:1046E00099F80030002B39D14378D90648BF42F001
:1046F000010213F0080F797851D113F0040F55D14E
:10470000002957D1B97809B142F008027B71C3780A
:10471000BB710379FB71082342F0005223744FF000
:10472000FF33E2606674A360FCF704F9E06172B6DF
:10473000BFF34F8FBFF36F8FD8F84033C8F84043B3
:1047400005F553453C35C4E900531C6062B6BFF320
:104750006F8F3046BDE8F843FDF7F2BB43787B71BD
:10476000C378BB710379FB7140F612532381C4F8FF
:104770000A20FCF7DFF82A4BC4F816009B5D5B06A5
:10478000D5D4237A043B2372D1E762B6BFF36F8F8F
:10479000BDE8F88360214FF4107C40227CE741F0B3
:1047A00001017970437813F0040F03D041F0020146
:1047B0007970437842F00402A4E7BB7843F0100319
:1047C000BB708DE762468BE7BB7843F00803BB7094
:1047D00086E7BB7843F00203BB7081E7BB7843F008
:1047E0000403BB707CE77B7843F040037B7020219F
:1047F0004FF4007C00224FE7C3781BB17B7843F075
:1048000008037B700379002B3FF442AF7B7843F0C1
:1048100004037B703CE700BF59000020EC18002027
:1048200094020020034672B6BFF34F8FBFF36F8F21
:104830000068834208D018B1D0E9002353601A60A1
:1048400062B6BFF36F8F7047002062B6BFF36F8F01
:10485000704700BF024B4EF2443202FB00307047FB
:10486000EC1800201F4B20482DE9F04700220124BE
:104870004FF47F411D4F1E4D1E4E047091461A701D
:10488000998090465FFA89FA5046FFF7E3FF80F877
:104890000080044617F8010B2B7800F00F0103F09D
:1048A0000F0306F801A04022022106F803A0FEF73C
:1048B00049FC15F8010B40220221FEF743FC04F5E8
:1048C0005B4115F8010C4FF400624431FEF7A6FC81
:1048D00010B9B9F1000F01D0BDE8F0874FF0010920
:1048E000D0E700BF78DF012074DF01205C000020EA
:1048F0006000002080DF012008B5FEF7AFFE002039
:1049000008BD00BF70B50E4A00F00F030546D65C27
:104910003046FFF79FFF0B4B1B7800F55B44002BE5
:1049200004F1440414BF304600202146FFF71AFB6F
:104930004FF4006221462846FEF770FC002070BD4F
:1049400080DF01205900002010B500F00F030A4A53
:104950000446D05CFFF77EFF437823B903F0FF02E3
:104960000270002010BD0022427011462046FEF762
:1049700045FC002010BD00BF80DF012070B50A4C4F
:1049800023787BB1094E0A4D3078FEF7EBFB28788F
:10499000FEF7E8FB7078FEF7E5FB6878FEF7E2FBD0
:1049A00000232370002070BD74DF01205C00002014
:1049B0006000002038B5027802F06003202B04D09C
:1049C000402B02D06BB1002038BD8488012C10D060
:1049D000FEF7E6FC0028F6D10020FEF71BF90020C8
:1049E00038BD43780A2BEED101211548FEF740F976
:1049F000E9E702F07F02212AEED14378032B1AD097
:104A0000042B11D0002BE7D10E4D4FF47F422B70B9
:104A1000AA80FDF755FD0228D5D03C2817BF0A23F0
:104A20002C712B716871CEE7064B00214FF47F4249
:104A300019709A80C7E706210248FEF719F9C2E704
:104A400090DF012078DF012070B582B0382000218E
:104A50000190402301AA0846FEF744FBF0B1402331
:104A600001AA00218020FEF73DFBB8B10D4C0E4D90
:104A7000A61C402314F8010B01AA0021FEF732FB0B
:104A8000402358B115F8010B01AA0121FEF72AFBBA
:104A900020B1B442EDD1002002B070BD022002B0BE
:104AA00070BD00BF5C00002060000020072810B52A
:104AB000044607D804280FD80CD1BDE810400A4896
:104AC000FEF7B2B8EE2805D10848FEF7ADF820236E
:104AD000037410BD002010BD0548FEF7A5F82C3466
:104AE00080F8244010BD00BF84AD0008A0AD0008D0
:104AF00070AD000838B51F4C1F4904F52970FEF74A
:104B000075F894F8A41211F01E0001D0002038BDF1
:104B100094F8A532202BFAD1B4F8A632022BF6D89D
:104B2000B4F8A832042B1AD0052BF0D10146FEF7B9
:104B30007BF892221149054605F094FBB4F8A632A1
:104B4000012B04BF322385F84630B4F8AA1292290B
:104B5000284628BF9221FEF78BF8012038BDB4F813
:104B6000AA120748582928BF5821FEF781F80120CA
:104B700038BD00BFCC0A002010100020EC0000203F
:104B800080010020104B70B51D780E46144695B17B
:104B90000546FFF75FFE012303709CB114F03F0F41
:104BA00018BF00234370094B2246585D3146BDE8CB
:104BB0007040FEF723BB2846FFF74CFE012303702D
:104BC000002CEBD12346EDE7590000205C000020CB
:104BD000704700BF704700BF10B5094B00244FF06D
:104BE000FF329A639C631A641C649A629C62DA6264
:104BF000DC621A631C63FFF7EDFF204610BD00BFA7
:104C00000010024038B50F4B1B680BB9012038BDAE
:104C10000D494FF47A720546B2FBF3F30868B0FB16
:104C2000F3F000F0C3FE04460028EFD10F2DEDD8BD
:104C3000024629464FF0FF3000F06CFE034B204641
:104C40001D6038BDD801002004000020DC010020D8
:104C50000A4A136823F4806310B50320136000F040
:104C600047FE0020FFF7CEFF10B10124204610BD03
:104C70000446FFF7ADFF204610BD00BF00200240F4
:104C8000034A0449136809680B441360704700BF66
:104C900094DF0120D8010020014B1868704700BF45
:104CA00094DF012038B50446FFF7F6FF631C054684
:104CB00002D0044B1B681C44FFF7EEFF401BA042D0
:104CC000FAD338BDD8010020004870470005020122
:104CD000024B1868C0F30B00704700BF002004E0CF
:104CE00030B583B000230193002800F0DD80C56D4E
:104CF0000446002D00F0C58022689368980005D511
:104D0000936823F0204323F03F0393609368D90016
:104D100019D47E4B7E481B6891689B09A0FB030356
:104D200021F010419B0921F03F0101335B0041F06C
:104D3000805191600193019B2BB1019B013B019339
:104D4000019B002BF9D19368DB0000F18B80E36DB0
:104D500043F01003E365236E012003432366936849
:104D600013F0040FE36D40F08580DD0600F18280D2
:104D7000E36D23F4817343F00203E3659368D9077D
:104D800019D4B2F1A04F00F0AF80624B9A4200F00C
:104D9000B480614903F5806389689B680B435F4970
:104DA00089680B43DB0706D45D498B68656823F48B
:104DB0007C132B438B60E568E36B94F824102B4342
:104DC000A5682B43657F012943EA453343EA014344
:104DD00065D0E16A21B1256B01F4787129430B4359
:104DE000D568504929400B43D3601369616B23F0A8
:104DF00040630B43136193681D0724D4D16894F872
:104E00003830257F21F480415B0021F0020143EA24
:104E100085330B432169D3601369002947D043F4DC
:104E200080331361D2F8C03023F47F5323F03F0363
:104E30000B43C2F8C03094F84030012B43D01369C3
:104E400023F0010313616369012B20D0136B23F05E
:104E50000F031363E36D23F0030343F00103E365E2
:104E600003B030BD936813F0040F4FF00000E36D02
:104E70003FF47BAFE36D012043F01003E36503B023
:104E800030BDFDF7B7FA256684F8585034E7116B4A
:104E9000236A21F00F01013B0B431363DAE7A16A98
:104EA000013943EA414394E7012003B030BD23F4C4
:104EB00080331361D2F8C03023F47F5323F03F03D3
:104EC000C2F8C030B7E71169636CA56C21F4FF61CB
:104ED00021F004012B430B43E16C0B43216D0B4389
:104EE00043F001031361AEE70A49936889680B43F5
:104EF000D9073FF560AF0C4957E74FF0A0439B68D7
:104F000091680B43DB073FF556AFF4E70400002040
:104F1000632D3E05000100500004005000060050C3
:104F2000000700500740F0FF000300500368B3F192
:104F3000A04F2DE9F04105460E466FD04848494A3A
:104F40004949834218BF0A46AC699768082C07F0A4
:104F50001F070AD0092F63D840F22122FA40D10757
:104F60005ED5DB68DA0768D40424FFF795FE2A686B
:104F70008046731C2CD113681C42FCD0EB6D43F4AB
:104F80000073EB65D36813F4406F0FD16B7F6BB97F
:104F9000136818070AD5EB6D23F48073EB65EB6D8E
:104FA000D90403D4EB6D43F00103EB652C4B9A421B
:104FB00029D003F580639A424DD0082CD06829D0BF
:104FC00010F4804006BF0C2313600020BDE8F08180
:104FD00013682342D2D1FFF75FFEA0EB0800B04276
:104FE0002A680AD913682340C3D1EA6D85F858307E
:104FF00042F00402EA650320E8E7002EB9D1136805
:105000002340B6D1F1E74FF0A041092F1CD9082C5D
:10501000C868D5D114600020BDE8F081114A93E73B
:10502000B3F1A04F19D00E480E4A0F49834218BF62
:105030000A46936813F4604F96D0EB6D43F020035B
:105040000120EB65BDE8F08140F2212323FA07F748
:10505000FB07DCD5B1E70549D7E7024AE9E700BF1E
:1050600000010050000300500007005000040050F1
:105070000368186C704700BFF0B590F8582083B0F3
:105080000346012A4FF00000019000F07B811A686E
:10509000012083F858009468650767D4486884093C
:1050A00004F00C0400F01F0C02F1300E086854F8F4
:1050B0000E50C0F384601F2600FA0CF006FA0CFCB8
:1050C00025EA0C0C40EA0C0044F80E0090684407F6
:1050D0007CD590680C689068C007254613D4CF68CB
:1050E000B348D2F8B06007F0180C20FA0CF0C4F303
:1050F000120C204026EA0C063043C2F8B000AD483E
:10510000874200F0EC80AC490D425DD0B2F1A04F77
:1051100000F03681A94CAA49AA48A24218BF01460C
:105120008868A9498D4200F0E07428D0A7498D42D3
:1051300025D0A7498D4240F0558110F0807043D1B1
:105140009E498A4240D001F580618A423CD09D4D03
:10515000A1F50071B2F1A04F18BF29468A6822F06C
:10516000E072224342F080728A6003E0DA6D42F01E
:105170002002DA65002283F8582003B0F0BD010256
:1051800022D4B2F1A04F00F0108192498A421BD183
:105190008C48914A914D126881689209A5FB025290
:1051A000920921F0E07101320C4302EB42029200BD
:1051B00044F4000484600192019A2AB1019A013AF0
:1051C0000192019A002AF9D10020D3E7906810F0EB
:1051D000080040F082808C680E68B4F1004F00F047
:1051E0001C814FEAD65C02F114070CF0040CC6F3E4
:1051F00004565CF807504FF0070EB4400EFA06F65E
:1052000025EA06052C434CF80740546924F0004475
:1052100054610F69D568042F2FD002F16004C5F3E3
:10522000C10554F827E0DFF8B8C16E000D680EEA3A
:105230000C0C05F0F84545EA0C0C4D69B54045EA03
:105240000C0545F0004544F827500F698E6954F865
:10525000275025F08075354344F827500D7F0E699F
:10526000012D54F8265008BF4FF0007025F000754E
:10527000284344F826000C682DE70C68106E106E69
:10528000C4F31205C0F38460002D40F0E880C4F33D
:105290008465A84200F05C81506E566E02F1600099
:1052A000C6F3846602F16407AE4200F03F8186686F
:1052B000866800F10807C6F38466AE4200F02481D8
:1052C000C668C66800F10C07C6F3846085427FF4A7
:1052D00002AF386820F0004038600C68FBE6BCF193
:1052E000000F52D094FAA4F0002800F0E980B0FA40
:1052F00080F0013000F01F00092840F2E18094FAAC
:10530000A4F0002800F04081B0FA80F0013080065F
:1053100000F0F84094FAA4F5002D00F03A81B5FAB7
:1053200085F5013505F01F05012606FA05F505434B
:1053300094FAA4F4002C00F02A81B4FA84F4601CDE
:1053400000F01F046FF01D06032010FB0460000531
:1053500040F000702843C60D8C6802F1140506F079
:105360000406C0F3045004FA00F74FF0070C745918
:105370000CFA00F024EA0000384370510D68C2E6D0
:105380000F49CDE6022003B0F0BDA40E013404F0B5
:105390001F06092E55D8A5060120B04005F0F84596
:1053A000054306EB46000005D4E70548F1E600BFDB
:1053B000FFFF070000007F40000008800001005050
:1053C0000003005000070050000021C31000C090EF
:1053D000000052C70006005004000020632D3E0567
:1053E00000F0FF036C498D427FF4EEAE10F48000B4
:1053F0007FF4EAAE69498A423FF4E6AE684D01F5B2
:105400000071B2F1A04F18BF29468A6822F0E072FD
:10541000224342F480028A60ACE6F50D02F11404E6
:1054200005F00405C6F304562F594FF0070C0CFA8B
:1054300006F627EA06062E51546944F000445461EA
:10544000E7E606EB4600A5061E38012405F0F84500
:10545000000504FA06F640F0007035437AE794FA46
:10546000A4F51DB1B5FA85F5A84271D0506E566EFF
:1054700002F16000C6F3846602F1640794FAA4F5B1
:105480001DB1B5FA85F5AE4250D08568866800F149
:105490000807C6F3846694FAA4F51DB1B5FA85F53C
:1054A000AE4231D0C568C56800F10C07C5F3846011
:1054B00094FAA4F5002D3FF40EAEB5FA85F505E794
:1054C00094FAA4F0002859D0B0FA80F00130800698
:1054D00000F0F84094FAA4F5002D4DD0B5FA85F50A
:1054E000013505F01F05012606FA05F5054394FA76
:1054F000A4F4002C45D0B4FA84F4013404F01F0461
:1055000004EB4404200525E73C6824F000443C609B
:10551000C4680C6800F10C07C068C4F31205C0F33E
:105520008460002DC4D1C4F38465CFE63C6824F0C8
:1055300000443C6084680C688668C4F3120500F17E
:105540000807C6F38466002DA5D1C4F38465B4E6CC
:10555000146E104624F0004440F8604F546E0C68FE
:10556000566EC4F3120502F16407C6F38466002D7B
:1055700084D1C4F3846597E60225B7E74FF08060D5
:10558000A8E74FF44010E5E64FF08060C2E605481A
:10559000E0E60225CBE600BF000084CB000100500E
:1055A00000070050000050FE70B582B00022036872
:1055B00001929A68D20734D499682C4A1142044661
:1055C00032D19A6822F0004222F03F0242F00102FA
:1055D000B3F1A04F9A6047D02548264A2649834216
:1055E00018BF0A4693681B0228D4FFF755FB2368AF
:1055F0001A68D607054614D4204E9A68D00704D4FA
:105600009A68324042F001029A60FFF745FB431B63
:10561000022B236802D91A68D10705D51A68D20768
:10562000EBD5002002B070BDE36D43F01003E365DD
:10563000236E01200343236602B070BD104B114A54
:105640001B689B09A2FB03239B09013303EB430364
:105650009B000193019B002BC7D0019B013B019351
:10566000019B002BF9D1C0E7024ABBE73F00008055
:10567000000100500003005000070050C0FFFF7FF2
:1056800004000020632D3E050368B3F1A04F70B500
:1056900004464FD03A483B4A3B49834218BF0A462A
:1056A00096689D6815F0040542D194F85830012B96
:1056B0003ED0012384F858302046FFF775FF0028BC
:1056C0003AD1E36D226823F4706323F0010343F4BD
:1056D0008073E3652A4B9A4206F01F0647D003F514
:1056E00080639A4248D01146E36D23F48013E3654A
:1056F000E36D13F480531CBF236E23F0060323666F
:105700001C2313608A424FF0000384F858301CD0E9
:10571000092E14D9E36D43F48013E365CB689B0134
:1057200005D5E36D23F4405343F48053E36570BD26
:10573000022070BD134AB3E784F8585070BD40F2A0
:10574000212323FA06F6F507E4D5D368990105D598
:10575000E36D23F4405343F48053E365936823F0EF
:10576000004323F03F0343F00403936070BD4FF008
:10577000A041002EBCD1B7E70449002EB8D1B3E751
:1057800000010050000300500007005000040050CA
:1057900070B490F858200E68012A9DB056D0026867
:1057A000034600240120B2F1A04F189483F858005A
:1057B00019940BD0484DAA4246D0DA6D83F8584070
:1057C00042F02002DA651DB070BC70474348806823
:1057D00040070BD59268DA6D42F020020120DA65AD
:1057E000002283F858201DB070BC704790684407B1
:1057F000F1D4B2F1A04F2DD0384882422AD0002EE9
:1058000058D037484C68826822F46042224393F8AB
:10581000384042EA443282602F4A946802F580722E
:10582000926822432F4CA4682243D24302F0010223
:1058300042B184688A6824F47161164321F00F0133
:105840000E4386600020CBE72748C0E702201DB04A
:1058500070BC7047AEB125484C68826822F4604243
:10586000224393F8384042EA443282601B4A4FF0A8
:10587000A040806892680243D2431C4802F00102B3
:10588000D6E71A498A6822F460428A604FF0A04045
:10589000124A8068926815490243D24302F001021D
:1058A000002ACFD08A6822F4716222F00F02002011
:1058B0008A6095E70A4908488A680B4C22F46042DE
:1058C0008A608068A2680243064880680243D24327
:1058D00002F00102E4E700BF0004005000010050A4
:1058E0000007005000060050000500500003005063
:1058F0000749CA6803024FF6FF0003F4E063024061
:10590000134343F0BF6343F40033CB60704700BFE1
:1059100000ED00E01C4BDB68C3F3022300B5C3F1CC
:10592000070EBEF1040F03F1040C28BF4FF0040E64
:10593000BCF1060F1BD9033B4FF0FF3C0CFA03FCF4
:1059400022EA0C024FF0FF3C0CFA0EFC21EA0C019B
:105950009940002841EA02010CDB00F16040090196
:1059600000F56140C9B280F800135DF804FB002225
:105970001346E7E7054B00F00F0009010344C9B2E5
:1059800019765DF804FB00BF00ED00E0FCEC00E0E0
:10599000002808DB044A4109012300F01F0003FA34
:1059A00000F042F82100704700E100E00138B0F15A
:1059B000807F0FD210B44FF0E023074C58614FF0B6
:1059C000F00C84F823C00022072110469A6110BC15
:1059D000196170470120704700ED00E0704700BF7B
:1059E00008B5FFF7FBFF08BD704700BF002800F0B7
:1059F00049812DE9F04190F85C30044603F0FF0244
:105A0000002B73D02268936923F010039361FFF792
:105A100043F9054604E0FFF73FF9401B0A285BD82D
:105A200023689A691107F6D49A6942F001029A61D3
:105A3000FFF732F9054604E0FFF72EF9401B0A286C
:105A40004AD823689A69D207F6D59A69964942F0EE
:105A500002028B429A6100F01081227C012A9A692D
:105A60000CBF22F0400242F040029A61627C012A9F
:105A70009A690CBF42F4804222F480429A61A27C6F
:105A8000012A9A690CBF22F4805242F480529A6132
:105A90009A69A068E16822F4407202439A619A69A7
:105AA00022F0A4029A611A69012922F010021A61F7
:105AB00021D021B302299A6900F0F18042F08002DE
:105AC0009A611A69032942F010021A6117D19A6982
:105AD00042F020029A6112E0236E032243F0010398
