:020000040800F2
:1000000000000220F92B0008890800088D0800086C
:1000100091080008950800089908000800000000F1
:100020000000000000000000000000009D08000823
:10003000A108000800000000A5080008A9080008A1
:10004000492C0008492C0008492C0008492C0008BC
:10005000492C0008492C0008492C0008492C0008AC
:10006000492C0008492C0008492C0008492C00089C
:10007000492C0008492C0008492C0008492C00088C
:10008000492C0008492C0008492C0008C508000824
:10009000B9080008D1080008492C0008492C0008BC
:1000A000492C0008492C0008492C0008492C00085C
:1000B000492C0008492C0008492C0008492C00084C
:1000C000492C0008492C0008492C0008492C00083C
:1000D000492C0008492C0008492C0008492C00082C
:1000E000492C0008492C0008492C0008492C00081C
:1000F000492C0008492C0008492C0008492C00080C
:10010000492C0008492C0008492C0008492C0008FB
:10011000492C0008492C0008492C0008492C0008EB
:10012000492C0008492C0008492C0008492C0008DB
:10013000492C0008492C0008492C0008492C0008CB
:10014000492C0008492C0008492C0008492C0008BB
:10015000492C0008492C0008492C0008492C0008AB
:10016000492C0008492C0008492C0008492C00089B
:10017000492C0008492C0008492C0008492C00088B
:10018000492C0008492C0008492C0008492C00087B
:10019000492C000800000000492C0008492C0008E8
:1001A000492C0008492C0008492C0008492C00085B
:1001B000492C0008492C0008492C0008492C00084B
:1001C000492C0008492C0008492C0008492C00083B
:0801D000492C0008492C00082D
:1001E00010B5054C237833B9044B13B10448AFF371
:1001F00000800123237010BD680200200000000071
:100200001C99000808B5034B1BB103490348AFF321
:10021000008008BD000000006C0200201C9900084E
:10022000034613F8012B002AFBD1181A0138704736
:1002300001F0FF01102A2BDB10F0070F08D010F897
:10024000013B013A8B422DD010F0070F42B3F6D19B
:10025000F0B441EA012141EA014122F007047FF0B4
:1002600000070023F0E80256083C85EA010586EA0B
:10027000010685FA47F5A3FA87F586FA47F6A5FA47
:1002800087F68EB9EED1F0BC01F0FF0102F0070253
:1002900032B110F8013B013A83EA010313B1F8D1FE
:1002A0000020704701387047002D06BF35460338DF
:1002B000073815F0010F07D1013015F4807F02BF18
:1002C000013015F4C03F0130F0BC0138704700BF69
:1002D0002DE9F04700F088F900B9FEE701F0DAFBFC
:1002E0000028FAD002F0EEF90028F6D003F00AFA5E
:1002F00000F04CFB01F030FE02F0A8FC00241F4D82
:10030000DFF87C801F4EA146012702F0AFFB30B121
:1003100001F000FC2F7002F0A9FB0028F8D12B7827
:1003200033B3287088F8009001F018FC04F08EF9BF
:1003300082460146204601F0E5FC2046514603F086
:1003400039FD2046514602F0D9FF2046514601F0C2
:1003500079F83368AAEB0303632B84F00104D4D942
:10036000C6F800A000F0E8FD504601F0B9FDCCE76A
:1003700098F80030002BD9D0D4E700BF88020020C5
:100380000000002084020020024B4FF000629A60BF
:10039000704700BF00ED00E01B4B00B5986D40F0CA
:1003A000020098659B6D95B003F002034422002182
:1003B000009303A8009B08F04FFE144B144A1B68DF
:1003C0001449A2FB03239B0C013B4FF0FF3201A811
:1003D000CDE90113049207F021FF18B1002015B0F8
:1003E0005DF804FB01A807F0BDFF0028F6D1024626
:1003F0000146152004F060F9152004F09BF9012056
:1004000015B05DF804FB00BF00100240040000209E
:1004100083DE1B4300040040024A1368013313606B
:10042000704700BF900200200249034A00234B623C
:1004300013607047000400409002002008B504F0EB
:1004400021F940F26943984206D940F27943984233
:100450000CBF0220002008BDB0F58D6F34BF002016
:10046000022008BD014B1868704700BF8C020020B5
:10047000034A044B10685B6A43EA0040704700BFC0
:100480009002002000040040014B1868704700BF34
:100490009002002010B58EB004463422002101A83D
:1004A00008F0DAFD01A805F0CDFB022C06D0032CE4
:1004B00016D0012C0AD000200EB010BD079B13F0FF
:1004C000806F0CBF012002200EB010BD079B03F40B
:1004D000E063B3F5806F14BF012002200EB010BDA1
:1004E000079B13F0806F14BF012002200EB010BDD7
:1004F00030B58FB0044601F073F910B134200FB05D
:1005000030BD04F0BFF840F26942904205D8B0F522
:100510008D6F06D236200FB030BD40F27942904246
:10052000F8D13422002101A808F096FD01A805F0B9
:1005300089FB022C32D0032C41D0012CEAD1079B3D
:1005400003F4E063B3F5806F26D03022002102A8C7
:1005500008F082FD4FF48063CDE906430422019246
:10056000204B9A694CF2FA3142F070429A6119615B
:1005700005F008F8A0BB05F025F888BB01A805F038
:1005800045F9044605F032F8054605F00FF844EA4F
:1005900005030343DBB21BBB0220B0E7079911F050
:1005A0008061F9D1302202A808F056FD04214FF4F1
:1005B000C4424FF04863CDE906230191D0E7079B81
:1005C0005B01E9D53022002102A808F045FD042195
:1005D0004FF4C4424FF00863CDE906230191BFE711
:1005E0003B208CE70020024070B5B6B004F00AF85A
:1005F00018B10024204636B070BD4A4DAB6D43F0B3
:100600008053AB65AB6D03F0805300930446009BB1
:1006100006F022FD2B6E012633432B662B6E1494BD
:10062000334021204FF48031CDE9120101930321A1
:100630000F20CDE91A16019A1794142203210223E0
:10064000CDE906011C9212A84FF48062CDE9154451
:10065000CDE91863CDE91D33CDE9092208941F9334
:1006600006F0D4FD0028C4D1082106A807F046F8FA
:100670000028BED10146502222A808F0EDFC4FF41C
:1006800040524FF0807321A821922F9307F064F914
:1006900004460028ADD14FF00053CDE90C034BF6D2
:1006A0007F322223CDE90F230CA8202311930E942F
:1006B00007F08AFDEB6C3343EB64EB6C3340029341
:1006C000029BEB6C43F00203EB64EB6C03F0020360
:1006D0000393039BEB6C43F00403EB64EB6C03F0BC
:1006E00004030493049BEB6C43F02003EB64EB6C7A
:1006F00003F020032246214605934FF0FF30059B6F
:1007000003F0DAFF4FF4805007F0AEFA064B1860A2
:10071000FFF742FE044600283FF46BAF3046FFF778
:10072000E7FE67E7001002408C020020FF2818D87F
:100730000D4AB2F8E0100D4A4FF6FF7399420ED001
:100740000B490C4BD1F8E01503EA812303F1006358
:100750000130A3EBC020824288BF00207047064BC7
:10076000F6E70020704700BF0075FF1F34990008AE
:100770000070FF1F00FCFF0300000808FF2841D89D
:10078000F0B53B4B0E46B3F8E0103A4B15464FF62A
:10079000FF72914287B02CD0374A384CD2F8E0250E
:1007A00004EA822404F100640130A4EBC024A342D3
:1007B00025D8B5F5FA6F22D823884FF6FF729342F9
:1007C00008BF00239D4206D12A463146A01C08F0EE
:1007D0000BFC002845D02A4B9A6942F070429A617E
:1007E0004CF2FA321A6104F0CDFE68B1352007B040
:1007F000F0BD244C0130A4EBC024A342D9D93D2044
:1008000007B0F0BD3D20704704F17843DB0A049344
:1008100000220123CDE9022301A9012302A80593A7
:1008200004F01CFFF8B9C5B12A4631460746B01C92
:1008300008F0F8FBC6F1080026F808590935044409
:10084000C5F3CC05A1190020F6E9022304F0E0FD70
:100850000137BBB238B99D42F4D804F0A7FE02209C
:10086000CEE70220CCE704F0A1FE3520C8E700BFA8
:100870000075FF1F349900080070FF1F00FCFF0384
:100880000020024000000808FEE700BFFEE700BFAE
:10089000FEE700BFFEE700BFFEE700BF704700BFF6
:1008A000704700BF704700BF08B503F0C3FEBDE846
:1008B000084003F067BF00BF014805F0CFBC00BF90
:1008C000080D0020014805F0C9BC00BF080D00203C
:1008D00008B5002000F0DAFFBDE8084004F0D4BC01
:1008E00070B51646054608461C4601F06DFBB6F18C
:1008F000005F19D0049B8BB1002C14BF31231E2341
:1009000002B2D200102894BF02F11A0002F11E00B8
:10091000059AB2F5801F15D0184470BD54B908234C
:100920002F2213FB002070BD44B3B4F1804F27D0B9
:100930003123E5E7B4F1804FFAD10823432213FBBA
:10094000002070BDD5E959211144D5F8602101FB83
:1009500002220C4901FB02F2D5E955142144013170
:10096000B2FBF1F20849D5F85041B2FBF4F202FBB8
:1009700000F0A1FB002003EB904070BD2F2070BD64
:10098000432070BD40420F0083DE1B432D4B2DE9F9
:10099000F04F9A6D2C4CDFF8B4A0DFF8B490DFF87C
:1009A000B4802D4F2D4E42F000729A659B6D87B03A
:1009B00003F0007300930025009BAB46F02200215A
:1009C00004F5D070C4E95EBBC4F850B1C4F860B19E
:1009D000C4F88CB1C4F89CB184F870B184F890B2BA
:1009E00008F03AFB284602F0EDFD5AF8042B002AE5
:1009F0004FF001010BDB1A4BCDF814B0CDE901210A
:100A000053F8250001A9CDE903BB05F029FA59F8EF
:100A1000041B18F8012B05920220CDE901100322D6
:100A200057F8040B01A9CDE903B205F019FA56F8FD
:100A3000042B226004F5257415B107B0BDE8F08FD2
:100A40000125BBE70010024098020020240000208E
:100A500014000020080000201C0000200C000020D2
:100A60002C0000202DE9F043A14E4FF4257303FB29
:100A7000006383B093F87021002A40F08180D3F89E
:100A80005031002B78D096F8703105460F4683B967
:100A900096F804346BB903F1804303F504339A6B81
:100AA00042F000729A639A6B22F000729A63FFF729
:100AB000BBFC284602F086FD284600F0EFFE002130
:100AC000084601F093F80021012001F08FF8894ACF
:100AD0004FF42574525D04FB056402F00102227498
:100AE00001220023A274D4F8782163606374E36365
:100AF0006263A360D4F87C21D4F85431A263E3612B
:100B0000D4F86021D4F85831D4F850112362D4F8C5
:100B10005C31E7606161A361002A40F08480FFF7E7
:100B2000A1FC754B984223D94FF42577734B05FBF5
:100B300007F7F419A3FB0030D4E955321A44D4F86E
:100B4000503102FB033307F5B872324400214FF4F1
:100B50007A7C800C0CFB03F3B3FBF0F0C4F8840147
:100B6000A2F80310204684F8711103F011FE58B169
:100B7000352003B0BDE8F0833A2003B0BDE8F08330
:100B8000342003B0BDE8F0830146204604F050F85D
:100B90000028EDD10221204604F05EF80028E7D1BC
:100BA00001221021204604F0D1FA0028E0D10246AB
:100BB0004FF46041204604F0DFFA80460028D7D188
:100BC000204604F081F8D4F86031C4F8948173B100
:100BD000D4E959210A4402FB03333221484A03FB7A
:100BE00001F1A2FB013149094B1E3E2B70D94FF494
:100BF000257303FB0563D3E95E2302EB0309B9F117
:100C0000000F46DD643737444FF0000801E0C1456E
:100C10003FD03946204603F0B7FF08F101081837E6
:100C20000028F4D0A4E7FFF71DFCD4E959373B4472
:100C3000D4F86021B0FBF2F20133B2FBF3F7D4F841
:100C40005021CAB94FF4257305FB03F3F11803F5DE
:100C5000B070BA4234BF4FF440724FF480728A6071
:100C600031183758D1E901402033C9683344C3E90A
:100C70000171C3E9034052E7FFF7F4FBD4E95532B1
:100C800013440133D4F85021B0FBF2F0B0FBF3F27F
:100C9000D8E74FF4257303FB0566D6E95E32D342ED
:100CA00014BF01220022002311460093204603F0C6
:100CB0009DFF204604F01AF8014600287FF458AF43
:100CC000284600F0C1FF012386F87031022054E766
:100CD0004246C4F89411204603F0D2FF00287FF466
:100CE00047AF204603F0DEFF002880D040E700BF7A
:100CF00098020020940200203F420F0083DE1B4335
:100D00001F85EB5138B5274C94F870310BB3204652
:100D1000002504F003F8204603F0B6FE2946F02231
:100D200004F5D070C4E95E55C4F85051C4F8605160
:100D3000C4F88C51C4F89C5184F8705184F89052D6
:100D400008F08AF9284602F03DFC0121284600F00F
:100D50007BFF94F8043403B938BD134803F0DEFF79
:100D6000114803F091FE0021F0221048C4F8E4136A
:100D7000C4F8F413C4F80C14C4F81014C4F8201404
:100D8000C4F8301484F8041484F8241508F064F9C5
:100D9000012002F017FC0121BDE83840084600F0B0
:100DA00053BF00BF980200202C050020CC06002075
:100DB000F8B5174F4FF4257500FB05F57C1994F82D
:100DC000703103B9F8BD0646204603F0A7FF204660
:100DD00003F05AFE05F5D0750021C4E95E11C4F890
:100DE0005011C4F86011C4F88C11C4F89C1184F837
:100DF000701184F890127819F02208F02DF930461D
:100E000002F0E0FB30460121BDE8F84000F01CBFD5
:100E1000980200202DE9F8432A4E4FF4257404FB74
:100E200000640546D4F860810F469146B8F1000F82
:100E300013D1D4F85031FBB900237B614FF42574F2
:100E400004FB05644A463946204603F0D7FF30BB11
:100E5000237C012B2AD0BDE8F883FFF703FBD4E9FC
:100E6000593213445A1CD4F85031D4F86011B0FBF5
:100E7000F1F8B8FBF2F87BB1FFF7F4FA4FF4257103
:100E800001FB0561D1E9553213440133D1F85021FA
:100E9000B0FBF2F0B0FBF3F39845CFD8CCE728468F
:100EA0000122BDE8F843022100F008BD03F0CEFBAB
:100EB000D4F89C31C4F898010133C4F89C31BDE8E2
:100EC000F88300BF9802002038B5184C4FF4257302
:100ED00003FB004494F870312BB1D4F838311BB1C6
:100EE00094F871317BB138BD94F87121002AFAD0A1
:100EF000054684F871310E4902F038FA2846BDE8FB
:100F0000384000F0BBBD012384F87131094902F07B
:100F10002DFA0721204603F0D9FF204603F0FEFEFC
:100F20002046BDE8384003F0E1BE00BF9802002033
:100F30006C9900084C9900082DE9F843244C254F82
:100F4000254EDFF898804FF0000994F8703153B3C4
:100F5000D4F88C213AB3D4F890319A422DD8D4E900
:100F6000603503FB05F56D09A7FB0535ED0940F27A
:100F7000654303FB05F5B5FBF2F5B54226D842F211
:100F80000F739D421DD894F8885125B1002529463C
:100F9000484602F0C5F90023C4F88031012384F8E3
:100FA0008851C4F8903104F52574B9F1000F01D0CF
:100FB000BDE8F8834FF00109C7E70133C4F8903169
:100FC000F1E7A8FB0535C5F34735E0E76325DEE724
:100FD00098020020C55A7C0A3F420F005917B7D12A
:100FE00038B54FF42575234C05FB00F0251895F80E
:100FF0007051002D3CD131B3511E1F2936D8591ED6
:101000001F2933D8049901390F292FD8059901399F
:101010000F292BD800F5B0700444C4E90023049BC9
:10102000A360059BE360FFF71DFAD4E90132124982
:10103000246813445A1CB0FBF4F3B3FBF2F38B4265
:1010400014D8022038BD511EB1F5007F0ED2591EB2
:10105000FF290BD8049901397F2907D8059901394F
:101060007F2903D800F5A8700444D6E73D2038BD99
:10107000342038BD9802002000127A00354B1B5CEA
:10108000DB063CD52DE9F04F334F4FF4257303FBBE
:101090000073B3B0DB68044603BB6E464FF425759E
:1010A00004FB05F505F5A8723A442C49304600F0DA
:1010B000B7FF3046FFF7B4F805F5B0723D443A4447
:1010C0002749304400F0ACFFD5F86071C7B931460C
:1010D000204602F04BF933B0BDE8F08F013B032B03
:1010E00096BF204A204A52F8232020496E463046B7
:1010F00007F0BAFF3146204602F038F9CEE77047D4
:101100003046FFF78DF8D5F850B1194DDFF864A0DF
:10111000DFF8649006EB000E844600F111080FCD55
:1011200046F80C00CEF80C302B88CEF80410CEF820
:101130000820BB450CBF51464946AEF8103006EBBF
:10114000080007F0B1FF3146204602F00FF933B036
:10115000BDE8F08F9402002098020020B8990008A2
:10116000C0990008449A000894990008A4990008BE
:10117000C89900089C990008A0990008F8B53F4D4F
:101180004FF4257E0EFB005EDEE95E4707EB040CA4
:10119000BCF1070F18DC002940F2FF7418BF6FF094
:1011A0006044944210D39C420ED39EF870618EB17D
:1011B000BCF1010F06D1A7F10107B7FA87F77F0944
:1011C0008F4203D03420F8BD3D20F8BD0024CEE985
:1011D0005E44A446E9B14FF4257100FB01F10CEB2C
:1011E0004C0C01EBCC0C2944AC44CCE91D23D1F8C8
:1011F0007C31CCF868300133C1F87C314FF080434A
:10120000CCF8643002240123CCE91B43DEB9022070
:10121000F8BD4FF4257400FB04F40CEB4C0C04EB0C
:10122000CC0C2C44AC44CCE91D23D4F87831CCF858
:1012300068300133C4F8783102220123CCE91B2342
:10124000CCF86410E2E74FF4257303FB00F02F188D
:10125000D7E95E631E44002ED9DD643005440024C6
:1012600001E0A642D3D02946384603F08DFC013474
:1012700018350028F5D03520F8BD00BF98020020B1
:10128000064B4FF4257202FB003090F870311BB909
:10129000C0E95E3302207047342070479802002076
:1012A00038B59DF810409DF814E0002B46D08842D8
:1012B00042D0012940D8002CDDF818C040F2FF755B
:1012C00018BF6FF06045654536D3DDF81CC0654535
:1012D00032D3132A30D84FF4257C224D0CFB00FC6E
:1012E00002EB42020CEB82022A4482F8A03182F81F
:1012F000A311DDE9063182F8A241C2F8A81103EA80
:10130000010405F1F00182F8A1E1C2F8A44105EB66
:101310000C03614493F8A02112B193F8A1411CB1D0
:101320000C338B42F6D100224FF4257303FB00539C
:10133000022083F8902238BD3D2038BDFF2AC8D155
:1013400008494FF4257200FB02F28C1802F5D072A6
:10135000881884F89032F022194607F07DFE0220AA
:1013600038BD00BF980200202DE9F0414F688CB0D5
:10137000A7F1804E0023BEFA8EFE0D461646096880
:10138000ADF804304FEA5E1EADF8083000F1F00C05
:10139000012402E00C30604518D090F8A031002BF9
:1013A000F8D090F8A2317345F4D1D0E969230B400D
:1013B0009342EFD190F8A131ABB390F8A331303321
:1013C0006B440C30604503F8284CE6D1AB680593BC
:1013D000D5E903230024CDE906234FF40003CDE92A
:1013E0000A34DFF85C80CDE9031701AF3B5D93B1B0
:1013F00002AB1B5D7BB998F8703163B1D8F86031EE
:10140000C3B9069A082A06D8CDE9083320463246E1
:1014100003A902F085F908F5257814B10CB0BDE8F0
:10142000F0810124E2E790F8A33130336B4403F8F4
:101430002C4CAFE7AB6909936B690893E6E700BFF3
:10144000980200202DE9F043BD4D4FF4257600FBB6
:1014500006F6AF19C1B097F8703113B941B0BDE8C5
:10146000F083044688463C22002118A8179107F013
:10147000F3FD03A9384603F0D7FDF0B9B14B1B5D6E
:10148000980703D50B9B002B40F04F814FF4257339
:1014900003FB0453DA68002A00F0A5804FF425739B
:1014A00003FB04532046D3F89C21002AC4BF02F159
:1014B000FF32C3E9668200F0DDFB17AB0DAA4021C5
:1014C000384603F013FD002800F0F88017AB0DAA92
:1014D0004121384603F00AFDE8B94FF4257303FBB8
:1014E000045393F89032002B40F0B7804FF42573EB
:1014F00003FB0453D3F88C21002A40F08B804FF477
:10150000257303FB04532046D3F880110A44C3F823
:10151000802100F0D3FB4FF4257909FB04F955F83D
:1015200009301A6DD10400F19E801A6D520700F146
:10153000A8801B6D9B0600F1B48006F59276A91970
:10154000384603F0C3FD4FF4257303FB0453D3F86F
:101550009C21002A05DDD3F8982102F5FA72424554
:1015600064D94FF4257303FB045393F873211AB91C
:1015700093F87021002A69D14FF4257303FB0455B9
:1015800095F87431002B7FF469AFD5F89431002BB6
:101590003FF464AFD5F84C219342BFF45FAF7E2A8D
:1015A0003FF65CAF012385F87431FEF75BFF664BB5
:1015B00098427FF653AFD5F89431D5F84C21D21A22
:1015C000624BA3FB00134FF47A719B0C01FB02F2F8
:1015D00027A85F49B2FBF3F207F046FD27A9204692
:1015E00001F0C4FE3AE7D3F88C0148B1089B01939F
:1015F000099B00930699DDE904323846FFF770F93C
:101600004FF4257303FB0453D3F880211044C3F82F
:10161000800143E7129B0193139B00931099DDE92E
:101620000E323846FFF75CF9024668E70026C3F839
:101630009C610721384603F049FC204601F0C2FFB7
:1016400032461021204600F039F98AE7012220466F
:1016500083F87321FFF712FD8EE717AA0DA938460C
:10166000FFF782FE42E700220221204600F026F921
:1016700055F809304FF480521A651A6D52077FF5FC
:1016800058AF00220121204600F018F94FF42573CD
:1016900004FB03F30422EB581A651B6D9B067FF5D0
:1016A0004CAF00220121204600F008F94FF42573C9
:1016B00004FB03F32022EB581A653EE7FEF7E4FE35
:1016C000149B17AA43EA00430DA92046149302F085
:1016D000EDF94FF4257303FB045393F89032F3B9FB
:1016E0004FF4257303FB0453D3F88C2152B1129BA2
:1016F0000193139B00931099DDE90E323846FFF7F2
:10170000EFF802464FF4257303FB04532046D3F849
:1017100080110A44C3F8802100F0D0FAD6E617AA57
:101720000DA93846FFF720FEDAE7FEF7ADFE0A9B6B
:1017300003A943EA004320460A9302F0F3FBA5E61F
:1017400098020020940200203F420F0083DE1B43DA
:10175000DC99000838B50C4B53F82030002B11DD14
:101760000D460A4904462A4651F8200099B204F071
:101770006FFC07484FF4257303FB0404012084F831
:10178000725138BD002038BD240000202C000020FC
:1017900098020020084B53F82030002B09DD074B3E
:1017A0004FF4257202FB0033012093F872310B7065
:1017B00070470020704700BF2400002098020020DE
:1017C000642908D8054B4FF4257202FB0033022030
:1017D000C3F88C1170473D20704700BF980200206D
:1017E000034B93F8700108B993F80404704700BFE5
:1017F00098020020034B4FF4257202FB003393F84C
:101800007001704798020020054B4FF4257202FBCF
:101810000033D3F83001003818BF0120704700BFF3
:1018200098020020054B4FF4257202FB0033D3F8D9
:101830006001003818BF0120704700BF98020020E7
:101840000A4B4FF4257202FB003090F870314BB117
:10185000C368022B08D0D0F83831002B0CBF02200F
:101860003820704733207047392070479802002095
:1018700008B5054B4FF4257202FB003003F060FC05
:10188000003818BF012008BD98020020024B4FF419
:10189000257202FB0030704798020020064900EBD9
:1018A000800001EB8002800000230B50C2E901336D
:1018B000C2E90333704700BFC0070020094B00EBAB
:1018C000800000B54FEA800E03EB800090F809C05D
:1018D00041EA0C01417212B1012203F80E205DF8B9
:1018E00004FB00BFC0070020024B142202FB0030A3
:1018F00008307047C00700202DE9F04F5D4B1B5C9E
:101900001B0793B004D40025284613B0BDE8F08F20
:1019100004460F46FFF76EFF05460028F3D0204629
:10192000FFF7B4FF07A903F0D1FB2046FFF7AEFF96
:1019300003A903F0F3FB0B9B4F4E4FEA84082BB136
:1019400004EB840306EB830310221A720A9B002B1C
:101950003BD10C9B002B41D108EB040306EB830326
:101960001A7A1AB99A7B0AB101225A7308EB040356
:1019700006EB8303039ADA729A7A049919736AB9A7
:10198000089A12B1072A18BF9A72079B33B1072B26
:1019900004D008EB040206EB8202937208EB040306
:1019A000990016F8232006EB8309F2B10023735443
:1019B000444406EB8406B068B389C6F80E00284696
:1019C0007760738213B0BDE8F08F08EB040306EB79
:1019D00083030C9A20211972002AC7D008EB040354
:1019E00006EB830330221A72C0E704EB840A4FEA45
:1019F0008A0A0AF1080306EB030B062158460193F5
:101A000000F0D2FA019B20B199F80D20002A3FF492
:101A10007AAF08EB040206EB8202117A302925D056
:101A200008EB040206EB82025268BA1A632A7FF6B8
:101A30006AAF0AF10E0AF15A36F80A309942B244F6
:101A4000B6D1BBF80210BAF8023099420BF1020B82
:101A50000AF1020AACD1BBF80210BAF8023099427E
:101A6000A6D140F6B7339A42A2D84CE7927B302AEF
:101A70009ED1D5E794020020C0070020044A14211B
:101A8000082301FB00301118002313508B8070478E
:101A9000C00700202DE9F043002387B00122194C34
:101AA000194F1A4E1A4DCDE90223CDE9043304F142
:101AB000080954F8043B002BA84601A903DB386849
:101AC000019304F0CDF92B68002B05F1040501A961
:101AD00003DB3068019304F0C3F934F8041C57F8B1
:101AE000040B012204F0B4FAB8F8001056F8040B05
:101AF000012204F0ADFA4C45DBD1012007B0BDE86E
:101B0000F08300BF340000203C0000204C00002087
:101B100044000020F8B50D4F0D4E0E4D0E4C398887
:101B20003068002204F094FA29882068002204F02A
:101B30008FFAB9887068002204F08AFAA988606870
:101B40000022BDE8F84004F083BA00BF3400002052
:101B50003C000020440000204C0000202DE9F04112
:101B6000DFF878801E4F1F4E1F4D0824B8F8001074
:101B70003868012204F06CFA31882868002204F0E9
:101B800067FAB8F804107868012204F061FAB188A5
:101B90006868002204F05CFA4B2002F05DFDB8F8A2
:101BA00000103868002204F053FA318828680122B6
:101BB00004F04EFAB8F804107868002204F048FAED
:101BC000B1886868012204F043FA4B2002F044FD1A
:101BD000631E13F0FF04C9D1BDE8F081340000207A
:101BE0003C000020440000204C00002070B5114E45
:101BF00006EB4016337F8B421AD0317704460D46F0
:101C000002F024FD0C4B33F824100C4B5030706163
:101C10002A4653F8240004F01BFA094A094B32F80B
:101C2000241053F824002A46BDE8704004F010BA8E
:101C300070BD00BFE8070020340000203C000020F9
:101C4000440000204C000020074B03EB40130A46E1
:101C50001B7F03B170470549054B31F8201053F83D
:101C6000200004F0F5B900BFE80700204400002080
:101C70004C00002038B50E4C04EB4014237F0BB908
:101C8000636803B138BD054602F0E0FCE368C01AA2
:101C90002828F7D9074B084A53F8250032F82510B1
:101CA000012204F0D5F902F0D1FC606038BD00BF1C
:101CB000E80700204C00002044000020F8B50E4E3C
:101CC00006EB40152B7F13B94701F35903B1F8BD5B
:101CD000044602F0BBFCAB68C01A2828F7D9074BB2
:101CE000074A53F8240032F82410012204F0B0F916
:101CF00002F0ACFCF051F8BDE80700203C000020E9
:101D0000340000202DE9F843574E06EB40150446F9
:101D10002B7F884623B16B698B424DD9BDE8F88390
:101D20004701FFF7E1FD0378302B2ED02046FFF767
:101D3000DBFD90F80190B9F1000F26D12B7C002B30
:101D400061D1F359F51923B1F359A8EB03030F2B14
:101D50006ED8F5196B6823B16B68A8EB03030F2BE2
:101D600074D82046FFF746FD0028D7D13E44337F84
:101D7000002BD3D13D4A3E4B32F8241053F82400B7
:101D80000122BDE8F84304F063B93A4B3A4A53F8EC
:101D9000240032F82410012204F05AF9344B334A5B
:101DA00053F8240032F824103E44012204F050F984
:101DB00001233374BDE8F883AB692C492C4831F812
:101DC000241050F82400013303F00302A2F10102B1
:101DD000B2FA82F25209AB6104F03AF9AA69254BD2
:101DE000254953F8240031F8241002F00302A2F12F
:101DF0000302B2FA82F2520904F02AF96B695033F5
:101E00006B61BDE8F8831C4B33F82410194B4A462C
:101E100053F8240004F01CF9144B33F82410144B2D
:101E20004A4653F8240004F013F985F8109088E727
:101E3000114B33F824100F4B002253F8240004F008
:101E400007F90023F351C5F8088082E7074B33F800
:101E50002410074B002253F8240004F0F9F8002363
:101E6000C5F80C806B607CE7E80700204400002088
:101E70004C0000203C0000203400002008B5FEF794
:101E800041FF0320FEF706FB022802D1104B01227E
:101E90001A700220FEF72CFB022802D0362800D050
:101EA00008BD0B4B1B7873B902F0D0FB094B1860CF
:101EB000FEF7C4FA0138C0B2012806D8064B074A1B
:101EC0001A60022008BD3C2008BD362008BD00BFB6
:101ED0002C08002028080020300800200000FF1FE8
:101EE00070B51A4C23687BB3194B1B68C01AB0F548
:101EF000967F29D34FF0E02300251D615D619D6130
:101F000072B64FF0FF32C3F88021C3F88022C3F8C5
:101F10008421C3F88422C3F88821C3F88822C3F837
:101F20008C21C3F88C2202F031FB05F00FF9094A2D
:101F3000236893601A6825605B6882F30888BFF3A2
:101F40006F8FBDE87040184770BD00BF300800209B
:101F50002808002000ED00E030B40B4A0B4B4FF492
:101F600000704FF48071C2E9000180208021C2E935
:101F700002012024202510201021C3E90045C3E9D7
:101F8000020130BC704700BF48080020380800201C
:101F9000034A044B002814BF10461846704700BF80
:101FA000380800204808002000290BDD0139431EB5
:101FB000084401E0834205D013F8012F002AF9D02C
:101FC0000020704701207047082807D909380628E3
:101FD0009ABF034B18564FF0FF30704740B270471E
:101FE000889A000830280DD820280FD818280BD838
:101FF00014280DD810280DD80C280DD808280DD875
:1020000040B270470F2070470D2070470E20704778
:102010000C2070470B2070470A207047092070473A
:10202000F0B5136885B00E46002B4AD053681446AD
:1020300092684FF47A7503FB055513440133074644
:10204000B5FBF3F5FEF70EFAD4E901231A44013289
:102050002368B0FBF3F3B3FBF2F31D4A934215D8A8
:10206000B3F57A7F20D21B4A1B4C00923246A4FB68
:102070000564E408019404EB8404A5EB44041749C7
:102080000294384606F0F0FF05B0F0BD144A41F264
:10209000C60103FB02F2B1EBB21F05D3114AA2FB4A
:1020A00003239B0C104ADFE7104A114903FB02F29D
:1020B000B1EBF20FD7D30F4AA2FB03239B090E4AC1
:1020C000D2E70E49324605B0BDE8F04006F0CCBF7D
:1020D0003F420F00AC9A0008CDCCCCCC6C9A0008E3
:1020E0003961C26883DE1B43549A0008D578E9261B
:1020F00037894100D34D62102C9A0008589A000885
:1021000030B5037803F06003202B89B004460BD070
:10211000402B09D07BB1802000F010FD002000F0A2
:102120000DFD002009B030BDB04B20469B6898479C
:10213000002009B030BD4378092BECD801A252F839
:1021400023F000BF9D210008C521000817210008C9
:10215000E321000817210008F52100082D220008BE
:1021600017210008652200086D2100088078A04C26
:1021700001282070CFD89F4D95F89C32022B00F09B
:102180001181032B00F0FE80802000F0D7FC00209E
:1021900000F0D4FC207800F0B3FAC2E7954890F83C
:1021A0009C32013B022BB6D8E1880229B3D1D0F88A
:1021B000A032002B14BF0B46002340F80C3F00F068
:1021C00035FAAEE78B4A92F89C32013B022BA2D83B
:1021D0004388012BA5D10023C2F8A03200F056FAA3
:1021E0009FE74388012B9CD1824AC2F8A03200F0BD
:1021F0004DFA96E78388002B8DD1C388002B8AD1B6
:1022000044887F2C87D87B4D95F89C32032B82D055
:10221000E0B285F89E0200F0C1FC00F037FA002C15
:1022200000F0D780022385F89C327AE74088030AC1
:102230000022022BADF80A2000F09680032B2AD052
:10224000012B7FF468AF12216B48ADF80A10E388C8
:10225000002BCCD0994228BF1946ADF80A1000F0E7
:10226000E5F95EE7C18801297FF455AF614890F830
:102270009C32022B08D8002B3FF44DAF002340F8CE
:10228000083F00F0D3F94CE7032B7FF444AF043050
:1022900000F0CCF945E7C0B2032800F29E80DFE8E9
:1022A00000F0464B2F025549D1F89005D1F89825FA
:1022B000D1F89435524903250244009503A806F04D
:1022C000D3FE03A8FDF7ACFF411C4E4B9DF80C005C
:1022D0005D70490089B2ADF80A10197070B103AD94
:1022E00002224FF0000C9854501CC0B2023203F886
:1022F00000C015F8010FD2B20028F4D14148A6E77A
:102300003E21404BADF80A1040F23E323E491A8061
:10231000002543221A54421CD2B202309D5411F8B7
:10232000012FC0B2002AF5D136483E218FE70421A3
:102330003648ADF80A108AE7324B35483A2140F268
:102340003A32ADF80A101A8045210222002599542C
:10235000511CC9B202325D5410F8011FD2B20029DB
:10236000F5D128483A2172E72A488378ADF80A3037
:10237000E388002B3FF43BAFBDF80A1000293FF47F
:10238000D0AE67E7E0B1686801283FF430AFC0B273
:1023900000F0B6F92078686000F0A8F902287FF410
:1023A00026AFB8E600283FF422AF0120032368607F
:1023B00085F89C3200F09AF902287FF418AFAAE65B
:1023C000022385F89C32686000F09AF900F05EF90B
:1023D000A7E6012385F89C32A3E60DF10A0102F07D
:1023E0003FF800283FF497AEC2E700BF640000202A
:1023F000580A00205C0A0020D80000200070FF1F4F
:10240000D09A000858080020B09A00085400002014
:10241000909A00088C00002010B5037803F0600249
:10242000402A044609D05B0607D5802000F086FBD1
:10243000002000F083FB002010BD0A4B93F89C3273
:10244000013B022BF1D82379022BEED8064B204614
:102450009B689847E388002BEDD10028EBD100F072
:1024600015F9E8E75C0A00206400002010B5037845
:1024700003F06003202B0AD0402B08D063B18020EA
:1024800000F05CFB002000F059FB002010BD444B25
:102490009B689847002010BD43788288012B5FFA23
:1024A00082FC3ED0032B2AD0002BE8D13D4B93F881
:1024B0009C12022950D00329E1D112F0800F0CF0B8
:1024C0000F0202EB820203EB820256D1D2F85821AE
:1024D000002AD4D014240CF07F0204FB023303F54D
:1024E000AA74002A47D0604600F044FB002850D070
:1024F000012323600221204600F098F8C5E7294B0C
:1025000093F89C32022B1DD0032BB8D143882BB9F2
:102510001CF07F0F02D0C388002B3CD000F0B6F82F
:10252000B3E7204B93F89C32022B0BD0032BA6D1A0
:102530004388002BA9D11CF07F0FEFD0604600F03C
:102540000BFBEBE71CF07F0F99D0604600F0F6FA2A
:10255000802000F0F3FA98E71CF07F048FD103F598
:10256000AA7012F0800F03F1140318BF184604601C
:1025700000F05CF889E72260BCE79269002A3FF42A
:102580007EAF0CF07F02541C04EB840403EB840444
:10259000A7E72060AEE7604600F0D0FABEE700BFD4
:1025A000640000205C0A00200B7803704B784370B5
:1025B000CA788B7803EB022343804A790B7903EBCB
:1025C00002238380CA798B7903EB0223C38070478F
:1025D00008B5802000F0B2FABDE80840002000F005
:1025E000ADBA00BFE8B170B50E460446FDF718FE5F
:1025F000431C0D4D5B009BB2032233802B706A702D
:10260000217861B12046022300245A1CD2B2E95439
:10261000AC5410F8011F0233DBB20029F5D1024897
:1026200070BD0148704700BF5808002010B5064B28
:102630000A46C3E90722014602240020C3F8944257
:1026400000F0BAFA002010BD5C0A002008B50A4666
:102650000146002000F0B0FA002008BD10B5064B7E
:102660000A46C3E95722014603240020C3F89442D6
:1026700000F0B2FA002010BD5C0A002008B50A463E
:102680000146002000F0A8FA002008BD10B5002285
:10269000044B042411461046C3F8944200F08CFA0F
:1026A000002010BD5C0A002010B50022044B052458
:1026B00011461046C3F8944200F08EFA002010BD77
:1026C0005C0A0020084B10B5012200241C7083F81E
:1026D0009C2200F0D1F908B1204610BD00F004FAA8
:1026E000B0FA80F0400910BD5C0A002008B5034B29
:1026F0001B689847002818BF022008BD640000200E
:1027000008B5024B5B689847002008BD64000020B4
:1027100010B5164C014604F52970FFF745FF94F8F3
:10272000A402B4F8AA22012100F01F038B42C4E9DD
:10273000A51208D0022B12D05BB100F0800000F08F
:10274000FDF9002010BD04F52970FFF765FE00209B
:1027500010BD04F52970FFF7D3FC002010BD04F56F
:102760002970FFF783FE002010BD00BF5C0A002027
:1027700010B570B91C4A0B46D2F89412032915D033
:10278000052904460ED1C2F8940200F0D7F920467C
:1027900010BD164B9B693BB1134A92F89C22032A49
:1027A00002D19847002010BD022010BDD2E9580187
:1027B00088420BD9401A8142C2F860018CBF81B2B5
:1027C00089B21846FFF75AFF002010BD074B1B695E
:1027D0001BB192F89C22032A03D0FFF757FF002079
:1027E00010BD9847F9E700BF5C0A00206400002094
:1027F00038B588B92F4DD5F89422022A1CD032F072
:10280000040302D1802000F099F995F89F32012B42
:102810004FF000000DD038BD274B5B693BB1254A16
:1028200092F89C22032A02D19847002038BD02204A
:1028300038BD85F89F0238BD0B46D5E908218A428C
:1028400029D8EB69B3FBF1F401FB143484B9994244
:102850000ED8D5F8982293420AD22146FFF7F6FE09
:10286000224621462046C5F8984200F0B5F9CCE74B
:10287000114BDB681BB195F89C22032A18D08020ED
:1028800000F05CF9FFF710FF95F89F32012B4FF035
:102890000000C0D1CDE7521A044691B218462A6210
:1028A000FFF7D4FE22462146204600F095F9ACE71A
:1028B0009847E4E75C0A00206400002070B500211E
:1028C00040260F4C3246084600F01AF901253246E0
:1028D00000218020C4F85851C4F8646100F010F958
:1028E000084BA5610020666284F89C52C4F89402EB
:1028F0006060C4F8A0025B68BDE87040184700BF84
:102900005C0A002064000020014B1874002070470E
:102910005C0A0020044B042293F89C1283F89D1259
:1029200083F89C22002070475C0A0020054B93F836
:102930009C22042A04BF93F89D2283F89C22002045
:10294000704700BF5C0A002008B5074B93F89C3223
:10295000032B01D0002008BD044BDB69002BF9D00C
:102960009847002008BD00BF5C0A002064000020DA
:102970000E4A0F4B12689A4200D0704703F5DA33C3
:1029800000B5996D41F4000199659B6D83B003F426
:1029900000030193142000220221019B01F08CFE10
:1029A000142003B05DF804EB01F0C4BE080D002054
:1029B000005C004008B501F077FD00B108BDBDE83E
:1029C00008400148FFF7A4BEA00F0020044B01EB14
:1029D000810203EBC2030846D3F86411FFF7C8BEB7
:1029E000080D0020044B01EB810203EBC2030846F3
:1029F000596AFFF7FDBE00BF080D0020FFF7A4BF16
:102A000008B50120FFF780FFBDE80840FFF756BF7B
:102A100008B5084B01221A70FEF774F9FFF77AFF28
:102A2000054B5B7A23B1054A136943F00603136132
:102A300008BD00BFE40F0020080D002000ED00E0FD
:102A400008B5074B5B7A23B1064A136923F00603E6
:102A50001361FFF76BFF044B00221A7008BD00BF23
:102A6000080D002000ED00E0E40F0020014B187875
:102A7000704700BFE40F002008B506480649074A22
:102A8000012380E80E0003F0E9FABDE8084001F0F8
:102A9000B5BC00BF080D0020005C00400802000229
:102AA00038B515461C46A9B11268D31801462B60EB
:102AB0000C4843EA0243012204F098FA2B68E01D17
:102AC000184420F00700B0F5806F28608CBF00200C
:102AD000012038BD0A462B680146024804F086FAF8
:102AE000ECE700BF080D002008B5044803F0A0FB88
:102AF00018B1022814BF0220012008BD080D0020D3
:102B0000844608B505480B46614604F05FF918B1E4
:102B1000022814BF0220012008BD00BF080D0020BC
:102B200008B50146044804F089F918B1022814BF19
:102B30000220012008BD00BF080D002008B5014695
:102B4000044804F0E1F918B1022814BF0220012062
:102B500008BD00BF080D002008B50146044804F078
:102B60000DFA18B1022814BF0220012008BD00BFD1
:102B7000080D00200206084B06D400EB800003EB92
:102B8000C00090F85201704700F07F0000EB800019
:102B900003EBC000807C7047080D002008B501469B
:102BA000044804F0FFF818B1022814BF02200120E5
:102BB00008BD00BF080D0020844608B5054813462F
:102BC0000A46614604F082F918B1022814BF0220B7
:102BD000012008BD080D0020844608B505481346AD
:102BE0000A46614604F058F918B1022814BF0220C1
:102BF000012008BD080D00200D4885460D480E49EE
:102C00000E4A002302E0D458C4500433C4188C4246
:102C1000F9D30B4A0B4C002301E013600432A242AB
:102C2000FBD3FDF7B1FB06F0BBF9FDF751FBFEE767
:102C30000000022000000020640200209C9B00088D
:102C400068020020209F0020FEE70000394B40F67C
:102C50000F7270B51A8001F011FD374B3749384AB1
:102C600059604FF40071374C996012680121D97096
:102C70004EF23B51002A21604FEA10654FEA1041A5
:102C80004FEA10201D7059709870C8BF4EF63B5324
:102C90004FF00000C8BF2360FFF77AF90646FDF742
:102CA000E1FB01257368B1683268E360C4E901059E
:102CB000F368A3612846C4E90451C4E90752656278
:102CC000FFF766F9204B62685A6022681A60426812
:102CD0001E4C9D62C3E90B2582685A6302681A6420
:102CE000C268DD635D6403F1080C9A630FCCACE845
:102CF0000F0094E80F008CE80F0001F0C3FC144BA8
:102D0000144A154C1D4625F8020B03CA1288C3F855
:102D1000020069602A8107CCC3F81B00586B247835
:102D2000C3F81F1040F00100C3F8232083F82740A8
:102D3000586370BD940200209010002018062600F1
:102D4000240000202010002048100020281000201F
:102D5000E80F0020E09A0008EC9A00082DE9F04105
:102D60004378162B92B000F09F80132B044603D9B2
:102D7000914A107800284BD01B2B0FD8DFE803F0C6
:102D8000330E0E0E0E33330E0E0E0E0E0E0E0E0EF4
:102D90000E0E0E0E330E0E0E33574E4E6588012D5D
:102DA00000F38E800026EDB2B0462846FEF722FDE5
:102DB00020B3824F02233B7094F90030002B6378DC
:102DC0003ADB1B2B1ED8DFE803F08795A21D1D1DE3
:102DD0001D871D1D951D871D1D1D1D1D1D1D1D995B
:102DE0001D97A01D1D9B65880026AD1B18BF0125E2
:102DF0002846B046FEF7FEFC0028DAD12846FEF74A
:102E00005DFFD6E731233B70002012B0BDE8F081B2
:102E10006A4B31221A7012B0BDE8F0816088FDF76C
:102E200085FC0646002852D00025A846BDE70025AF
:102E300094F802802E46B8E70022043BCDE9002238
:102E40000292162BDED801A252F823F03F2F000881
:102E5000A12F00086F2F0008052E0008052E00087E
:102E6000052E0008052E0008A72F0008052E0008D3
:102E7000592F0008452F0008052E0008052E0008D0
:102E8000052E0008052E0008052E00089B2F0008BF
:102E9000052E0008052E0008052E0008052E000846
:102EA0007B2F0008132F0008444B01211B788DF85D
:102EB0001C3007A8FFF7BAFB012012B0BDE8F08173
:102EC0003E4F322300203B7012B0BDE8F0813B4FF3
:102ED0003D233B70002098E70422E3889342F0D31F
:102EE00020686168364B03C33648E188FFF7B6FBBC
:102EF00001208AE71422F0E70122EEE71122ECE735
:102F0000E388B3F5FA6FEBD9E2E70C22E5E7082294
:102F1000E3E730464FF6FF7230F8023B934248D069
:102F2000B3F5FA6F28BF4FF4FA63E188994228BFDE
:102F30001946FFF77BFB012012B0BDE8F081224863
:102F40002823F2E72846FEF755FC002844D1042345
:102F5000009368460C23E8E703A92846FEF71AFC0D
:102F600020B39DF80C30079307A80423DDE7FDF795
:102F70007FFA0423079007A8D7E7B8F1010FA0D183
:102F80000220FDF787FA88B102280CBF0223002334
:102F9000ADF80C3003A80223C7E70C483823C4E778
:102FA0000B480C23C1E70B484823BEE736233B7090
:102FB0002BE70023B9E700BF7C1800205800002051
:102FC000741800209C10002020100020E80F002022
:102FD00090100020481000202846FEF757FC07A953
:102FE00002F074F82846FEF751FC03A902F096F8A7
:102FF000DDE903210B9BCDE901120BB10123009305
:103000000A9B0BB1022300930C9B0BB1032300938B
:103010000C23684689E700BF30B5A74B588859781C
:1030200085B0C4B21B2917D8DFE801F0B9182D16F6
:103030001616166616161816711616161616161683
:10304000168216A80E1616B19C4B5A88012A00F05B
:1030500020819B4B32221A7005B030BD974DD5E9C7
:1030600000232046A1F10A01EC680194B1FA81F134
:10307000AC680094134449092A69FDF7B1FF904BED
:10308000187005B030BD8D4D2B68012BE1D800F0D4
:103090008D80FEF7A5FB8B4A00B910706B68590450
:1030A0004ABF0121117811701807874A00F1FB808F
:1030B0000F2010554FF0CF0C8F204FF04F0E13F014
:1030C000100F1CBF02F804E0604651B1190448BF5C
:1030D0001055117841F010011170517841F0100134
:1030E00051702968012900F0F18039B9204605B0F6
:1030F000BDE83040FDF75CBE704B1968003918BF61
:103100000121204605B0BDE83040FEF76FBD6B4B96
:103110001968A1F10101B1FA81F120464909FEF7D0
:1031200019FB002898D1664B36221A7005B030BDC5
:10313000624D2B780E2B8CD801A252F823F000BFE1
:103140002732000811320008FB3100085330000814
:103150005330000853300008533000085330000843
:103160005330000853300008F73100084B32000894
:10317000333200086F320008D53100084F4B20462B
:103180001978FEF71DFB4E4B187005B030BDDA887C
:103190004A49FDF7F3FA4A4B187005B030BD474A6B
:1031A00012684BF6EF639A42BDD155E72046FEF711
:1031B00021FB002840F097806B68D8057FF569AF48
:1031C0002046FEF72FFB00287FF463AF3C4B3A22EA
:1031D0001A7041E70123D5F80510D5F801200193B5
:1031E000CDE902216A7AA97A00932046FEF758F8C1
:1031F000334B187030E70023EDE7D5F80530D5F8EC
:10320000012001212046FDF7B9FF2D4B187023E75F
:10321000D5F80530D5F8012000212046FDF7AEFF96
:10322000274B187018E72046FEF72AF8244B187031
:1032300012E7D5F80510D5F801200020CDE90221CC
:1032400001236A7AA97A0190CEE7D5F80510D5F85E
:1032500001200023CDE90221CDE900336A7AA97A61
:1032600001232046FEF71CF8154B1870F4E6D5F83C
:103270000510D5F8012001230020CDE90221CDE978
:1032800000036A7AA97A2046FEF70AF80C4B1870F8
:10329000E2E61B88052B7FF4DCAE0320FDF728F95E
:1032A000074B1870D8E60E2010554FF0CE0C8E202C
:1032B0004FF04E0E03E700BF741800209C10002052
:1032C000580000207C18002094020020DA070ED558
:1032D00013F0020F0CBF022103212046FDF7C2FBB1
:1032E000054B1870B8E6044B34221A70B4E613F09C
:1032F000020118BF0421F0E75800002010B5044671
:10330000FEF7FAFA20B92046BDE81040FDF7DCBD13
:10331000204600F055FE2046BDE81040FDF7D4BD24
:1033200038B50D4600F070FF044600F54C501C30D7
:1033300000F052FFC0B103220F2302724372857264
:1033400072B6BFF34F8FBFF36F8F04F5405204F591
:103350004C54D2F83033C2F830032C34C0E9004367
:10336000186062B6BFF36F8F38BD00BF1E4B1B5C89
:10337000DB0601D40020704770B50E4600F044FF14
:10338000054600F54C501C3000F026FF044628B3DB
:103390003046FCF745FF4E28024621D8831CDBB29D
:1033A00023720E236372314604F10A0005F02CFEED
:1033B00072B6BFF34F8FBFF36F8F05F5405205F51F
:1033C0004C55D2F83033C2F830432C35C4E90053A1
:1033D0001C6062B6BFF36F8F012070BD002070BD0E
:1033E000024E14221623DBE794020020FC9A000808
:1033F0002DE9F04F01F54C5883B008F12C0872B656
:10340000BFF34F8FBFF36F8F01F54055D5F82C43B5
:10341000A04500F0CC800F4682461CB1D4E90023C1
:1034200053601A6062B6BFF36F8F002C00F0C28049
:10343000624B1B78002B6ED072B6BFF34F8FBFF379
:103440006F8FD5F82C93C84500F09B8062B6BFF310
:103450006F8F5B4B13F90A30002B80F29580B9F126
:10346000000F00F0918007F54C5B5B461C33019325
:103470004FF488530BF1340BA5F834330226214660
:103480000BEB060011F8087F3A4605F0BDFD95F8F4
:1034900034333E440133B6B285F8343372B6BFF3E9
:1034A0004F8FBFF36F8FD5F82033019AC5F82043B3
:1034B000C4E900231C6062B6BFF36F8FB9F1000F3F
:1034C00057D095F83433FA2B53D899F80830334451
:1034D000B3F5006F4DDA72B6BFF34F8FBFF36F8F46
:1034E000D5F82C43A04558D01CB1D4E90023536033
:1034F0001A6062B6BFF36F8F72B6BFF34F8FBFF320
:103500006F8FD5F82C93C84549D062B6BFF36F8F43
:10351000002CB4D12DE0A37C29489B07637CC35CBD
:1035200054BF14224C2203F0400354BF18215021F1
:103530009446002B07F54C5B0E4614BF0A466646C0
:103540000BF1340B04F10801584605F05DFD72B62D
:10355000BFF34F8FBFF36F8FD5F82033C5F82043EB
:1035600007F54C571C37C4E900731C6062B6BFF303
:103570006F8F32465946504603B0BDE8F04F00F019
:10358000DBBF62B6BFF36F8F214607F54C5B11F8C6
:10359000082F0BF1340B96B2D6E70024A9E762B6E8
:1035A000BFF36F8F002CE4D04FF0000967E762B6DD
:1035B000BFF36F8F03B0BDE8F08F00BF7C18002011
:1035C00094020020194944F2343C0CFB00FC43F205
:1035D000143201EB0C0310B50CEB02040C4443F263
:1035E00024309C500CEB00020A441A5043F2183E5F
:1035F00043F2283043F80E401A5003F540529E44DF
:10360000D2F818030CF104020A4401F5D8518C4495
:1036100001466C339C45CEF8002043E91A40104621
:103620000A6002F16C02F3D110BD00BF80180020C7
:10363000F0B50546174681B3304C44F2343E0EFBDC
:1036400000FE43F2143304EB0E010EEB0306264496
:1036500043F22432CE500EEB020323448B5043F24C
:10366000183C43F2283241F80C608B5001F540536E
:103670008C44D3F818030EF10403234404F5D85402
:10368000A64402466C317145CCF8003041E91A601D
:103690001846136003F16C03F3D177B3174C44F26F
:1036A000343303FB05F543F21C326319AE1843F2C1
:1036B0002C3126449E506A1822445A5043F2203737
:1036C00043F23031DE515A501F4403F540530C4A47
:1036D000D3F8200305F5D853043302EB050C23443B
:1036E00005F1040E0246591B3B6018464E5141F845
:1036F0000E20136058339C45F4D1F0BD8018002093
:10370000944B002008B5012211460020FFF790FFDE
:103710000122BDE8084011461046FFF789BF00BFEF
:1037200044F2343C2DE9F8430CFB00FC72B6BFF3C5
:103730004F8FBFF36F8F334C43F2143E04EB0C03F7
:1037400053F80E30E644A644734550D01BB1D3E97C
:10375000006575602E6062B6BFF36F8F002B49D095
:1037600003F1080E01F120090F684E688D68D1F849
:103770000C80CEF80C8010314945CEF80070CEF8A0
:103780000460CEF808500EF1100EEDD10968CEF8A5
:10379000001002F1400803F12C0116685568D2F8B8
:1037A00008E0D768CF60103242450E604D60C1F826
:1037B00008E001F11001F0D172B6BFF34F8FBFF3F3
:1037C0006F8F44F2343202FB004043F228310CF593
:1037D0004C5C425843500CF1240C6444C3E9004251
:1037E000136062B6BFF36F8F0120BDE8F88362B645
:1037F000BFF36F8F01220421FEF760F80020BDE8BF
:10380000F88300BF801800202DE9F047414B1C7859
:103810008AB0BCB14B780A2B6CD18846D1F80340F2
:103820008F7891F807A0054618F8080B14F0804926
:10383000A0F1080069D0002865DD0E7A082E28BFA7
:1038400008260BE04D7A012D48D84C6891F800A06D
:103850008F7A0E7A01F10C0804F08049002303935B
:1038600007930293069328464FF400030893FDF74D
:10387000CBFF002814BF4FF000430023002C05931A
:10388000BABF24F060444FF08043C4F30A04CDF87B
:1038900024A0B8BF02930194B9F1000F02D04FF0F9
:1038A00000530393082E22D947F002072846FDF75C
:1038B000B9FF044690B14FF4001307937B0744BF50
:1038C0004FF480130693424601A928460496FFF759
:1038D00027FF044620460AB0BDE8F08728460122AB
:1038E0000221FDF7EBFF20460AB0BDE8F087BA07DA
:1038F000E9D5DBE701220221FDF7E0FF00242046A5
:103900000AB0BDE8F0870026A8E7FEF76BFBC6B259
:10391000A4E700BF7C1800202DE9F04F4B7891B050
:10392000102B059040F0AC800B780E46002B00F079
:10393000B5804FF0000B88788C1C0225DA466DE0CC
:1039400062780A2A40F08480E379D4F80320029355
:1039500004F10803049312F0804394F80280039367
:10396000A0F1080000F08480002840F38E80277AC0
:10397000DDF81490082F28BF08274FF400034846AD
:1039800001920E93CDF824A0CDF834A0CDF820A05C
:10399000CDF830A0FDF738FF019A029B0F93002865
:1039A00014BF4FF000400020039B0B90002ABBBFC8
:1039B00022F060424FF08040C2F30A020890079262
:1039C00013B14FF000520992082F3DD948F0020878
:1039D0004846FDF727FF00285BD04FF4001218F08F
:1039E000040F0D921CBF4FF480120C92049A0A9798
:1039F000484607A9FFF794FE00284FD03278217877
:103A00000BF1010B5FFA8BFB5A450D4446D9705DF3
:103A10004219B2F5006F06EB050442DC224B1A781E
:103A2000002A8DD194F80990B9F1010F18D82378A4
:103A30006268029304F10C03049302F0804394F84B
:103A40000A80277A039398E718F0020FCED0BFE7D9
:103A500001220221059811B0BDE8F04FFDF72EBFFD
:103A600001220221484611B0BDE8F04FFDF726BF04
:103A70000192FEF7B7FADDF81490019AC7B27CE71D
:103A800011B0BDE8F04FFFF7BFBEDDF8149000277E
:103A900073E7012202214846FDF710FF11B0BDE88F
:103AA000F08F01220421D5E77C1800202DE9F84F82
:103AB0005C4B1C7882460E461546002C66D05A4F49
:103AC00044F2343202FB007772B6BFF34F8FBFF37C
:103AD0006F8F07F5405907F54C52D9F81C431C323B
:103AE00094424ED01CB1D4E900124A60116062B613
:103AF000BFF36F8F002C47D07268B2F1804F3268ED
:103B000006BF22F0604242F00048C2F30A08B268E1
:103B1000B2F1005FB26908BF48F08048B2F5001FFB
:103B200036D01B78307B4FF0000B002B43D018F0C1
:103B3000804F6ED0012228700C23104623720C2374
:103B400084F80AB06372F369C4F80F30374BC4F8D5
:103B50000B8013F80A305B0653D5294604F1130095
:103B600005F052FA72B6BFF34F8FBFF36F8FD9F8DB
:103B70003033C9F8304307F54C572C37C4E900738C
:103B80001C6062B6BFF36F8FBDE8F88F264F9BE7CE
:103B900072691B78307BB2F5801F326915BF0A212C
:103BA0000E214FF0020B4FF0060BB2F1004F08BF91
:103BB0008B46002BBBD1E3744FF0FF33A36084F836
:103BC00011A084F812B0C4F80C80207404F114031E
:103BD00005F1400E28686968AA68D5F80CC0C3F8DA
:103BE0000CC010357545186059609A6003F11003D8
:103BF000F0D1B369B3F5001FF3690CBF6365E361EE
:103C0000B0E707302072294604F10F0005F0FCF9F7
:103C1000A8E7FEF7D9F9C0B200F10B03DBB2024608
:103C20008CE700BF7C180020801800209402002040
:103C3000DFF874C12DE9F84F15461A469CF800309C
:103C40005A4F82460E461BB144F2343303FB0077D1
:103C500072B6BFF34F8FBFF36F8F07F5405907F56B
:103C60004C53D9F81C431C339C424FD01CB1D4E9AF
:103C700000134B60196062B6BFF36F8F002C48D001
:103C80007368B3F1804F336806BF23F0604343F09D
:103C90000048C3F30A08B368B3F1005FB36908BF13
:103CA00048F08048B3F5001F35D09CF80030307BD9
:103CB0004FF0000B002B42D018F0804F6BD0012248
:103CC00028700C23104623720C2384F80AB0637208
:103CD000F369C4F80F30364BC4F80B8013F80A3080
:103CE0005B0650D5294604F1130005F08DF972B634
:103CF000BFF34F8FBFF36F8FD9F83033C9F830431C
:103D000007F54C572C37C4E900731C6062B6BFF34B
:103D10006F8FBDE8F88F7369307BB3F5801F33690F
:103D200015BF0A210E214FF0020B4FF0060BB3F125
:103D3000004F08BF8B469CF80030002BBCD1E374C9
:103D400084F811A084F812B0C4F80C802074A2602A
:103D500004F1140305F1400E28686968AA68D5F8D3
:103D60000CC0C3F80CC010357545186059609A60D6
:103D700003F11003F0D1B369B3F5001FF3690CBF71
:103D80006365E361B3E707302072294604F10F0051
:103D900005F03AF9ABE7FEF717F9C0B200F10B03F3
:103DA000DBB202468FE700BF7C180020801800209D
:103DB000940200202DE9F04FDFF860A1584E9AF8E8
:103DC000003044F2343400FB04F48BB006EB0409F9
:103DD0000746002B14BF4D463546FDF749FD002828
:103DE00055D072B6BFF34F8FBFF36F8F09F54059AF
:103DF00004F54C53D9F8248324333344984500F018
:103E00008580B8F1000F03D0D8E9002353601A6011
:103E100062B6BFF36F8FB8F1000F38D03846FDF7A8
:103E20000FFD022838D0012202213846FDF746FD59
:103E300004F54C541434344472B6BFF34F8FBFF3BF
:103E40006F8FD9F81833C9F81883C8E90043C3F84D
:103E5000008062B6BFF36F8F2B781BB929463846B6
:103E6000FFF7C6FA44F2343303FB076343F214321C
:103E70009B58A34244D005F5405305F54C51D3F867
:103E80001C331C318B4233D00BB0BDE8F08F04F5EE
:103E90004C5414343444DFE708F12C0B5A4608F133
:103EA00008013846FCF7B6FF9AF80030002BBFD166
:103EB000D8F808300093D8F80C300193D8F81030B7
:103EC0000293D8F814300393D8F818300493D8F834
:103ED0001C300593D8F820300693FCF7C9FAD8F8BF
:103EE000283007905A4669463846FFF7A1FE9FE7FB
:103EF0000022082138460BB0BDE8F04FFDF7DEBCCC
:103F0000002204213846FDF7D9FCB4E762B6BFF3BE
:103F10006F8F04F54C54143434449DE77C18002012
:103F200080180020234B1B78002B42D070B544F240
:103F30003433214C03FB00F2A31872B6BFF34F8F4A
:103F4000BFF36F8F03F5405E02F54C531C3304EB57
:103F5000030CDEF81C33634527D01BB1D3E90065A1
:103F600075602E6062B6BFF36F8F0BB307251D72AD
:103F70000B255D720D6A9D72C969C3F80B100F495C
:103F8000095C49065CBF0321197272B6BFF34F8FFB
:103F9000BFF36F8F02F54C52DEF83013CEF830339A
:103FA0002C322244C3E900210B6062B6BFF36F8F4D
:103FB00070BD70477C1800208018002094020020FB
:103FC0002DE9F843DFF80492814D99F80030064658
:103FD0001BB144F2343303FB005572B6BFF34F8F6D
:103FE000BFF36F8F05F5405805F54C53D8F81C43C7
:103FF0001C339C4200F0A3801CB1D4E90023536021
:104000001A6062B6BFF36F8F002C00F09B805022C5
:10401000002104F1080005F01FF899F80030F3B909
:104020003046FDF761FC0378202B04F114071ED005
:10403000302B00F08980102B00F0B8804379002BE2
:1040400040F0AB8020214FF4007C00228378013BBC
:10405000052B1FD8DFE803F09C971D8B929030460C
:10406000FDF742FC0378202B04F10E07E0D1C37862
:104070001BB17B7843F020037B700379002BE1D0E8
:104080007B7843F010037B7020214FF4007C0022EA
:10409000DCE70A4699F80030002B39D14378D9067D
:1040A00048BF42F0010213F0080F797851D113F0A4
:1040B000040F55D1002957D1B97809B142F008024F
:1040C0007B71C378BB710379FB71082342F0005206
:1040D00023744FF0FF33E2606674A360FCF7C8F905
:1040E000E06172B6BFF34F8FBFF36F8FD8F83033F4
:1040F000C8F8304305F54C552C35C4E900531C6015
:1041000062B6BFF36F8F3046BDE8F843FDF7B6BC2B
:1041100043787B71C378BB710379FB7140F612530E
:104120002381C4F80A20FCF7A3F92A4BC4F816002F
:104130009B5D5B06D5D4237A043B2372D1E762B63C
:10414000BFF36F8FBDE8F88360214FF4107C4022ED
:104150007CE741F001017970437813F0040F03D03C
:1041600041F002017970437842F00402A4E7BB7881
:1041700043F01003BB708DE762468BE7BB7843F0DA
:104180000803BB7086E7BB7843F00203BB7081E78E
:10419000BB7843F00403BB707CE77B7843F04003BB
:1041A0007B7020214FF4007C00224FE7C3781BB1C5
:1041B0007B7843F008037B700379002B3FF442AF18
:1041C0007B7843F004037B703CE700BF7C18002041
:1041D0008018002094020020034672B6BFF34F8F70
:1041E000BFF36F8F0068834208D018B1D0E9002375
:1041F00053601A6062B6BFF36F8F7047002062B6DB
:10420000BFF36F8F704700BF024B44F2343202FBA2
:1042100000307047801800201F4B20482DE9F047E0
:10422000002201244FF47F411D4F1E4D1E4E04708D
:1042300091461A70998090465FFA89FA5046FFF7C6
:10424000E3FF80F80080044617F8010B2B7800F09C
:104250000F0103F00F0306F801A04022022106F827
:1042600003A0FEF74DFC15F8010B40220221FEF7DA
:1042700047FC04F56C5115F8010C4FF40062343121
:10428000FEF7AAFC10B9B9F1000F01D0BDE8F08724
:104290004FF00109D0E700BFEC9E0020E89E00200F
:1042A0005C00002060000020F49E002008B5FEF7AE
:1042B000B3FE002008BD00BF70B50E4A00F00F032A
:1042C0000546D65C3046FFF79FFF0B4B1B7800F589
:1042D0006C54002B04F1340414BF304600202146F6
:1042E000FFF71AFB4FF4006221462846FEF774FCE4
:1042F000002070BDF49E00207C18002010B500F056
:104300000F030A4A0446D05CFFF77EFF437823B9C7
:1043100003F0FF020270002010BD0022427011461F
:104320002046FEF749FC002010BD00BFF49E00208F
:1043300070B50A4C23787BB1094E0A4D3078FEF7F0
:10434000EFFB2878FEF7ECFB7078FEF7E9FB687866
:10435000FEF7E6FB00232370002070BDE89E0020DE
:104360005C0000206000002038B5027802F0600395
:10437000202B04D0402B02D06BB1002038BD8488A4
:10438000012C10D0FEF7EAFC0028F6D10020FEF741
:104390001FF9002038BD43780A2BEED101211548C2
:1043A000FEF744F9E9E702F07F02212AEED14378D3
:1043B000032B1AD0042B11D0002BE7D10E4D4FF454
:1043C0007F422B70AA80FDF759FD0228D5D03C28EA
:1043D00017BF0A232C712B716871CEE7064B0021A1
:1043E0004FF47F4219709A80C7E706210248FEF712
:1043F0001DF9C2E7049F0020EC9E002070B582B03A
:10440000382000210190402301AA0846FEF748FB0E
:10441000F0B1402301AA00218020FEF741FBB8B192
:104420000D4C0E4DA61C402314F8010B01AA0021CF
:10443000FEF736FB402358B115F8010B01AA012104
:10444000FEF72EFB20B1B442EDD1002002B070BDCA
:10445000022002B070BD00BF5C00002060000020A0
:10446000072810B5044607D804280FD80CD1BDE89A
:1044700010400A48FEF7B6B8EE2805D10848FEF706
:10448000B1F82023037410BD002010BD0548FEF7CD
:10449000A9F82C3480F8244010BD00BF289B0008E8
:1044A000449B0008149B000838B51F4C1F4904F5B5
:1044B0002970FEF779F894F8A41211F01E0001D0CB
:1044C000002038BD94F8A532202BFAD1B4F8A632DA
:1044D000022BF6D8B4F8A832042B1AD0052BF0D151
:1044E0000146FEF77FF892221149054604F08CFD43
:1044F000B4F8A632012B04BF322385F84630B4F855
:10450000AA129229284628BF9221FEF78FF801208F
:1045100038BDB4F8AA120748582928BF5821FEF719
:1045200085F8012038BD00BF5C0A0020A00F0020E4
:10453000EC00002080010020104B70B51D780E4665
:10454000144695B10546FFF75FFE012303709CB149
:1045500014F03F0F18BF00234370094B2246585DEB
:104560003146BDE87040FEF727BB2846FFF74CFEFA
:1045700001230370002CEBD12346EDE77C180020CB
:104580005C000020704700BF704700BF10B5094BAA
:1045900000244FF0FF329A639C631A641C649A6291
:1045A0009C62DA62DC621A631C63FFF7EDFF20464F
:1045B00010BD00BF0010024038B50F4B1B680BB98F
:1045C000012038BD0D494FF47A720546B2FBF3F372
:1045D0000868B0FBF3F000F0BBF804460028EFD108
:1045E0000F2DEDD8024629464FF0FF3000F064F859
:1045F000034B20461D6038BDD80100200400002078
:10460000DC0100200A4A136823F4806310B50320FC
:10461000136000F03FF80020FFF7CEFF10B1012437
:10462000204610BD0446FFF7ADFF204610BD00BF79
:1046300000200240034A0449136809680B441360D0
:10464000704700BF089F0020D8010020014B186868
:10465000704700BF089F002038B50446FFF7F6FFFB
:10466000631C054602D0044B1B681C44FFF7EEFF99
:10467000401BA042FAD338BDD80100200048704743
:1046800000050201024B1868C0F30B00704700BF21
:10469000002004E00749CA6803024FF6FF0003F454
:1046A000E0630240134343F0BF6343F40033CB6045
:1046B000704700BF00ED00E01C4BDB68C3F3022332
:1046C00000B5C3F1070EBEF1040F03F1040C28BFBF
:1046D0004FF0040EBCF1060F1BD9033B4FF0FF3C1B
:1046E0000CFA03FC22EA0C024FF0FF3C0CFA0EFC21
:1046F00021EA0C019940002841EA02010CDB00F19B
:104700006040090100F56140C9B280F800135DF80E
:1047100004FB00221346E7E7054B00F00F000901F8
:104720000344C9B219765DF804FB00BF00ED00E058
:10473000FCEC00E0002808DB044A4109012300F0FA
:104740001F0003FA00F042F82100704700E100E08A
:104750000138B0F1807F0FD210B44FF0E023074C46
:1047600058614FF0F00C84F823C000220721104656
:104770009A6110BC196170470120704700ED00E09C
:10478000704700BF08B5FFF7FBFF08BD704700BFCB
:10479000002800F049812DE9F04190F85C30044692
:1047A00003F0FF02002B73D02268936923F01003FB
:1047B0009361FFF74BFF054604E0FFF747FF401BFF
:1047C0000A285BD823689A691107F6D49A6942F0DF
:1047D00001029A61FFF73AFF054604E0FFF736FF52
:1047E000401B0A284AD823689A69D207F6D59A69E5
:1047F000964942F002028B429A6100F01081227CBD
:10480000012A9A690CBF22F0400242F040029A61EC
:10481000627C012A9A690CBF42F4804222F48042F1
:104820009A61A27C012A9A690CBF22F4805242F458
:1048300080529A619A69A068E16822F4407202434A
:104840009A619A6922F0A4029A611A69012922F0F8
:1048500010021A6121D021B302299A6900F0F18077
:1048600042F080029A611A69032942F010021A612B
:1048700017D19A6942F020029A6112E0236E032256
:1048800043F00103236684F85C200120BDE8F08139
:1048900080F85D20FFF77AFF86E79A6942F004020C
:1048A0009A61D4E90612013A0139120242EA4162E0
:1048B000216A01390A436169013942EA0142B0F5CE
:1048C000407FDA610ED1D4E90B02A16A013A0138C6
:1048D0001201013942EA00220A43616A013942EABF
:1048E0000142DA60D3F8C020E06B594902438B42A1
:1048F000C3F8C02000F09A80564A574D574E584F83
:1049000001F580618B4218BF154601F57D51A2F17A
:10491000180201F1100118BF1646A2F1D80214BF07
:1049200017468E46A2F1D802A1F1400114BF964667
:104930008846A2F1400201F5387114BF90468C46BA
:1049400002F53872A1F5547118BF9446A2F554725D
:1049500008BF0A46D3F88000616B226420F4F81087
:1049600040EA0141C3F88010D3F88010C4F84480B5
:10497000D4F8388021F070610CF1FF30801A41EAE0
:104980000861C3F88010C4E914658508511C01351D
:104990008C4538BF01251728C4E912E7C2F380030C
:1049A0001AD98C452CBF00210121A9B916460BB19B
:1049B00046F8041BED1A02EB83036A0803EBC202FC
:1049C00000200021E3E802019342FBD125F001031E
:1049D0009D4206EB83021AD01146002341F8043BA6
:1049E0008C4514D902F108018C4553600FD902F1AE
:1049F0000C018C4593600AD902F110018C45D360FB
:104A000005D902F114018C45136188BF5361002060
:104A10000123206684F85C30A065BDE8F081114A6E
:104A20006168C2F80015EAE6012070470E4D0F4E8E
:104A30000F4FDFF840E0DFF84080DFF840C0104A59
:104A400088E742F020029A612BE700BF0064004033
:104A50000068004078A6004018AD004000AD00405E
:104A600028AC004000600040C8A90040B0A9004048
:104A7000D8A8004000A80040C0A70040A0AA00405D
:104A800050A70040704700BF002848D010B590F8EC
:104A90005C30022B044630D103689A6942F001026F
:104AA0009A619A69D0073CD49A69D10739D49A6936
:104AB000D20736D49A69D00733D49A69D10730D453
:104AC0009A69D2072DD49A69D0072AD49A69D10756
:104AD00027D49A69D20724D49A69D00721D49A6935
:104AE000D1071ED49A69D2071BD4226E032142F04B
:104AF0000102226684F85C1004E0026E036842F052
:104B000008020266DA6D22F003022046DA65FFF73A
:104B1000B9FF0023236684F85C30184610BD0120DD
:104B200070479A6922F010029A619A69100720D59D
:104B30009A6911071DD59A6912071AD59A69100743
:104B400017D59A69110714D59A69120711D59A6970
:104B500010070ED59A6911070BD59A69120708D567
:104B60009A69100705D59A69110702D59A69120743
:104B7000BBD49A69002042F0020201219A61A0652B
:104B800084F85C10BEE700BF90F85C20013A012A6F
:104B9000034605D9026E42F0020201201A667047F0
:104BA000086830B478B9D1E90242D20642EA847288
:104BB0001C6C4B694D6813430A6943EA024344F88D
:104BC000253030BC7047586C8A684B694C6843EAA2
:104BD0008273D1E9035200EBC40C42EA457240F8FB
:104BE0003420002030BCCCF804307047844690F864
:104BF0005C00012807D0DCF8603043F0040301209A
:104C0000CCF86030704710B40198DCF8004040EAFE
:104C10004303D4F8800043EA820242EA011120F003
:104C20003F031943C4F88010002010BC704700BF38
:104C300090F85C20012A034605D0026E42F004027F
:104C400001201A6670470268136A23F4702319431F
:104C500000201162704700BF90F85C20012A0346D3
:104C600005D0026E42F0040201201A667047026805
:104C7000136A23F00303194300201162704700BF39
:104C8000034690F85C00012805D01A6E42F0040239
:104C900001201A6670471B6842EA01229A640020CC
:104CA000704700BF90F85C20012A034605D0026ED1
:104CB00042F0040201201A6670470268D36843F488
:104CC00000030020D360704790F85C20012A03465F
:104CD00005D0026E42F0040201201A667047026895
:104CE000D36823F400030020D360704790F85C2061
:104CF000012A034605D0026E42F0040201201A6622
:104D000070470068022283F85C208269002122F04B
:104D10000102826108461966704700BF90F85C3056
:104D2000022B024631D10368996941F00101996172
:104D30009969C8072FD49969C9072CD49969C807FC
:104D400029D49969C90726D49969C80723D49969D0
:104D5000C90720D49969C8071DD49969C9071AD40D
:104D60009969C80717D49969C90714D49969C807FC
:104D700011D49969C9070ED4136E032143F00103BE
:104D80001366012082F85C107047036E43F008033D
:104D9000012013667047996921F0100199619969A2
:104DA000080720D5996909071DD5996908071AD5FB
:104DB0009969090717D59969080714D599690907E9
:104DC00011D5996908070ED5996909070BD5996915
:104DD000080708D59969090705D59969080702D513
:104DE00099690907C8D49969002041F002014FF080
:104DF000010C9961906582F85CC07047F0B590F83D
:104E00005C30022B86460CD10568D5F8C43013F40B
:104E1000001C0DD0036E43F400730120CEF8603007
:104E2000F0BD036E43F008030120CEF86030F0BD02
:104E3000D5F8C4604B68C6F30146002B3BD18B68A4
:104E40000F691F430B6847EA8347D1E906034C69A2
:104E50000343086A2343CC6843EA006343EA0443FC
:104E6000DEF8540006EBC60440F8347000EBC400D2
:104E7000154C4360CB68E35CA3B19378D7781B04EF
:104E800043EA076317783B43577843EA072300EB6D
:104E90000C070CF1040CBB60CB68E35C9C4502F191
:104EA0000402EAD3012303FA06F6C5F8CC60002019
:104EB000CEF85860F0BD0B690F681F438B681F4325
:104EC00047F08047C1E700BF509B000890F85C2086
:104ED000022A034605D0026E42F0080201201A663B
:104EE000704703680020C3F8D0107047F0B504463F
:104EF00090F85C0002280CD1402925680FD0D5F825
:104F0000980007076ED1236E43F480730120236657
:104F1000F0BD236E43F0080301202366F0BDD5F8F1
:104F200090000707EFD0D5F89060C6F30060F60157
:104F300048BFD5F88000D5F8907048BFC0F3402036
:104F4000C7F301270744A06C07EBC70600EBC600B8
:104F5000066806F080465660002E5ED10668C6F3ED
:104F60008A461660066806F000569660066806F0E7
:104F7000004616618688D661B0F806C00CF00F0CAA
:104F8000C2F80CC0466806F480165661466806F4FE
:104F900000169661C67906F07F061662214E16F855
:104FA0000CE0D0F804C04FEADC7CC2F824C0BEF1AB
:104FB000000F0FD003F1FF3E00F1070C63461CF811
:104FC000015F0EF8015FD568063B755D1B1A9D42B7
:104FD000F4D8256840290CBFC5F89470C5F89C70BA
:104FE0000020F0BDD5F89860C6F30060F60148BF18
:104FF000D5F88000D5F8987048BFC0F30020C7F3FB
:1050000001270744E06C07EBC70600EBC600066803
:1050100006F080465660002EA0D0066826F0604656
:105020009FE700BF509B000890F85C20022A0346CF
:105030000CD130B40468D4F8E42052070CD1026ECD
:1050400042F48072012030BC1A667047026E42F052
:10505000080201201A667047D4F8E420006DC2F3FC
:10506000012300EBC30250F8335005F080454D603A
:105070003DB350F8335025F060450D6050F8335083
:1050800005F000558D6050F8330000F000400861D5
:105090009088C861D08800F00F00C860506800F4A4
:1050A00080104861506800F400108861506800F476
:1050B00040004862D2790A620020C4F8E83030BC6F
:1050C000704750F83350C5F38A45D6E703685B6CE8
:1050D00010B4C3F3022203F00704C1E9004203F055
:1050E0001804C3F34012C1E90242C3F38014C3F3AE
:1050F000C012C1E90442C3F3C024C3F30032C1E9C2
:105100000642C3F34034C3F38032C3F30643C1E91C
:105110000842002010BC8B62704700BF03681B6C04
:1051200010B4C3F30622DCB2C1E90042C3F3C032BB
:10513000C3F307430020C1E9022310BC704700BF3E
:105140000368D3F8C40000F007007047034690F8E6
:105150005C000138012805D91A6E42F002020120D4
:105160001A667047012A1A68936D0CBF23EA010181
:105170001943002091657047034690F85C000138A0
:10518000012805D91A6E42F0020201201A66704702
:105190001B6830B411F00705986D3DD0C4073BD4AF
:1051A000DC6D44F00104DC65CDB1C50717D5D86DC1
:1051B00040F00200D8650C0604D5D3F8DC0010439B
:1051C000C3F8DC00C80504D5D3F8E0000243C3F8F7
:1051D000E0205A6D1143002030BC5965704711F032
:1051E000380F01D08407E2D411F4E07F31D111F4FB
:1051F000F05F01D00407DAD411F4604F01D0C50686
:10520000D5D411F4403F01D08406D0D411F47C0FE2
:10521000D1D04506CFD5CAE711F0380F01D08407A9
:10522000BED511F4E07F17D111F4F05F01D004076F
:10523000B6D511F4604F01D0C406B1D511F4403F8A
:1052400001D08406ACD511F47C0FADD04406ABD4AC
:10525000A6E74507ABD4CAE74407A1D5E4E700BFFA
:10526000704700BF704700BF704700BF704700BF66
:10527000704700BF704700BF704700BF704700BF56
:10528000704700BF704700BF2DE9F84F03681A6DE3
:10529000596D02EA010A1A6D596D02EA01091A6D87
:1052A000596D1E6D02EA01085A6D1F6D16405A6D48
:1052B000D3F854B01D6D1740690604460AF4E05A4D
:1052C00009F0070908F0380806F4710607F46027AA
:1052D00002D51BF0400F72D1EA0502D51BF4807F86
:1052E0005DD1BAF1000F4AD1B9F1000F35D1B8F153
:1052F000000F3CD1AB0502D51BF4007F74D128060A
:1053000002D51BF0800F77D1A90402D51BF4005FF2
:105310005AD12A0402D51BF4004F5DD16B040AD583
:105320001BF4804F07D023684FF480421A65236E28
:1053300043F0800323664FB926B123681E65236EB0
:105340001E432666236E2BBBBDE8F88F23683946C3
:105350001F652046FFF796FFEEE723684946C3F82E
:1053600050902046FFF77EFFB8F1000FC2D02368AF
:105370004146C3F850802046FFF776FFBAE723681E
:105380005146C3F850A02046FFF76AFFB9F1000F5D
:10539000ADD0E2E72046FFF773FFBDE8F88F236842
:1053A000D3F8D810D3F8E0204FF48070186511407E
:1053B0002046FFF75FFFBAF1000F95D0DFE74022EC
:1053C0001A65FFF75BFF87E723684FF400521A6501
:1053D0002046FBF721F89CE723684FF400421A654A
:1053E0002046FFF749FF99E723684FF400721A65DA
:1053F0002046FFF73BFF82E72368D3F8D410D3F8A9
:10540000DC208020186511402046FFF731FF7BE744
:105410002DE9F047DFF864819A4698F80030012BB7
:105420005ED0012381460E46174688F80030FFF70C
:105430000DF9534D044606E0FFF708F9A0EB040C04
:10544000BCF57A7F45D82B69D803F5D42C694CF28A
:10545000FA331C4056D12B69494AD90744BF01236E
:105460002B610023C8F80430136813F480631FBF56
:10547000136823F480631360022388F81C30B9F1A9
:10548000000F31D009F1FF33012B43D9FFF7DEF8CC
:105490003B4E054605E0FFF7D9F8401BB0F57A7F93
:1054A0002ED83369DB03F6D433694CF2FA32134059
:1054B00053D1376917F0010702D0012232611F462C
:1054C00024B12F4A536923EA0404546100F098FC84
:1054D00000E00327002388F800303846BDE8F08755
:1054E00002273846BDE8F087254A536943F0010397
:1054F00053613760BFF36F8F0124C6F804A0C5E77E
:105500000327DDE7D8F804302343C8F80430012727
:105510002C61DFE71A494A6942F480223B464A611E
:10552000EFF3108572B646EA070252071DD13A1D05
:10553000B2421AD007F58077F61AD3E90001F218C3
:105540000833BB42C2E90001F7D185F31088B9F1F5
:10555000020F08BF4FF4802498E7D8F804201A43BC
:10556000C8F8042001273361AAE7F61B07F5807706
:105570001A689A5104339F42FAD1E6E7E00100200D
:1055800000200240064B5A69002A01DB00207047C8
:105590000449054A99609A605869C00F704700BF76
:1055A0000020024023016745AB89EFCD044B5A69C7
:1055B00042F000425A615869C043C00F704700BFB3
:1055C00000200240064B586910F0804006D0054983
:1055D000054AD960DA605869C0F38070704700BF2F
:1055E000002002403B2A19087F6E5D4C054B5A692A
:1055F00042F080425A61586980F08040C0F3807068
:10560000704700BF0020024070B50546FFF71EF846
:10561000104E044604E0FFF719F8001BA8420FD80B
:105620003369DB03F7D433694CF2FA32134009D102
:10563000306910F0010002D001223261184670BDBD
:10564000032070BD04494A681A434A60012033614F
:1056500070BD00BF00200240E00100202DE9F047AE
:10566000674F3B78012B61D0824601244FF47A705A
:1056700088463C70FFF7C8FF064620B100233B7008
:105680003046BDE8F0875F4B78601A6812F4007FFF
:105690001A684FD1540540F185801A6822F480625F
:1056A0001A6002233B77DAF80030012B7CD04FF0F0
:1056B000FF33C8F80030DAE902532B449D4245D24B
:1056C000504CDFF8449122E0636923F40063636186
:1056D0006269EB0022F47E7203F4FF63134363619B
:1056E000636943F002036361636943F48033636178
:1056F0004FF47A70FFF788FF636903EA0903636177
:1057000008BBDAE9023201351344AB421ED9236AE1
:105710005B02D9D5DAF8043013F0010F636914BFC6
:1057200023F4006343F400636361D1E7022630464B
:10573000BDE8F087550533D51A6822F480621A60F7
:1057400003233B77AFE7C8F8005006463B7F03F0E2
:10575000FD02012ADBB210D12A4A116821F400713E
:105760001160116841F400611160116821F4006159
:105770001160116841F400711160023B012B0CD8DB
:10578000204B1A6842F480521A601A6822F4805240
:105790001A601A6842F480621A6000233B776DE752
:1057A0003C7780E738777EE7164B1A6A50020FD5B0
:1057B000DAF80420D10703D5596941F00401596191
:1057C00092070BD50F4A536943F40043536105E038
:1057D0005A6942F4004242F004025A61094C63697A
:1057E00043F4803363614FF47A70FFF70DFF636910
:1057F00023F4004323F0040306466361A6E700BFD9
:10580000E00100200020024005FCFFFF2DE9F843E5
:10581000B34E3378012B00F0978101253570036872
:10582000002213EA05070446726040F002819A07DD
:1058300000F1F5805D0762D418070AD49A0600F1DA
:105840002181DB0600F11581002333703846BDE865
:10585000F883D4E908584545F0D04FF47A70D4F86D
:105860001C90FFF7D1FE002840F037819D4B1B684C
:1058700013F4807F9C4BB3F8E0204FF6FF7340F0A9
:105880007A819A4200F08D81984BD3F8E025984BAD
:1058900003EA422303F100624FF000639548016A76
:1058A000490200F1828109F00303012B00F09B8182
:1058B000022B0ED1426C904905F178450A4042EA2C
:1058C00015124264836C08F178480B4043EA1813C0
:1058D0008364884A936A09F0004923F0004343EA4D
:1058E00009039362536943F4003353614FF47A70B0
:1058F000FFF78AFE23680028A0D001279EE74FF417
:105900007A70D4E90558FFF77FFE002840F0DF8069
:1059100015F0010300F01C8108F4E0634FF4B85166
:105920004FF4E062A80703D50A4608F480510B4300
:10593000690704D508F4005142F400520B43E8040F
:1059400004D508F4804142F480420B43290704D572
:1059500008F4803142F480320B43E80604D508F4A1
:10596000003142F400320B43A90604D508F480212B
:1059700042F480220B43680604D508F4002142F467
:1059800000220B43290604D508F4801142F480124A
:105990000B43A80504D508F4000142F400020B43B0
:1059A000690504D508F0807142F080720B43280528
:1059B00004D508F0007142F000720B43A90404D52D
:1059C00008F0806142F080620B43680404D508F05F
:1059D000006142F000620B43290404D508F04051F5
:1059E00042F040520B43ED0305D508F0804843EAEE
:1059F000080342F080423F4D296A21EA0202134324
:105A00002B626B6943F400336B614FF47A70FFF7DC
:105A1000FBFD236800283FF40FAF01270CE74FF48C
:105A20007A702569FFF7F0FD002879D023680127F7
:105A300000E7D0E901874FF47A70D4F80C90FFF7B3
:105A4000E3FD002840D1B8F1000F40F08580294BDC
:105A500047EA0947DF62274A536943F40033536139
:105A60004FF47A70FFF7D0FD071E236818BF012797
:105A7000DDE64FF47A70A46AFFF7C6FD00283DD03A
:105A80000127E1E64FF47A70D4E90B58FFF7BCFD2B
:105A900000BB012D00F09F80022D06D1154A536FE7
:105AA00023F0FF0343EA08035367124A536943F4A0
:105AB000003353614FF47A70FFF7A6FD2368002886
:105AC0003FF4BFAE0127BCE623682F46AFE623684C
:105AD0000127B1E623680127B3E623680127ADE675
