:020000040800F2
:1000000000000220F13C0008091900080D19000841
:10001000111900081519000819190008000000003E
:100020000000000000000000000000001D19000892
:1000300021190008000000002519000829190008EE
:10004000413D0008413D0008413D0008413D000898
:10005000413D0008413D0008413D0008413D000888
:10006000413D0008413D0008413D0008413D000878
:10007000413D0008413D0008413D0008413D000868
:10008000413D0008413D0008413D00084519000878
:100090003919000851190008413D0008413D000888
:1000A000413D0008413D0008413D0008413D000838
:1000B000413D0008413D0008413D0008413D000828
:1000C000413D0008413D0008413D0008413D000818
:1000D000413D0008413D0008413D0008413D000808
:1000E000413D0008413D0008413D0008413D0008F8
:1000F000413D0008413D0008413D0008413D0008E8
:10010000413D0008413D0008413D0008413D0008D7
:10011000413D0008413D0008413D0008413D0008C7
:10012000413D0008413D0008413D0008413D0008B7
:10013000413D0008413D0008413D0008413D0008A7
:10014000413D0008413D0008413D0008413D000897
:10015000413D0008413D0008413D0008413D000887
:10016000413D0008413D0008413D0008413D000877
:10017000413D0008413D0008413D0008413D000867
:10018000413D0008413D0008413D0008413D000857
:10019000413D000800000000413D0008413D0008CD
:1001A000413D0008413D0008413D0008413D000837
:1001B000413D0008413D0008413D0008413D000827
:1001C000413D0008413D0008413D0008413D000817
:0801D000413D0008413D00081B
:100200000348044B834202D0034B03B118477047A5
:10021000A0020020A0020020000000000548064BBC
:100220001B1AD90F01EBA301491002D0034B03B1F4
:1002300018477047A0020020A00200200000000024
:1002400010B5064C237843B9FFF7DAFF044B13B11E
:100250000448AFF300800123237010BDA0020020EA
:10026000000000006CA1000808B5044B1BB1044954
:100270000448AFF30080BDE80840CFE7000000006D
:10028000A40200206CA100080CB410B59CB01EABF9
:10029000029106916FF0004104910791084953F8CB
:1002A000042B0591002402A901931B9400F06EF920
:1002B000029B1C701CB0BDE8104002B0704700BF2C
:1002C0000802FFFF0EB430B59CB06FF000411FABC9
:1002D000049107910A4953F8042B029000240690D8
:1002E000084D0868019302A905951B9400F04EF98A
:1002F000029B1C701CB0BDE8304003B0704700BFCB
:10030000000000200802FFFF80EA0102844612F08C
:10031000030F4FD111F0030F32D14DF8044D11F0FE
:10032000040F51F8043B0BD0A3F101329A4312F0B1
:10033000803F04BF4CF8043B51F8043B16D100BF8A
:1003400051F8044BA3F101329A4312F0803FA4F11B
:1003500001320BD14CF8043BA24312F0803F04BFA2
:1003600051F8043B4CF8044BEAD023460CF8013B0F
:1003700013F0FF0F4FEA3323F8D15DF8044B7047B9
:1003800011F0010F06D011F8012B0CF8012B002AF7
:1003900008BF704711F0020FBFD031F8022B12F0E6
:1003A000FF0F16BF2CF8022B8CF8002012F47F4FA1
:1003B000B3D1704711F8012B0CF8012B002AF9D1A9
:1003C000704700BF2DE9F0478F681D46AF420B68AC
:1003D0000C46164636D8B1F90CC01CF4906F0ED1FD
:1003E0003D46184631462A4600F0EAFBA368DF1B6B
:1003F0002368A7602B4400202360BDE8F0874A698A
:10040000096902EB42025F1A02EBD2726B1C5210B6
:100410003B44934292BF914699461A461CF4806F22
:10042000804611D0114600F0EDFA824600B32169F2
:100430003A4600F095FCA38923F4906343F08003CF
:10044000A38105E02F46CCE700F024FD824658B199
:100450000AEB0703A9EB0707A760C4F810A0C4F8CC
:10046000149023602F46BCE72169404600F04AFB08
:10047000A3890C2243F04003C8F800204FF0FF305E
:10048000A381BAE72DE9F04F9368176883B09246CD
:10049000002B74D04FF0000B8B680A6881460C4625
:1004A0005D4645E0B4F90C3013F4906F2CD0D4E9DC
:1004B0000401161A01EB410202EBD272711C5210B8
:1004C0002944914292BF904688460A465B0539D539
:1004D0001146484600F096FA019000283DD0324679
:1004E000216900F03DFCA289019B22F4906242F058
:1004F0008002A2819819A8EB0606A660C4F81480B1
:1005000023612060A8462E463246594600F058FB2B
:10051000DAF80810A3682268A3EB08033244491BE9
:10052000A3602260CAF8081049B3D7E900B50837BC
:1005300098461046002DF8D09D421E46B2D2A846DD
:100540002E46E1E70146484600F0A4FC0346002899
:10055000D0D12169484600F0D5FAA3890C2243F096
:100560004003C9F800204FF0FF30A3810022002390
:10057000CAF80820CAF8043003B0BDE8F08F0020A4
:100580000023CAF8043003B0BDE8F08F2DE9F04F26
:100590001C468B891D069DB088468146934603D52F
:1005A0000B69002B00F0F1800023099343F2200334
:1005B000ADF829309BF800307D4D03940126002BC7
:1005C00073D0DA4603E01AF8013F002B75D0252BD3
:1005D000F9D1BAEB0B0473D19AF80020002A64D049
:1005E00000234FF0FF32CDE905230AF1010A0493FD
:1005F00007938DF853301A9305E0049A06FA03F333
:100600001A430492A2465446052214F8011B2846B8
:1006100000F056FBA346431B0028EED1049BD806EE
:1006200044BF20228DF8532019079AF8001044BFC8
:100630002B228DF853202A2950D1039A11680432B5
:10064000002903927CDB07919AF801102E295BD0D8
:10065000584C0322204600F033FB38B1049B001BAA
:100660004022824013430BF1010B04931BF8011B42
:1006700051488DF82810062200F022FB002865D092
:100680004E4B002B55D003AA00924D4B424604A975
:100690004846AFF3008007467A1C06D0099B3B44CE
:1006A00009939BF80030002B8BD1B8F80C305B0617
:1006B0007AD409981DB0BDE8F08FBAEB0B04F4D0E2
:1006C00023465A4641464846FFF77CFE0130ECD0AF
:1006D000099B9AF80020234409937FE7A1F1300297
:1006E000092A88BFD346B1D8079B00E0013421789E
:1006F00003EB830302EB4303A1F13002092AF5D98E
:100700002E290793A346A3D19BF801102A2927D1AC
:10071000039B9BF802101A6805920433002A0BF120
:1007200002000393B8BF4FF0FF338346B8BF059371
:100730008EE7039B073323F0070308330393ADE7EA
:10074000494243F00203079104937DE703AA009214
:100750001B4B424604A9484600F060FC07469BE755
:10076000A1F130020023092A05930BF1010B3FF69A
:100770006FAF1BF8011F03EB830302EB4303A1F1EF
:100780003002092AF5D9059362E7402100F03AF9D1
:10079000C8F80000C8F8100018B14023C8F8143099
:1007A00002E70C23C9F800304FF0FF3082E700BFAA
:1007B00070A3000878A300087CA3000800000000D4
:1007C000C503000870B50F4B0F4DAB42A3EB0506F8
:1007D00007D0B610002455F8043B01349847A642D0
:1007E000F9D809F0C3FC094D094B5E1BAB424FEA37
:1007F000A60606D0002455F8043B01349847A642CB
:10080000F9D870BDDCA30008DCA30008DCA3000855
:10081000E0A300080000000000000000000000004D
:1008200000000000000000000000000000000000C8
:1008300000000000000000000000000000000000B8
:1008400030B490F800F020F007016FF0000C10F0C9
:10085000070491F820F040F048804FF000046FF05A
:100860000700D1E9002391F840F000F1080082FA76
:100870004CF2A4FA8CF283FA4CF3A2FA8CF34BBB41
:10088000D1E9022382FA4CF200F10800A4FA8CF2BA
:1008900083FA4CF3A2FA8CF3E3B9D1E9042382FA88
:1008A0004CF200F10800A4FA8CF283FA4CF3A2FA9D
:1008B0008CF37BB9D1E9062301F1200182FA4CF2D5
:1008C00000F10800A4FA8CF283FA4CF3A2FA8CF33C
:1008D000002BC6D0002A04BF04301A4612BAB2FA5E
:1008E00082F200EBD20030BC7047D1E9002304F063
:1008F0000305C4F100004FEAC50514F0040F91F898
:1009000040F00CFA05F562EA05021CBF63EA050334
:1009100062464FF00004AAE7830730B547D0541E63
:10092000002A3ED0CAB2034601E0013C39D303F8A5
:10093000012B9D07F9D1032C2CD9CDB205EB052550
:100940000F2C05EB054535D9A4F1100222F00F0C50
:1009500003F1100EE6444FEA121C1A46C2E9005594
:10096000C2E9025510327245F8D10CF1010214F0BF
:100970000C0F03EB021204F00F0C13D0ACF10403C4
:1009800023F003030433134442F8045B9342FBD186
:100990000CF003042CB1C9B21C4403F8011BA342A0
:1009A000FBD130BD64461346002CF4D1F9E7034671
:1009B0001446C0E71A46A446E0E700BF70B5104EE3
:1009C000336805460C46B3B12146284600F09AFC30
:1009D000431C0CD0C41C24F00304A04205D0211AEF
:1009E000284600F08FFC013001D0204670BD4FF04A
:1009F000FF34204670BD194600F084FC3060E3E708
:100A0000BC0200202DE9F843CD1C25F00305083574
:100A10000C2D38BF0C25002D064618DBA94216D830
:100A2000DFF8DC8000F03CFCD8F80420A2B11446CA
:100A300003E0636822467BB11C4623685B1BF8D445
:100A40000B2B1FD89442636854D053600CE00C23E6
:100A500033600020BDE8F88329463046FFF7AEFF3B
:100A6000431C044619D00560304600F01BFC04F11D
:100A70000B00231D20F00700C21A1CBF1B1AA35035
:100A8000BDE8F88361199442256014BF5160C8F82D
:100A90000410635163684B60E6E7D8F804701FB335
:100AA0003C467F68002FFBD123683946304604EB73
:100AB000030900F027FC814516D12368ED1A294669
:100AC0003046FFF77BFF01300ED02368D8F80420B2
:100AD0002B442360536883B1A34203D01A465B685A
:100AE0009C42FBD10023B0E70C233360304600F07A
:100AF000D9FBAEE7C8F80430B6E7C8F80470B3E72E
:100B0000BC020020002950D038B551F8043C0C1F1D
:100B1000002BB8BFE418054600F0C2FB274A136853
:100B20002BB1A3420CD92168601883422CD063609A
:100B300028461460BDE8384000F0B4BBA3420FD88B
:100B40001A465B68002BF9D111685018844217D0FF
:100B50002CD3636054602846BDE8384000F0A2BB47
:100B600011685018A04214D020D821686018834220
:100B7000EFD118685B680844C4E900035460EAE7F1
:100B800023680B441360E6E718685B68084420603C
:100B9000CDE720680144501883421160DBD1D3E9CE
:100BA00000040144C2E90014D5E770470C232B6010
:100BB0002846BDE8384000F075BB00BFC0020020E9
:100BC00088420ED98B1883420BD900EB020C002A05
:100BD0006ED0624613F801CD02F801CD9942F9D1E9
:100BE00070470F2A0FD8034602F1FF3C002A5FD05E
:100BF0000CF1010C013B8C4411F8012B03F8012F7F
:100C00006145F9D1704740EA01039B0751D1A2F138
:100C1000100370B501F1200C23F00F0501F1100E47
:100C200000F11004AC441B095EF8105C44F8105C41
:100C30005EF80C5C44F80C5C5EF8085C44F8085CF8
:100C40005EF8045C44F8045C0EF1100EE64504F115
:100C50001004E9D1013312F00C0F01EB031102F083
:100C60000F0400EB031328D0043C24F003064FEAE2
:100C7000940C1E441C1F8E465EF8045B44F8045F0F
:100C8000B442F9D10CF1010402F0030203EB840336
:100C900001EB840102F1FF3C4AB10CF1010C013B74
:100CA0008C4411F8012B03F8012F6145F9D170BD77
:100CB000704702F1FF3C03469AE72246EAE700BF8D
:100CC00001F0FF01102A2BDB10F0070F08D010F8FD
:100CD000013B013A8B422DD010F0070F42B3F6D101
:100CE000F0B441EA012141EA014122F007047FF01A
:100CF00000070023F0E80256083C85EA010586EA71
:100D0000010685FA47F5A3FA87F586FA47F6A5FAAC
:100D100087F68EB9EED1F0BC01F0FF0102F00702B8
:100D200032B110F8013B013A83EA010313B1F8D163
:100D30000020704701387047002D06BF3546033844
:100D4000073815F0010F07D1013015F4807F02BF7D
:100D5000013015F4C03F0130F0BC0138704700BFCE
:100D6000844641EA000313F003036DD1403A41D3B6
:100D700051F8043B40F8043B51F8043B40F8043B75
:100D800051F8043B40F8043B51F8043B40F8043B65
:100D900051F8043B40F8043B51F8043B40F8043B55
:100DA00051F8043B40F8043B51F8043B40F8043B45
:100DB00051F8043B40F8043B51F8043B40F8043B35
:100DC00051F8043B40F8043B51F8043B40F8043B25
:100DD00051F8043B40F8043B51F8043B40F8043B15
:100DE00051F8043B40F8043B51F8043B40F8043B05
:100DF000403ABDD2303211D351F8043B40F8043BA5
:100E000051F8043B40F8043B51F8043B40F8043BE4
:100E100051F8043B40F8043B103AEDD20C3205D3B4
:100E200051F8043B40F8043B043AF9D2043208D0AC
:100E3000D2071CBF11F8013B00F8013B01D30B881E
:100E400003806046704700BF082A13D38B078DD0FC
:100E500010F003038AD0C3F10403D21ADB071CBFCE
:100E600011F8013B00F8013B80D331F8023B20F838
:100E7000023B7BE7043AD9D3013A11F8013B00F871
:100E8000013BF9D20B7803704B7843708B788370F9
:100E9000604670472DE9F041144641B30AB3064657
:100EA0000D4600F041FA8442074602D8B4EB500FD9
:100EB00013D821463046FFF7A5FD804650B1BC420D
:100EC0002246294628BF3A46FFF74AFF29463046C0
:100ED000FFF718FE4046BDE8F081A8464046BDE851
:100EE000F081A046FFF70EFE4046BDE8F081BDE868
:100EF000F0411146FFF786BD2DE9F84F92461F4697
:100F00000A698B68DDF828909A42B8BF1A46CAF879
:100F1000002091F843300C46064613B10132CAF85E
:100F20000020226891065FD5DAF800300233CAF853
:100F30000030226812F0060F11461DD1E168994277
:100F4000D8BF114618DD4FF0000804F1190B05E079
:100F5000E568DAF80030ED1A45450CDD01235A4604
:100F600039463046C847013008F10108F0D14FF04A
:100F7000FF30BDE8F88F216894F84330003B18BF7C
:100F800001238A060AD5E1185A1C302081F8430053
:100F9000224494F8451082F84310023304F14302CE
:100FA00039463046C8470130E1D02368DAF80050AE
:100FB000216903F00603042BD4E902201BD08A42E6
:100FC00020DD4FF00008521A90441A34002501E049
:100FD000454517DA0123224639463046C8470130D5
:100FE00005F10105F4D1C2E712F0060F0DD0003B68
:100FF00018BF0123D2E7401B8A4220EAE078E2DCF6
:101000000028E2DC0020BDE8F88FE168DAF8003063
:101010009942D8BF114696DCAEE700BF2DE9F047F4
:10102000174684B00A7E0C9D0C460646984601F190
:10103000430C002A35D0A2F15803D9B2202969D82F
:10104000202B67D8DFE813F0E60066006600660034
:101050006600660066006600660066006600AC001A
:10106000700066006600660066007000660066003C
:101070006600660021008300C60066006600B600B8
:101080006600830066006600EC002B6822686169D8
:10109000181D286010061B6802D4520600F1E0807B
:1010A00019600023E1462361CDF800803B4603AA86
:1010B00021463046FFF720FF013020D023694A4601
:1010C00039463046C047013019D02368E068DDF862
:1010D0000C909B0718D5484516DD002504F1190A28
:1010E00004E0E068A0EB0903AB420DDD01235246AA
:1010F00039463046C047013005F10105F1D14FF0C6
:10110000FF3004B0BDE8F0874845B8BF484604B09A
:10111000BDE8F08784F84220012004F14209002351
:10112000206184F84330BFE72A682368111D180640
:10113000296002D4590600F1958010680146002804
:101140006268C0F2938054484FF00A0E15E02068A0
:101150002B6810F0800F53F8041B02D1400648BFE3
:1011600089B26F2A4C482B6014BF4FF00A0E4FF023
:10117000080E0023626884F84330002AA26051DB25
:10118000236823F00403236000294BD1002A7BD17C
:10119000E146BEF1080F56D0ACEB0903236183E7AB
:1011A0002B681A6804332B6004F1420984F842204A
:1011B0000120B4E72B686268191D2960D3F80090FC
:1011C00000214846FFF77CFD002863D0A0EB090012
:1011D0006060A4E7236843F02003236078222F484F
:1011E00084F845202A6813F0800F52F8041B03D1BD
:1011F00013F0400F18BF89B22A60DA0744BF43F0EA
:101200002003236019B9236823F0200323604FF0E3
:10121000100EAEE7582384F845301F482368E1E7F5
:101220002368DBE77546E146B1FBF5F305FB131ACE
:101230000A46AA4210F80A1009F8011D1946F3D20D
:10124000BEF1080FA8D12368DD07A5D56268236920
:101250009A42A1DC302309F8013C09F1FF399BE7F0
:1012600019801EE7B2F90010084668E72D20002A11
:10127000A26084F8430002DB23F0040323600A2504
:1012800005484942AE46CEE7037884F8423004F17F
:1012900042097EE7606842E784A3000898A300083B
:1012A000704700BF704700BF032A30B415D941EA28
:1012B0000004A40784460B4604D0541E0FE0043AF1
:1012C000032A08D91946604653F8044B5CF8045BBE
:1012D000A542F4D0F1E760461946541E7AB1431E88
:1012E0000139021901E09A4209D013F8010F11F8EF
:1012F00001CF6045F7D0A0EB0C0030BC7047002058
:1013000030BC704738B5074D0022044608462A60B5
:1013100000F012F8431C00D038BD2B68002BFBD026
:10132000236038BD0004002051F8043C181F002B36
:10133000BCBF0B58C0187047044A05491368002BFE
:1013400008BF0B461844106018467047040400207C
:1013500080E600202DE9F84F00F084F900B9FEE79F
:1013600001F024FC0028FAD002F032FA0028F6D06E
:1013700003F076FA00F048FB01F082FE02F0E2FC96
:101380000024244DDFF89090244EDFF89480A2468C
:10139000012702F0E9FB30B101F048FC2F7002F0A8
:1013A000E3FB0028F8D12B7833B3287089F800A02C
:1013B00001F060FC04F0DCF983460146204601F0B0
:1013C00035FD5946204603F09DFD5946204603F061
:1013D0001DF85946204601F0BDF83368ABEB030316
:1013E000632B0ED80134A8FB043222F0010303EB77
:1013F0005203E41AE4B2CCE799F80030002BD9D0BC
:10140000D4E7C6F800B000F015FE584601F0FCFD28
:10141000E8E700BF08040020500000200C04002072
:10142000ABAAAAAA024B4FF000629A60704700BFB5
:1014300000ED00E01B4B00B5986D40F00200986590
:101440009B6D95B003F0020344220021009303A892
:10145000009BFFF761FA144B144A1B681449A2FB66
:1014600003239B0C013B4FF0FF3201A8CDE9011390
:10147000049208F003F818B1002015B05DF804FBE1
:1014800001A808F09BF80028F6D102460146152075
:1014900004F0A4F9152004F0DDF9012015B05DF881
:1014A00004FB00BF001002405400002083DE1B43F9
:1014B00000040040024A136801331360704700BF04
:1014C000100400200249034A00234B621360704756
:1014D000000400401004002008B504F065F940F253
:1014E0006943984207D940F27943C01AB0FA80F0B4
:1014F0004009400008BDB0F58D6F34BF00200120C9
:10150000400008BD014B1868704700BF140400205C
:10151000034A044B10685B6A43EA0040704700BF0F
:101520001004002000040040014B1868704700BF01
:101530001004002010B58EB004463422002101A80A
:10154000FFF7EAF901A805F0C3FB022C15D0032C24
:101550000BD0012C19D1079B03F4E063B3F5806F26
:101560000CBF022001200EB010BD079B13F0806F4E
:101570000CBF022001200EB010BD079B13F0806F3E
:1015800014BF022001200EB010BD00200EB010BD0F
:1015900030B58FB0044601F0ABF910B134200FB074
:1015A00030BD04F001F940F26943984204D8B0F527
:1015B0008D6F05D23620F2E740F279439842F9D197
:1015C0003422002101A8FFF7A7F901A805F080FB4C
:1015D000022C3AD0032C30D0012CEBD1079B03F422
:1015E000E063B3F5806F26D04FF480653022002190
:1015F00002A8FFF791F9CDE90645194B04220192A3
:101600009A694CF2FA3142F070429A61196105F020
:1016100011F810BB05F02EF8F8B901A805F048F94B
:10162000044605F03BF8054605F018F82C4340EA5F
:101630000403DBB28BB90220B1E7079B5B01FAD54B
:101640004FF4C4444FF00865D0E7079B5A01F2D429
:101650004FF4C4444FF04865C8E73B209FE700BF04
:101660000020024070B5B6B004F05EF818B1002456
:10167000204636B070BD4A4DAB6D43F08053AB652C
:10168000AB6D03F0805300930446009B06F016FEFA
:101690002A6E012632432A662A6E149402233240AF
:1016A00021204FF48031CDE91201CDE918630F20DC
:1016B000CDE91D3301921F9303210323CDE91A3392
:1016C000CDE90601019A089428224FF4806312A8FC
:1016D000CDE91544CDE9093317941C9206F0C0FEFC
:1016E0000028C4D1082106A807F038F90028BED187
:1016F0000146502222A8FFF70FF94FF440524FF055
:10170000807321A821922F9307F050FA04460028F5
:10171000ADD14FF00053CDE90C034BF67F322223BD
:10172000CDE90F230CA8202311930E9407F07CFE23
:10173000EB6C3343EB64EB6C33400293029BEB6C3A
:1017400043F00203EB64EB6C03F002030393039B8F
:10175000EB6C43F00403EB64EB6C03F004030493C1
:10176000049BEB6C43F02003EB64EB6C03F0200371
:101770002246214605934FF0FF30059B04F02EF8DA
:101780004FF4805007F09EFB064B1860FFF752FEA7
:10179000044600283FF46BAF3046FFF7F9FE67E7D9
:1017A0000010024014040020FF2818D80D4AB2F897
:1017B000E0100D4A4FF6FF7399420ED00B490C4BC7
:1017C000D1F8E01503EA812303F100630130A3EBB4
:1017D000C020824288BF00207047064BF6E70020F9
:1017E000704700BF0075FF1F84A100080070FF1F35
:1017F00000FCFF0300000808FF2842D82DE9F04153
:101800003B4B0E46B3F8E0103A4B15464FF6FF72CD
:10181000914286B02BD0384A384CD2F8E02504EA01
:10182000822404F100640130A4EBC024A34224D834
:10183000B5F5FA6F21D823884FF6FF72934208BF9F
:1018400000239D4206D12A463146A01CFFF72CFDFD
:1018500000284AD02A4B9A6942F070429A614CF2B1
:10186000FA321A6104F0E6FE68B1352006E0254C34
:101870000130A4EBC024A342DAD93D2006B0BDE874
:10188000F0813D20704704F17843DB0A0493002285
:101890000123CDE9022301A9012302A8059304F045
:1018A00033FF0746E0B9F5B1C6F108083146B01C70
:1018B0002A46A04405F10904FFF782F9C4F3CC04D9
:1018C00026F8085903E00137BBB2A3420BD208EB5C
:1018D00006010020F6E9022304F0F4FD0028F2D00E
:1018E00004F0BCFEC1E704F0B9FE0220C6E700BF69
:1018F0000075FF1F84A100080070FF1F00FCFF039C
:101900000020024000000808FEE700BFFEE700BF1D
:10191000FEE700BFFEE700BFFEE700BF704700BF65
:10192000704700BF704700BF08B503F015FFBDE862
:10193000084003F0B7BF00BF014805F0B7BD00BFC6
:1019400054110020014805F0B1BD00BF5411002022
:1019500008B5002001F024F8BDE8084004F0EEBC12
:1019600070B51646054608461C4601F0C1FBB6F1A7
:10197000005F15D0049B73B1B4B91E23C2001028B8
:1019800094BF02F11A0102F11E01059AB2F5801FFF
:101990000DD0C81870BDC2002CBB02F12F0070BD65
:1019A0003CB3B4F1804F26D03123C200E7E7D5E93C
:1019B00059201044D5F8602100FB0222104800FB9A
:1019C00002F2D5E9550420440130B2FBF0F20D4893
:1019D000D5F85041B2FBF4F201FB02F2A0FB020287
:1019E00003EB924070BDB4F1804F06D102F1430089
:1019F00070BD2F2070BD432070BD3123BFE700BFF5
:101A000040420F0083DE1B432D4B2DE9F04F9A6DB2
:101A10002C4CDFF8B4A0DFF8B490DFF8B4802D4F81
:101A20002D4E42F000729A659B6D87B003F00073F3
:101A300000930025009BAB46F0220021C4E95EBB69
:101A4000C4F850B1C4F860B1C4F88CB1C4F89CB10A
:101A500084F870B184F890B204F5D070FEF75CFFA2
:101A6000E8B202F03DFE5AF8042B002A4FF00100C4
:101A700001A90ADB194BCDF814B0CDE9012053F8C8
:101A80002500CDE903BB05F02FFA59F8040B02211C
:101A9000CDE9010118F8011B0591032257F8040B49
:101AA00001A90135CDE903B205F01EFA56F8042B61
:101AB0002260032D04F52574BED107B0BDE8F08F78
:101AC000001002401804002058000020740000207C
:101AD00070000020800000208C00002064000020A6
:101AE0002DE9F043A94C4FF4257303FB004383B069
:101AF00093F87021002A40F08F80D3F85031002BEA
:101B000000F0868094F8703105460F469BB994F832
:101B1000043483B994F898366BB903F1804303F524
:101B200004339A6B42F000729A639A6B22F000724F
:101B30009A63FFF7C7FC284602F0D2FD284600F062
:101B400037FF0021084601F0E5F80021012001F0EF
:101B5000E1F80021022001F0DDF88D4A4FF42573F1
:101B600005FB03F3525DE61802F00102327403F53F
:101B7000BC710122B2746018002272607274F26348
:101B8000F7606758406803F130012144C1E90170F2
:101B9000B26003F5A872A118D1E9017054F802C02F
:101BA000C96810332344C3E901C1C3E90370D6F8FF
:101BB0006031002B40F08580FFF7A4FC754B984204
:101BC00022D94FF4257305FB03F3E61803F5B87229
:101BD000D6E955311944D6F850316F4F01FB033324
:101BE0006E494FF47A7CA1FB00100021800C0CFBA5
:101BF00003F3B3FBF0F33046C6F88431B95286F8EC
:101C0000711103F055FE58B1352003B0BDE8F083E3
:101C10003A2003B0BDE8F083342003B0BDE8F08380
:101C20000146304604F05EF80028EDD1022130462E
:101C300004F06CF80028E7D101221021304604F0AE
:101C4000D7FA02460028DFD14FF46041304604F055
:101C5000E5FA07460028D7D1304604F08FF8D6F8C9
:101C60006031C6F8947173B1D6E959210A4402FB78
:101C7000033332214A4A03FB01F1A2FB0121490946
:101C80004B1E3E2B71D94FF4257305FB03F3E2186D
:101C9000D2E95E1201EB0209B9F1000F46DD6433AF
:101CA000E7184FF0000805E008F10108C14507F109
:101CB00018073BD03946304603F0C6FF0028F3D062
:101CC000A2E7FFF71FFCD6E959C1D6F85031D6F884
:101CD00060E1B0FBFEF70CEB01020132B7FBF2F75B
:101CE0009BB9BB422CBF4FF480774FF440774FF441
:101CF000257303FB0543D3F86C219F60C3F824E0F0
:101D0000C3F82CC019639A6256E7FFF7FBFBD6E9CC
:101D1000553213445A1CD6E958ECD6F85031D6F84F
:101D20006811B0FBF3F3B3FBF2F3DAE74FF425737A
:101D300003FB0544D4E95E32D34214BF01220022E2
:101D4000002311460093304603F0AAFF304604F00A
:101D500027F8014600287FF457AF284601F008F81D
:101D60000123022084F8703153E73A463046C6F822
:101D7000941103F0DFFF00287FF446AF304603F0F4
:101D8000EBFF00283FF47FAF3EE700BF18040020C0
:101D9000D40B00203F420F001B04002083DE1B43B6
:101DA0001F85EB5138B53B4C94F870311BB320467E
:101DB00004F00EF8204603F0C9FE002500200021A3
:101DC000C4E95E01F022294604F5D070C4F85051F0
:101DD000C4F86051C4F88C51C4F89C5184F8705117
:101DE00084F89052FEF798FD284602F079FC012114
:101DF000284600F0BDFF94F8043413B3264803F0DE
:101E0000E7FF254803F0A2FE2448002140F8041C07
:101E1000F0222430C4F8E413C4F8F413C4F8101406
:101E2000C4F82014C4F8301484F8041484F8241579
:101E3000FEF772FD012002F053FC0121084600F07C
:101E400097FF94F8983603B938BD154803F0C0FFE2
:101E5000134803F07BFE1348002300220021E0E832
:101E60000A23F022C4F87816C4F88816C4F8B41609
:101E7000C4F8C41684F8981684F8B817FEF74CFD19
:101E8000022002F02DFCBDE838400121022000F0C4
:101E90006FBF00BF18040020AC06002028080020F7
:101EA00040090020B80A0020F8B5194F4FF42574F6
:101EB00000FB04F43D1995F8703103B9F8BD0646EE
:101EC000284603F085FF284603F040FE04F5BC7366
:101ED0000021C5F85011C5F86011F9503B4404F5D4
:101EE000D07459603819F022C5F88C11C5F89C11CE
:101EF00085F8701185F89012FEF70EFD304602F05D
:101F0000EFFB30460121BDE8F84000F031BF00BFD3
:101F1000180400202DE9F8432A4C4FF4257505FBE1
:101F200000450646D5F860810F469146B8F1000F8E
:101F300013D1D5F85031FBB900237B614FF42573E1
:101F400003FB06444A463946204603F0B1FF30BB46
:101F5000237C012B2AD0BDE8F883FFF7D3FAD5E91B
:101F6000593213445A1CD5F85031D5F86011B0FBE2
:101F7000F1F8B8FBF2F87BB1FFF7C4FA4FF4257122
:101F800001FB0641D1E955321A440132D1F85031F2
:101F9000B0FBF3F3B3FBF2F34345CFD3CCE73046CA
:101FA0000122BDE8F843022100F012BD03F0E0FB7E
:101FB000D4F89C31C4F898010133C4F89C31BDE8D1
:101FC000F88300BF1804002038B5174C4FF4257370
:101FD00003FB004494F870312BB1D4F8383194F8F5
:101FE00071210BB16AB138BD002AFCD005460F49FA
:101FF00084F8713102F040FA2846BDE8384000F01C
:10200000C9BD01230A4984F8713102F035FA07216C
:10201000204603F0AFFF204603F0DAFE2046BDE87D
:10202000384003F0BDBE00BF18040020BCA100086A
:102030009CA1000870B5214C002694F870314BB17A
:10204000D4F88C2132B1D4F890319A4208D90133B6
:10205000C4F890310136032E04F52574EDD170BD1E
:10206000D4E9603101FB03F5154B6D09A3FB053580
:10207000ED0940F2654303FB05F5124BB5FBF2F5A4
:102080009D4213D842F20F739D4211D90E4BA3FB10
:102090000535C5F347352946F0B202F0C9F90023EA
:1020A000C4F8803184F888510123D1E76325F2E731
:1020B00094F88851002DF2D00025ECE71804002098
:1020C000C55A7C0A3F420F005917B7D138B54FF4B3
:1020D0002575284C05FB00F004EB000C9CF87051B2
:1020E000002D45D1551E39B31F2D3FD8591E1F292C
:1020F0003CD8049901390F2938D8059901390F299D
:1021000034D8CCE95823049BCCF8683100F5B07082
:10211000059BCCF86C310444FFF7F4F9D4E90125B0
:1021200015492368B0FBF3F32A440132B3FBF2F301
:102130008B421BD8022038BDB5F5007F16D2591E40
:10214000FF2913D8049901397F290FD8059901393E
:102150007F290BD8CCE95423049BCCF8583100F5E7
:10216000A870059BCCF85C310444D5E73D2038BD10
:10217000342038BD1804002000127A00354B1B5C57
:10218000DB063CD52DE9F04F334D4FF4257303FBAF
:102190000053B3B0DB68044603BB6E464FF42577AB
:1021A00004FB07F707F5A8722A442C49304600F0D3
:1021B000CBFF3046FEF744FB07F5B0722A443D449E
:1021C0002749304400F0C0FFD5F86071C7B93146E7
:1021D000204602F051F933B0BDE8F08F013B032BEC
:1021E00096BF204A204A52F8232020496E463046A6
:1021F000FEF768F83146204602F03EF9CEE7704718
:102200003046FEF71DFBD5F850B1194DDFF864A03C
:10221000DFF8649006EB000E844600F111080FCD44
:1022200046F80C00CEF80C302B88CEF80410CEF80F
:102230000820BB4514BF51464946AEF8103006EBA6
:102240000800FEF761F83146204602F015F933B078
:10225000BDE8F08FD40B00201804002008A200086D
:1022600010A20008ACA30008E4A10008F4A1000833
:1022700018A20008F0A10008ECA100082DE9F04127
:10228000424C4FF4257E0EFB00FE04EB0E05D5E913
:102290005E7807EB080CBCF1070F1ADC002940F24E
:1022A000FF7618BF6FF06046964212D39E4210D35D
:1022B00095F87051CDB1BCF1010F07D1A8F101081B
:1022C000B8FA88F84FEA5818884505D03420BDE898
:1022D000F0813D20BDE8F0810EF5BC7E002744F87A
:1022E0000E70A644BC46CEF804700CEB4C0CE1B169
:1022F0004FF4257100FB01F101EBCC0C2144A44407
:10230000CCE91D23D1F87C31CCF868300133C1F819
:102310007C314FF08043CCF8643002260123CCE9B5
:102320001B63C5B90220BDE8F0814FF4257600FBA0
:1023300006F606EBCC0CA4442644CCE91D23CCF8CD
:102340006870022201370123CCE91B23CCF864100A
:10235000C6F87871E5E74FF4257303FB00F0271802
:10236000D7E95E631E44002EDCDD643004440025A2
:1023700004E00135AE4204F11804D3D021463846BA
:1023800003F062FC0028F4D03520A3E718040020F5
:102390004FF42573074A03FB00F0131893F87031CC
:1023A00033B900F5BC708118135002204B607047A0
:1023B000342070471804002038B59DF810C09DF8EF
:1023C00014E0002B44D0884240D002293ED8BCF112
:1023D000000F069D40F2FF7418BF6FF06044AC42DE
:1023E00034D3079DAC4231D3132A2FD84FF4257430
:1023F000204D00FB04F402EB420204EB82022A446B
:1024000082F8A03182F8A311DDE906311940C2F843
:10241000A411079BC2F8A83105F1F00182F8A2C10E
:1024200082F8A1E12B19214493F8A02112B193F86D
:10243000A1411CB10C338B42F6D100224FF425731D
:1024400003FB005383F89022022038BD3D2038BDA5
:10245000FF2AC9D107494FF4257200FB02F28C18FC
:1024600002F5D0728818F022194684F89032FEF7EF
:1024700053FAE9E7180400202DE9F0434C688DB0C9
:102480000D4601AEA4F1804102AF0023B1FA81F103
:10249000D5F800E0ADF8043090464909B370ADF8C6
:1024A0000830BB7000F1F00C02E00C3060451BD02E
:1024B00090F8A031002BF8D090F8A2318B42F4D1E3
:1024C000D0E969230EEA03039342EED190F8A331D9
:1024D00090F8A12130334FF001096B447AB30C30EE
:1024E000604503F8289CE3D1EB680693CDE903E44B
:1024F0004FF400030024CDE90A342B690793DFF879
:102500005090AB680593335D8BB13B5D7BB999F817
:10251000703163B1D9F86031ABB9069A082A06D890
:102520000993424603A9E0B2089302F0ABF90134E3
:10253000032C09F52579E6D10DB0BDE8F083012221
:1025400003F82C2CB1E7AB6909936B69E9E700BF8D
:10255000180400202DE9F043BD4D4FF4257600FB13
:1025600006F6AF19C1B097F8703113B941B0BDE8A4
:10257000F083044688464022002117A8FEF7CCF9D4
:1025800003A9384603F0A2FDF0B9B24B1B5D9807D2
:1025900003D50B9B002B40F04F814FF4257303FBB9
:1025A0000453DA68002A00F0A5804FF4257303FB7A
:1025B00004532046D3F89C21002AC4BF02F1FF3205
:1025C000C3E9668200F0EAFB17AB0DAA402138464A
:1025D00003F0E0FC002800F0F88017AB0DAA4121C1
:1025E000384603F0D7FCE8B94FF4257303FB0453D6
:1025F00093F89032002B40F0B7804FF4257303FB23
:102600000453D3F88C21002A40F08B804FF42573BB
:1026100003FB04532046D3F880111144C3F8801102
:1026200000F0E0FB4FF4257909FB04F955F8093077
:102630001A6DD10400F19E801A6D520700F1A88036
:102640001B6D9B0600F1B48006F59276A9193846F9
:1026500003F08EFD4FF4257303FB0453D3F89C2144
:10266000002A05DDD3F8982102F5FA72424564D9B3
:102670004FF4257303FB045393F873211AB993F8AD
:102680007021002A69D14FF4257303FB045595F896
:102690007431002B7FF46AAFD5F89431002B3FF4EE
:1026A00065AFD5F84C219342BFF460AF7E2A3FF668
:1026B0005DAF012385F87431FEF724FF664B984225
:1026C0007FF654AFD5F89431D5F84C21D21A634B2C
:1026D0004FF47A75A3FB00139B0C614905FB02F2D2
:1026E00027A8B2FBF3F2FDF7EDFD27A9204601F084
:1026F000C3FE3BE7D3F88C0148B1089B0193099BCB
:1027000000930699DDE904323846FFF729F94FF4C2
:10271000257303FB0453D3F880210244C3F88021BE
:1027200043E7129B0193139B00931099DDE90E324E
:102730003846FFF715F9024668E7002607213846B4
:10274000C3F89C6103F016FC204601F0C9FF324635
:102750001021204600F03CF98AE70122204683F848
:102760007321FFF70BFD8EE717AA0DA93846FFF777
:1027700083FE42E700220221204600F029F955F8A5
:1027800009304FF480521A651A6D52077FF558AF21
:1027900000220121204600F01BF94FF4257304FBB1
:1027A00003F30422EB581A651B6D9B067FF54CAFB3
:1027B00000220121204600F00BF94FF4257304FBA1
:1027C00003F32022EB581A653EE7FEF7ADFE149B9B
:1027D00017AA43EA00430DA92046149302F00EFA0B
:1027E0004FF4257303FB045393F89032F3B94FF47D
:1027F000257303FB0453D3F88C2152B1129B019330
:10280000139B00931099DDE90E323846FFF7A8F8C4
:1028100002464FF4257303FB04532046D3F880117E
:102820001144C3F8801100F0DDFAD6E617AA0DA90D
:102830003846FFF721FEDAE7FEF776FE0A9B03A98A
:1028400043EA004320460A9302F004FCA5E600BFD9
:1028500018040020D40B00203F420F0083DE1B43EE
:102860002CA2000838B50C4B53F82030002B11DD9A
:102870000D460A4904462A4651F8200099B204F050
:102880000FFD074B4FF4257202FB0433012083F840
:10289000725138BD002038BD58000020640000206F
:1028A00018040020084B53F82030002B09DD074B9B
:1028B0004FF4257202FB0033012093F872310B7044
:1028C00070470020704700BF580000201804002007
:1028D000642908D8054B4FF4257202FB003302200F
:1028E000C3F88C1170473D20704700BF18040020CA
:1028F000044B93F8700120B993F8040408B993F8D5
:102900009806704718040020034B4FF4257202FB11
:10291000003393F87001704718040020054B4FF402
:10292000257202FB0033D3F83001003818BF0120B4
:10293000704700BF18040020054B4FF4257202FBBE
:102940000033D3F86001003818BF0120704700BF82
:10295000180400200A4B4FF4257202FB003090F857
:1029600070314BB1C368022B08D0D0F83831002B3E
:1029700014BF382002207047332070473920704739
:102980001804002008B5054B4FF4257202FB0030F7
:1029900003F028FC003818BF012008BD18040020EF
:1029A000024B4FF4257202FB0030704718040020E0
:1029B000064900EB800001EB8002800000230B50F1
:1029C000C2E90133C2E90333704700BFD80B0020CE
:1029D000094B00EB800000B54FEA800E03EB80004E
:1029E00090F809C041EA0C01417212B1012203F8CA
:1029F0000E205DF804FB00BFD80B0020034A142111
:102A0000082301FB00301044704700BFD80B0020A2
:102A10002DE9F04F5D4B1B5C1B0793B004D40025E0
:102A2000284613B0BDE8F08F04460F46FFF76CFF51
:102A300005460028F3D02046FFF7B2FF07A903F0B0
:102A400097FB2046FFF7ACFF03A903F0B9FB0B9BF4
:102A50004F4E4FEA84082BB104EB840306EB83034B
:102A600010221A720A9A0C9B002A3AD1002B40D1EC
:102A700008EB040306EB83031A7A1AB99A7B0AB1AE
:102A800001225A7308EB040306EB8303039ADA72FC
:102A90009A7A049919736AB9089A12B1072A18BF69
:102AA0009A72079B33B1072B04D008EB040206EBA4
:102AB0008202937208EB0403990016F8232006EBB8
:102AC0008309EAB100237354A04406EB8806B0687A
:102AD000B389C6F80E0028467760738213B0BDE84C
:102AE000F08F08EB040206EB820220211172002B0A
:102AF000C8D008EB040306EB830330221A72C1E747
:102B000004EB840A4FEA8A0A0AF1080306EB030B76
:102B100006215846019300F0DBFA019B20B199F899
:102B20000D20002A3FF47BAF08EB040206EB820283
:102B3000117A302925D008EB040206EB8202526894
:102B4000BA1A632A7FF66BAF0AF10E0AF15A36F809
:102B50000A309942B244B7D1BBF80210BAF8023039
:102B600099420BF1020B0AF1020AADD1BBF8021037
:102B7000BAF802309942A7D140F6B7339A42A3D8A7
:102B80004DE7927B302A9FD1D5E700BFD40B0020C0
:102B9000D80B0020044A1421082301FB00308118BF
:102BA000002313508B807047D80B00202DE9F04391
:102BB000002387B00122194C194F1A4E1A4DCDE946
:102BC0000123CDE9033304F10C0954F8043B002B35
:102BD000694603DB3868009304F086F92B68002B04
:102BE000A846694603DB3068009304F07DF934F8A9
:102BF000041C57F8040B012204F052FBB8F8001033
:102C000056F8040B012204F04BFB4C4505F104057A
:102C1000DBD1012007B0BDE8F08300BF98000020A1
:102C2000A4000020BC000020B00000202DE9F041ED
:102C30000C4C0D4F0D4E0E4D04F10C0857F8041BB3
:102C400054F8040B002289B204F02AFB55F8041B47
:102C500056F8040B002289B204F022FB4445EDD162
:102C6000BDE8F081A400002098000020BC000020F6
:102C7000B00000202DE9F04F83B00823DFF880B0CA
:102C80000093204C204EDFF88480214F019425468C
:102C9000C246B946344654F8041B55F8040B0122C9
:102CA00089B204F0FDFA59F8041B5AF8040B00220B
:102CB00089B204F0F5FA5D45EDD14B20019C02F09C
:102CC0005DFD56F8041B54F8040B002289B204F091
:102CD000E7FA57F8041B58F8040B012289B204F0F4
:102CE000DFFA5C45EDD14B2002F048FD009B013B33
:102CF00013F0FF030093C4D103B0BDE8F08F00BF11
:102D0000B0000020A400002098000020BC0000209B
:102D1000B000002070B5114E06EB4016337F8B4299
:102D20001AD004460D46317702F022FD0C4B33F8E1
:102D300024100C4B503070612A4653F8240004F0E4
:102D4000AFFA094A094B32F8241053F824002A46F6
:102D5000BDE8704004F0A4BA70BD00BF140C0020A0
:102D600098000020A4000020B0000020BC0000203B
:102D7000074B03EB40130A461B7F03B1704705491D
:102D8000054B31F8201053F8200004F089BA00BF39
:102D9000140C0020B0000020BC00002038B50E4C00
:102DA00004EB4014237F0BB9636803B138BD0546BB
:102DB00002F0DEFCE368C01A2828F7D9074B084A5E
:102DC00053F8250032F82510012204F069FA02F0C8
:102DD000CFFC606038BD00BF140C0020BC00002098
:102DE000B0000020F8B50E4E06EB40152B7F13B94E
:102DF0004701F35903B1F8BD044602F0B9FCAB68D2
:102E0000C01A2828F7D9074B074A53F8240032F88C
:102E10002410012204F044FA02F0AAFCF051F8BD9B
:102E2000140C0020A4000020980000202DE9F84395
:102E3000574E06EB401504462B7F884623B16B693D
:102E40008B424DD9BDE8F8834701FFF7D7FD0378E2
:102E5000302B2ED02046FFF7D1FD90F80190B9F12C
:102E6000000F26D12B7C002B61D1F359F51923B12A
:102E7000F359A8EB03030F2B6ED8F5196B6823B138
:102E80006B68A8EB03030F2B74D82046FFF73CFDBB
:102E90000028D7D13E44337F002BD3D13D4A3E4B4F
:102EA00032F8241053F824000122BDE8F84304F05E
:102EB000F7B93A4B3A4A53F8240032F82410012269
:102EC00004F0EEF9344B334A53F8240032F824105E
:102ED0003744012204F0E4F901233B74BDE8F88390
:102EE000AB692C492C4831F8241050F824000133E8
:102EF00003F00302A2F10102B2FA82F25209AB61BD
:102F000004F0CEF9AA69254B254953F8240031F87D
:102F1000241002F00302A2F10302B2FA82F2520973
:102F200004F0BEF96B6950336B61BDE8F8831C4B4C
:102F300033F82410194B4A4653F8240004F0B0F932
:102F4000144B33F82410144B4A4653F8240004F071
:102F5000A7F985F8109088E7114B33F824100F4B30
:102F6000002253F8240004F09BF90023F351C5F824
:102F7000088082E7074B33F82410074B002253F8F0
:102F8000240004F08DF90023C5F80C806B607CE709
:102F9000140C0020B0000020BC000020A400002081
:102FA0009800002008B5FEF7FDFE0320FEF7C2FAE8
:102FB000022802D1104B01221A700220FEF7E8FA13
:102FC000022802D0362800D008BD0B4B1B7873B9FD
:102FD00002F0CEFB094B1860FEF77EFA0138C0B252
:102FE000012806D8064B074A1A60022008BD3C207B
:102FF00008BD362008BD00BF740C0020780C0020EE
:103000007C0C00200000FF1F70B51A4C23687BB3B6
:10301000194B1B68C01AB0F5967F29D34FF0E023F7
:1030200000251D615D619D6172B64FF0FF32C3F8EE
:103030008021C3F88022C3F88421C3F88422C3F816
:103040008821C3F88822C3F88C21C3F88C2202F0AF
:103050002FFB05F0A5F9094A236893601A682560DB
:103060005B6882F30888BFF36F8FBDE87040184734
:1030700070BD00BF7C0C0020780C002000ED00E04B
:1030800030B40B4A0B4B4FF400704FF48071C2E91F
:10309000000180208021C2E9020120242025102087
:1030A0001021C3E90045C3E9020130BC704700BFED
:1030B000900C0020800C0020034A044B00280CBF19
:1030C00010461846704700BF900C0020800C00206E
:1030D00000290BDD0139431E084401E0834205D07D
:1030E00013F8012F002AF9D0002070470120704703
:1030F000082807D9093806289ABF034B18564FF0FD
:10310000FF30704740B27047BCA3000830280DD88C
:1031100020280FD818280BD814280DD810280DD81F
:103120000C280DD808280DD840B270470F207047E2
:103130000D2070470E2070470C2070470B20704701
:103140000A20704709207047F0B5136885B00E4615
:10315000002B4FD05368144692684FF47A7503FBE6
:103160000555134401330746B5FBF3F5FEF7CAF9DD
:10317000D4E9012323491A4401322368B0FBF3F355
:10318000B3FBF2F38B4215D8B3F57A7F25D21E4AF2
:103190001E4C00923246A4FB0564E408019404EB43
:1031A0008404A5EB44051A4902953846FDF78AF8D0
:1031B00005B0F0BD174A41F2C60103FB02F2B1EBC4
:1031C000B21F0AD301F1864101F5DE1101F6BD51AE
:1031D000A1FB0331104A8B0CDAE7104A104903FBBC
:1031E00002F2B1EBF20FD2D30E490F4AA1FB033129
:1031F0008B09CDE70D49324605B0BDE8F040FDF73B
:1032000061B800BF3F420F00E4A20008CDCCCCCC97
:10321000ACA200083961C26894A20008D578E926FA
:1032200037894100D34D62107CA2000898A20008A3
:1032300030B5037803F06003202B87B0044625D017
:10324000402B23D043B1802000F0F4FC002000F09C
:10325000F1FC002007B030BD4378092BF3D801A260
:1032600052F823F0CB320008F3320008473200084E
:103270001133000847320008233300085D3300088B
:1032800047320008953300089B320008A14B2046C6
:103290009B689847002007B030BD80789E4C01287D
:1032A0002070D0D89D4D95F89C32022B00F00E81F5
:1032B000032B00F0FB80802000F0BCFC002000F01D
:1032C000B9FC207800F0A4FAC3E7944890F89C3247
:1032D000013B022BB7D8E1880229B4D1D0F8A03243
:1032E000003B18BF01235B0040F80C3F00F024FABC
:1032F000AFE78A4A92F89C32013B022BA3D843885D
:10330000012BA6D10023C2F8A03200F045FAA0E7B5
:103310004388012B9DD1814AC2F8A03200F03CFACB
:1033200097E78388002B8ED1C388002B8BD14388ED
:103330007F2B88D8794D95F89C22032A83D0DCB264
:10334000204685F89E4200F0A5FC00F025FA002CEE
:1033500000F0D380022385F89C327AE74088030A84
:103360000022022BADF8022000F09B80032B2AD014
:10337000012B7FF468AF12236948ADF80230E18871
:103380000029CBD0994228BF1946ADF8021000F0B1
:10339000D3F95EE7C18801297FF455AF5F4890F803
:1033A0009C32022B08D8002B3FF44DAF002340F88D
:1033B000083F00F0C1F94CE7032B7FF444AF043021
:1033C00000F0BAF945E7C0B2032800F29A80DFE8BE
:1033D00000F04D522E02534BD3F89015D3F8982598
:1033E000D3F894350A4401A84F49FCF76BFF01A8B4
:1033F000FDF726FA431C4D4A9DF804005B009BB282
:103400000321ADF802301370517070B101AD02218B
:103410004FF0000C5054481CC0B2023102F800C0FA
:1034200015F8010FC9B20028F4D14048A7E73621AA
:103430003E4AADF8021040F236333D491380002574
:1034400053231354431CDBB20230D55411F8013F0F
:10345000C0B2002BF5D13548E18800293FF45EAFBA
:10346000BDF80230002B3FF4F4AE8BE70423314863
:10347000ADF8023083E72D4A2F483A2140F23A3323
:10348000ADF802101380452102230025D154591CA8
:10349000C9B20233555410F8011FDBB20029F5D12F
:1034A000D9E726488378ADF80230D5E7E0B16868FF
:1034B00001283FF433AFC0B200F0AAF92078686069
:1034C00000F09AF902287FF429AFBCE600283FF407
:1034D00025AF01200323686085F89C3200F08CF949
:1034E00002287FF41BAFAEE6022385F89C326860A9
:1034F00000F08EF900F050F9ABE6012385F89C321C
:10350000A7E60DF1020102F03DF800283FF49BAE62
:10351000A2E700BF48020020A00C0020A40E00205B
:10352000340200200070FF1F04A30008A40C002038
:10353000E8A20008C8000020C8A20008D4010020AA
:1035400010B503785A0604460BD503F06002402AF2
:1035500007D0802000F06EFB002000F06BFB002005
:1035600010BD0A4B93F89C32013B022BF1D8237912
:10357000032BEED8064B20469B689847E388002B28
:10358000EDD10028EBD100F007F9E8E7A40E002008
:103590004802002038B50378828803F06003202BAE
:1035A00038D0402B36D03BB1802000F043FB0020C8
:1035B00000F040FB002038BD4378012BD4B23FD04F
:1035C000032B2CD0002BEFD13C4B93F89C120229FB
:1035D0004ED00329E8D104F00F01120601EB81015E
:1035E00055D403EB8101D1F85821002ADCD01422F4
:1035F00002FB043303F5AA75002C56D0204600F0D8
:1036000035FB002858D001232B600221284600F00A
:1036100093F8CFE72A4B9B689847002038BD274B8B
:1036200093F89C32022B1AD0032BBDD143889BB94F
:10363000650611D0C3887BB9204600F0FBFA0BE089
:103640001E4B93F89C32022B09D0032BACD143883C
:10365000002BAFD161062BD100F09EF8AAE76006DF
:10366000A2D0204600F0E6FA802000F0E3FAA1E7BD
:1036700014F07F0498D103F5AA7012F0800F03F1C3
:10368000140318BF1846046000F056F892E703EBE5
:1036900081029269002A87D004F07F02013202EB96
:1036A0008202802C03EB8205A8D100232B60ACE7BB
:1036B000204600F0CDFACFE72860A6E7A40E002050
:1036C000480200200B7803704B7843704B8843808E
:1036D0008B888380CB88C380704700BF08B580206B
:1036E00000F0A8FABDE80840002000F0A3BA00BF2F
:1036F000E8B170B50E460446FDF7A2F8431C0D4D27
:103700005B009BB2032233802B706A70217861B119
:103710002046022300245A1CD2B2E954AC5410F8BB
:10372000011F0233DBB20029F5D1024870BD014808
:10373000704700BFA40C002010B5064B0A460224B7
:1037400001460020C3E90722C3F8944200F0B0FA12
:10375000002010BDA40E002008B50A460146002036
:1037600000F0A6FA002008BD10B5064B0A46032457
:1037700001460020C3E95722C3F8944200F0A8FA9A
:10378000002010BDA40E002008B50A460146002006
:1037900000F09EFA002008BD10B50022044B04245E
:1037A00011461046C3F8944200F082FA002010BD82
:1037B000A40E002010B50022044B0524114610462B
:1037C000C3F8944200F084FA002010BDA40E00203B
:1037D000084B10B5012200241C7083F89C2200F0D5
:1037E000C9F908B1204610BD00F0FAF9B0FA80F02E
:1037F000400910BDA40E002008B5044B1B68984773
:10380000003818BF0120400008BD00BF480200205A
:1038100008B5024B5B689847002008BD48020020AD
:10382000014610B51448FFF74DFF144890F8A42244
:10383000B0F8AA12012402F01F03A342C0E9A54177
:103840000ED0022B06D08BB900F52970FFF7F0FCE3
:10385000002010BD00F52970FFF79CFE002010BD70
:1038600000F52970FFF76CFE002010BD02F080000B
:1038700000F0E0F9002010BD48110020A40E002047
:1038800010B560B90A461A49D1F89442032C13D0F6
:10389000052C0DD1C1F8940200F0CCF908E0154BCD
:1038A0009B693BB1124A92F89C22032A02D19847A5
:1038B000002010BD022010BDD1E9583083420AD942
:1038C0001B1A9842C1F8603194BF81B299B2104678
:1038D000FFF75AFFECE7074B1B691BB191F89C22DD
:1038E000032A02D0FFF758FFE2E79847FAE700BF44
:1038F000A40E00204802002038B598B92C4DD5F808
:103900009422022A1BD032F0040302D1802000F05E
:1039100091F995F89F32012B02D1002385F89F324F
:10392000002038BD234B5B693BB1214A92F89C22B1
:10393000032A02D198470020F3E7022038BD0B4646
:10394000D5E908218A4223D8EB69B3FBF1F401FBE6
:10395000143484B999420ED8D5F8982293420AD2E9
:103960002146FFF7F9FE224621462046C5F8984237
:1039700000F0AEF9CDE70F4BDB681BB195F89C2248
:10398000032A12D0802000F055F9FFF713FFC0E79B
:10399000521A044691B218462A62FFF7DDFE22460B
:1039A0002146204600F094F9B3E79847EAE700BFC4
:1039B000A40E00204802002070B500210F4C4026C4
:1039C0004022084600F018F90125324600218020E7
:1039D000C4F85851C4F8646100F00EF9084B84F83B
:1039E0009C520020A5616662C4F894026060C4F82D
:1039F000A0025B68BDE87040184700BFA40E00201D
:103A000048020020014B187400207047A40E0020CB
:103A1000044B042293F89C1283F89D1283F89C2295
:103A200000207047A40E0020054B93F89C22042A26
:103A300004BF93F89D2283F89C220020704700BFAA
:103A4000A40E002008B5074B93F89C32032B01D03D
:103A5000002008BD044BDB69002BF9D098470020FB
:103A600008BD00BFA40E0020480200200E4A0F4BE4
:103A700012689A4200D0704703F5DA3300B5986DAA
:103A800040F4000098659B6D83B003F4000301933C
:103A9000002202211420019B01F0A0FE142003B09B
:103AA0005DF804EB01F0D6BE54110020005C00402C
:103AB00008B501F08BFD00B108BDBDE80840014824
:103AC000FFF7AEBEEC130020044B01EB810203EBC9
:103AD000C2030846D3F86411FFF7D2BE5411002088
:103AE000044B01EB810203EBC2030846596AFFF75E
:103AF00003BF00BF54110020FFF7A4BF08B5012089
:103B0000FFF780FFBDE80840FFF756BF08B5084B38
:103B100001221A70FEF746F9FFF77AFF054B5B7A30
:103B200023B1054A136943F00603136108BD00BFC2
:103B3000501100205411002000ED00E008B5074BA3
:103B40005B7A23B1064A136923F006031361FFF77A
:103B50006BFF044B00221A7008BD00BF54110020F7
:103B600000ED00E050110020014B1878704700BFB5
:103B70005011002008B506480649074A012380E88D
:103B80000E0003F093FBBDE8084001F0C9BC00BF84
:103B900054110020005C00400802000270B5154678
:103BA0000A462E6801461C469AB133442B600B48E6
:103BB00043EA0643012204F049FB2B68E01D184448
:103BC00020F00700B0F5806F28608CBF0020012036
:103BD00070BD3346014804F039FBEEE75411002074
:103BE00008B5044803F04CFC18B102280CBF0120B2
:103BF000022008BD54110020844608B505480B4634
:103C0000614604F003FA18B102280CBF012002201B
:103C100008BD00BF5411002008B50146044804F057
:103C200031FA18B102280CBF0120022008BD00BFE4
:103C30005411002008B50146044804F08FFA18B169
:103C400002280CBF0120022008BD00BF5411002033
:103C500008B50146044804F0BDFA18B102280CBFAB
:103C60000120022008BD00BF541100200206084BAD
:103C700006D400EB800003EBC00393F852017047B9
:103C800000F07F0000EB800003EBC003987C7047DE
:103C90005411002008B50146044804F0A3F918B1F6
:103CA00002280CBF0120022008BD00BF54110020D3
:103CB000844608B5054813460A46614604F030FAC2
:103CC00018B102280CBF0120022008BD54110020A9
:103CD000844608B5054813460A46614604F006FACC
:103CE00018B102280CBF0120022008BD5411002089
:103CF0000D4885460D480E490E4A002302E0D4586F
:103D0000C4500433C4188C42F9D30B4A0B4C002323
:103D100001E013600432A242FBD3FDF783FBFCF702
:103D200051FDFDF717FBFEE7000002200000002018
:103D3000A0020020E4A30008A002002080E60020EA
:103D4000FEE700003A4B70B540F60F710F22198064
:103D50009A7001F025FD374B374A1D684EF63B54EB
:103D60004EF23B51002DC8BF2146344C03461D0E78
:103D7000216033485060190C1B0A517093704FF446
:103D800000710223002015709160D370FFF794F941
:103D90000646FDF7B7FB01257368B1683268E3603A
:103DA000C4E90105F368A3612846C4E90451C4E9E4
:103DB00007526562FFF780F9224B62685A60A44699
:103DC0009D625CF8082B1A604268C3E90B25826883
:103DD0005A6302681A64C268DD635D6403F1080413
:103DE0009A63BCE80F000FC49CE80F0084E80F0042
:103DF00001F0DAFC144B154A154C1D4625F8020B50
:103E000003CA1288C3F8020069602A8107CCC3F88C
:103E10001B00586B2588A478A3F8275040F00100B8
:103E2000C3F81F10C3F8232083F82940586370BDDE
:103E3000D40B002058000020481C00209C1C0020AF
:103E400018062600541C0020101C002010A3000897
:103E5000F4A20008F0B54378162B95B000F09A80D4
:103E6000132B044635D99B4A1278002A00F08E8025
:103E70001B2B408834D8984F01259D402F4046D1B8
:103E800015F0406500F02081FDF78EFC0546002806
:103E900000F08B803E463846FEF736FD50B38F4A21
:103EA0000223137094F900106378002936DB1B2B72
:103EB00024D8DFE803F07E8B98232323237E23235B
:103EC0008B237E23232323232323238F238D9623B6
:103ED000239181494088012202FA03F30B4216D153
:103EE000022810D8C7B2002538462E46FEF70CFD32
:103EF0000028D4D13846FEF775FFD0E73123137080
:103F0000002015B0F0BD754A32231370F8E702287F
:103F100028BF02200025C7B22E46BCE70021043B83
:103F2000CDE902110491162BE8D801A151F823F034
:103F3000EB3F00087B40000855400008FD3E0008AC
:103F4000FD3E0008FD3E0008FD3E000875400008EB
:103F5000FD3E0008614000083D400008FD3E0008AD
:103F6000FD3E0008FD3E0008FD3E0008FD3E000845
:103F70004F400008FD3E0008FD3E0008FD3E0008E1
:103F8000FD3E000817400008FD3F0008534B31225A
:103F90001A70B5E7514B01211B788DF8243009A820
:103FA000FFF7CAFB012015B0F0BD4C4A3D2313704A
:103FB000A6E70421E3888B42A6D320686168484BBA
:103FC00003C34848E188FFF7CFFBEBE71421F1E793
:103FD0000121EFE71121EDE7E388B3F5FA6FECD9A2
:103FE000E4E70C21E6E70821E4E73F482821E388DD
:103FF000994228BF1946FFF79FFBD3E728464FF6A3
:10400000FF7330F8021B99423ED0B1F5FA6F28BF1A
:104010004FF4FA61EBE7012E7FF476AF02200192B4
:10402000FDF788FA60B3A0F10203B3FA83F35B09EA
:104030005B00ADF81430022105A8D8E73846FEF73A
:1040400063FC18BB042302930C2102A8CFE7274886
:104050003821CCE7FDF75CFA0990042109A8C6E7EE
:1040600005A938460192FEF71DFC48B19DF81430B1
:104070000993F2E71E484821B9E71E480C21B6E72C
:10408000019A362313703BE70021B0E73846FEF76C
:1040900087FC09A902F06CF83846FEF781FC05A9F7
:1040A00002F08EF8DDE905210D9BCDE903120BB17D
:1040B000012302930C9B0BB1022302930E9B002B56
:1040C000C2D003230293BFE7192B7FF409AFC6B216
:1040D0002F46E0E660E6002061001001CC000020E1
:1040E00030140020381400209C1C0020101C0020DC
:1040F000541C0020481C002030B5AF4B588859781C
:1041000085B0C4B21B2925D8DFE811F0D100260004
:104110003B0024002400240024007F00240024000D
:10412000260024008A002400240024002400240007
:104130002400240024009B002400C0001C00240054
:104140002400C9009D4B5A88012A00F02A819C4B0B
:1041500032221A7005B030BD984DD5E900232046B3
:10416000EC681344A1F10A012A690194AC68009437
:10417000B1FA81F14909FDF7A9FF914B187005B01B
:1041800030BD8E4D2B68012BE1D800F09780FEF7F3
:10419000AFFB8C4B00B918706A6851044ABF01210B
:1041A0001978197002F00803002B0BBF8F208E20A6
:1041B000CF23CE230BBF4FF04F0C4FF04E0C4FF0E0
:1041C0000F0E4FF00E0E12F0100F40F0FF807E4BDE
:1041D00003F804E071B1110448BF1855197841F093
:1041E00010011970597841F010015970997841F017
:1041F000100199702968012900F0ED8039B9204635
:1042000005B0BDE83040FDF74FBE6C4B1968003972
:1042100018BF0121204605B0BDE83040FEF77ABD49
:10422000664B1968A1F10101B1FA81F120464909F3
:10423000FEF718FB00288DD1614B36221A7005B0AD
:1042400030BD5E4D2B780E2B81D801A252F823F0A1
:1042500037430008214300080B4300084F41000882
:104260004F4100084F4100084F4100084F410008EE
:104270004F4100084F410008074300085B43000816
:10428000434300087F430008E54200084B4B2046AB
:104290001978FEF71DFB4A4B187005B030BDDA885F
:1042A0004649FDF7A9FA464B187005B030BD434AA0
:1042B00012684BF6EF639A42BED14BE72046FEF7F9
:1042C00023FB002840F095806B68D8057FF55FAF31
:1042D0002046FEF731FB00287FF459AF384B3A22D5
:1042E0001A7037E70123D5F80510D5F80120CDE97C
:1042F00002216A7AA97A019300932046FEF75CF8BE
:104300002F4B187026E70023EDE7D5F80530D5F8D8
:10431000012001212046FDF7B1FF294B187019E754
:10432000D5F80530D5F8012000212046FDF7A6FF7D
:10433000234B18700EE72046FEF72AF8204B187022
:1043400008E7D5F80510D5F80120CDE902210020B5
:104350006A7AA97A01900123CEE7D5F80510D5F83D
:104360000120CDE9022100236A7AA97A2046CDE90D
:1043700000330123FEF720F8114B1870EAE6D5F858
:104380000510D5F80120CDE90221012300206A7A29
:10439000A97ACDE900032046FEF70EF8084B187005
:1043A000D8E61B88052B7FF4D2AE0320FDF7F0F88A
:1043B000034B1870CEE600BF3014002038140020E4
:1043C000CC00002060E60020D40B002018460D4BE6
:1043D00003F804C0FEE602F00203D2070DD5002B5D
:1043E00014BF032102212046FDF77AFB064B18700B
:1043F000B0E6054B34221A70ACE6003B18BF01232F
:104400009900F0E7D40B0020CC00002010B5044642
:10441000FEF7FEFA20B92046BDE81040FDF7D4BDF6
:10442000204600F065FE2046BDE81040FDF7CCBDFB
:1044300038B50D4600F07CFF044600F54C501C30AA
:1044400000F05EFFB8B140F603730381857272B667
:10445000BFF34F8FBFF36F8F04F5405204F54C54F8
:10446000D2F83033C2F830032C34C0E9004318606E
:1044700062B6BFF36F8F38BD1E4B1B5CDB0601D4E9
:104480000020704770B50E4600F052FF054600F55B
:104490004C501C3000F034FF044628B33046FCF783
:1044A000CFF94E28024621D8831CDBB223720E239B
:1044B0006372314604F10A00FCF752FC72B6BFF396
:1044C0004F8FBFF36F8F05F5405205F54C55D2F86D
:1044D0003033C2F830432C35C4E900531C6062B657
:1044E000BFF36F8F012070BD002070BD024E1422FB
:1044F0001623DBE7D40B00201CA300082DE9F04FA6
:1045000001F54C5883B008F12C0872B6BFF34F8FF9
:10451000BFF36F8F01F54056D6F82C43A04500F04D
:10452000CA80002C00F0C780D4E900230F465360F6
:1045300081461A6062B6BFF36F8F674B1B78002B02
:1045400078D072B6BFF34F8FBFF36F8FD6F82CB30E
:10455000D84500F0A58062B6BFF36F8F5F4A125650
:10456000002A80F2A080BBF1000F00F09C8001F5D2
:104570004C5A0AF11C0A02254FF48852A946A6F8A3
:10458000342355460190C246214609F54C5011F896
:10459000088F3430424617FA80F0FCF7E1FB08EB55
:1045A00009021FFA82F996F83423013286F834237F
:1045B00072B6BFF34F8FBFF36F8FD6F82023C6F8C4
:1045C0002043C4E90052146062B6BFF36F8FBBF1A1
:1045D000000F28D096F83423FA2A24D89BF8082014
:1045E0004A44B2F5006F1EDA72B6BFF34F8FBFF3C5
:1045F0006F8FD6F82C43A24563D01CB1D4E90012CA
:104600004A60116062B6BFF36F8F72B6BFF34F8F0F
:10461000BFF36F8FD6F82CB3DA4554D062B6BFF330
:104620006F8F002CB0D107F54C534D463433DDF875
:1046300004902DE0A37C29489B07637CC35C4CBF9E
:104640005022182203F040034CBF4C211421944601
:10465000002B07F54C530D460CBF0A466546343314
:1046600004F108011846FCF77BFB034672B6BFF362
:104670004F8FBFF36F8FD6F82023C6F8204307F57E
:104680004C571C37C4E90072146062B6BFF36F8FD9
:104690002A461946484603B0BDE8F04F00F0DEBF99
:1046A00062B6BFF36F8F214607F54C5311F8085FD0
:1046B00034332A46D6E762B6BFF36F8F03B0BDE846
:1046C000F08F00249EE762B6BFF36F8F002CAAD054
:1046D0004FF0000B58E700BF60E60020D40B00202D
:1046E00044F2343300FB03F370B51A4D03F54C521A
:1046F00003F54C54103206461434281D2C448450C3
:10470000024405F5D85C546003F54C522432A918D4
:1047100003F54C5220329C448150024451600E4AB1
:10472000D0581A1D2A442B44C3E901409E466C33DD
:10473000634502600146104602F16C02F4D144F276
:10474000343303FB065543F21833E850CEE90141F8
:10475000086070BDC41C0020DC4F0020F0B59446FA
:104760008646002936D044F2343303FB00F3394C3B
:1047700003F54C5503F54C52201D103214352544D9
:104780008550024404F5D856556003F54C52243246
:10479000A11803F54C5220321E448150024451604E
:1047A0002D4A191DD05821442344C3E901501F4606
:1047B0006C33B34201600246084601F16C01F4D14A
:1047C00044F2343303FB0E4343F218315850C7E927
:1047D00001521060BCF1000F3BD044F2343C0CFBA2
:1047E0000EFC1C4C0CF54C530CF54C55211D18338C
:1047F0001C352544CD500B440CF104075D600CF5CD
:104800004C532C33E2180CF54C532833CA500B444C
:104810005A60124BA3F10C0653F80C000CF5D85358
:104820000433664423440246A3EB0C01184641F8C6
:104830000C50CA5113605833B342F4D144F23433AC
:1048400003FB0E4443F22033E05041F80C50CA51B0
:104850001060F0BDC41C0020DC4F0020E44F00209D
:1048600008B5012211460020FFF778FF012211460A
:104870001046FFF773FF0122BDE8084011460220F1
:10488000FFF76CBF44F2343C2DE9F8430CFB00FC0D
:1048900072B6BFF34F8FBFF36F8F324C43F2143EAB
:1048A00004EB0C0353F80E30E644A64473454FD096
:1048B000002B4DD0D3E9006575602E6062B6BFF362
:1048C0006F8F03F1080E01F120090F684E688D68A3
:1048D000D1F80C80CEF80C8010314945CEF800702C
:1048E000CEF80460CEF808500EF1100EEDD1096834
:1048F000CEF8001002F1400803F12C01D2F800E0DC
:1049000056689568D768CF6010324245C1F800E01C
:104910004E608D6001F11001F0D172B6BFF34F8F80
:10492000BFF36F8F44F2343202FB004243F228306F
:104930000CF54C5C115813500CF1240C6444C3E981
:1049400000410B6062B6BFF36F8F0120BDE8F883B2
:1049500062B6BFF36F8F01220421FEF739F8002001
:10496000BDE8F883C41C00202DE9F0473E4B1B78BE
:104970008AB0CBB14B780A2B5FD18846D1F803506F
:104980008F7891F80790044618F8080B15F0804AC4
:10499000A0F1080063D0002857DD0E7A082E28BF4A
:1049A00008264FF0804A0BE04C7A022C51D84D6813
:1049B00091F800908F7A0E7A01F10C0805F0804A88
:1049C0000023CDE90133CDE9053320464FF4000340
:1049D0000793FDF7A3FF002D4FEAC070BABF25F083
:1049E00060454FF08043C5F30A05CDF82090049050
:1049F000B8BF01930095BAF1000F02D04FF00053F9
:104A00000293082E0AD8BA070AD4424669462046BD
:104A10000396FFF737FF0AB0BDE8F08747F00207BB
:104A20002046FDF789FFA0B14FF4001306937B07E2
:104A300044BF4FF480130593E7E701220221FDF7FD
:104A4000C7FF00200AB0BDE8F0874FF0804A00267B
:104A5000B6E7012202212046FDF7BAFFF1E7FEF793
:104A600055FBC6B2ACE700BF60E600202DE9F04F71
:104A70004B7891B0102B059040F09F800B788946C1
:104A8000002B00F0B2804FF0000A022588788C1CC1
:104A90005646AB465BE062780A2A7ED1A378D4F80A
:104AA00003700193E379039317F0804204F1080344
:104AB000A0F10800049378D0002840F38B80257A79
:104AC000DDF81480082D28BF08254FF080424FF4F0
:104AD00000000D9040460292CDE90766CDE90B66D5
:104AE000FDF71CFF002F039B029A0E934FEAC07044
:104AF000BABF4FF0804327F06047C7F30A070A9018
:104B0000B8BF0793069712B14FF000520892082DD4
:104B1000019B31D89A0732D4049A0995404606A9D8
:104B2000FFF7B0FE002860D099F8002021780AF144
:104B3000010A5FFA8AFA52458B4456D919F80B00DC
:104B400000EB0B02B2F5006F09EB0B0450DC2A4BB3
:104B50001A78002A9FD194F80980B8F1020F31D851
:104B6000237867680393A37A019304F10C03257AF1
:104B7000049307F08042AAE743F002030193404602
:104B8000FDF7DAFE60B3019B4FF400125B070C9255
:104B900044BF4FF480120B92BEE701220221059818
:104BA00011B0BDE8F04FFDF713BF0292FEF7AEFA69
:104BB000DDF81480029AC5B289E711B0BDE8F04F64
:104BC000FFF7D2BE01220221404611B0BDE8F04FEE
:104BD000FDF7FEBEDDF814804FF08042002576E739
:104BE000012202214046FDF7F3FE11B0BDE8F08F2F
:104BF00001220421D3E700BF60E600202DE9F84F31
:104C00005C4B1C7880460D469246002C65D05A4E6F
:104C100044F2343202FB006672B6BFF34F8FBFF32B
:104C20006F8F06F5405906F54C52D9F81C431C32DB
:104C300094424DD0002C4BD0D4E900124A60116050
:104C400062B6BFF36F8FD5E90072B2F1804FAA68E8
:104C500006BF27F0604747F00047C7F30A07B2F1E5
:104C6000005FAA6908BF47F08047B2F5001F36D041
:104C70001B78287B4FF0000B002B43D07A0071D5B6
:104C800001228AF800000C23104623720C213B4BB2
:104C900084F80AB0617213F80830E969C4F80B703F
:104CA0005B06C4F80F1055D5514604F11300FCF70C
:104CB00057F872B6BFF34F8FBFF36F8FD9F8303309
:104CC000C9F8304306F54C562C36C4E900631C6025
:104CD00062B6BFF36F8FBDE8F88F274E9CE76A6915
:104CE0001B78287BB2F5801F2A690BBF4FF00E0B93
:104CF0004FF00A0B06210221B2F1004F18BF8B467C
:104D0000002BBBD1E3744FF0FF33A36084F8118014
:104D100084F812B0E760207404F114030AF1400C27
:104D2000DAF80000DAF80410DAF80820DAF80C7083
:104D3000DF600AF1100AE245186059609A6003F1D9
:104D40001003EDD1AB69B3F5001FEB690CBF6365D0
:104D5000E361AEE707302072514604F10F00FBF724
:104D6000FFFFA6E7FEF7C4F9C0B200F10B03DBB208
:104D700002468AE760E60020C41C0020D40B002015
:104D8000DFF874C12DE9F84F92461A469CF80030BE
:104D90005A4E80460D461BB144F2343303FB006685
:104DA00072B6BFF34F8FBFF36F8F06F5405906F50C
:104DB0004C53D9F81C431C339C424ED0002C4CD091
:104DC000D4E900134B60196062B6BFF36F8FD5E969
:104DD0000073B3F1804FAB6806BF27F0604747F020
:104DE0000047C7F30A07B3F1005FAB6908BF47F09C
:104DF0008047B3F5001F35D09CF80030287B4FF07A
:104E0000000B002B42D07A006ED501228AF80000F8
:104E10000C23104623720C21394B84F80AB06172BE
:104E200013F80830E969C4F80B705B06C4F80F107A
:104E300052D5514604F11300FBF792FF72B6BFF34F
:104E40004F8FBFF36F8FD9F83033C9F8304306F571
:104E50004C562C36C4E900631C6062B6BFF36F8FFA
:104E6000BDE8F88F6B69287BB3F5801F2B690BBFFA
:104E70004FF00E0B4FF00A0B06210221B3F1004F49
:104E800018BF8B469CF80030002BBCD1E37484F82B
:104E9000118084F812B0E7602074A26004F114035A
:104EA0000AF1400CDAF80000DAF80410DAF8082009
:104EB000DAF80C70DF600AF1100AE24518605960F8
:104EC0009A6003F11003EDD1AB69B3F5001FEB69F4
:104ED0000CBF6365E361B1E707302072514604F10E
:104EE0000F00FBF73DFFA9E7FEF702F9C0B200F1A2
:104EF0000B03DBB202468DE760E60020C41C0020F5
:104F0000D40B00202DE9F04FDFF84091504E99F876
:104F1000003044F2343400FB04F48BB006EB040A96
:104F20000746002B14BF55463546FDF72BFD04F50B
:104F30004C5808F11408B04490B372B6BFF34F8FC9
:104F4000BFF36F8F0AF5405A04F54C54DAF824B3D6
:104F500024343444A34520D0BBF1000F1DD0DBE93D
:104F6000002353601A6062B6BFF36F8F3846FDF7B7
:104F7000F1FC02282FD0012202213846FDF728FD3E
:104F800072B6BFF34F8FBFF36F8FDAF81833CAF8DA
:104F900018B3CBE90083C3F800B062B6BFF36F8FDC
:104FA0002B781BB929463846FFF7A8FA44F2343368
:104FB00003FB076643F21433F358434537D005F536
:104FC000405305F54C55D3F81C331C35AB4234D057
:104FD0000BB0BDE8F08F0BF12C0422460BF1080159
:104FE0003846FCF797FF99F80030002BC8D1DBF862
:104FF0000C300193DBF810300293DBF8143003938C
:10500000DBF818300493DBF81C300593DBF8203014
:105010000693DBF808300093FCF77AFADBF82830C7
:105020000790224669463846FFF7AAFEA8E7002205
:1050300004213846FDF7CCFCC1E7002208213846A0
:105040000BB0BDE8F04FFDF7C3BC00BF60E6002029
:10505000C41C0020234B1B78002B42D070B544F2B7
:105060003432214E00FB02F2B31872B6BFF34F8FF9
:10507000BFF36F8F03F5405E02F54C531C3306EB14
:10508000030CDEF81C33634527D033B3D3E9005457
:105090006C60256062B6BFF36F8F40F607341C81E9
:1050A0000C6A9C72C969C3F80B101049095C11F0B5
:1050B000400F14BF07210321197272B6BFF34F8F3F
:1050C000BFF36F8F02F54C52DEF83013CEF8303359
:1050D0002C323244C3E900210B6062B6BFF36F8FFC
:1050E00070BD704760E60020C41C0020D40B002077
:1050F0002DE9F843DFF8FC917F4D99F80030064622
:105100001BB144F2343303FB005572B6BFF34F8F2B
:10511000BFF36F8F05F5405805F54C53D8F81C4385
:105120001C339C4251D0002C4FD0D4E90023536053
:105130001A6062B6BFF36F8F5022002104F108009D
:10514000FBF7EAFB99F8003043BB3046FDF756FC0D
:105150000278202A04F11407034628D0302A00F0F0
:10516000C180102A36D1C2781AB17A7842F008028A
:105170007A701A791AB17A7842F004027A704FF094
:10518000200E4FF400714FF0000C9A78013A052A76
:1051900074D8DFE802F06F81277B75283046FDF771
:1051A0002DFC0278202A04F10E070346D6D1C278DE
:1051B0001AB17A7842F020027A701A79002ADED089
:1051C0007A7842F010027A70D9E762B6BFF36F8F37
:1051D000BDE8F8834279002AD1D07A7842F04002C3
:1051E0007A70CCE7714699F800005A78002859D1B6
:1051F000D00648BF41F0010112F0080F78786BD05B
:1052000040F0010078705A7812F0040F03D040F09B
:10521000020078705A7841F00401B8787A71002859
:1052200056D0DA78BA711B7941F00801FB71082376
:1052300041F0005123744FF0FF33E1606674A360C6
:10524000FCF766F9E06172B6BFF34F8FBFF36F8F63
:10525000D8F83033C8F8304305F54C552C35C4E93F
:1052600000531C6062B6BFF36F8F3046BDE8F84351
:10527000FDF790BCBA7842F00402BA706146B2E71A
:10528000BA7842F00802BA706146ACE7BA7842F0E8
:105290001002BA706146A6E7BA7842F00202BA700C
:1052A0006146A0E77A71DA78BA711B79FB7140F632
:1052B00012532381C4F80A10FCF72AF90F4BC4F8E3
:1052C00016009B5D5B06BED4237A043B2372BAE7CB
:1052D000DA78BA711B79A9E712F0040F97D1002888
:1052E0009BD098E74FF0600E4FF410714FF0400CD8
:1052F0004BE700BF60E60020C41C0020D40B002058
:10530000034672B6BFF34F8FBFF36F8F00688342BF
:1053100008D018B1D0E9002353601A6062B6BFF319
:105320006F8F7047002062B6BFF36F8F704700BF6A
:10533000024B44F2343202FB00307047C41C0020A0
:105340001E4B1F482DE9F047002201244FF47F41F6
:10535000DFF870801C4E1D4F047015461A7099803E
:1053600091465FFA85FA5046FFF7E2FF80F8009019
:10537000044618F8010B00F00F03402207F803A0C1
:10538000337803F00F03022107F803A0FEF734FC83
:1053900016F8010B40220221FEF72EFC04F56C5199
:1053A00016F8010C4FF400623431FEF791FC013520
:1053B00008B9032DD5D1BDE8F08700BF64E6002011
:1053C00062E6002074020020700200206CE60020DB
:1053D00008B5FEF791FE002008BD00BF70B50E4A6B
:1053E00000F00F030546D65C3046FFF7A1FF0B4BDC
:1053F0001B7800F56C54002B04F1340414BF3046C4
:1054000000202146FFF732FB4FF400622146284678
:10541000FEF75EFC002070BD6CE6002060E6002018
:1054200010B500F00F030A4A0446D05CFFF780FF76
:10543000437823B903F0FF020270002010BD002260
:10544000427011462046FEF733FC002010BD00BF1D
:105450006CE60020F8B50A4E337873B1094C0A4D5A
:10546000E71C14F8010BFEF7D7FB15F8010BFEF74C
:10547000D3FBBC42F5D1002333700020F8BD00BF40
:1054800062E60020740200207002002038B5027825
:1054900002F06003202B0CD0402B0AD00BB100206F
:1054A00038BD43780A2BFAD101211B48FEF744F995
:1054B000F5E78488012C19D102F07F02212A19D145
:1054C0004378032B22D0042B19D09BB9134D4FF4F2
:1054D0007F422B70AA80FDF765FD0228DFD03C28B3
:1054E00017BF0A232C712B716871D8E7FEF7B2FC45
:1054F0000028D4D10020FEF7F1F8002038BD074B7A
:1055000000214FF47F4219709A80C8E706210348B2
:10551000FEF712F9C3E700BF61E6002064E6002051
:1055200070B582B0382000210190402301AA0846BE
:10553000FEF734FBF0B1402301AA00218020FEF7E2
:105540002DFBB8B10D4C0E4DE61C402301AA0021E5
:1055500014F8010BFEF722FB402301AA012148B1F8
:1055600015F8010BFEF71AFB20B1B442EDD1002073
:1055700002B070BD022002B070BD00BF74020020F6
:1055800070020020072810B504460ED8042805D85C
:1055900013D1BDE810400A48FEF7AAB80948FEF743
:1055A000A7F82C3480F8244010BDEE2805D1064819
:1055B000FEF79EF82023037410BD002010BD00BF2D
:1055C00048A3000834A3000864A3000838B51E4CA3
:1055D0001E481F49FEF776F894F8A40210F01E004A
:1055E00004D194F8A532202B02D038BD002038BD5C
:1055F000B4F8A632032BF8D8B4F8A832042B1AD08A
:10560000052BF2D10146FEF773F8124992220546A6
:10561000FBF7A6FBB4F8A632012B04BF322385F8B2
:105620004630B4F8AA129229284628BF9221FEF7E4
:1056300083F8012038BDB4F8AA120748702928BFA2
:105640007021FEF779F8F4E7A40E0020481100203D
:10565000EC130020D000002064010020104B70B536
:105660001D780E46144695B10546FFF761FE0123ED
:1056700003709CB114F03F0F18BF00234370094B17
:105680002246585D3146BDE87040FEF711BB284602
:10569000FFF74EFE01230370002CEBD12346EDE70C
:1056A00060E6002074020020704700BF704700BF12
:1056B00010B5094B4FF0FF3200249A639C631A64C3
:1056C0001C649A629C62DA62DC621A631C63FFF7F4
:1056D000EDFF204610BD00BF0010024038B50F4B53
:1056E0001B680BB9012038BD0D494FF47A7205468D
:1056F000B2FBF3F30868B0FBF3F000F0B9F804462E
:105700000028EFD10F2DEDD8024629464FF0FF308B
:1057100000F064F8034B20461D6038BD780200207D
:10572000540000207C0200200A4A136823F480639E
:1057300010B50320136000F03FF80020FFF7CEFF04
:1057400010B10124204610BD0446FFF7ADFF2046EE
:1057500010BD00BF00200240034A044913680968D5
:105760000B441360704700BF7CE6002078020020E5
:10577000014B1868704700BF7CE6002038B504462E
:10578000FFF7F6FF631C054602D0044B1B681C4460
:10579000FFF7EEFF401BA042FAD338BD780200208D
:1057A0000048704700050201024B1868C0F30B0067
:1057B000704700BF002004E00749CA6803024FF6A3
:1057C000FF0003F4E0630240134343F0BF6343F47C
:1057D0000033CB60704700BF00ED00E01B4BDB687F
:1057E000C3F3022300B5C3F1070EBEF1040F03F1AA
:1057F000040C28BF4FF0040EBCF1060F1CD9A3F116
:10580000030C4FF0FF3303FA0CF322EA03024FF0CC
:10581000FF3303FA0EF321EA030303FA0CF31343F5
:105820001B010028DBB20ADB00F1604000F561409B
:1058300080F800335DF804FB00229446E7E7044A51
:1058400000F00F00024413765DF804FB00ED00E069
:10585000FCEC00E0002807DB044A4109012300F0CA
:105860001F00834042F82130704700BF00E100E094
:105870000138B0F1807F01D30120704710B44FF0A0
:10588000E023064C58614FF0F00C84F823C000224E
:10589000072110469A6110BC1961704700ED00E0C5
:1058A000704700BF08B5FFF7FBFF08BD704700BF9A
:1058B000002800F01C812DE9F04190F85C3004468E
:1058C00003F0FF02002B73D02268936923F01003CA
:1058D0009361FFF74DFF054604E0FFF749FF401BCA
:1058E0000A285BD823689A691207F6D49A6942F0AD
:1058F00001029A61FFF73CFF054604E0FFF738FF1D
:10590000401B0A284AD821688B69DB07F6D58B69CA
:105910007F4A43F0020391428B6100F0D580237CE3
:10592000012B8B690CBF23F0400343F040038B61D4
:10593000637C012B8B690CBF43F4804323F48043C9
:105940008B61A37C012B8B690CBF23F4805343F440
:1059500080538B618B69A068E26823F44073034332
:105960008B618B6923F0A4038B610B69012A23F0FF
:1059700010030B6121D022B3022A8B6900F0C3808F
:1059800043F080038B610B69032A43F010030B6122
:1059900017D18B6943F020038B6112E0236E032241
:1059A00043F00103236684F85C200120BDE8F08108
:1059B00080F85D20FFF77AFF86E78B6943F00403E8
:1059C0008B61D4E90623013B013A1B0243EA42639F
:1059D000226A013A13436269013A43EA0243B0F58D
:1059E000407FCB610ED1D4E90B03A26A013B0138A1
:1059F0001B01013A43EA00231343626A013A43EA76
:105A00000243CB60D1F8C030E06B424A034391427D
:105A1000C1F8C0306DD04048404B414D414E424FDF
:105A2000814202F58B4202F1700218BF1A46A3F1BF
:105A3000D80318BF1D4600F57D50A3F1180300F1EF
:105A4000100018BF1E46A3F1D80314BF1F4684469A
:105A5000A3F1D803A0F1400014BF9C468646A3F1F1
:105A60004003A0F5E26018BF9E4603F5C66318BF69
:105A70000346D1F88000D4F83480236420F4F81071
:105A800040EA0840C1F88000D1F88000C4F844E042
:105A9000D4F838E020F0706040EA0E60C1F8800071
:105AA000591C9142C4E912C72665656511D90021C8
:105AB00043F8041B9342FBD300200123206684F8A3
:105AC0005C30A065BDE8F081184B6268C3F8002522
:105AD00025E7013AD21A92080132520803EBC202BA
:105AE00000200021E3E802019A42FBD1E4E7012013
:105AF00070470F4A0F4D104E104FDFF844C0DFF8CB
