:020000040800F2
:1000000000000220653C0008F1180008F5180008FF
:10001000F9180008FD180008011900080000000088
:1000200000000000000000000000000005190008AA
:1000300009190008000000000D1900081119000836
:10004000B53C0008B53C0008B53C0008B53C0008CC
:10005000B53C0008B53C0008B53C0008B53C0008BC
:10006000B53C0008B53C0008B53C0008B53C0008AC
:10007000B53C0008B53C0008B53C0008B53C00089C
:10008000B53C0008B53C0008B53C00082D19000837
:100090002119000839190008B53C0008B53C0008D2
:1000A000B53C0008B53C0008B53C0008B53C00086C
:1000B000B53C0008B53C0008B53C0008B53C00085C
:1000C000B53C0008B53C0008B53C0008B53C00084C
:1000D000B53C0008B53C0008B53C0008B53C00083C
:1000E000B53C0008B53C0008B53C0008B53C00082C
:1000F000B53C0008B53C0008B53C0008B53C00081C
:10010000B53C0008B53C0008B53C0008B53C00080B
:10011000B53C0008B53C0008B53C0008B53C0008FB
:10012000B53C0008B53C0008B53C0008B53C0008EB
:10013000B53C0008B53C0008B53C0008B53C0008DB
:10014000B53C0008B53C0008B53C0008B53C0008CB
:10015000B53C0008B53C0008B53C0008B53C0008BB
:10016000B53C0008B53C0008B53C0008B53C0008AB
:10017000B53C0008B53C0008B53C0008B53C00089B
:10018000B53C0008B53C0008B53C0008B53C00088B
:10019000B53C000800000000B53C0008B53C000874
:1001A000B53C0008B53C0008B53C0008B53C00086B
:1001B000B53C0008B53C0008B53C0008B53C00085B
:1001C000B53C0008B53C0008B53C0008B53C00084B
:0801D000B53C0008B53C000835
:100200000348044B834202D0034B03B118477047A5
:100210005002002050020020000000000548064B5C
:100220001B1AD90F01EBA301491002D0034B03B1F4
:1002300018477047500200205002002000000000C4
:1002400010B5064C237843B9FFF7DAFF044B13B11E
:100250000448AFF300800123237010BD500200203A
:1002600000000000BCA0000808B5044B1BB1044905
:100270000448AFF30080BDE80840CFE7000000006D
:1002800054020020BCA000080CB410B59CB01EABFA
:10029000029106916FF0004104910791084953F8CB
:1002A000042B0591002402A901931B9400F06EF920
:1002B000029B1C701CB0BDE8104002B0704700BF2C
:1002C0000802FFFF0EB430B59CB06FF000411FABC9
:1002D000049107910A4953F8042B029000240690D8
:1002E000084D0868019302A905951B9400F04EF98A
:1002F000029B1C701CB0BDE8304003B0704700BFCB
:10030000000000200802FFFF80EA0102844612F08C
:10031000030F4FD111F0030F32D14DF8044D11F0FE
:10032000040F51F8043B0BD0A3F101329A4312F0B1
:10033000803F04BF4CF8043B51F8043B16D100BF8A
:1003400051F8044BA3F101329A4312F0803FA4F11B
:1003500001320BD14CF8043BA24312F0803F04BFA2
:1003600051F8043B4CF8044BEAD023460CF8013B0F
:1003700013F0FF0F4FEA3323F8D15DF8044B7047B9
:1003800011F0010F06D011F8012B0CF8012B002AF7
:1003900008BF704711F0020FBFD031F8022B12F0E6
:1003A000FF0F16BF2CF8022B8CF8002012F47F4FA1
:1003B000B3D1704711F8012B0CF8012B002AF9D1A9
:1003C000704700BF2DE9F0478F681D46AF420B68AC
:1003D0000C46164636D8B1F90CC01CF4906F0ED1FD
:1003E0003D46184631462A4600F0EAFBA368DF1B6B
:1003F0002368A7602B4400202360BDE8F0874A698A
:10040000096902EB42025F1A02EBD2726B1C5210B6
:100410003B44934292BF914699461A461CF4806F22
:10042000804611D0114600F0EDFA824600B32169F2
:100430003A4600F095FCA38923F4906343F08003CF
:10044000A38105E02F46CCE700F024FD824658B199
:100450000AEB0703A9EB0707A760C4F810A0C4F8CC
:10046000149023602F46BCE72169404600F04AFB08
:10047000A3890C2243F04003C8F800204FF0FF305E
:10048000A381BAE72DE9F04F9368176883B09246CD
:10049000002B74D04FF0000B8B680A6881460C4625
:1004A0005D4645E0B4F90C3013F4906F2CD0D4E9DC
:1004B0000401161A01EB410202EBD272711C5210B8
:1004C0002944914292BF904688460A465B0539D539
:1004D0001146484600F096FA019000283DD0324679
:1004E000216900F03DFCA289019B22F4906242F058
:1004F0008002A2819819A8EB0606A660C4F81480B1
:1005000023612060A8462E463246594600F058FB2B
:10051000DAF80810A3682268A3EB08033244491BE9
:10052000A3602260CAF8081049B3D7E900B50837BC
:1005300098461046002DF8D09D421E46B2D2A846DD
:100540002E46E1E70146484600F0A4FC0346002899
:10055000D0D12169484600F0D5FAA3890C2243F096
:100560004003C9F800204FF0FF30A3810022002390
:10057000CAF80820CAF8043003B0BDE8F08F0020A4
:100580000023CAF8043003B0BDE8F08F2DE9F04F26
:100590001C468B891D069DB088468146934603D52F
:1005A0000B69002B00F0F1800023099343F2200334
:1005B000ADF829309BF800307D4D03940126002BC7
:1005C00073D0DA4603E01AF8013F002B75D0252BD3
:1005D000F9D1BAEB0B0473D19AF80020002A64D049
:1005E00000234FF0FF32CDE905230AF1010A0493FD
:1005F00007938DF853301A9305E0049A06FA03F333
:100600001A430492A2465446052214F8011B2846B8
:1006100000F056FBA346431B0028EED1049BD806EE
:1006200044BF20228DF8532019079AF8001044BFC8
:100630002B228DF853202A2950D1039A11680432B5
:10064000002903927CDB07919AF801102E295BD0D8
:10065000584C0322204600F033FB38B1049B001BAA
:100660004022824013430BF1010B04931BF8011B42
:1006700051488DF82810062200F022FB002865D092
:100680004E4B002B55D003AA00924D4B424604A975
:100690004846AFF3008007467A1C06D0099B3B44CE
:1006A00009939BF80030002B8BD1B8F80C305B0617
:1006B0007AD409981DB0BDE8F08FBAEB0B04F4D0E2
:1006C00023465A4641464846FFF77CFE0130ECD0AF
:1006D000099B9AF80020234409937FE7A1F1300297
:1006E000092A88BFD346B1D8079B00E0013421789E
:1006F00003EB830302EB4303A1F13002092AF5D98E
:100700002E290793A346A3D19BF801102A2927D1AC
:10071000039B9BF802101A6805920433002A0BF120
:1007200002000393B8BF4FF0FF338346B8BF059371
:100730008EE7039B073323F0070308330393ADE7EA
:10074000494243F00203079104937DE703AA009214
:100750001B4B424604A9484600F060FC07469BE755
:10076000A1F130020023092A05930BF1010B3FF69A
:100770006FAF1BF8011F03EB830302EB4303A1F1EF
:100780003002092AF5D9059362E7402100F03AF9D1
:10079000C8F80000C8F8100018B14023C8F8143099
:1007A00002E70C23C9F800304FF0FF3082E700BFAA
:1007B000C0A20008C8A20008CCA2000800000000E7
:1007C000C503000870B50F4B0F4DAB42A3EB0506F8
:1007D00007D0B610002455F8043B01349847A642D0
:1007E000F9D809F06BFC094D094B5E1BAB424FEA8F
:1007F000A60606D0002455F8043B01349847A642CB
:10080000F9D870BD2CA300082CA300082CA3000865
:1008100030A30008000000000000000000000000FD
:1008200000000000000000000000000000000000C8
:1008300000000000000000000000000000000000B8
:1008400030B490F800F020F007016FF0000C10F0C9
:10085000070491F820F040F048804FF000046FF05A
:100860000700D1E9002391F840F000F1080082FA76
:100870004CF2A4FA8CF283FA4CF3A2FA8CF34BBB41
:10088000D1E9022382FA4CF200F10800A4FA8CF2BA
:1008900083FA4CF3A2FA8CF3E3B9D1E9042382FA88
:1008A0004CF200F10800A4FA8CF283FA4CF3A2FA9D
:1008B0008CF37BB9D1E9062301F1200182FA4CF2D5
:1008C00000F10800A4FA8CF283FA4CF3A2FA8CF33C
:1008D000002BC6D0002A04BF04301A4612BAB2FA5E
:1008E00082F200EBD20030BC7047D1E9002304F063
:1008F0000305C4F100004FEAC50514F0040F91F898
:1009000040F00CFA05F562EA05021CBF63EA050334
:1009100062464FF00004AAE7830730B547D0541E63
:10092000002A3ED0CAB2034601E0013C39D303F8A5
:10093000012B9D07F9D1032C2CD9CDB205EB052550
:100940000F2C05EB054535D9A4F1100222F00F0C50
:1009500003F1100EE6444FEA121C1A46C2E9005594
:10096000C2E9025510327245F8D10CF1010214F0BF
:100970000C0F03EB021204F00F0C13D0ACF10403C4
:1009800023F003030433134442F8045B9342FBD186
:100990000CF003042CB1C9B21C4403F8011BA342A0
:1009A000FBD130BD64461346002CF4D1F9E7034671
:1009B0001446C0E71A46A446E0E700BF70B5104EE3
:1009C000336805460C46B3B12146284600F09AFC30
:1009D000431C0CD0C41C24F00304A04205D0211AEF
:1009E000284600F08FFC013001D0204670BD4FF04A
:1009F000FF34204670BD194600F084FC3060E3E708
:100A00006C0200202DE9F843CD1C25F003050835C4
:100A10000C2D38BF0C25002D064618DBA94216D830
:100A2000DFF8DC8000F03CFCD8F80420A2B11446CA
:100A300003E0636822467BB11C4623685B1BF8D445
:100A40000B2B1FD89442636854D053600CE00C23E6
:100A500033600020BDE8F88329463046FFF7AEFF3B
:100A6000431C044619D00560304600F01BFC04F11D
:100A70000B00231D20F00700C21A1CBF1B1AA35035
:100A8000BDE8F88361199442256014BF5160C8F82D
:100A90000410635163684B60E6E7D8F804701FB335
:100AA0003C467F68002FFBD123683946304604EB73
:100AB000030900F027FC814516D12368ED1A294669
:100AC0003046FFF77BFF01300ED02368D8F80420B2
:100AD0002B442360536883B1A34203D01A465B685A
:100AE0009C42FBD10023B0E70C233360304600F07A
:100AF000D9FBAEE7C8F80430B6E7C8F80470B3E72E
:100B00006C020020002950D038B551F8043C0C1F6D
:100B1000002BB8BFE418054600F0C2FB274A136853
:100B20002BB1A3420CD92168601883422CD063609A
:100B300028461460BDE8384000F0B4BBA3420FD88B
:100B40001A465B68002BF9D111685018844217D0FF
:100B50002CD3636054602846BDE8384000F0A2BB47
:100B600011685018A04214D020D821686018834220
:100B7000EFD118685B680844C4E900035460EAE7F1
:100B800023680B441360E6E718685B68084420603C
:100B9000CDE720680144501883421160DBD1D3E9CE
:100BA00000040144C2E90014D5E770470C232B6010
:100BB0002846BDE8384000F075BB00BF7002002039
:100BC00088420ED98B1883420BD900EB020C002A05
:100BD0006ED0624613F801CD02F801CD9942F9D1E9
:100BE00070470F2A0FD8034602F1FF3C002A5FD05E
:100BF0000CF1010C013B8C4411F8012B03F8012F7F
:100C00006145F9D1704740EA01039B0751D1A2F138
:100C1000100370B501F1200C23F00F0501F1100E47
:100C200000F11004AC441B095EF8105C44F8105C41
:100C30005EF80C5C44F80C5C5EF8085C44F8085CF8
:100C40005EF8045C44F8045C0EF1100EE64504F115
:100C50001004E9D1013312F00C0F01EB031102F083
:100C60000F0400EB031328D0043C24F003064FEAE2
:100C7000940C1E441C1F8E465EF8045B44F8045F0F
:100C8000B442F9D10CF1010402F0030203EB840336
:100C900001EB840102F1FF3C4AB10CF1010C013B74
:100CA0008C4411F8012B03F8012F6145F9D170BD77
:100CB000704702F1FF3C03469AE72246EAE700BF8D
:100CC00001F0FF01102A2BDB10F0070F08D010F8FD
:100CD000013B013A8B422DD010F0070F42B3F6D101
:100CE000F0B441EA012141EA014122F007047FF01A
:100CF00000070023F0E80256083C85EA010586EA71
:100D0000010685FA47F5A3FA87F586FA47F6A5FAAC
:100D100087F68EB9EED1F0BC01F0FF0102F00702B8
:100D200032B110F8013B013A83EA010313B1F8D163
:100D30000020704701387047002D06BF3546033844
:100D4000073815F0010F07D1013015F4807F02BF7D
:100D5000013015F4C03F0130F0BC0138704700BFCE
:100D6000844641EA000313F003036DD1403A41D3B6
:100D700051F8043B40F8043B51F8043B40F8043B75
:100D800051F8043B40F8043B51F8043B40F8043B65
:100D900051F8043B40F8043B51F8043B40F8043B55
:100DA00051F8043B40F8043B51F8043B40F8043B45
:100DB00051F8043B40F8043B51F8043B40F8043B35
:100DC00051F8043B40F8043B51F8043B40F8043B25
:100DD00051F8043B40F8043B51F8043B40F8043B15
:100DE00051F8043B40F8043B51F8043B40F8043B05
:100DF000403ABDD2303211D351F8043B40F8043BA5
:100E000051F8043B40F8043B51F8043B40F8043BE4
:100E100051F8043B40F8043B103AEDD20C3205D3B4
:100E200051F8043B40F8043B043AF9D2043208D0AC
:100E3000D2071CBF11F8013B00F8013B01D30B881E
:100E400003806046704700BF082A13D38B078DD0FC
:100E500010F003038AD0C3F10403D21ADB071CBFCE
:100E600011F8013B00F8013B80D331F8023B20F838
:100E7000023B7BE7043AD9D3013A11F8013B00F871
:100E8000013BF9D20B7803704B7843708B788370F9
:100E9000604670472DE9F041144641B30AB3064657
:100EA0000D4600F041FA8442074602D8B4EB500FD9
:100EB00013D821463046FFF7A5FD804650B1BC420D
:100EC0002246294628BF3A46FFF74AFF29463046C0
:100ED000FFF718FE4046BDE8F081A8464046BDE851
:100EE000F081A046FFF70EFE4046BDE8F081BDE868
:100EF000F0411146FFF786BD2DE9F84F92461F4697
:100F00000A698B68DDF828909A42B8BF1A46CAF879
:100F1000002091F843300C46064613B10132CAF85E
:100F20000020226891065FD5DAF800300233CAF853
:100F30000030226812F0060F11461DD1E168994277
:100F4000D8BF114618DD4FF0000804F1190B05E079
:100F5000E568DAF80030ED1A45450CDD01235A4604
:100F600039463046C847013008F10108F0D14FF04A
:100F7000FF30BDE8F88F216894F84330003B18BF7C
:100F800001238A060AD5E1185A1C302081F8430053
:100F9000224494F8451082F84310023304F14302CE
:100FA00039463046C8470130E1D02368DAF80050AE
:100FB000216903F00603042BD4E902201BD08A42E6
:100FC00020DD4FF00008521A90441A34002501E049
:100FD000454517DA0123224639463046C8470130D5
:100FE00005F10105F4D1C2E712F0060F0DD0003B68
:100FF00018BF0123D2E7401B8A4220EAE078E2DCF6
:101000000028E2DC0020BDE8F88FE168DAF8003063
:101010009942D8BF114696DCAEE700BF2DE9F047F4
:10102000174684B00A7E0C9D0C460646984601F190
:10103000430C002A35D0A2F15803D9B2202969D82F
:10104000202B67D8DFE813F0E60066006600660034
:101050006600660066006600660066006600AC001A
:10106000700066006600660066007000660066003C
:101070006600660021008300C60066006600B600B8
:101080006600830066006600EC002B6822686169D8
:10109000181D286010061B6802D4520600F1E0807B
:1010A00019600023E1462361CDF800803B4603AA86
:1010B00021463046FFF720FF013020D023694A4601
:1010C00039463046C047013019D02368E068DDF862
:1010D0000C909B0718D5484516DD002504F1190A28
:1010E00004E0E068A0EB0903AB420DDD01235246AA
:1010F00039463046C047013005F10105F1D14FF0C6
:10110000FF3004B0BDE8F0874845B8BF484604B09A
:10111000BDE8F08784F84220012004F14209002351
:10112000206184F84330BFE72A682368111D180640
:10113000296002D4590600F1958010680146002804
:101140006268C0F2938054484FF00A0E15E02068A0
:101150002B6810F0800F53F8041B02D1400648BFE3
:1011600089B26F2A4C482B6014BF4FF00A0E4FF023
:10117000080E0023626884F84330002AA26051DB25
:10118000236823F00403236000294BD1002A7BD17C
:10119000E146BEF1080F56D0ACEB0903236183E7AB
:1011A0002B681A6804332B6004F1420984F842204A
:1011B0000120B4E72B686268191D2960D3F80090FC
:1011C00000214846FFF77CFD002863D0A0EB090012
:1011D0006060A4E7236843F02003236078222F484F
:1011E00084F845202A6813F0800F52F8041B03D1BD
:1011F00013F0400F18BF89B22A60DA0744BF43F0EA
:101200002003236019B9236823F0200323604FF0E3
:10121000100EAEE7582384F845301F482368E1E7F5
:101220002368DBE77546E146B1FBF5F305FB131ACE
:101230000A46AA4210F80A1009F8011D1946F3D20D
:10124000BEF1080FA8D12368DD07A5D56268236920
:101250009A42A1DC302309F8013C09F1FF399BE7F0
:1012600019801EE7B2F90010084668E72D20002A11
:10127000A26084F8430002DB23F0040323600A2504
:1012800005484942AE46CEE7037884F8423004F17F
:1012900042097EE7606842E7D4A20008E8A200089D
:1012A000704700BF704700BF032A30B415D941EA28
:1012B0000004A40784460B4604D0541E0FE0043AF1
:1012C000032A08D91946604653F8044B5CF8045BBE
:1012D000A542F4D0F1E760461946541E7AB1431E88
:1012E0000139021901E09A4209D013F8010F11F8EF
:1012F00001CF6045F7D0A0EB0C0030BC7047002058
:1013000030BC704738B5074D0022044608462A60B5
:1013100000F012F8431C00D038BD2B68002BFBD026
:10132000236038BDB003002051F8043C181F002B87
:10133000BCBF0B58C0187047044A05491368002BFE
:1013400008BF0B461844106018467047B4030020CD
:1013500038A000202DE9F04700F078F900B9FEE749
:1013600001F0E6FB0028FAD002F0ECF90028F6D0F4
:1013700003F01EFA00F03CFB01F03CFE02F09CFC86
:1013800000241F4DDFF87C801F4EA146012702F08C
:10139000A5FB30B101F00CFC2F7002F09FFB002880
:1013A000F8D12B78FBB1287088F8009001F024FC6C
:1013B00004F086F982460146204601F0F1FC5146D0
:1013C000204603F045FD5146204602F0C7FF514636
:1013D000204601F083F83368AAEB0303632B07D898
:1013E00084F00104D3E798F80030002BE0D0DBE76D
:1013F000C6F800A000F0E0FD504601F0BFFDEFE7A9
:10140000B803002050000020BC030020024B4FF026
:1014100000629A60704700BF00ED00E01B4B00B512
:10142000986D40F0020098659B6D95B003F0020343
:1014300044220021009303A8009BFFF76DFA144B90
:10144000144A1B681449A2FB03239B0C013B4FF079
:10145000FF3201A8CDE90113049207F0B7FF18B1DC
:10146000002015B05DF804FB01A808F04FF8002833
:10147000F6D102460146152004F058F9152004F073
:1014800091F9012015B05DF804FB00BF0010024087
:101490005400002083DE1B4300040040024A13680E
:1014A00001331360704700BFC00300200249034AA4
:1014B00000234B621360704700040040C00300200B
:1014C00008B504F019F940F26943984207D940F28F
:1014D0007943C01AB0FA80F04009400008BDB0F569
:1014E0008D6F34BF00200120400008BD014B1868FB
:1014F000704700BFC4030020034A044B10685B6AB6
:1015000043EA0040704700BFC003002000040040D1
:10151000014B1868704700BFC003002010B58EB0A3
:1015200004463422002101A8FFF7F6F901A805F0CE
:1015300077FB022C15D0032C0BD0012C19D1079B63
:1015400003F4E063B3F5806F0CBF022001200EB0FE
:1015500010BD079B13F0806F0CBF022001200EB05E
:1015600010BD079B13F0806F14BF022001200EB046
:1015700010BD00200EB010BD30B58FB0044601F094
:101580007BF910B134200FB030BD04F0B5F840F253
:101590006943984204D8B0F58D6F05D23620F2E742
:1015A00040F279439842F9D13422002101A8FFF793
:1015B000B3F901A805F034FB022C3AD0032C30D04B
:1015C000012CEBD1079B03F4E063B3F5806F26D0C9
:1015D0004FF480653022002102A8FFF79DF9CDE984
:1015E0000645194B042201929A694CF2FA3142F0F5
:1015F00070429A61196104F0C5FF10BB04F0E2FF6C
:10160000F8B901A805F0FCF8044604F0EFFF054620
:1016100004F0CCFF2C4340EA0403DBB28BB9022078
:10162000B1E7079B5B01FAD54FF4C4444FF008655E
:10163000D0E7079B5A01F2D44FF4C4444FF04865F9
:10164000C8E73B209FE700BF0020024070B5B6B05E
:1016500004F012F818B10024204636B070BD4A4D8F
:10166000AB6D43F08053AB65AB6D03F080530093DB
:101670000446009B06F0CAFD2A6E012632432A6604
:101680002A6E14940223324021204FF48031CDE998
:101690001201CDE918630F20CDE91D3301921F938C
:1016A00003210323CDE91A33CDE90601019A0894F9
:1016B00028224FF4806312A8CDE91544CDE90933FF
:1016C00017941C9206F074FE0028C4D1082106A8C5
:1016D00007F0ECF80028BED10146502222A8FFF7FF
:1016E0001BF94FF440524FF0807321A821922F93A1
:1016F00007F004FA04460028ADD14FF00053CDE9BD
:101700000C034BF67F322223CDE90F230CA82023B4
:1017100011930E9407F030FEEB6C3343EB64EB6CEB
:1017200033400293029BEB6C43F00203EB64EB6CDF
:1017300003F002030393039BEB6C43F00403EB649D
:10174000EB6C03F004030493049BEB6C43F0200365
:10175000EB64EB6C03F020032246214605934FF027
:10176000FF30059B03F0E2FF4FF4805007F052FB7F
:10177000064B1860FFF752FE044600283FF46BAF9B
:101780003046FFF7F9FE67E700100240C40300206F
:10179000FF2818D80D4AB2F8E0100D4A4FF6FF7333
:1017A00099420ED00B490C4BD1F8E01503EA812386
:1017B00003F100630130A3EBC020824288BF002008
:1017C0007047064BF6E70020704700BF0075FF1F0B
:1017D000D4A000080070FF1F00FCFF0300000808F1
:1017E000FF2842D82DE9F0413B4B0E46B3F8E010FC
:1017F0003A4B15464FF6FF72914286B02BD0384ACD
:10180000384CD2F8E02504EA822404F10064013067
:10181000A4EBC024A34224D8B5F5FA6F21D82388BD
:101820004FF6FF72934208BF00239D4206D12A461D
:101830003146A01CFFF738FD00284AD02A4B9A6990
:1018400042F070429A614CF2FA321A6104F09AFE48
:1018500068B1352006E0254C0130A4EBC024A3423A
:10186000DAD93D2006B0BDE8F0813D20704704F193
:101870007843DB0A049300220123CDE9022301A966
:10188000012302A8059304F0E7FE0746E0B9F5B18D
:10189000C6F108083146B01C2A46A04405F10904E7
:1018A000FFF78EF9C4F3CC0426F8085903E001379A
:1018B000BBB2A3420BD208EB06010020F6E90223DB
:1018C00004F0A8FD0028F2D004F070FEC1E704F097
:1018D0006DFE0220C6E700BF0075FF1FD4A0000800
:1018E0000070FF1F00FCFF030020024000000808FA
:1018F000FEE700BFFEE700BFFEE700BFFEE700BF58
:10190000FEE700BF704700BF704700BF704700BFD1
:1019100008B503F0C9FEBDE8084003F06BBF00BF87
:10192000014805F06BBD00BF3C0E0020014805F0EA
:1019300065BD00BF3C0E002008B5002000F0F2FF9E
:10194000BDE8084004F0A2BC70B51646054608463E
:101950001C4601F087FBB6F1005F15D0049B73B104
:10196000B4B91E23C200102894BF02F11A0102F17B
:101970001E01059AB2F5801F0DD0C81870BDC200B7
:101980002CBB02F12F0070BD3CB3B4F1804F26D0C8
:101990003123C200E7E7D5E959201044D5F860218A
:1019A00000FB0222104800FB02F2D5E95504204456
:1019B0000130B2FBF0F20D48D5F85041B2FBF4F221
:1019C00001FB02F2A0FB020203EB924070BDB4F1F6
:1019D000804F06D102F1430070BD2F2070BD43201F
:1019E00070BD3123BFE700BF40420F0083DE1B43C1
:1019F0002D4B2DE9F04F9A6D2C4CDFF8B4A0DFF899
:101A0000B490DFF8B4802D4FDFF8B4B042F000722C
:101A10009A659B6D87B003F0007300930025009BCF
:101A20002E46F0220021C4E95E66C4F85061C4F875
:101A30006061C4F88C61C4F89C6184F8706184F8BA
:101A4000906204F5D070FEF767FF284602F0F0FDC3
:101A50005AF8042B1B49002A4FF0010009DB0290C1
:101A600051F82500019201A9CDE90366059605F01C
:101A7000E3F959F8041B18F8012B01910223059290
:101A800057F8040B0293032201A9CDE9036205F084
:101A9000D3F95BF8042B226004F525740DB90125F8
:101AA000BFE707B0BDE8F08F00100240C803002078
:101AB000580000206C000020680000207400002006
:101AC0007C000020600000202DE9F043A54C4FF47D
:101AD000257303FB004383B093F87021002A40F084
:101AE0008780D3F85031002B7ED094F870310546B2
:101AF0000F4683B994F804346BB903F1804303F5BE
:101B000004339A6B42F000729A639A6B22F000726F
:101B10009A63FFF7CBFC284602F08AFD284600F0C6
:101B200009FF0021084601F0AFF80021012001F073
:101B3000ABF88D4A4FF4257305FB03F3525DE618AD
:101B400002F00102327403F5BC710122B274601814
:101B5000002272607274F263F7606758406803F1A4
:101B600030012144C1E90170B26003F5A872A118E7
:101B7000D1E9017054F802C0C96810332344C3E9A5
:101B800001C1C3E90370D6F86031002B40F08580B5
:101B9000FFF7ACFC754B984222D94FF4257305FB37
:101BA00003F3E61803F5B872D6E955311944D6F8AF
:101BB00050316F4F01FB03336E494FF47A7CA1FB28
:101BC00000100021800C0CFB03F3B3FBF0F3304654
:101BD000C6F88431B95286F8711103F011FE58B17C
:101BE000352003B0BDE8F0833A2003B0BDE8F083B0
:101BF000342003B0BDE8F0830146304604F01AF803
:101C00000028EDD10221304604F028F80028E7D161
:101C100001221021304604F093FA0028E0D1024658
:101C20004FF46041304604F0A1FA07460028D7D1AE
:101C3000304604F04BF8D6F86031C6F8947173B1B1
:101C4000D6E959210A4402FB033332214A4A03FBF5
:101C500001F1A2FB012149094B1E3E2B71D94FF422
:101C6000257305FB03F3E218D2E95E1201EB0209CA
:101C7000B9F1000F46DD6433E7184FF0000805E0C6
:101C800008F10108C14507F118073BD03946304635
:101C900003F082FF0028F3D0A2E7FFF727FCD6E984
:101CA00059C1D6F85031D6F860E1B0FBFEF70CEB25
:101CB00001020132B7FBF2F79BB9BB422CBF4FF4D4
:101CC00080774FF440774FF4257303FB0543D3F837
:101CD0006C219F60C3F824E0C3F82CC019639A629A
:101CE00056E7FFF703FCD6E9553213445A1CD6E9F0
:101CF00058ECD6F85031D6F86811B0FBF3F3B3FBCB
:101D0000F2F3DAE74FF4257303FB0544D4E95E32BE
:101D1000D34214BF01220022002311460093304613
:101D200003F066FF304603F0E3FF014600287FF42E
:101D300057AF284600F0D6FF0123022084F8703107
:101D400053E73A463046C6F8941103F09BFF00284B
:101D50007FF446AF304603F0A7FF00283FF47FAF83
:101D60003EE700BFC8030020F00800203F420F00FC
:101D7000CB03002083DE1B431F85EB5138B5284C75
:101D800094F870311BB3204603F0CAFF204603F0DD
:101D900085FE002500200021C4E95E01F0222946CD
:101DA00004F5D070C4F85051C4F86051C4F88C5197
:101DB000C4F89C5184F8705184F89052FEF7ACFD41
:101DC000284602F035FC0121284600F08BFF94F8EC
:101DD000043403B938BD134803F0A2FF114803F0DF
:101DE0005DFE1148002140F8041CF0222430C4F8A4
:101DF000E413C4F8F413C4F81014C4F82014C4F89D
:101E0000301484F8041484F82415FEF785FD0120AD
:101E100002F00EFC0121BDE83840084600F062BF28
:101E2000C80300205C060020D8070020F8B5194F31
:101E30004FF4257400FB04F43D1995F8703103B993
:101E4000F8BD0646284603F06BFF284603F026FE41
:101E500004F5BC730021C5F85011C5F86011F950A4
:101E60003B4404F5D07459603819F022C5F88C1140
:101E7000C5F89C1185F8701185F89012FEF74CFD9D
:101E8000304602F0D5FB30460121BDE8F84000F0B5
:101E900029BF00BFC80300202DE9F8432A4C4FF4A6
:101EA000257505FB00450646D5F860810F4691462D
:101EB000B8F1000F13D1D5F85031FBB900237B6185
:101EC0004FF4257303FB06444A463946204603F087
:101ED00097FF30BB237C012B2AD0BDE8F883FFF7A6
:101EE00005FBD5E9593213445A1CD5F85031D5F8C1
:101EF0006011B0FBF1F8B8FBF2F87BB1FFF7F6FA2E
:101F00004FF4257101FB0641D1E955321A440132E3
:101F1000D1F85031B0FBF3F3B3FBF2F34345CFD329
:101F2000CCE730460122BDE8F843022100F012BDA3
:101F300003F0C6FBD4F89C31C4F898010133C4F80F
:101F40009C31BDE8F88300BFC803002038B5174CAA
:101F50004FF4257303FB004494F870312BB1D4F88F
:101F6000383194F871210BB16AB138BD002AFCD028
:101F700005460F4984F8713102F026FA2846BDE87B
:101F8000384000F0C9BD01230A4984F8713102F0DC
:101F90001BFA0721204603F095FF204603F0C0FE00
:101FA0002046BDE8384003F0A3BE00BFC8030020B0
:101FB0000CA10008ECA0000870B5234C94F87061E7
:101FC0006EB30026D4F88C214AB3D4F890319A42EB
:101FD0002ED8D4E9603101FB03F51C4B6D09A3FB3E
:101FE0000535ED0940F2654303FB05F5184BB5FBDC
:101FF000F2F59D4226D842F20F739D421CD894F808
:10200000885125B100252946304602F0B9F9002350
:10201000C4F88031012384F88851C4F8903104F564
:10202000257426B994F870310BB10126CAE770BD4A
:102030000133C4F89031F2E7064BA3FB0535C5F335
:102040004735E0E76325DEE7C8030020C55A7C0A70
:102050003F420F005917B7D138B54FF42575284CBA
:1020600005FB00F004EB000C9CF87051002D45D1ED
:10207000551E39B31F2D3FD8591E1F293CD804992E
:1020800001390F2938D8059901390F2934D8CCE9FD
:102090005823049BCCF8683100F5B070059BCCF850
:1020A0006C310444FFF722FAD4E90125154923686D
:1020B000B0FBF3F32A440132B3FBF2F38B421BD89B
:1020C000022038BDB5F5007F16D2591EFF2913D85E
:1020D000049901397F290FD8059901397F290BD837
:1020E000CCE95423049BCCF8583100F5A870059B2B
:1020F000CCF85C310444D5E73D2038BD342038BDF0
:10210000C803002000127A00354B1B5CDB063CD56F
:102110002DE9F04F334D4FF4257303FB0053B3B05B
:10212000DB68044603BB6E464FF4257704FB07F7D4
:1021300007F5A8722A442C49304600F0BFFF30460C
:10214000FEF77EFB07F5B0722A443D442749304430
:1021500000F0B4FFD5F86071C7B93146204602F0EF
:1021600033F933B0BDE8F08F013B032B96BF204A13
:10217000204A52F8232020496E463046FEF7A2F846
:102180003146204602F020F9CEE770473046FEF790
:1021900057FBD5F850B1194DDFF864A0DFF8649013
:1021A00006EB000E844600F111080FCD46F80C0036
:1021B000CEF80C302B88CEF80410CEF80820BB45A2
:1021C00014BF51464946AEF8103006EB0800FEF742
:1021D0009BF83146204602F0F7F833B0BDE8F08FA7
:1021E000F0080020C803002058A1000860A10008E2
:1021F000FCA2000834A1000844A1000868A100085E
:1022000040A100083CA100082DE9F041424C4FF4E8
:10221000257E0EFB00FE04EB0E05D5E95E7807EB8C
:10222000080CBCF1070F1ADC002940F2FF7618BF3A
:102230006FF06046964212D39E4210D395F87051CB
:10224000CDB1BCF1010F07D1A8F10108B8FA88F8A7
:102250004FEA5818884505D03420BDE8F0813D206C
:10226000BDE8F0810EF5BC7E002744F80E70A64450
:10227000BC46CEF804700CEB4C0CE1B14FF4257168
:1022800000FB01F101EBCC0C2144A444CCE91D235B
:10229000D1F87C31CCF868300133C1F87C314FF093
:1022A0008043CCF8643002260123CCE91B63C5B916
:1022B0000220BDE8F0814FF4257600FB06F606EB20
:1022C000CC0CA4442644CCE91D23CCF8687002222F
:1022D00001370123CCE91B23CCF86410C6F87871D0
:1022E000E5E74FF4257303FB00F02718D7E95E6399
:1022F0001E44002EDCDD64300444002504E001357A
:10230000AE4204F11804D3D02146384603F044FC11
:102310000028F4D03520A3E7C80300204FF425732C
:10232000074A03FB00F0131893F8703133B900F536
:10233000BC708118135002204B60704734207047E6
:10234000C803002038B59DF810C09DF814E0002B9C
:1023500044D0884240D001293ED8BCF1000F069DF0
:1023600040F2FF7418BF6FF06044AC4234D3079D55
:10237000AC4231D3132A2FD84FF42574204D00FBE3
:1023800004F402EB420204EB82022A4482F8A031F8
:1023900082F8A311DDE906311940C2F8A411079BA8
:1023A000C2F8A83105F1F00182F8A2C182F8A1E1DA
:1023B0002B19214493F8A02112B193F8A1411CB12B
:1023C0000C338B42F6D100224FF4257303FB0053EC
:1023D00083F89022022038BD3D2038BDFF2AC9D1A4
:1023E00007494FF4257200FB02F28C1802F5D072F7
:1023F0008818F022194684F89032FEF78DFAE9E742
:10240000C8030020F0B54E688DB0A6F1804E0023C1
:10241000BEFA8EFE15460C460A68ADF804304FEA47
:102420005E1EADF8083000F1F00C02E00C306045A3
:102430001AD090F8A031002BF8D090F8A231734553
:10244000F4D1D0E9691313408B42EFD190F8A33156
:1024500090F8A111303301276B44002934D00C309F
:10246000604503F8287CE4D1E36806934FF4000349
:10247000CDE903260A939DF80420A36821690593FA
:102480000023154F07910B93A2B11E4602AA9B5C35
:102490007BB997F8703163B1D7F86031C3B9069A48
:1024A000082A06D809932A4603A93046089302F061
:1024B0008DF93EB99DF8053023B1012607F5257742
:1024C0003346E3E70DB0F0BD012103F82C1CADE766
:1024D000A36909936369E6E7C80300202DE9F04387
:1024E000BD4D4FF4257600FB06F6AF19C1B097F845
:1024F000703113B941B0BDE8F083044688464022EC
:10250000002117A8FEF708FA03A9384603F086FD54
:10251000F0B9B24B1B5D980703D50B9B002B40F025
:102520004F814FF4257303FB0453DA68002A00F04F
:10253000A5804FF4257303FB04532046D3F89C2158
:10254000002AC4BF02F1FF32C3E9668200F0E0FB5B
:1025500017AB0DAA4021384603F0C4FC002800F058
:10256000F88017AB0DAA4121384603F0BBFCE8B94F
:102570004FF4257303FB045393F89032002B40F083
:10258000B7804FF4257303FB0453D3F88C21002A42
:1025900040F08B804FF4257303FB04532046D3F89F
:1025A00080111144C3F8801100F0D6FB4FF4257957
:1025B00009FB04F955F809301A6DD10400F19E8029
:1025C0001A6D520700F1A8801B6D9B0600F1B480C4
:1025D00006F59276A919384603F072FD4FF425737B
:1025E00003FB0453D3F89C21002A05DDD3F898217E
:1025F00002F5FA72424564D94FF4257303FB045384
:1026000093F873211AB993F87021002A69D14FF415
:10261000257303FB045595F87431002B7FF46AAFE2
:10262000D5F89431002B3FF465AFD5F84C21934297
:10263000BFF460AF7E2A3FF65DAF012385F87431A9
:10264000FEF754FF664B98427FF654AFD5F89431AD
:10265000D5F84C21D21A634B4FF47A75A3FB0013C3
:102660009B0C614905FB02F227A8B2FBF3F2FDF7D0
:1026700029FE27A9204601F0A7FE3BE7D3F88C01ED
:1026800048B1089B0193099B00930699DDE9043248
:102690003846FFF759F94FF4257303FB0453D3F879
:1026A00080210244C3F8802143E7129B0193139BCE
:1026B00000931099DDE90E323846FFF745F90246DE
:1026C00068E7002607213846C3F89C6103F0FAFB4F
:1026D000204601F0ADFF32461021204600F03AF9C5
:1026E0008AE70122204683F87321FFF70DFD8EE76C
:1026F00017AA0DA93846FFF785FE42E700220221FE
:10270000204600F027F955F809304FF480521A6539
:102710001A6D52077FF558AF00220121204600F0C4
:1027200019F94FF4257304FB03F30422EB581A65DF
:102730001B6D9B067FF54CAF00220121204600F067
:1027400009F94FF4257304FB03F32022EB581A65B3
:102750003EE7FEF7DDFE149B17AA43EA00430DA9EE
:102760002046149302F0F0F94FF4257303FB045351
:1027700093F89032F3B94FF4257303FB0453D3F865
:102780008C2152B1129B0193139B00931099DDE9A8
:102790000E323846FFF7D8F802464FF4257303FB94
:1027A00004532046D3F880111144C3F8801100F07F
:1027B000D3FAD6E617AA0DA93846FFF723FEDAE7C3
:1027C000FEF7A6FE0A9B03A943EA004320460A93AC
:1027D00002F0E6FBA5E600BFC8030020F0080020D9
:1027E0003F420F0083DE1B437CA1000838B50C4B31
:1027F00053F82030002B11DD0D460A4904462A46C5
:1028000051F8200099B204F0F3FC074B4FF4257205
:1028100002FB0433012083F8725138BD002038BD1B
:102820005800002060000020C8030020084B53F827
:102830002030002B09DD074B4FF4257202FB0033DB
:10284000012093F872310B7070470020704700BF71
:1028500058000020C8030020642908D8054B4FF415
:10286000257202FB00330220C3F88C1170473D2013
:10287000704700BFC8030020034B93F8700108B9EC
:1028800093F80404704700BFC8030020034B4FF4C3
:10289000257202FB003393F870017047C8030020D3
:1028A000054B4FF4257202FB0033D3F8300100389A
:1028B00018BF0120704700BFC8030020054B4FF42C
:1028C000257202FB0033D3F86001003818BF0120E5
:1028D000704700BFC80300200A4B4FF4257202FB6B
:1028E000003090F870314BB1C368022B08D0D0F89B
:1028F0003831002B14BF3820022070473320704736
:1029000039207047C803002008B5054B4FF42572E5
:1029100002FB003003F00EFC003818BF012008BD98
:10292000C8030020024B4FF4257202FB00307047B1
:10293000C8030020064900EB800001EB8002800004
:1029400000230B50C2E90133C2E90333704700BFD3
:10295000F4080020094B00EB800000B54FEA800E20
:1029600003EB800090F809C041EA0C01417212B1FA
:10297000012203F80E205DF804FB00BFF4080020DC
:10298000034A1421082301FB00301044704700BFA4
:10299000F40800202DE9F04F5D4B1B5C1B0793B042
:1029A00004D40025284613B0BDE8F08F04460F4636
:1029B000FFF76CFF05460028F3D02046FFF7B2FF73
:1029C00007A903F07DFB2046FFF7ACFF03A903F046
:1029D0009FFB0B9B4F4E4FEA84082BB104EB840303
:1029E00006EB830310221A720A9A0C9B002A3AD132
:1029F000002B40D108EB040306EB83031A7A1AB9C3
:102A00009A7B0AB101225A7308EB040306EB830395
:102A1000039ADA729A7A049919736AB9089A12B108
:102A2000072A18BF9A72079B33B1072B04D008EB13
:102A3000040206EB8202937208EB0403990016F875
:102A4000232006EB8309EAB100237354A04406EB6C
:102A50008806B068B389C6F80E002846776073828E
:102A600013B0BDE8F08F08EB040206EB82022021D0
:102A70001172002BC8D008EB040306EB830330224D
:102A80001A72C1E704EB840A4FEA8A0A0AF10803C2
:102A900006EB030B06215846019300F0D3FA019B85
:102AA00020B199F80D20002A3FF47BAF08EB040217
:102AB00006EB8202117A302925D008EB040206EBDE
:102AC00082025268BA1A632A7FF66BAF0AF10E0AC5
:102AD000F15A36F80A309942B244B7D1BBF8021025
:102AE000BAF8023099420BF1020B0AF1020AADD199
:102AF000BBF80210BAF802309942A7D140F6B733BA
:102B00009A42A3D84DE7927B302A9FD1D5E700BFE8
:102B1000F0080020F4080020044A1421082301FBD7
:102B200000308118002313508B807047F408002078
:102B30002DE9F043002387B00122194C194F1A4E9A
:102B40001A4DCDE90123CDE9033304F1080954F806
:102B5000043B002B694603DB3868009304F06CF9F2
:102B60002B68002BA846694603DB3068009304F00D
:102B700063F934F8041C57F8040B012204F038FB05
:102B8000B8F8001056F8040B012204F031FB4C4554
:102B900005F10405DBD1012007B0BDE8F08300BFDB
:102BA000840000208C0000209C0000209400002065
:102BB000F8B50D4F0D4E0E4D0E4C39883068002281
:102BC00004F016FB29882068002204F011FBB98864
:102BD0007068002204F00CFBA98860680022BDE840
:102BE000F84004F005BB00BF840000208C000020EA
:102BF000940000209C0000202DE9F041DFF878804F
:102C00001E4F1F4E1F4D0824B8F8001038680122CF
:102C100004F0EEFA31882868002204F0E9FAB8F8E6
:102C200004107868012204F0E3FAB1886868002291
:102C300004F0DEFA4B2002F049FDB8F800103868C5
:102C4000002204F0D5FA31882868012204F0D0FA75
:102C5000B8F804107868002204F0CAFAB1886868ED
:102C6000012204F0C5FA4B2002F030FD631E13F080
:102C7000FF04C9D1BDE8F081840000208C00002051
:102C8000940000209C00002070B5114E06EB401609
:102C9000337F8B421AD004460D46317702F010FD87
:102CA0000C4B33F824100C4B503070612A4653F80B
:102CB000240004F09DFA094A094B32F8241053F815
:102CC00024002A46BDE8704004F092BA70BD00BFEF
:102CD0001C090020840000208C00002094000020AB
:102CE0009C000020074B03EB40130A461B7F03B1F7
:102CF00070470549054B31F8201053F8200004F0C7
:102D000077BA00BF1C090020940000209C0000201E
:102D100038B50E4C04EB4014237F0BB9636803B144
:102D200038BD054602F0CCFCE368C01A2828F7D964
:102D3000074B084A53F8250032F82510012204F009
:102D400057FA02F0BDFC606038BD00BF1C090020CE
:102D50009C00002094000020F8B50E4E06EB4015B4
:102D60002B7F13B94701F35903B1F8BD044602F0B4
:102D7000A7FCAB68C01A2828F7D9074B074A53F8B5
:102D8000240032F82410012204F032FA02F098FCF8
:102D9000F051F8BD1C0900208C00002084000020A8
:102DA0002DE9F843574E06EB401504462B7F884625
:102DB00023B16B698B424DD9BDE8F8834701FFF71A
:102DC000DFFD0378302B2ED02046FFF7D9FD90F899
:102DD0000190B9F1000F26D12B7C002B61D1F35962
:102DE000F51923B1F359A8EB03030F2B6ED8F5198E
:102DF0006B6823B16B68A8EB03030F2B74D82046D4
:102E0000FFF744FD0028D7D13E44337F002BD3D1B8
:102E10003D4A3E4B32F8241053F824000122BDE80D
:102E2000F84304F0E5B93A4B3A4A53F8240032F833
:102E30002410012204F0DCF9344B334A53F8240007
:102E400032F824103744012204F0D2F901233B74F4
:102E5000BDE8F883AB692C492C4831F8241050F8B0
:102E60002400013303F00302A2F10102B2FA82F25C
:102E70005209AB6104F0BCF9AA69254B254953F806
:102E8000240031F8241002F00302A2F10302B2FA86
:102E900082F2520904F0ACF96B6950336B61BDE802
:102EA000F8831C4B33F82410194B4A4653F824007E
:102EB00004F09EF9144B33F82410144B4A4653F88F
:102EC000240004F095F985F8109088E7114B33F849
:102ED00024100F4B002253F8240004F089F900233A
:102EE000F351C5F8088082E7074B33F82410074BED
:102EF000002253F8240004F07BF90023C5F80C806D
:102F00006B607CE71C090020940000209C000020DE
:102F10008C0000208400002008B5FEF72FFF03205E
:102F2000FEF7FCFA022802D1104B01221A7002208F
:102F3000FEF722FB022802D0362800D008BD0B4B3A
:102F40001B7873B902F0BCFB094B1860FEF7B8FAA6
:102F50000138C0B2012806D8064B074A1A60022081
:102F600008BD3C2008BD362008BD00BF5C0900201C
:102F700060090020640900200000FF1F70B51A4C92
:102F800023687BB3194B1B68C01AB0F5967F29D311
:102F90004FF0E02300251D615D619D6172B64FF029
:102FA000FF32C3F88021C3F88022C3F88421C3F81C
:102FB0008422C3F88821C3F88822C3F88C21C3F87F
:102FC0008C2202F01DFB05F093F9094A23689360F7
:102FD0001A6825605B6882F30888BFF36F8FBDE8CD
:102FE0007040184770BD00BF6409002060090020D0
:102FF00000ED00E030B40B4A0B4B4FF400704FF47F
:103000008071C2E9000180208021C2E902012024F0
:10301000202510201021C3E90045C3E9020130BC7E
:10302000704700BF7809002068090020034A044B5C
:1030300000280CBF10461846704700BF78090020D2
:103040006809002000290BDD0139431E084401E016
:10305000834205D013F8012F002AF9D000207047D1
:1030600001207047082807D9093806289ABF034B62
:1030700018564FF0FF30704740B270470CA300085D
:1030800030280DD820280FD818280BD814280DD890
:1030900010280DD80C280DD808280DD840B270473C
:1030A0000F2070470D2070470E2070470C2070478E
:1030B0000B2070470A20704709207047F0B513684D
:1030C00085B00E46002B4FD05368144692684FF4DB
:1030D0007A7503FB0555134401330746B5FBF3F539
:1030E000FEF704FAD4E9012323491A440132236884
:1030F000B0FBF3F3B3FBF2F38B4215D8B3F57A7F51
:1031000025D21E4A1E4C00923246A4FB0564E408F8
:10311000019404EB8404A5EB44051A490295384652
:10312000FDF7D0F805B0F0BD174A41F2C60103FB28
:1031300002F2B1EBB21F0AD301F1864101F5DE11B3
:1031400001F6BD51A1FB0331104A8B0CDAE7104A9E
:10315000104903FB02F2B1EBF20FD2D30E490F4A32
:10316000A1FB03318B09CDE70D49324605B0BDE81F
:10317000F040FDF7A7B800BF3F420F0034A200089F
:10318000CDCCCCCCFCA100083961C268E4A1000818
:10319000D578E92637894100D34D6210CCA10008CB
:1031A000E8A1000830B5037803F06003202B87B056
:1031B000044625D0402B23D043B1802000F0F4FCFE
:1031C000002000F0F1FC002007B030BD4378092B4F
:1031D000F3D801A252F823F03F320008673200080A
:1031E000BB31000885320008BB3100089732000867
:1031F000D1320008BB310008093300080F32000843
:10320000A14B20469B689847002007B030BD8078CE
:103210009E4C01282070D0D89D4D95F89C32022BF1
:1032200000F00E81032B00F0FB80802000F0BCFC3E
:10323000002000F0B9FC207800F0A4FAC3E794481D
:1032400090F89C32013B022BB7D8E1880229B4D117
:10325000D0F8A032003B18BF01235B0040F80C3FC0
:1032600000F024FAAFE78A4A92F89C32013B022B25
:10327000A3D84388012BA6D10023C2F8A03200F0C6
:1032800045FAA0E74388012B9DD1814AC2F8A032BC
:1032900000F03CFA97E78388002B8ED1C388002B7F
:1032A0008BD143887F2B88D8794D95F89C22032AAF
:1032B00083D0DCB2204685F89E4200F0A5FC00F0E9
:1032C00025FA002C00F0D380022385F89C327AE79F
:1032D0004088030A0022022BADF8022000F09B80F8
:1032E000032B2AD0012B7FF468AF12236948ADF875
:1032F0000230E1880029CBD0994228BF1946ADF8A9
:10330000021000F0D3F95EE7C18801297FF455AFC0
:103310005F4890F89C32022B08D8002B3FF44DAF49
:10332000002340F8083F00F0C1F94CE7032B7FF47D
:1033300044AF043000F0BAF945E7C0B2032800F208
:103340009A80DFE800F04D522E02534BD3F89015CF
:10335000D3F89825D3F894350A4401A84F49FCF7CF
:10336000B1FF01A8FDF76CFA431C4D4A9DF804001B
:103370005B009BB20321ADF802301370517070B145
:1033800001AD02214FF0000C5054481CC0B2023174
:1033900002F800C015F8010FC9B20028F4D1404866
:1033A000A7E736213E4AADF8021040F236333D49D8
:1033B0001380002553231354431CDBB20230D55431
:1033C00011F8013FC0B2002BF5D13548E188002942
:1033D0003FF45EAFBDF80230002B3FF4F4AE8BE754
:1033E00004233148ADF8023083E72D4A2F483A21B3
:1033F00040F23A33ADF80210138045210223002534
:10340000D154591CC9B20233555410F8011FDBB214
:103410000029F5D1D9E726488378ADF80230D5E701
:10342000E0B1686801283FF433AFC0B200F0AAF9F8
:103430002078686000F09AF902287FF429AFBCE692
:1034400000283FF425AF01200323686085F89C32F3
:1034500000F08CF902287FF41BAFAEE6022385F85A
:103460009C32686000F08EF900F050F9ABE6012361
:1034700085F89C32A7E60DF1020102F02BF8002836
:103480003FF49BAEA2E700BFF801002088090020AE
:103490008C0B0020E40100200070FF1F54A20008E4
:1034A0008C09002038A20008A400002018A20008FF
:1034B0009801002010B503785A0604460BD503F096
:1034C0006002402A07D0802000F06EFB002000F050
:1034D0006BFB002010BD0A4B93F89C32013B022B82
:1034E000F1D82379022BEED8064B20469B689847EB
:1034F000E388002BEDD10028EBD100F007F9E8E7D5
:103500008C0B0020F801002038B50378828803F086
:103510006003202B38D0402B36D03BB1802000F008
:1035200043FB002000F040FB002038BD4378012B16
:10353000D4B23FD0032B2CD0002BEFD13C4B93F8CF
:103540009C1202294ED00329E8D104F00F01120683
:1035500001EB810155D403EB8101D1F85821002AF8
:10356000DCD0142202FB043303F5AA75002C56D0DC
:10357000204600F035FB002858D001232B600221A3
:10358000284600F093F8CFE72A4B9B689847002025
:1035900038BD274B93F89C32022B1AD0032BBDD198
:1035A00043889BB9650611D0C3887BB9204600F0DB
:1035B000FBFA0BE01E4B93F89C32022B09D0032B35
:1035C000ACD14388002BAFD161062BD100F09EF81F
:1035D000AAE76006A2D0204600F0E6FA802000F0BC
:1035E000E3FAA1E714F07F0498D103F5AA7012F072
:1035F000800F03F1140318BF1846046000F056F85A
:1036000092E703EB81029269002A87D004F07F02DF
:10361000013202EB8202802C03EB8205A8D1002349
:103620002B60ACE7204600F0CDFACFE72860A6E794
:103630008C0B0020F80100200B7803704B7843704E
:103640004B8843808B888380CB88C380704700BFC2
:1036500008B5802000F0A8FABDE80840002000F07E
:10366000A3BA00BFE8B170B50E460446FDF7E8F80E
:10367000431C0D4D5B009BB2032233802B706A709C
:10368000217861B12046022300245A1CD2B2E954A9
:10369000AC5410F8011F0233DBB20029F5D1024807
:1036A00070BD0148704700BF8C09002010B5064B63
:1036B0000A46022401460020C3E90722C3F89442C7
:1036C00000F0B0FA002010BD8C0B002008B50A46AF
:1036D0000146002000F0A6FA002008BD10B5064BF8
:1036E0000A46032401460020C3E95722C3F8944246
:1036F00000F0A8FA002010BD8C0B002008B50A4687
:103700000146002000F09EFA002008BD10B50022FE
:10371000044B042411461046C3F8944200F082FA88
:10372000002010BD8C0B002010B50022044B052496
:1037300011461046C3F8944200F084FA002010BDF0
:103740008C0B0020084B10B5012200241C7083F85C
:103750009C2200F0C9F908B1204610BD00F0FAF92A
:10376000B0FA80F0400910BD8C0B002008B5044B66
:103770001B689847003818BF0120400008BD00BFF3
:10378000F801002008B5024B5B689847002008BD8F
:10379000F8010020014610B51448FFF74DFF14480A
:1037A00090F8A422B0F8AA12012402F01F03A34249
:1037B000C0E9A5410ED0022B06D08BB900F52970C7
:1037C000FFF7F0FC002010BD00F52970FFF79CFE0C
:1037D000002010BD00F52970FFF76CFE002010BD21
:1037E00002F0800000F0E0F9002010BD300E002053
:1037F0008C0B002010B560B90A461A49D1F89442E2
:10380000032C13D0052C0DD1C1F8940200F0CCF993
:1038100008E0154B9B693BB1124A92F89C22032A9F
:1038200002D19847002010BD022010BDD1E95830C8
:1038300083420AD91B1A9842C1F8603194BF81B201
:1038400099B21046FFF75AFFECE7074B1B691BB113
:1038500091F89C22032A02D0FFF758FFE2E798472D
:10386000FAE700BF8C0B0020F801002038B598B9AA
:103870002C4DD5F89422022A1BD032F0040302D139
:10388000802000F091F995F89F32012B02D100239E
:1038900085F89F32002038BD234B5B693BB1214A3C
:1038A00092F89C22032A02D198470020F3E70220D5
:1038B00038BD0B46D5E908218A4223D8EB69B3FB12
:1038C000F1F401FB143484B999420ED8D5F898224A
:1038D00093420AD22146FFF7F9FE224621462046AE
:1038E000C5F8984200F0AEF9CDE70F4BDB681BB18D
:1038F00095F89C22032A12D0802000F055F9FFF79A
:1039000013FFC0E7521A044691B218462A62FFF725
:10391000DDFE22462146204600F094F9B3E79847A1
:10392000EAE700BF8C0B0020F801002070B50021F1
:103930000F4C40264022084600F018F90125324677
:1039400000218020C4F85851C4F8646100F00EF9D9
:10395000084B84F89C520020A5616662C4F894026A
:103960006060C4F8A0025B68BDE87040184700BF03
:103970008C0B0020F8010020014B187400207047C8
:103980008C0B0020044B042293F89C1283F89D12A8
:1039900083F89C22002070478C0B0020054B93F885
:1039A0009C22042A04BF93F89D2283F89C220020C5
:1039B000704700BF8C0B002008B5074B93F89C3272
:1039C000032B01D0002008BD044BDB69002BF9D08C
:1039D0009847002008BD00BF8C0B0020F801002094
:1039E0000E4A0F4B12689A4200D0704703F5DA3343
:1039F00000B5986D40F4000098659B6D83B003F4AA
:103A000000030193002202211420019B01F08EFE8D
:103A1000142003B05DF804EB01F0C4BE3C0E00209E
:103A2000005C004008B501F079FD00B108BDBDE8BB
:103A300008400148FFF7AEBED4100020044B01EB54
:103A4000810203EBC2030846D3F86411FFF7D2BE2C
:103A50003C0E0020044B01EB810203EBC20308463D
:103A6000596AFFF703BF00BF3C0E0020FFF7A4BF59
:103A700008B50120FFF780FFBDE80840FFF756BFFB
:103A800008B5084B01221A70FEF778F9FFF77AFFA4
:103A9000054B5B7A23B1054A136943F006031361B2
:103AA00008BD00BF380E00203C0E002000ED00E0F5
:103AB00008B5074B5B7A23B1064A136923F0060366
:103AC0001361FFF76BFF044B00221A7008BD00BFA3
:103AD0003C0E002000ED00E0380E0020014B18786D
:103AE000704700BF380E002008B506480649074A4F
:103AF000012380E80E0003F081FBBDE8084001F0DF
:103B0000B7BC00BF3C0E0020005C00400802000271
:103B100070B515460A462E6801461C469AB13344D4
:103B20002B600B4843EA0643012204F037FB2B6865
:103B3000E01D184420F00700B0F5806F28608CBFAE
:103B40000020012070BD3346014804F027FBEEE75A
:103B50003C0E002008B5044803F03AFC18B10228D6
:103B60000CBF0120022008BD3C0E0020844608B591
:103B700005480B46614604F0F1F918B102280CBF64
:103B80000120022008BD00BF3C0E002008B5014600
:103B9000044804F01FFA18B102280CBF01200220CB
:103BA00008BD00BF3C0E002008B50146044804F0E3
:103BB0007DFA18B102280CBF0120022008BD00BF09
:103BC0003C0E002008B50146044804F0ABFA18B1D9
:103BD00002280CBF0120022008BD00BF3C0E0020BF
:103BE0000206084B06D400EB800003EBC00393F8F9
:103BF0005201704700F07F0000EB800003EBC00330
:103C0000987C70473C0E002008B50146044804F03B
:103C100091F918B102280CBF0120022008BD00BF95
:103C20003C0E0020844608B5054813460A46614606
:103C300004F01EFA18B102280CBF0120022008BDB2
:103C40003C0E0020844608B5054813460A466146E6
:103C500004F0F4F918B102280CBF0120022008BDBD
:103C60003C0E00200D4885460D480E490E4A0023A3
:103C700002E0D458C4500433C4188C42F9D30B4A20
:103C80000B4C002301E013600432A242FBD3FDF78A
:103C9000BDFBFCF797FDFDF75DFBFEE70000022092
:103CA000000000205002002034A300085002002031
:103CB00034A00020FEE70000394B70B540F60F72CB
:103CC0001A8001F015FD374B374A1D684EF63B54FC
:103CD0004EF23B51002DC8BF2146344C03461D0E09
:103CE000216033485060190C15701B0A0125517072
:103CF00000204FF4007193709160D570FFF796F932
:103D00000646FDF7F3FB7368B1683268E360C4E907
:103D10000105F368A3612846C4E90451C4E90752C8
:103D20006562FFF783F9234B62685A60A4469D627F
:103D30005CF8082B1A604268C3E90B2582685A6355
:103D400002681A64C268DD635D6403F108049A6363
:103D5000BCE80F000FC49CE80F0084E80F0001F0DE
:103D6000CBFC154B154A164C1D4625F8020B03CA11
:103D70001288C3F8020069602A8107CCC3F81B00CF
:103D8000586B2588A478A3F8275040F00100C3F8A9
:103D90001F10C3F8232083F82940586370BD00BF6B
:103DA000F00800205800002030190020841900205D
:103DB000180626003C190020F818002060A2000810
:103DC00044A200082DE9F0414378162B92B000F090
:103DD0009B80132B044635D99B4A1278002A00F0A9
:103DE0008F801B2B408834D8984E01259D402E4053
:103DF00047D115F0406500F02081FDF7C9FC05466C
:103E0000002800F08D80B0463046FEF73FFD50B3ED
:103E10008F4F02233B7094F900206378002A36DB31
:103E20001B2B24D8DFE803F0808D9A2323232380E3
:103E300023238D2380232323232323232391238FB1
:103E40009823239381494088012202FA03F30B420D
:103E500017D1012811D8C6B200253046A846FEF772
:103E600015FD0028D4D13046FEF776FFD0E7312388
:103E70003B70002012B0BDE8F081754F32233B70DB
:103E8000F7E70025461B18BF0126A846BCE700221D
:103E9000043BCDE900220292162BE8D801A252F889
:103EA00023F000BF613F0008EF3F0008CB3F000850
:103EB0006F3E00086F3E00086F3E00086F3E00082E
:103EC000E93F00086F3E0008D73F0008B33F0008F5
:103ED0006F3E00086F3E00086F3E00086F3E00080E
:103EE0006F3E0008C53F00086F3E00086F3E0008A7
:103EF0006F3E00086F3E00088D3F0008733F0008CA
:103F0000534B31221A70B4E7514B01211B788DF8C5
:103F10001C3007A8FFF7CAFB012012B0BDE8F081F2
:103F20004B4F3D233B70A4E70422E3889342A5D383
:103F300020686168474B03C34748E188FFF7CEFB21
:103F4000EAE71422F1E70122EFE71122EDE7E38827
:103F5000B3F5FA6FECD9E4E70C22E6E70822E4E7D0
:103F60003E482821E388994228BF1946FFF79EFB67
:103F7000D2E728464FF6FF7330F8021B99423CD037
:103F8000B1F5FA6F28BF4FF4FA61EBE7B8F1010F12
:103F90007FF474AF0220FDF7C1FA58B3A0F1020319
:103FA000B3FA83F35B095B00ADF80C30022103A880
:103FB000D8E73046FEF76AFC08BB042300930C21C7
:103FC0006846CFE726483821CCE7FDF795FA0790F9
:103FD000042107A8C6E703A93046FEF727FC48B12D
:103FE0009DF80C300793F3E71E484821BAE71E48B6
:103FF0000C21B7E736233B703BE70021B2E73046A0
:10400000FEF790FC07A902F05BF83046FEF78AFC49
:1040100003A902F07DF8DDE903210B9BCDE9011234
:104020000BB1012300930A9B0BB1022300930C9B5D
:10403000002BC4D003230093C1E7192B7FF409AFF1
:104040005FFA80F82E46DFE614A000206100100120
:10405000A800002018110020201100208419002041
:10406000F81800203C1900203019002030B5A64B6C
:104070005888597885B0C4B21B2917D8DFE801F0F9
:10408000BF182D161616166D161618167816161653
:1040900016161616168916AE0E1616B79B4B5A88AC
:1040A000012A00F026819A4B32221A7005B030BDE9
:1040B000964DD5E900232046EC681344A1F10A018E
:1040C0002A690194AC680094B1FA81F14909FDF7BD
:1040D000C3FF8F4B187005B030BD8C4D2B68012B82
:1040E000E1D800F09380FEF7C7FB8A4A00B9107050
:1040F0006B6859044ABF01211178117003F008025E
:10410000002A0BBF8F208E20CF22CE220BBF4FF074
:104110004F0C4FF04E0C4FF00F0E4FF00E0E13F0F1
:10412000100F40F0FB807C4A02F804E051B1190402
:1041300048BF1055117841F010011170517841F0CD
:10414000100151702968012900F0ED8039B920462D
:1041500005B0BDE83040FDF769BE6C4B1968003909
:1041600018BF0121204605B0BDE83040FEF78CBDE8
:10417000664B1968A1F10101B1FA81F120464909A4
:10418000FEF734FB002891D1614B36221A7005B03E
:1041900030BD5E4D2B780E2B85D801A252F823F04E
:1041A00087420008714200085B420008A7400008EF
:1041B000A7400008A7400008A7400008A740000843
:1041C000A7400008A740000857420008AB4200087B
:1041D00093420008CF420008354200084B4B20466E
:1041E0001978FEF739FB4A4B187005B030BDDA88F4
:1041F0004649FDF7F5FA464B187005B030BD434A05
:1042000012684BF6EF639A42BED14FE72046FEF7A5
:104210003DFB002840F095806B68D8057FF563AFC3
:104220002046FEF74BFB00287FF45DAF384B3A2267
:104230001A703BE70123D5F80510D5F80120CDE928
:1042400002216A7AA97A019300932046FEF77AF850
:104250002F4B18702AE70023EDE7D5F80530D5F885
:10426000012001212046FDF7CFFF294B18701DE7E3
:10427000D5F80530D5F8012000212046FDF7C4FF10
:10428000234B187012E72046FEF748F8204B1870B1
:104290000CE7D5F80510D5F80120CDE90221002062
:1042A0006A7AA97A01900123CEE7D5F80510D5F8EE
:1042B0000120CDE9022100236A7AA97A2046CDE9BE
:1042C00000330123FEF73EF8114B1870EEE6D5F8E7
:1042D0000510D5F80120CDE90221012300206A7ADA
:1042E000A97ACDE900032046FEF72CF8084B187098
:1042F000DCE61B88052B7FF4D6AE0320FDF73CF9E6
:10430000034B1870D2E600BF1811002020110020C6
:10431000A800002014A00020F008002010460D4A3C
:1043200002F804C002E703F00202DB070DD5002A01
:1043300014BF032102212046FDF7C6FB064B18706F
:10434000B4E6054B34221A70B0E6003A18BF0122D9
:104350009100F0E7F0080020A800002010B5044606
:10436000FEF718FB20B92046BDE81040FDF7EEBD72
:10437000204600F063FE2046BDE81040FDF7E6BD94
:1043800038B50D4600F07AFF044600F54C501C305D
:1043900000F05CFFB8B140F603730381857272B61A
:1043A000BFF34F8FBFF36F8F04F5405204F54C54A9
:1043B000D2F83033C2F830032C34C0E9004318601F
:1043C00062B6BFF36F8F38BD1E4B1B5CDB0601D49A
:1043D0000020704770B50E4600F050FF054600F50E
:1043E0004C501C3000F032FF044628B33046FCF736
:1043F00027FA4E28024621D8831CDBB223720E23F3
:104400006372314604F10A00FCF7AAFC72B6BFF3EE
:104410004F8FBFF36F8F05F5405205F54C55D2F81D
:104420003033C2F830432C35C4E900531C6062B607
:10443000BFF36F8F012070BD002070BD024E1422AB
:104440001623DBE7F00800206CA200082DE9F04FEE
:1044500001F54C5883B008F12C0872B6BFF34F8FAA
:10446000BFF36F8F01F54056D6F82C43A04500F0FE
:10447000CA80002C00F0C780D4E900230F465360A7
:1044800081461A6062B6BFF36F8F674B1B78002BB3
:1044900078D072B6BFF34F8FBFF36F8FD6F82CB3BF
:1044A000D84500F0A58062B6BFF36F8F5F4A125601
:1044B000002A80F2A080BBF1000F00F09C8001F583
:1044C0004C5A0AF11C0A02254FF48852A946A6F854
:1044D000342355460190C246214609F54C5011F847
:1044E000088F3430424617FA80F0FCF739FC08EBAD
:1044F00009021FFA82F996F83423013286F8342330
:1045000072B6BFF34F8FBFF36F8FD6F82023C6F874
:104510002043C4E90052146062B6BFF36F8FBBF151
:10452000000F28D096F83423FA2A24D89BF80820C4
:104530004A44B2F5006F1EDA72B6BFF34F8FBFF375
:104540006F8FD6F82C43A24563D01CB1D4E900127A
:104550004A60116062B6BFF36F8F72B6BFF34F8FC0
:10456000BFF36F8FD6F82CB3DA4554D062B6BFF3E1
:104570006F8F002CB0D107F54C534D463433DDF826
:1045800004902DE0A37C29489B07637CC35C4CBF4F
:104590005022182203F040034CBF4C2114219446B2
:1045A000002B07F54C530D460CBF0A4665463433C5
:1045B00004F108011846FCF7D3FB034672B6BFF3BB
:1045C0004F8FBFF36F8FD6F82023C6F8204307F52F
:1045D0004C571C37C4E90072146062B6BFF36F8F8A
:1045E0002A461946484603B0BDE8F04F00F0DEBF4A
:1045F00062B6BFF36F8F214607F54C5311F8085F81
:1046000034332A46D6E762B6BFF36F8F03B0BDE8F6
:10461000F08F00249EE762B6BFF36F8F002CAAD004
:104620004FF0000B58E700BF14A00020F008002056
:1046300044F2343300FB03F370B51A4D03F54C52CA
:1046400003F54C54103206461434281D2C44845073
:10465000024405F5D85C546003F54C522432A91885
:1046600003F54C5220329C448150024451600E4A62
:10467000D0581A1D2A442B44C3E901409E466C338E
:10468000634502600146104602F16C02F4D144F227
:10469000343303FB065543F21833E850CEE90141A9
:1046A000086070BDAC190020C44C0020F0B59446E1
:1046B0008646002936D044F2343303FB00F3394CEC
:1046C00003F54C5503F54C52201D1032143525448A
:1046D0008550024404F5D856556003F54C522432F7
:1046E000A11803F54C5220321E44815002445160FF
:1046F0002D4A191DD05821442344C3E901501F46B7
:104700006C33B34201600246084601F16C01F4D1FA
:1047100044F2343303FB0E4343F218315850C7E9D7
:1047200001521060BCF1000F3BD044F2343C0CFB52
:104730000EFC1C4C0CF54C530CF54C55211D18333C
:104740001C352544CD500B440CF104075D600CF57D
:104750004C532C33E2180CF54C532833CA500B44FD
:104760005A60124BA3F10C0653F80C000CF5D85309
:104770000433664423440246A3EB0C01184641F877
:104780000C50CA5113605833B342F4D144F234335D
:1047900003FB0E4443F22033E05041F80C50CA5161
:1047A0001060F0BDAC190020C44C0020CC4C00209F
:1047B00008B5012211460020FFF778FF0122BDE86D
:1047C000084011461046FFF771BF00BF44F2343C69
:1047D0002DE9F8430CFB00FC72B6BFF34F8FBFF31B
:1047E0006F8F324C43F2143E04EB0C0353F80E303F
:1047F000E644A64473454FD0002B4DD0D3E9006565
:1048000075602E6062B6BFF36F8F03F1080E01F181
:1048100020090F684E688D68D1F80C80CEF80C80A6
:1048200010314945CEF80070CEF80460CEF808503B
:104830000EF1100EEDD10968CEF8001002F140081B
:1048400003F12C01D2F800E056689568D768CF6074
:1048500010324245C1F800E04E608D6001F1100158
:10486000F0D172B6BFF34F8FBFF36F8F44F2343283
:1048700002FB004243F228300CF54C5C11581350F7
:104880000CF1240C6444C3E900410B6062B6BFF331
:104890006F8F0120BDE8F88362B6BFF36F8F0122EE
:1048A0000421FEF757F80020BDE8F883AC1900207A
:1048B0002DE9F0473E4B1B788AB0CBB14B780A2BE1
:1048C00069D18846D1F803508F7891F80790044653
:1048D00018F8080B15F0804AA0F1080064D00028F1
:1048E0005EDD0E7A082E28BF08264FF0804A0BE0C6
:1048F0004C7A012C36D84D6891F800908F7A0E7A58
:1049000001F10C0805F0804A0023CDE90133CDE91F
:10491000053320464FF400030793FDF7C1FF002D38
:104920004FEAC070BABF25F060454FF08043C5F331
:104930000A05CDF820900490B8BF01930095BAF114
:10494000000F02D04FF000530293082E13D8BA077D
:1049500013D44246694620460396FFF737FF0AB054
:10496000BDE8F087012202212046FDF7F3FF002079
:104970000AB0BDE8F08747F002072046FDF79EFF2A
:104980000028EFD04FF4001306937B0744BF4FF489
:1049900080130593DDE701220221FDF7DBFFE6E747
:1049A0004FF0804A0026AFE7FEF76AFBC6B2ABE7DE
:1049B00014A000202DE9F04F4B7891B0102B0590FA
:1049C00040F0A9800B788946002B00F0B4804FF0AE
:1049D000000A88788C1C022556465DE063780A2B15
:1049E0007FD1E279D4F80330039204F108020492F3
:1049F00013F0804294F80280A0F1080000F081805A
:104A0000002840F38D80277ADDF814B0082F28BFE6
:104A100008274FF080424FF400000D905846CDE932
:104A20000132CDE90766CDE90B66FDF739FF039B3F
:104A30000E93019B029A002B4FEAC070BABF4FF051
:104A4000804123F06043C3F30A030A90B8BF079183
:104A5000069312B14FF000530893082F31D818F085
:104A6000020F30D1049A0997584606A9FFF7AEFE07
:104A7000002860D099F8003022780AF1010A5FFA24
:104A80008AFA5345154456D919F805004319B3F568
:104A9000006F09EB050451DC2A4B1B78002B9DD1DC
:104AA00094F809B0BBF1010F23D822786368039210
:104AB00004F10C02049294F80A80277A03F08042F1
:104AC000A9E748F002085846FDF7F8FE70B34FF426
:104AD000001318F0040F0C931CBF4FF480130B93BA
:104AE000C0E701220221059811B0BDE8F04FFDF7A3
:104AF00031BF01220221584611B0BDE8F04FFDF749
:104B000029BFCDE90132FEF7BBFADDE90132DDF85C
:104B100014B0C7B27FE711B0BDE8F04FFFF7C8BED1
:104B2000DDF814B04FF08042002774E70122022123
:104B30005846FDF70FFF11B0BDE8F08F01220421A8
:104B4000D1E700BF14A000202DE9F84F5C4B1C7882
:104B500080460D469246002C65D05A4E44F23432BF
:104B600002FB006672B6BFF34F8FBFF36F8F06F57F
:104B7000405906F54C52D9F81C431C3294424DD092
:104B8000002C4BD0D4E900124A60116062B6BFF32A
:104B90006F8FD5E90072B2F1804FAA6806BF27F087
:104BA000604747F00047C7F30A07B2F1005FAA6900
:104BB00008BF47F08047B2F5001F36D01B78287B2E
:104BC0004FF0000B002B43D07A0071D501228AF8F8
:104BD00000000C23104623720C213B4B84F80AB0D2
:104BE000617213F80830E969C4F80B705B06C4F809
:104BF0000F1055D5514604F11300FCF7B1F872B609
:104C0000BFF34F8FBFF36F8FD9F83033C9F83043FC
:104C100006F54C562C36C4E900631C6062B6BFF33F
:104C20006F8FBDE8F88F274E9CE76A691B78287B59
:104C3000B2F5801F2A690BBF4FF00E0B4FF00A0B25
:104C400006210221B2F1004F18BF8B46002BBBD1C9
:104C5000E3744FF0FF33A36084F8118084F812B03E
:104C6000E760207404F114030AF1400CDAF8000044
:104C7000DAF80410DAF80820DAF80C70DF600AF1CC
:104C8000100AE245186059609A6003F11003EDD1F3
:104C9000AB69B3F5001FEB690CBF6365E361AEE779
:104CA00007302072514604F10F00FCF759F8A6E7CF
:104CB000FEF7D8F9C0B200F10B03DBB202468AE777
:104CC00014A00020AC190020F0080020DFF874C107
:104CD0002DE9F84F92461A469CF800305A4E80460D
:104CE0000D461BB144F2343303FB006672B6BFF3CA
:104CF0004F8FBFF36F8F06F5405906F54C53D9F827
:104D00001C431C339C424ED0002C4CD0D4E90013E1
:104D10004B60196062B6BFF36F8FD5E90073B3F1D2
:104D2000804FAB6806BF27F0604747F00047C7F3E6
:104D30000A07B3F1005FAB6908BF47F08047B3F5DE
:104D4000001F35D09CF80030287B4FF0000B002B63
:104D500042D07A006ED501228AF800000C2310465A
:104D600023720C21394B84F80AB0617213F80830B1
:104D7000E969C4F80B705B06C4F80F1052D55146B0
:104D800004F11300FBF7ECFF72B6BFF34F8FBFF3D4
:104D90006F8FD9F83033C9F8304306F54C562C36AE
:104DA000C4E900631C6062B6BFF36F8FBDE8F88F83
:104DB0006B69287BB3F5801F2B690BBF4FF00E0B7F
:104DC0004FF00A0B06210221B3F1004F18BF8B46AA
:104DD0009CF80030002BBCD1E37484F8118084F877
:104DE00012B0E7602074A26004F114030AF1400CD1
:104DF000DAF80000DAF80410DAF80820DAF80C70B3
:104E0000DF600AF1100AE245186059609A6003F108
:104E10001003EDD1AB69B3F5001FEB690CBF6365FF
:104E2000E361B1E707302072514604F10F00FBF750
:104E300097FFA9E7FEF716F9C0B200F10B03DBB24A
:104E400002468DE714A00020AC190020F0080020D5
:104E50002DE9F04FDFF84091504E99F8003044F2C0
:104E6000343400FB04F48BB006EB040A0746002B35
:104E700014BF55463546FDF747FD04F54C5808F17B
:104E80001408B04490B372B6BFF34F8FBFF36F8F67
:104E90000AF5405A04F54C54DAF824B32434344467
:104EA000A34520D0BBF1000F1DD0DBE900235360E8
:104EB0001A6062B6BFF36F8F3846FDF70DFD02280A
:104EC0002FD0012202213846FDF744FD72B6BFF310
:104ED0004F8FBFF36F8FDAF81833CAF818B3CBE9E6
:104EE0000083C3F800B062B6BFF36F8F2B781BB995
:104EF00029463846FFF7AAFA44F2343303FB076623
:104F000043F21433F358434537D005F5405305F5C4
:104F10004C55D3F81C331C35AB4234D00BB0BDE834
:104F2000F08F0BF12C0422460BF108013846FCF7F8
:104F3000B3FF99F80030002BC8D1DBF80C30019397
:104F4000DBF810300293DBF814300393DBF81830F1
:104F50000493DBF81C300593DBF820300693DBF874
:104F600008300093FCF7C8FADBF828300790224697
:104F700069463846FFF7AAFEA8E700220421384612
:104F8000FDF7E8FCC1E70022082138460BB0BDE878
:104F9000F04FFDF7DFBC00BF14A00020AC190020CB
:104FA000234B1B78002B42D070B544F23432214E93
:104FB00000FB02F2B31872B6BFF34F8FBFF36F8FCF
:104FC00003F5405E02F54C531C3306EB030CDEF890
:104FD0001C33634527D033B3D3E900546C6025609C
:104FE00062B6BFF36F8F40F607341C810C6A9C7267
:104FF000C969C3F80B101049095C11F0400F14BFC8
:1050000007210321197272B6BFF34F8FBFF36F8F61
:1050100002F54C52DEF83013CEF830332C323244E5
:10502000C3E900210B6062B6BFF36F8F70BD70479C
:1050300014A00020AC190020F00800202DE9F8434E
:10504000DFF8FC917F4D99F8003006461BB144F221
:10505000343303FB005572B6BFF34F8FBFF36F8F2E
:1050600005F5405805F54C53D8F81C431C339C42B9
:1050700051D0002C4FD0D4E9002353601A6062B69F
:10508000BFF36F8F5022002104F10800FBF744FCAE
:1050900099F8003043BB3046FDF772FC0278202AB5
:1050A00004F11407034628D0302A00F0C180102AEA
:1050B00036D1C2781AB17A7842F008027A701A7939
:1050C0001AB17A7842F004027A704FF0200E4FF451
:1050D00000714FF0000C9A78013A052A74D8DFE885
:1050E00002F06F81277B75283046FDF749FC027876
:1050F000202A04F10E070346D6D1C2781AB17A7875
:1051000042F020027A701A79002ADED07A7842F0D2
:1051100010027A70D9E762B6BFF36F8FBDE8F883EB
:105120004279002AD1D07A7842F040027A70CCE7F6
:10513000714699F800005A78002859D1D00648BF26
:1051400041F0010112F0080F78786BD040F00100B7
:1051500078705A7812F0040F03D040F00200787093
:105160005A7841F00401B8787A71002856D0DA787C
:10517000BA711B7941F00801FB71082341F000511D
:1051800023744FF0FF33E1606674A360FCF7B4F959
:10519000E06172B6BFF34F8FBFF36F8FD8F8303333
:1051A000C8F8304305F54C552C35C4E900531C6054
:1051B00062B6BFF36F8F3046BDE8F843FDF7ACBC75
:1051C000BA7842F00402BA706146B2E7BA7842F0A7
:1051D0000802BA706146ACE7BA7842F01002BA70C1
:1051E0006146A6E7BA7842F00202BA706146A0E7CB
:1051F0007A71DA78BA711B79FB7140F61253238108
:10520000C4F80A10FCF778F90F4BC4F816009B5D40
:105210005B06BED4237A043B2372BAE7DA78BA710C
:105220001B79A9E712F0040F97D100289BD098E7CB
:105230004FF0600E4FF410714FF0400C4BE700BF81
:1052400014A00020AC190020F0080020034672B61C
:10525000BFF34F8FBFF36F8F0068834208D018B140
:10526000D0E9002353601A6062B6BFF36F8F7047B6
:10527000002062B6BFF36F8F704700BF024B44F24D
:10528000343202FB00307047AC1900201F4B20481D
:105290002DE9F047002201244FF47F411D4F1E4DA0
:1052A0001E4E047091461A70998090465FFA89FAF2
:1052B0005046FFF7E3FF80F80080044617F8010B23
:1052C0002B7800F00F0103F00F0306F801A0402235
:1052D000022106F803A0FEF749FC15F8010B402255
:1052E0000221FEF743FC04F56C5115F8010C4FF454
:1052F00000623431FEF7A6FC28B9B9F1000F02D1E3
:105300004FF00109D2E7BDE8F08700BF18A00020E8
:1053100016A00020240200202002002020A000204F
:1053200008B5FEF7A3FE002008BD00BF70B50E4A09
:1053300000F00F030546D65C3046FFF79FFF0B4B8E
:105340001B7800F56C54002B04F1340414BF304674
:1053500000202146FFF72EFB4FF40062214628462D
:10536000FEF770FC002070BD20A0002014A00020DB
:1053700010B500F00F030A4A0446D05CFFF77EFF29
:10538000437823B903F0FF020270002010BD002211
:10539000427011462046FEF745FC002010BD00BFBC
:1053A00020A0002070B50A4C23787BB1094E0A4D2D
:1053B0003078FEF7EBFB2878FEF7E8FB7078FEF715
:1053C000E5FB6878FEF7E2FB00232370002070BD48
:1053D00016A00020240200202002002038B5027808
:1053E00002F06003202B0CD0402B0AD00BB1002020
:1053F00038BD43780A2BFAD101211B48FEF756F934
:10540000F5E78488012C19D102F07F02212A19D1F5
:105410004378032B22D0042B19D09BB9134D4FF4A2
:105420007F422B70AA80FDF777FD0228DFD03C2851
:1054300017BF0A232C712B716871D8E7FEF7C2FCE5
:105440000028D4D10020FEF703F9002038BD074B17
:1054500000214FF47F4219709A80C8E70621034863
:10546000FEF724F9C3E700BF15A0002018A0002014
:1054700070B582B0382000210190402301AA08466F
:10548000FEF746FBF0B1402301AA00218020FEF781
:105490003FFBB8B10D4C0E4DA61C402314F8010B78
:1054A00001AA0021FEF734FB402358B115F8010B87
:1054B00001AA0121FEF72CFB20B1B442EDD100205E
:1054C00002B070BD022002B070BD00BF24020020F7
:1054D00020020020072810B504460ED8042805D85D
:1054E00013D1BDE810400A48FEF7BCB80948FEF7E2
:1054F000B9F82C3480F8244010BDEE2805D10648B8
:10550000FEF7B0F82023037410BD002010BD00BFCB
:1055100098A2000884A20008B4A2000838B51E4C66
:105520001E481F49FEF788F894F8A40210F01E00E8
:1055300004D194F8A532202B02D038BD002038BD0C
:10554000B4F8A632022BF8D8B4F8A832042B1AD03B
:10555000052BF2D10146FEF785F812499222054645
:10556000FBF7FEFBB4F8A632012B04BF322385F80B
:105570004630B4F8AA129229284628BF9221FEF795
:1055800095F8012038BDB4F8AA120748582928BF59
:105590005821FEF78BF8F4E78C0B0020300E00202A
:1055A000D4100020AC00002040010020104B70B54A
:1055B0001D780E46144695B10546FFF75FFE0123A0
:1055C00003709CB114F03F0F18BF00234370094BC8
:1055D0002246585D3146BDE87040FEF723BB2846A1
:1055E000FFF74CFE01230370002CEBD12346EDE7BF
:1055F00014A0002024020020704700BF704700BFA5
:1056000010B5094B4FF0FF3200249A639C631A6473
:105610001C649A629C62DA62DC621A631C63FFF7A4
:10562000EDFF204610BD00BF0010024038B50F4B03
:105630001B680BB9012038BD0D494FF47A7205463D
:10564000B2FBF3F30868B0FBF3F000F0B9F80446DE
:105650000028EFD10F2DEDD8024629464FF0FF303C
:1056600000F064F8034B20461D6038BD280200207E
:10567000540000202C0200200A4A136823F480639F
:1056800010B50320136000F03FF80020FFF7CEFFB5
:1056900010B10124204610BD0446FFF7ADFF20469F
:1056A00010BD00BF00200240034A04491368096886
:1056B0000B441360704700BF30A000202802002078
:1056C000014B1868704700BF30A0002038B5044671
:1056D000FFF7F6FF631C054602D0044B1B681C4411
:1056E000FFF7EEFF401BA042FAD338BD280200208E
:1056F0000048704700050201024B1868C0F30B0018
:10570000704700BF002004E00749CA6803024FF653
:10571000FF0003F4E0630240134343F0BF6343F42C
:105720000033CB60704700BF00ED00E01B4BDB682F
:10573000C3F3022300B5C3F1070EBEF1040F03F15A
:10574000040C28BF4FF0040EBCF1060F1CD9A3F1C6
:10575000030C4FF0FF3303FA0CF322EA03024FF07D
:10576000FF3303FA0EF321EA030303FA0CF31343A6
:105770001B010028DBB20ADB00F1604000F561404C
:1057800080F800335DF804FB00229446E7E7044A02
:1057900000F00F00024413765DF804FB00ED00E01A
:1057A000FCEC00E0002807DB044A4109012300F07B
:1057B0001F00834042F82130704700BF00E100E045
:1057C0000138B0F1807F01D30120704710B44FF051
:1057D000E023064C58614FF0F00C84F823C00022FF
:1057E000072110469A6110BC1961704700ED00E076
:1057F000704700BF08B5FFF7FBFF08BD704700BF4B
:10580000002800F01C812DE9F04190F85C3004463E
:1058100003F0FF02002B73D02268936923F010037A
:105820009361FFF74DFF054604E0FFF749FF401B7A
:105830000A285BD823689A691207F6D49A6942F05D
:1058400001029A61FFF73CFF054604E0FFF738FFCD
:10585000401B0A284AD821688B69DB07F6D58B697B
:105860007F4A43F0020391428B6100F0D580237C94
:10587000012B8B690CBF23F0400343F040038B6185
:10588000637C012B8B690CBF43F4804323F480437A
:105890008B61A37C012B8B690CBF23F4805343F4F1
:1058A00080538B618B69A068E26823F440730343E3
:1058B0008B618B6923F0A4038B610B69012A23F0B0
:1058C00010030B6121D022B3022A8B6900F0C38040
:1058D00043F080038B610B69032A43F010030B61D3
:1058E00017D18B6943F020038B6112E0236E0322F2
:1058F00043F00103236684F85C200120BDE8F081B9
:1059000080F85D20FFF77AFF86E78B6943F0040398
:105910008B61D4E90623013B013A1B0243EA42634F
:10592000226A013A13436269013A43EA0243B0F53D
:10593000407FCB610ED1D4E90B03A26A013B013851
:105940001B01013A43EA00231343626A013A43EA26
:105950000243CB60D1F8C030E06B424A034391422E
:10596000C1F8C0306DD04048404B414D414E424F90
:10597000814202F58B4202F1700218BF1A46A3F170
:10598000D80318BF1D4600F57D50A3F1180300F1A0
:10599000100018BF1E46A3F1D80314BF1F4684464B
:1059A000A3F1D803A0F1400014BF9C468646A3F1A2
:1059B0004003A0F5E26018BF9E4603F5C66318BF1A
:1059C0000346D1F88000D4F83480236420F4F81022
:1059D00040EA0840C1F88000D1F88000C4F844E0F3
:1059E000D4F838E020F0706040EA0E60C1F8800022
:1059F000591C9142C4E912C72665656511D9002179
:105A000043F8041B9342FBD300200123206684F853
:105A10005C30A065BDE8F081184B6268C3F80025D2
:105A200025E7013AD21A92080132520803EBC2026A
:105A300000200021E3E802019A42FBD1E4E70120C3
:105A400070470F4A0F4D104E104FDFF844C0DFF87B
:105A500044E0064BB5E743F020038B6159E700BFF4
:105A60000064004000680040006C004050A7004007
:105A700018AD004000AD004028AC00400060004080
:105A8000A0AA0040C8A90040B0A90040D8A8004082
:105A900000A80040C0A70040704700BF002847D0C2
:105AA00010B590F85C200368022A04462FD19A6949
:105AB00042F001029A619A69D0073BD49A69D107F2
:105AC00038D49A69D20735D49A69D00732D49A6902
:105AD000D1072FD49A69D2072CD49A69D00729D438
:105AE0009A69D10726D49A69D20723D49A69D00734
:105AF00020D49A69D1071DD49A69D2071AD4226E8C
